:100000000C94F1000C940E010C940E010C940E0152
:100010000C940E010C940E010C940E010C940E0124
:100020000C940E010C940E010C943E0A0C94780A68
:100030000C940E010C940E010C940E010C940E0104
:100040000C940E010C940E010C940E010C940E01F4
:100050000C9446010C940E010C940E010C940E01AC
:100060000C940E010C940E010C940E010C940E01D4
:100070000C940E010C940E010C940E010C940E01C4
:100080000C940E010C940E010C940E010C940E01B4
:100090000C940E010C940E010C940E010C940E01A4
:1000A0000C940E010C940E010C940E01E609DE096D
:1000B000D609CE09C609BE09B609AE09A6099E0928
:1000C00096098E0986097E0976096E0966095E0918
:1000D00056094E0946093E0936092E0926091E0908
:1000E00016090E090609FE08F608EE08E608DE08FD
:1000F000D608CE08C608BE08B608AE08A6089E08F0
:1001000096088E0886087E0876086E0866085E08DF
:1001100056084E0846083E0836082E0826081E08CF
:1001200016080E080608FE07F607EE07E6070001A8
:100130000000C5011200020000820143000300001C
:100140007E0104010309046A011202030904620129
:100150000603030904580108080334003100300085
:10016000000006034D003200000012034A002E007A
:1001700020004600690065006E0065000000040371
:10018000090409024300020100C032090400000111
:1001900002020100052400100105240101010424CC
:1001A0000206052406000107058203100040090429
:1001B0000100020A000000070503024000000705D5
:1001C00084024000001201000202000010C0167AF2
:1001D000040001010203010001C112018036018106
:1001E000360011241FBECFEFDAE0DEBFCDBF11E035
:1001F000A0E0B1E0ECEAFFE102C005900D92AC3066
:10020000B107D9F721E0ACE0B1E001C01D92AB33FA
:10021000B207E1F70E94C80C0C94D40F0C940000B4
:10022000E1E6F0E080E88083108285BF85BF0E9410
:10023000920343E068E181E00E943A040E94640571
:10024000E1E8F0E080818F7E808380818860808318
:10025000A0E8B0E08C918D7F8C938C918E7F8C93F5
:10026000AFE6B0E08C9181608C9388EA91E6909340
:1002700089008093880080818B7F80838081826069
:100280008083808181608083789408951F920F928B
:100290000FB60F9211248F9381E080930D018F91FF
:1002A0000F900FBE0F901F901895CF92DF92EF9294
:1002B000FF920F931F93CF93DF93EC018B01FB0110
:1002C0002081318142815381688179818A819B813A
:1002D0000E948A0E20E030E0A9010E94FB0C6B0115
:1002E0007C01F80124813581468157816C817D81B3
:1002F0008E819F810E948A0E9B01AC01C701B601CD
:100300000E94FB0CDF91CF911F910F91FF90EF9016
:10031000DF90CF9008952F923F924F925F926F920D
:100320007F928F929F92AF92BF92CF92DF92EF9285
:10033000FF920F931F93CF93DF93CDB7DEB7E6976E
:100340000FB6F894DEBF0FBECDBF2C01198E1A8EEA
:100350001B8E1C8E80E090E0A0E8BFE38D8F9E8F07
:10036000AF8FB8A3F20180E090E0219131912F3F4F
:10037000334009F4BDC101968B309105B1F75EA2FF
:100380004DA2212C312CC12CD12CE12CF12C612C33
:10039000712C1AA219A2ADA1BEA10D90BC91A02DE5
:1003A000B8ABAFA7EDA1FEA10280F381E02DFAABBF
:1003B000E9AB5AA649A6CBA6DCA6EDA6FEA600E0B0
:1003C00010E0A9A5BAA58D919C916FA578A9681B8D
:1003D000790B80E090E00E94F80D4B015C01E9A5EB
:1003E000FAA58281938169A97AA9681B790B80E0BB
:1003F00090E00E94F80D6B017C01A5019401C501FC
:10040000B4010E948A0E4B015C01A7019601C7014D
:10041000B6010E948A0E9B01AC01C501B4010E9485
:10042000FB0C0E94F10E6B017C012BA53CA54DA598
:100430005EA50E94860E18162CF0CBA4DCA4EDA4B9
:10044000FEA403C038013AA229A20F5F1F4F29A5BD
:100450003AA52A5F3F4F3AA729A70430110529F092
:10046000CBA6DCA6EDA6FEA6ACCF3FEF231A330A3F
:100470008DA19EA106969EA38DA394E0291631041A
:1004800009F089CF80E090E029A13AA18217930773
:1004900019F08615970541F4019684309105A1F76E
:1004A0001AA219A2612C712C16E0169D7001179DDD
:1004B000F00C1124E40CF51CD7016D917C9180E0C7
:1004C00090E00E94F80D4B015C01F701628173819D
:1004D00080E090E00E94F80D6B017C0129A13AA117
:1004E000129F3001139F700C1124640C751CD301F2
:1004F0006D917C9180E090E00E94F80D9B01AC0131
:10050000C501B4010E94FB0C20E030E040E05FE355
:100510000E948A0E69A37AA38BA39CA3F301628134
:10052000738180E090E00E94F80D9B01AC01C7014F
:10053000B6010E94FB0C20E030E040E05FE30E9447
:100540008A0E6DA37EA38FA398A729A13AA14BA1E0
:100550005CA1C501B4010E94FA0C2B013C012DA144
:100560003EA14FA158A5C701B6010E94FA0C6B012C
:100570007C01A3019201C301B2010E948A0E4B01CA
:100580005C01A7019601C701B6010E948A0E9B017A
:10059000AC01C501B4010E94FB0C0E94F10E4B019D
:1005A0005C019B01AC01C301B2010E945F0D2B01F4
:1005B0003C01698B7A8B8B8B9C8BA5019401C701C5
:1005C000B6010E945F0D6D8B7E8B8F8B988FC7015C
:1005D000B6019058A50194010E945F0D69877A8742
:1005E0008B879C874D865E866F86788A29A13AA183
:1005F0004BA15CA160E070E080E094E40E94FA0C02
:1006000069837A838B839C832DA13EA14FA158A53A
:1006100060E070E080E094E40E94FA0C6D837E83D9
:100620008F839887BE01675F7F4FCE0101960E943E
:1006300055019B01AC01BE016F5E7F4FCE0101965B
:100640002BAB3CAB4DAB5EAB0E9455012B013C018B
:10065000BE01675E7F4FCE0109960E9455014B0196
:100660005C01BE01675E7F4FCE0141960E9455013D
:1006700069A37AA38BA39CA3C0900001D090010131
:10068000E0900201F09003012BA93CA94DA95EA9BD
:10069000C701B6010E948A0E6093190170931A0176
:1006A00080931B0190931C01A3019201C701B60125
:1006B0000E948A0E60931D0170931E0180931F019A
:1006C000909320018092110190921201A092130147
:1006D000B092140189A19AA1ABA1BCA1809315018C
:1006E00090931601A0931701B093180181E001C007
:1006F00080E0E6960FB6F894DEBF0FBECDBFDF9167
:10070000CF911F910F91FF90EF90DF90CF90BF900E
:10071000AF909F908F907F906F905F904F903F90A1
:100720002F900895589A599A5A9A8CE08093B8005D
:10073000E9E6F0E080818062808380818F7E808323
:10074000EA9A7894089584E88093BC008091BC0074
:1007500087FFFCCF8091BB00089584E98093BC00A3
:10076000089520E030E08091BC0087FD06C02F5F37
:100770003F4F293E83E03807B1F781E0283E334000
:1007800009F480E008958093BB0084E88093BC0066
:100790000E94B103882321F08091B900887F0895D9
:1007A00080E008951F93CF93DF931F92CDB7DEB7FC
:1007B000182F84EA8093BC0069830E94B103698189
:1007C000811104C094E99093BC0014C0812F880F5C
:1007D000662331F08F5F0E94C303883451F404C054
:1007E0000E94C303803229F484E98093BC0080E036
:1007F00001C081E00F90DF91CF911F910895CF93B9
:10080000DF93C82FD62F60E00E94D203882391F097
:100810008D2F0E94C303882369F084E98093BC0074
:1008200061E08C2F0E94D203882321F0DF91CF91C9
:100830000C94A30380E0DF91CF910895CF93DF93D1
:10084000D62FC42F60E00E94D203811102C080E045
:100850000EC08D2F0E94C3038823C9F38C2F0E94E2
:10086000C3038823A1F384E98093BC0081E0DF9176
:10087000CF910895CF93DF9300D01F92CDB7DEB70D
:100880004B836A8389830E94920394EA9093BC000D
:1008900089816A814B819091BC0097FFFCCF90E5E4
:1008A0009093BB0094E89093BC009091BC0097FF9C
:1008B000FCCF9091B900987F903229F484E980931D
:1008C000BC0080E029C091E09093BB0094E8909335
:1008D000BC009091BC0097FFFCCF8093BB0084E8E4
:1008E0008093BC008091BC0087FFFCCF6093BB006D
:1008F00084E88093BC008091BC0087FFFCCF4093CC
:10090000BB0084E88093BC008091BC0087FFFCCFD3
:1009100084E98093BC0081E00F900F900F90DF91ED
:10092000CF91089524EA2093BC002091BC0027FFBA
:10093000FCCF21E52093BB0024E82093BC0020914C
:10094000BC0027FFFCCF2091B900287F2834A9F0F4
:1009500024EC2093BC002091BC0027FFFCCF209109
:10096000BB0026130AC0FC0120E030E0772767FDBA
:1009700070956150710944EC0EC084E98093BC000D
:1009800080E008955091BC0057FFFCCF5091BB0010
:1009900051932F5F3F4F261737071CF44093BC003D
:1009A000F1CF44E84093BC004091BC0047FFFCCF2E
:1009B0004091BB00FC01E20FF31F408384E9809368
:1009C000BC0081E00895F89494EA9093BC00909163
:1009D000BC0097FFFCCF90E59093BB0094E8909308
:1009E000BC009091BC0097FFFCCF9091B900987F1C
:1009F000903231F484E98093BC00789480E00895CB
:100A000093E09093BB0094E89093BC009091BC005D
:100A100097FFFCCF8093BB0084E88093BC0080915B
:100A2000BC0087FFFCCFFB01552747FD509524E80C
:100A3000CF01861B970B8417950754F481918093FF
:100A4000BB002093BC008091BC0087FFFCCFF0CF9F
:100A500084E98093BC00789481E0089520E030E040
:100A60008091BC0087FD06C02F5F3F4F293E83E089
:100A70003807B1F781E0283E334009F480E008955B
:100A80008093BB0084E88093BC000E942E058823DD
:100A900019F08091B900887F0895CF93C82F84EA18
:100AA0008093BC000E942E05882361F08C2F880F54
:100AB0000E944005803229F484E98093BC0080E0E4
:100AC00001C081E0CF9108950E94920388E50E94C1
:100AD0004D05811102C080E0089580E30E94400529
:100AE0008823C9F381E00E9440058823A1F384E9AB
:100AF0008093BC008FE39CE90197F1F700C00000F0
:100B000088E50E944D05882331F380E00E9440056E
:100B1000882309F380E00E9440058823E1F280E009
:100B20000E9440058823B9F280E00E944005882396
:100B300091F280E00E944005882369F280E00E94E3
:100B40004005882341F280E00E944005882319F285
:100B500080E90E944005882309F4BDCF84E9809391
:100B6000BC008FE39CE90197F1F700C0000088E525
:100B70000E944D05882309F4AECF87E00E9440050E
:100B8000882309F4A8CF80E00E944005882309F457
:100B9000A2CF81E40E944005882309F49CCF84E918
:100BA0008093BC008FE39CE90197F1F700C000003F
:100BB00088E50E944D05882309F48DCF8AE10E94C3
:100BC0004005882309F487CF80E40E9440058823EC
:100BD00009F481CF80E00E944005882309F47BCF8F
:100BE00084E98093BC008FE39CE90197F1F700C092
:100BF000000088E50E944D05882309F46CCF83E34B
:100C00000E944005882309F466CF83E00E944005D6
:100C1000882309F460CF84E98093BC008FE39CE9CA
:100C20000197F1F700C0000088E50E944D05882378
:100C300009F451CF80E30E944005882309F44BCF8B
:100C400088E00E944005882309F445CF84E9809319
:100C5000BC008FE39CE90197F1F700C0000081E040
:100C60000895CF93C82F84EA8093BC000E942E057C
:100C7000882369F08C2F880F8F5F0E94400588348D
:100C800029F484E98093BC0080E001C081E0CF9129
:100C90000895EF92FF920F931F93CF93DF93CDB7F9
:100CA000DEB760970FB6F894DEBF0FBECDBF7C01F4
:100CB0008E010F5F1F4F80E1F80111928A95E9F7CD
:100CC00088E50E944D05811102C080E05EC086E388
:100CD0000E9440058823C9F384E98093BC00F5E8AD
:100CE000FA95F1F7000088E50E943106882369F340
:100CF000F8019E01205F3F4F94EC9093BC008091DF
:100D0000BC0087FFFCCF8091BB008193E217F30703
:100D1000A1F784E88093BC008091BC0087FFFCCFE2
:100D20008091BB00888B84E98093BC00DE0114961F
:100D300087016C91762F7073AD0142505109FA0111
:100D4000808190E0F0E17F9F800D911D1124F801DA
:100D500091838083762F707C4F5F5F4FFA01808193
:100D600090E0F4E07F9F800D911D1124F8019383A2
:100D700082836F70862F90E09583848313960A5F39
:100D80001F4FA217B307A9F681E060960FB6F8943B
:100D9000DEBF0FBECDBFDF91CF911F910F91FF90AE
:100DA000EF90089584E98093BC0008958091E80055
:100DB00080FFFCCF089581E08093D70080EA809384
:100DC000D80082E189BD09B400FEFDCF80E980939F
:100DD000D8001092E00010923A01109237018CE096
:100DE0008093E2007894089580913A0108959FB726
:100DF000F89480913A01882339F083E08093E900E8
:100E00008091E80085FD03C09FBF8FEF089580911A
:100E1000F1002091E80025FD03C02BE62093E800B7
:100E20009FBF08959FB7F89480913A01882331F0CD
:100E300083E08093E9008091F20001C080E09FBFD1
:100E4000089580913A01882371F08FB7F89493E068
:100E50009093E9002BE69091E80095FF03C0209362
:100E6000E800F9CF8FBF089590913A01992371F06E
:100E70009FB7F89424E02093E900209138012223C1
:100E800049F02091E80025FD03C09FBF8FEF089532
:100E9000109238012091E400275E34E04091E80090
:100EA00045FD12C09FBF9091E400921304C081E001
:100EB00080933801EBCF90913A01992339F39FB792
:100EC000F8943093E900EACF8093F1008091E80034
:100ED00085FD03C08AE38093E80085E080933901B3
:100EE0009FBF80E0089590913A019923D1F09FB778
:100EF000F89424E02093E9002091E80025FD02C049
:100F00009FBF0FC08093F1008091E80085FD03C072
:100F10008AE38093E80085E0809339019FBF80E0F9
:100F200008958FEF0895EF92FF921F93CF93DF9371
:100F30007C01CB0120913A01222371F0AFB7F894E4
:100F400024E02093E90020913801222349F02091E8
:100F5000E80025FD03C0AFBF8FEF42C210923801F9
:100F6000B4E0C0E4DAE315E0009709F437C2209159
:100F7000E400275E3091E80035FD12C0AFBF30912C
:100F8000E400321304C081E080933801E5CF309152
:100F90003A01332309F3AFB7F894B093E900EACFED
:100FA0002091F2004C2F421B242F30E08217930730
:100FB00008F4482F841B910950E04134510508F092
:100FC000FDC14A5A5F4FFA010C94680FF701208166
:100FD0002093F10097012F5F3F4F7901F7012081A6
:100FE0002093F10097012F5F3F4F7901F701208196
:100FF0002093F10097012F5F3F4F7901F701208186
:101000002093F10097012F5F3F4F7901F701208175
:101010002093F10097012F5F3F4F7901F701208165
:101020002093F10097012F5F3F4F7901F701208155
:101030002093F10097012F5F3F4F7901F701208145
:101040002093F10097012F5F3F4F7901F701208135
:101050002093F10097012F5F3F4F7901F701208125
:101060002093F10097012F5F3F4F7901F701208115
:101070002093F10097012F5F3F4F7901F701208105
:101080002093F10097012F5F3F4F7901F7012081F5
:101090002093F10097012F5F3F4F7901F7012081E5
:1010A0002093F10097012F5F3F4F7901F7012081D5
:1010B0002093F10097012F5F3F4F7901F7012081C5
:1010C0002093F10097012F5F3F4F7901F7012081B5
:1010D0002093F10097012F5F3F4F7901F7012081A5
:1010E0002093F10097012F5F3F4F7901F701208195
:1010F0002093F10097012F5F3F4F7901F701208185
:101100002093F10097012F5F3F4F7901F701208174
:101110002093F10097012F5F3F4F7901F701208164
:101120002093F10097012F5F3F4F7901F701208154
:101130002093F10097012F5F3F4F7901F701208144
:101140002093F10097012F5F3F4F7901F701208134
:101150002093F10097012F5F3F4F7901F701208124
:101160002093F10097012F5F3F4F7901F701208114
:101170002093F10097012F5F3F4F7901F701208104
:101180002093F10097012F5F3F4F7901F7012081F4
:101190002093F10097012F5F3F4F7901F7012081E4
:1011A0002093F10097012F5F3F4F7901F7012081D4
:1011B0002093F10097012F5F3F4F7901F7012081C4
:1011C0002093F10097012F5F3F4F7901F7012081B4
:1011D0002093F10097012F5F3F4F7901F7012081A4
:1011E0002093F10097012F5F3F4F7901F701208194
:1011F0002093F10097012F5F3F4F7901F701208184
:101200002093F10097012F5F3F4F7901F701208173
:101210002093F10097012F5F3F4F7901F701208163
:101220002093F10097012F5F3F4F7901F701208153
:101230002093F10097012F5F3F4F7901F701208143
:101240002093F10097012F5F3F4F7901F701208133
:101250002093F10097012F5F3F4F7901F701208123
:101260002093F10097012F5F3F4F7901F701208113
:101270002093F10097012F5F3F4F7901F701208103
:101280002093F10097012F5F3F4F7901F7012081F3
:101290002093F10097012F5F3F4F7901F7012081E3
:1012A0002093F10097012F5F3F4F7901F7012081D3
:1012B0002093F10097012F5F3F4F7901F7012081C3
:1012C0002093F10097012F5F3F4F7901F7012081B3
:1012D0002093F10097012F5F3F4F7901F7012081A3
:1012E0002093F10097012F5F3F4F7901F701208193
:1012F0002093F10097012F5F3F4F7901F701208183
:101300002093F10097012F5F3F4F7901F701208172
:101310002093F10097012F5F3F4F7901F701208162
:101320002093F10097012F5F3F4F7901F701208152
:101330002093F10097012F5F3F4F7901F701208142
:101340002093F10097012F5F3F4F7901F701208132
:101350002093F10097012F5F3F4F7901F701208122
:101360002093F10097012F5F3F4F7901F701208112
:101370002093F10097012F5F3F4F7901F701208102
:101380002093F10097012F5F3F4F7901F7012081F2
:101390002093F10097012F5F3F4F7901F7012081E2
:1013A0002093F10097012F5F3F4F7901F7012081D2
:1013B0002093F10097012F5F3F4F7901F7012081C2
:1013C0002093F10097012F5F3F4F79012091E800B2
:1013D00025FFD093E80010933901C6CDAFBF80E060
:1013E000DF91CF911F91FF90EF9008958FB7F89400
:1013F00090913901992341F094E09093E9009AE3A8
:101400009093E800109239018FBF089580910801F0
:10141000089580910901089580910A0108958091AD
:10142000370108959FB7F89420913A01222339F0AB
:1014300022E02093E9003091E80035FD03C09FBF12
:101440008FEF089531EA3093F10030E23093F100EC
:101450001092F1001092F1001092F1001092F10040
:101460002093F1001092F1008093F1001092F100AE
:101470008AE38093E8009FBF80E008951F920F9257
:101480000FB60F9211248F939F938091E1001092D9
:10149000E10083FF11C01092E90091E09093EB000E
:1014A0001092EC0092E19093ED0098E09093F000A0
:1014B00010923A011092370182FF13C080913A01D5
:1014C000882379F080913901882359F081508093E5
:1014D0003901811106C084E08093E9008AE380939A
:1014E000E8009F918F910F900FBE0F901F9018955D
:1014F0001F920F920FB60F921124EF92FF920F934B
:101500001F932F933F934F935F936F937F938F938B
:101510009F93AF93BF93EF93FF93CF93DF931F926C
:10152000CDB7DEB71092E9008091E80083FF14C1C7
:101530009091F1008091F1003091F1002091F10043
:10154000E32EF12CF22A0091F1002091F10010E03D
:10155000122B2091F1006091F10032EF3093E800FE
:10156000863009F046C036E08EE291E0FC014591FC
:1015700054914E155F0539F4FC0132964591549112
:101580004017510721F00796315081F7E5C0FC0163
:10159000349645915491FC013696849130E0362B77
:1015A0002F3F310519F010F02FEF30E0281708F425
:1015B000822F3EEF9091E800292F2570D9F392FDFC
:1015C000CEC0982F813108F090E1FA01292F222313
:1015D00031F064916093F10021503196F8CF490FBA
:1015E000511D891B3093E8008111E4CF903111F334
:1015F000B6C0853051F48EEF8093E8000E94D60685
:101600008E2D80688093E300AAC0893059F591112E
:1016100080C0E0923A0110923701109239018EEFAA
:101620008093E80041E087ED91E04093E9009C0160
:101630002F5F3F4FFC0154915093EB00552359F01D
:10164000F90124912093EC009C012D5F3F4F3196CE
:1016500084918093ED004F5F453011F0C901E5CFD3
:101660008EE175C0883051F4903809F052C00E9464
:10167000D60680913A018093F10047C0813279F417
:10168000913A09F046C00E94D606E4E0F1E081916B
:101690008093F10081E0EB30F807C9F736C0803263
:1016A00099F49132B1F58091E80082FFFCCFE4E03B
:1016B000F1E08091F100819381E0EB30F807C9F708
:1016C0008BEF8093E80021C0823241F4913209F01F
:1016D00043C0E09237010E94D60617C0811119C09D
:1016E00099830E94D6069981923851F40093E900BB
:1016F0008091EB0085FB882780F91092E90001C0FA
:1017000080E08093F1001092F1008EEF8093E8006A
:1017100026C0282F2D7F2130F9F49230E9F4EF28EC
:10172000D9F40F779FEF900F9430B0F49EEF909321
:10173000E8000093E900833079F089E18093EB00C1
:1017400081E090E0002E01C0880F0A94EAF78093B0
:10175000EA001092EA0003C081E28093EB000F9050
:10176000DF91CF91FF91EF91BF91AF919F918F91B9
:101770007F916F915F914F913F912F911F910F91A9
:10178000FF90EF900F900FBE0F901F9018951F9332
:10179000CF93DF93EC01FE011491112351F01A3025
:1017A00019F48DE00E943407812F0E94340721969E
:1017B000F2CFDF91CF911F9108958A3010F490E31A
:1017C00001C097E3890F0C943407CF93C82F8295FB
:1017D0008F700E94DD0B8C2F8F70CF910C94DD0BDE
:1017E000CF93C82F892F0E94E50B8C2FCF910C949B
:1017F000E50B0C94E50BEF92FF920F931F93CF93A1
:10180000DF93CDB7DEB727970FB6F894DEBF0FBED4
:10181000CDBF8E010F5F1F4F27E0F80111922A956F
:10182000E9F74AE0B8010E946E0F7E01F8E0EF0E82
:10183000F11CF80181918F0181110E9434070E156E
:101840001F05B9F727960FB6F894DEBF0FBECDBFC0
:10185000DF91CF911F910F91FF90EF900895EF923C
:10186000FF920F931F93CF93DF9300D000D000D04F
:10187000CDB7DEB78E010F5F1F4F26E0F801119242
:101880002A95E9F74AE0B8010E94AA0F7E01F6E026
:10189000EF0EF11CF80181918F0181110E94340734
:1018A0000E151F05B9F726960FB6F894DEBF0FBECA
:1018B000CDBFDF91CF911F910F91FF90EF900895D1
:1018C000EF92FF920F931F93CF93DF93CDB7DEB7C5
:1018D0002B970FB6F894DEBF0FBECDBF8E010F5F02
:1018E0001F4F2BE0F80111922A95E9F72AE0A80191
:1018F0000E94790F7E01FCE0EF0EF11CF80181914E
:101900008F0181110E9434070E151F05B9F72B9620
:101910000FB6F894DEBF0FBECDBFDF91CF911F9100
:101920000F91FF90EF900895EF92FF920F931F9306
:10193000CF93DF93CDB7DEB72B970FB6F894DEBF0A
:101940000FBECDBF8E010F5F1F4F2BE0F80111922C
:101950002A95E9F72AE0A8010E94880F7E01FBE0A2
:10196000EF0EF11CF80181918F0181110E94340763
:101970000E151F05B9F72B960FB6F894DEBF0FBEF4
:10198000CDBFDF91CF911F910F91FF90EF90089500
:10199000C8E180910D018823E1F381E291E00E948A
:1019A000490681E291E00E948B0180930C0188231B
:1019B00081F3C0930E016091190170911A01809119
:1019C0001B0190911C010E94C70D60930F01609153
:1019D0001D0170911E0180911F01909120010E94B4
:1019E000C70D6093100143E06EE071E08AED0E9444
:1019F000E304CFCF5058BB27AA270ED04DC13ED10C
:101A000030F043D120F031F49F3F11F41EF433C184
:101A10000EF4E095E7FB29C1E92F4FD180F3BA1707
:101A2000620773078407950718F071F49EF567C184
:101A30000EF4E0950B2EBA2FA02D0B01B9019001E9
:101A40000C01CA01A0011124FF27591B99F0593F2D
:101A500050F4503E68F11A16F040A22F232F342F75
:101A60004427585FF3CF469537952795A795F040C3
:101A70005395C9F77EF41F16BA0B620B730B840BD8
:101A8000BAF09150A1F0FF0FBB1F661F771F881F90
:101A9000C2F70EC0BA0F621F731F841F48F48795E8
:101AA00077956795B795F7959E3F08F0B3CF9395D7
:101AB000880F08F09927EE0F9795879508950CD019
:101AC000EBC0E3D040F0DAD030F021F45F3F19F002
:101AD000CCC0511115C1CFC0F0D098F39923C9F3F0
:101AE0005523B1F3951B550BBB27AA276217730724
:101AF000840738F09F5F5F4F220F331F441FAA1FD8
:101B0000A9F333D00E2E3AF0E0E830D09150504097
:101B1000E695001CCAF729D0FE2F27D0660F771F45
:101B2000881FBB1F261737074807AB07B0E809F027
:101B3000BB0B802DBF01FF2793585F4F2AF09E3FBC
:101B4000510568F092C0DCC05F3FECF3983EDCF3D7
:101B5000869577956795B795F7959F5FC9F7880F35
:101B6000911D9695879597F90895E1E0660F771F87
:101B7000881FBB1F621773078407BA0720F0621B18
:101B8000730B840BBA0BEE1F88F7E095089504D011
:101B90006894B111B5C0089598D088F09F5790F01F
:101BA000B92F9927B751A0F0D1F0660F771F881F82
:101BB000991F1AF0BA95C9F712C0B13081F09FD0C1
:101BC000B1E008959CC0672F782F8827B85F39F05F
:101BD000B93FCCF3869577956795B395D9F73EF4E1
:101BE00090958095709561957F4F8F4F9F4F089589
:101BF000E89409C097FB3EF49095809570956195A7
:101C00007F4F8F4F9F4F9923A9F0F92F96E9BB275C
:101C10009395F695879577956795B795F111F8CFD8
:101C2000FAF4BB0F11F460FF1BC06F5F7F4F8F4F43
:101C30009F4F16C0882311F096E911C0772321F039
:101C40009EE8872F762F05C0662371F096E8862FD1
:101C500070E060E02AF09A95660F771F881FDAF728
:101C6000880F9695879597F9089597F99F6780E86B
:101C700070E060E008959FEF80EC089500240A94DE
:101C80001616170618060906089500240A94121657
:101C90001306140605060895092E0394000C11F48A
:101CA000882352F0BB0F40F4BF2B11F460FF04C037
:101CB0006F5F7F4F8F4F9F4F089557FD9058440F90
:101CC000551F59F05F3F71F04795880F97FB991F9B
:101CD00061F09F3F79F08795089512161306140658
:101CE000551FF2CF4695F1DF08C0161617061806E5
:101CF000991FF1CF86957105610508940895E894C0
:101D0000BB2766277727CB0197F90895A8D008F459
:101D10008FEF08950BD0C0CFB1DF28F0B6DF18F0F9
:101D2000952309F0A2CFA7CF1124EACFC6DFA0F3F5
:101D3000959FD1F3950F50E0551F629FF001729F60
:101D4000BB27F00DB11D639FAA27F00DB11DAA1F7F
:101D5000649F6627B00DA11D661F829F2227B00DCC
:101D6000A11D621F739FB00DA11D621F839FA00D57
:101D7000611D221F749F3327A00D611D231F849FA7
:101D8000600D211D822F762F6A2F11249F575040FE
:101D90008AF0E1F088234AF0EE0FFF1FBB1F661F99
:101DA000771F881F91505040A9F79E3F510570F052
:101DB0005CCFA6CF5F3FECF3983EDCF3869577953A
:101DC0006795B795F795E7959F5FC1F7FE2B880F4D
:101DD000911D9695879597F9089511F40EF44BCFC0
:101DE00062C073DFD0F39923D9F3CEF39F57550B1D
:101DF00087FF67D00024A0E640EA900180585695FE
:101E0000979528F4805C660F771F881F20F02617AF
:101E10003707480730F4621B730B840B20293129E4
:101E20004A2BA69517940794202531254A2758F761
:101E3000660F771F881F20F026173707480730F4F2
:101E4000620B730B840B200D311D411DA09581F792
:101E5000B901842F9158880F969587950895990F09
:101E60000008550FAA0BE0E8FEEF16161706E80764
:101E7000F907C0F012161306E407F50798F0621B85
:101E8000730B840B950B39F40A2661F0232B242B5A
:101E9000252B21F408950A2609F4A140A6958FEF79
:101EA000811D811D08959F3F31F0915020F4879549
:101EB00077956795B795880F911D9695879597F9B2
:101EC000089591505040660F771F881FD2F70895EC
:101ED000EE0FFF1F0590F491E02D0994BB274A30C7
:101EE00031F4992322F4BDE2909581959F4F0C9493
:101EF000AB0FBB272A3051F4992342F4BDE29095F1
:101F00008095709561957F4F8F4F9F4F0C94890FEF
:101F1000BB27FA01A62F6217710581059105330BC6
:101F200030FB66F0AA27660F771F881F991FAA1F2C
:101F3000A21710F0A21B63953850A9F7A05DAA3331
:101F400008F0A95DA19336F7B111B1931082CA01CF
:101F50000C94C40FBB27FB015527AA27880F991F94
:101F6000AA1FA41710F0A41B83955051B9F7A05DC8
:101F7000AA3308F0A95DA193009779F7B111B19345
:101F80001192CB010C94C40FDC01FC01672F7191FD
:101F90007723E1F7329704C07C916D93708362914F
:0C1FA000AE17BF07C8F30895F894FFCFF8
:0C1FAC000000204100E1000000000800DF
:00000001FF
