:100000000C9417010C9434010C9434010C943401B9
:100010000C9434010C9434010C9434010C9434018C
:100020000C9434010C9434010C94870B0C94C10B88
:100030000C9434010C9434010C9434010C9434016C
:100040000C9434010C9434010C9434010C9434015C
:100050000C9441040C9434010C9434010C9434013C
:100060000C9434010C9434010C9434010C9434013C
:100070000C9434010C9434010C9434010C9434012C
:100080000C9434010C9434010C9434010C9434011C
:100090000C9434010C9434010C9434010C9434010C
:1000A0000C9434010C9434010C9434012F0B270B65
:1000B0001F0B170B0F0B070BFF0AF70AEF0AE70AD4
:1000C000DF0AD70ACF0AC70ABF0AB70AAF0AA70AC8
:1000D0009F0A970A8F0A870A7F0A770A6F0A670AB8
:1000E0005F0A570A4F0A470A3F0A370A2F0A270AA8
:1000F0001F0A170A0F0A070AFF09F709EF09E7099C
:10010000DF09D709CF09C709BF09B709AF09A7098F
:100110009F0997098F0987097F0977096F0967097F
:100120005F0957094F0947093F0937092F09084A4D
:10013000D73B3BCE016E84BCBFFDC12F3D6C7431FB
:100140009ABD56833DDA3D00C77F11BED9E4BB4C52
:100150003E916BAAAABE000000803F05A84CCDB21C
:10016000D44EB93836A9020C50B9918688083CA6FD
:10017000AAAA2ABE000000803F0000010000110270
:100180001200020000CE014300030000CA01040176
:10019000030904B6011202030904AE0106030309B0
:1001A00004A40108080334003100300000000603F5
:1001B0004D003200000012034A002E0020004600CD
:1001C000690065006E00650000000403090409026F
:1001D0004300020100C032090400000102020100D4
:1001E0000524001001052401010104240206052450
:1001F0000600010705820310004009040100020AFD
:1002000000000007050302400000070584024000CB
:10021000001201000202000010C0167A0400010161
:100220000203010001C11201803601813600112450
:100230001FBECFEFDAE0DEBFCDBF11E0A0E0B1E03E
:10024000E2E5F6E202C005900D92A031B107D9F7C0
:1002500021E0A0E1B1E001C01D92A137B207E1F7B2
:100260000E94110E0C9427130C9400002898299AD0
:1002700091958195910990910201989F802D11246B
:100280008093D00008951816190654F4289A2998D6
:1002900090910201989F802D11248093D0000895A1
:1002A0000C943601209102011816190644F4289F77
:1002B000802D11248093CF002A9A2B980895919530
:1002C00081959109289F802D11248093CF002A9831
:1002D0002B9A0895E1E6F0E080E88083108285BFE4
:1002E00085BF0E94DB040E942408209A219A229A4A
:1002F000239A43E068E182E00E9483050E94AD06F4
:10030000E1E8F0E080818B7F808380818260808360
:10031000808181608083808180618083808188602A
:100320008083E0E8F0E0808182608083808181606A
:100330008083EFE6F0E080818160808384EC99E047
:10034000909389008093880078941092CF00109247
:10035000D00088EC8093D1003F9A269AE1ECF0E03F
:1003600080818860808380818B7F808380818260B0
:10037000808380818E7F8083E3ECF0E080818D7FBD
:10038000808380818E7F8083E0ECF0E080818260DA
:10039000808380818068808380818F7B808380815F
:1003A0008160808380818062808380818F7E808372
:1003B00008952F923F924F925F926F927F928F9209
:1003C0009F92AF92BF92CF92DF92EF92FF920F93E4
:1003D0001F93CF93DF93CDB7DEB7EE970FB6F894A8
:1003E000DEBF0FBECDBFDE01119624E2FD011192EA
:1003F0002A95E9F76E9A76986A9A729861E070E0A9
:1004000020E030E040E050E0FC01008111810F3F2E
:10041000F3E01F07E1F0F901E41BF50BEE0FFF1FFE
:10042000EE0FFF1FE05DFE4F11830083FC01028190
:100430001381FA01EE0FFF1F7B01EE1AFF0AF7018D
:10044000EE0FFF1FE05DFE4F1183008302C04F5F80
:100450005F4F2F5F3F4F06966E5F7F4F2430310511
:1004600099F6BAA7A9A720E331E03EA32DA3412C1A
:10047000512C1EAA1DAA00E010E0212C312CADA1A8
:10048000BEA16D917C9180E090E00E94CC106FAB9A
:1004900078AF89AF9AAFEDA1FEA16281738180E050
:1004A00090E00E94CC106BAF7CAF8DAF9EAF20E38D
:1004B00031E03EA72DA71AAA19AA612C712CADA56F
:1004C000BEA56D917C9180E090E00E94CC109B01D4
:1004D000AC016FA978AD89AD9AAD0E94650F4B0153
:1004E0005C01EDA5FEA56281738180E090E00E9431
:1004F000CC109B01AC016BAD7CAD8DAD9EAD0E946F
:10050000650F6B017C01A5019401C501B4010E9436
:10051000E7114B015C01A7019601C701B6010E94DA
:10052000E7119B01AC01C501B4010E94660F0E9456
:1005300054126B017C01E9A5FAA529A93AA9E20F99
:10054000F31F60837183828393834DA95EA9BA01EF
:10055000882777FD8095982F0E94CE109B01AC01D3
:10056000C701B6010E94DC11181644F4C701B60198
:100570000E949B107EAB6DAB830112015FEF651A89
:10058000750A8DA59EA504969EA78DA7A9A9BAA9AF
:100590001496BAABA9ABB3E06B16710409F08FCF18
:1005A000EFEF4E1A5E0A2DA13EA12C5F3F4F3EA3F6
:1005B0002DA349A55AA5445F5F4F5AA749A753E009
:1005C0004516510409F05BCF80E090E08215930559
:1005D00099F18017910781F1F101EE0FFF1FE20DF4
:1005E000F31DE80FF91FEE0FFF1FEE0FFF1F41E095
:1005F00050E04C0F5D1FE40FF51FD801AA0FBB1F81
:10060000A00FB11FA80FB91FAA0FBB1FAA0FBB1FB6
:10061000A40FB51F2D913D914D915C916081718129
:10062000828193810E942C1087FF0EC0902F812F12
:100630008101292E382E08C001968330910531F6AC
:10064000212C312C00E010E07801EE0CFF1CE00EB4
:10065000F11EF701EE0FFF1FE05DFE4F608171811B
:1006600080E090E00E94CC104B015C01F701EE0F9E
:10067000FF1FEE5CFE4F6081718180E090E00E9480
:10068000CC106B017C018101000F111F020D131DA5
:10069000F801EE0FFF1FE05DFE4F6081718180E089
:1006A00090E00E94CC102B013C01F801EE0FFF1FDF
:1006B000EE5CFE4F6081718180E090E00E94CC1082
:1006C00069A77AA78BA79CA79B01AC01C701B601BC
:1006D0000E94650F6DA37EA38FA398A7A30192012B
:1006E000C501B4010E94650F2DA13EA14FA158A5DF
:1006F0000E94D90F9B01AC0150582DA33EA34FA3DC
:1007000058A7CA01B9010E9430106DA77EA78FA714
:1007100098ABA3019201C501B4010E94660F20E0CD
:1007200030E040E05FE30E94E71120E030E040E08D
:1007300054E40E94650F2B013C016DA17EA18FA1A5
:1007400098A50E944A124B015C0129A53AA54BA528
:100750005CA5C701B6010E94660F20E030E040E0D2
:100760005FE30E94E71120E030E040EC53E40E9498
:10077000650F69AB7AAB8BAB9CAB80910401909118
:100780000501A0910601B091070189A79AA7ABA71F
:10079000BCA76DA57EA58FA598A99058A30192012D
:1007A0000E94E7116B017C0129A93AA94BA95CA918
:1007B000C501B4010E94E7119B01AC01C701B6015C
:1007C0000E94650F9B01AC01505869A57AA58BA5C5
:1007D0009CA50E94E71160932801709329018093E2
:1007E0002A0190932B01A3019201C501B4010E943B
:1007F000E7116B017C0129A93AA94BA95CA96DA558
:100800007EA58FA598A90E94E7119B01AC01C701A5
:10081000B6010E94650F9B01AC0169A57AA58BA565
:100820009CA50E94E71160932C0170932D01809389
:100830002E0190932F012DA13EA14FA158A52093E9
:10084000240130932501409326015093270181E034
:10085000EE960FB6F894DEBF0FBECDBFDF91CF91FD
:100860001F910F91FF90EF90DF90CF90BF90AF90CE
:100870009F908F907F906F905F904F903F902F90C0
:1008800008951F920F920FB60F9211242F933F934A
:100890004F935F936F937F938F939F93AF93BF9388
:1008A000EF93FF9388E491E00E94920788E491E03F
:1008B0000E94D901809322018823B1F1609128011F
:1008C0007091290180912A0190912B010E949B1027
:1008D0006093600160912C0170912D0180912E0137
:1008E00090912F010E949B106093610120E030E005
:1008F0004EEF52E460912401709125018091260110
:10090000909127010E94E7112AE939E949EC50E466
:100910000E9433100E949B106093620143E060E6E6
:1009200071E088E10E942C06FF91EF91BF91AF9199
:100930009F918F917F916F915F914F913F912F91F7
:100940000F900FBE0F901F901895CF92DF92EF92ED
:10095000FF920F931F93CF93DF93EC018B01FB0169
:100960002081318142815381688179818A819B8193
:100970000E94E71120E030E0A9010E94660F6B01A0
:100980007C01F80124813581468157816C817D810C
:100990008E819F810E94E7119B01AC01C701B601C6
:1009A0000E94660FDF91CF911F910F91FF90EF9002
:1009B000DF90CF900895589A599A5A9A8CE0809374
:1009C000B800E9E6F0E080818062808380818F7EDC
:1009D0008083EA9A7894089584E88093BC0080919B
:1009E000BC0087FFFCCF8091BB00089584E9809311
:1009F000BC00089520E030E08091BC0087FD06C077
:100A00002F5F3F4F293E83E03807B1F781E0283E52
:100A1000334009F480E008958093BB0084E880931C
:100A2000BC000E94FA04882321F08091B900887FDD
:100A3000089580E008951F93CF93DF931F92CDB761
:100A4000DEB7182F84EA8093BC0069830E94FA0401
:100A50006981811104C094E99093BC0014C0812F76
:100A6000880F662331F08F5F0E940C05883451F4A3
:100A700004C00E940C05803229F484E98093BC00F4
:100A800080E001C081E00F90DF91CF911F91089528
:100A9000CF93DF93C82FD62F60E00E941B058823D9
:100AA00091F08D2F0E940C05882369F084E98093D2
:100AB000BC0061E08C2F0E941B05882321F0DF9190
:100AC000CF910C94EC0480E0DF91CF910895CF9307
:100AD000DF93D62FC42F60E00E941B05811102C056
:100AE00080E00EC08D2F0E940C058823C9F38C2F47
:100AF0000E940C058823A1F384E98093BC0081E067
:100B0000DF91CF910895CF93DF9300D01F92CDB79F
:100B1000DEB74B836A8389830E94DB0494EA909357
:100B2000BC0089816A814B819091BC0097FFFCCF0A
:100B300090E59093BB0094E89093BC009091BC002A
:100B400097FFFCCF9091B900987F903229F484E907
:100B50008093BC0080E029C091E09093BB0094E8B2
:100B60009093BC009091BC0097FFFCCF8093BB009A
:100B700084E88093BC008091BC0087FFFCCF609329
:100B8000BB0084E88093BC008091BC0087FFFCCF51
:100B90004093BB0084E88093BC008091BC0087FF39
:100BA000FCCF84E98093BC0081E00F900F900F9000
:100BB000DF91CF91089524EA2093BC002091BC00DE
:100BC00027FFFCCF21E52093BB0024E82093BC0045
:100BD0002091BC0027FFFCCF2091B900287F28344A
:100BE000A9F024EC2093BC002091BC0027FFFCCF8F
:100BF0002091BB0026130AC0FC0120E030E07727DB
:100C000067FD70956150710944EC0EC084E98093D2
:100C1000BC0080E008955091BC0057FFFCCF50917C
:100C2000BB0051932F5F3F4F261737071CF44093AB
:100C3000BC00F1CF44E84093BC004091BC0047FFAA
:100C4000FCCF4091BB00FC01E20FF31F408384E91D
:100C50008093BC0081E00895F89494EA9093BC00DE
:100C60009091BC0097FFFCCF90E59093BB0094E877
:100C70009093BC009091BC0097FFFCCF9091B9007D
:100C8000987F903231F484E98093BC00789480E0BE
:100C9000089593E09093BB0094E89093BC009091EA
:100CA000BC0097FFFCCF8093BB0084E88093BC001E
:100CB0008091BC0087FFFCCFFB01552747FD509575
:100CC00024E8CF01861B970B8417950754F4819174
:100CD0008093BB002093BC008091BC0087FFFCCFB9
:100CE000F0CF84E98093BC00789481E0089520E0FF
:100CF00030E08091BC0087FD06C02F5F3F4F293E4A
:100D000083E03807B1F781E0283E334009F480E002
:100D100008958093BB0084E88093BC000E9477060E
:100D2000882319F08091B900887F0895CF93C82F48
:100D300084EA8093BC000E947706882361F08C2FA0
:100D4000880F0E948906803229F484E98093BC00D0
:100D500080E001C081E0CF9108950E94DB0488E526
:100D60000E949606811102C080E0089580E30E94EF
:100D700089068823C9F381E00E9489068823A1F3AC
:100D800084E98093BC008FE39CE90197F1F700C0F0
:100D9000000088E50E949606882331F380E00E94D7
:100DA0008906882309F380E00E9489068823E1F2FE
:100DB00080E00E9489068823B9F280E00E948906BB
:100DC000882391F280E00E948906882369F280E0FE
:100DD0000E948906882341F280E00E9489068823C8
:100DE00019F280E90E948906882309F4BDCF84E9BD
:100DF0008093BC008FE39CE90197F1F700C00000ED
:100E000088E50E949606882309F4AECF87E00E9409
:100E10008906882309F4A8CF80E00E9489068823E8
:100E200009F4A2CF81E40E948906882309F49CCFAB
:100E300084E98093BC008FE39CE90197F1F700C03F
:100E4000000088E50E949606882309F48DCF8AE188
:100E50000E948906882309F487CF80E40E948906CE
:100E6000882309F481CF80E00E948906882309F451
:100E70007BCF84E98093BC008FE39CE90197F1F775
:100E800000C0000088E50E949606882309F46CCF14
:100E900083E30E948906882309F466CF83E00E94D9
:100EA0008906882309F460CF84E98093BC008FE32E
:100EB0009CE90197F1F700C0000088E50E949606C2
:100EC000882309F451CF80E30E948906882309F41E
:100ED0004BCF88E00E948906882309F445CF84E936
:100EE0008093BC008FE39CE90197F1F700C00000FC
:100EF00081E00895CF93C82F84EA8093BC000E94BC
:100F00007706882369F08C2F880F8F5F0E948906EF
:100F1000883429F484E98093BC0080E001C081E03A
:100F2000CF910895EF92FF920F931F93CF93DF938A
:100F3000CDB7DEB760970FB6F894DEBF0FBECDBF5A
:100F40007C018E010F5F1F4F80E1F80111928A959D
:100F5000E9F788E50E949606811102C080E05EC034
:100F600086E30E9489068823C9F384E98093BC0044
:100F7000F5E8FA95F1F7000088E50E947A078823E2
:100F800069F3F8019E01205F3F4F94EC9093BC0001
:100F90008091BC0087FFFCCF8091BB008193E2175A
:100FA000F307A1F784E88093BC008091BC0087FF21
:100FB000FCCF8091BB00888B84E98093BC00DE016C
:100FC000149687016C91762F7073AD0142505109D0
:100FD000FA01808190E0F0E17F9F800D911D112446
:100FE000F80191838083762F707C4F5F5F4FFA0109
:100FF000808190E0F4E07F9F800D911D1124F80125
:10100000938382836F70862F90E0958384831396F9
:101010000A5F1F4FA217B307A9F681E060960FB6CB
:10102000F894DEBF0FBECDBFDF91CF911F910F911E
:10103000FF90EF90089584E98093BC00089580911B
:10104000E80080FFFCCF089581E08093D70080EA1C
:101050008093D80082E189BD09B400FEFDCF80E90C
:101060008093D8001092E0001092700110926D01F0
:101070008CE08093E2007894089580917001089547
:101080009FB7F89480917001882339F083E08093B2
:10109000E9008091E80085FD03C09FBF8FEF0895B0
:1010A0008091F1002091E80025FD03C02BE62093FC
:1010B000E8009FBF08959FB7F8948091700188233E
:1010C00031F083E08093E9008091F20001C080E07C
:1010D0009FBF089580917001882371F08FB7F894B5
:1010E00093E09093E9002BE69091E80095FF03C010
:1010F0002093E800F9CF8FBF089590917001992354
:1011000071F09FB7F89424E02093E90020916E01DC
:10111000222349F02091E80025FD03C09FBF8FEFF7
:10112000089510926E012091E400275E34E0409112
:10113000E80045FD12C09FBF9091E400921304C0E7
:1011400081E080936E01EBCF90917001992339F388
:101150009FB7F8943093E900EACF8093F100809133
:10116000E80085FD03C08AE38093E80085E0809372
:101170006F019FBF80E00895909170019923D1F095
:101180009FB7F89424E02093E9002091E80025FD22
:1011900002C09FBF0FC08093F1008091E80085FDE1
:1011A00003C08AE38093E80085E080936F019FBFCE
:1011B00080E008958FEF0895EF92FF921F93CF93F1
:1011C000DF937C01CB0120917001222371F0AFB736
:1011D000F89424E02093E90020916E01222349F045
:1011E0002091E80025FD03C0AFBF8FEF42C21092EF
:1011F0006E01B4E0C0E4DAE315E0009709F437C209
:101200002091E400275E3091E80035FD12C0AFBFA9
:101210003091E400321304C081E080936E01E5CF89
:1012200030917001332309F3AFB7F894B093E9001C
:10123000EACF2091F2004C2F421B242F30E082177E
:10124000930708F4482F841B910950E0413451055D
:1012500008F0FDC14A5A5F4FFA010C94BB12F70126
:1012600020812093F10097012F5F3F4F7901F70113
:1012700020812093F10097012F5F3F4F7901F70103
:1012800020812093F10097012F5F3F4F7901F701F3
:1012900020812093F10097012F5F3F4F7901F701E3
:1012A00020812093F10097012F5F3F4F7901F701D3
:1012B00020812093F10097012F5F3F4F7901F701C3
:1012C00020812093F10097012F5F3F4F7901F701B3
:1012D00020812093F10097012F5F3F4F7901F701A3
:1012E00020812093F10097012F5F3F4F7901F70193
:1012F00020812093F10097012F5F3F4F7901F70183
:1013000020812093F10097012F5F3F4F7901F70172
:1013100020812093F10097012F5F3F4F7901F70162
:1013200020812093F10097012F5F3F4F7901F70152
:1013300020812093F10097012F5F3F4F7901F70142
:1013400020812093F10097012F5F3F4F7901F70132
:1013500020812093F10097012F5F3F4F7901F70122
:1013600020812093F10097012F5F3F4F7901F70112
:1013700020812093F10097012F5F3F4F7901F70102
:1013800020812093F10097012F5F3F4F7901F701F2
:1013900020812093F10097012F5F3F4F7901F701E2
:1013A00020812093F10097012F5F3F4F7901F701D2
:1013B00020812093F10097012F5F3F4F7901F701C2
:1013C00020812093F10097012F5F3F4F7901F701B2
:1013D00020812093F10097012F5F3F4F7901F701A2
:1013E00020812093F10097012F5F3F4F7901F70192
:1013F00020812093F10097012F5F3F4F7901F70182
:1014000020812093F10097012F5F3F4F7901F70171
:1014100020812093F10097012F5F3F4F7901F70161
:1014200020812093F10097012F5F3F4F7901F70151
:1014300020812093F10097012F5F3F4F7901F70141
:1014400020812093F10097012F5F3F4F7901F70131
:1014500020812093F10097012F5F3F4F7901F70121
:1014600020812093F10097012F5F3F4F7901F70111
:1014700020812093F10097012F5F3F4F7901F70101
:1014800020812093F10097012F5F3F4F7901F701F1
:1014900020812093F10097012F5F3F4F7901F701E1
:1014A00020812093F10097012F5F3F4F7901F701D1
:1014B00020812093F10097012F5F3F4F7901F701C1
:1014C00020812093F10097012F5F3F4F7901F701B1
:1014D00020812093F10097012F5F3F4F7901F701A1
:1014E00020812093F10097012F5F3F4F7901F70191
:1014F00020812093F10097012F5F3F4F7901F70181
:1015000020812093F10097012F5F3F4F7901F70170
:1015100020812093F10097012F5F3F4F7901F70160
:1015200020812093F10097012F5F3F4F7901F70150
:1015300020812093F10097012F5F3F4F7901F70140
:1015400020812093F10097012F5F3F4F7901F70130
:1015500020812093F10097012F5F3F4F7901F70120
:1015600020812093F10097012F5F3F4F7901F70110
:1015700020812093F10097012F5F3F4F7901F70100
:1015800020812093F10097012F5F3F4F7901F701F0
:1015900020812093F10097012F5F3F4F7901F701E0
:1015A00020812093F10097012F5F3F4F7901F701D0
:1015B00020812093F10097012F5F3F4F7901F701C0
:1015C00020812093F10097012F5F3F4F7901F701B0
:1015D00020812093F10097012F5F3F4F7901F701A0
:1015E00020812093F10097012F5F3F4F7901F70190
:1015F00020812093F10097012F5F3F4F7901F70180
:1016000020812093F10097012F5F3F4F7901F7016F
:1016100020812093F10097012F5F3F4F7901F7015F
:1016200020812093F10097012F5F3F4F7901F7014F
:1016300020812093F10097012F5F3F4F7901F7013F
:1016400020812093F10097012F5F3F4F7901F7012F
:1016500020812093F10097012F5F3F4F7901209166
:10166000E80025FFD093E80010936F01C6CDAFBF0F
:1016700080E0DF91CF911F91FF90EF9008958FB799
:10168000F89490916F01992341F094E09093E900D0
:101690009AE39093E80010926F018FBF08958091B4
:1016A0000C01089580910D01089580910E01089517
:1016B00080916D0108959FB7F894209170012223C5
:1016C00039F022E02093E9003091E80035FD03C0B5
:1016D0009FBF8FEF089531EA3093F10030E23093ED
:1016E000F1001092F1001092F1001092F1001092AE
:1016F000F1002093F1001092F1008093F10010921C
:10170000F1008AE38093E8009FBF80E008951F9274
:101710000F920FB60F9211248F939F938091E10047
:101720001092E10083FF11C01092E90091E09093C4
:10173000EB001092EC0092E19093ED0098E0909312
:10174000F0001092700110926D0182FF13C0809121
:101750007001882379F080916F01882359F08150BE
:1017600080936F01811106C084E08093E9008AE3D1
:101770008093E8009F918F910F900FBE0F901F9064
:1017800018951F920F920FB60F921124EF92FF92AD
:101790000F931F932F933F934F935F936F937F9379
:1017A0008F939F93AF93BF93EF93FF93CF93DF9369
:1017B0001F92CDB7DEB71092E9008091E80083FF59
:1017C00014C19091F1008091F1003091F1002091CD
:1017D000F100E32EF12CF22A0091F1002091F100AA
:1017E00010E0122B2091F1006091F10032EF309364
:1017F000E800863009F046C036E08AE791E0FC0157
:10180000459154914E155F0539F4FC01329645918E
:1018100054914017510721F00796315081F7E5C0E8
:10182000FC01349645915491FC013696849130E048
:10183000362B2F3F310519F010F02FEF30E028172D
:1018400008F4822F3EEF9091E800292F2570D9F3FC
:1018500092FDCEC0982F813108F090E1FA01292F36
:10186000222331F064916093F10021503196F8CF3A
:10187000490F511D891B3093E8008111E4CF90314D
:1018800011F3B6C0853051F48EEF8093E8000E94CA
:101890001F088E2D80688093E300AAC0893059F517
:1018A000911180C0E092700110926D0110926F0151
:1018B0008EEF8093E80041E083E292E04093E900FC
:1018C0009C012F5F3F4FFC0154915093EB00552337
:1018D00059F0F90124912093EC009C012D5F3F4FBA
:1018E000319684918093ED004F5F453011F0C9012E
:1018F000E5CF8EE175C0883051F4903809F052C0C0
:101900000E941F08809170018093F10047C08132CE
:1019100079F4913A09F046C00E941F08E8E0F1E02E
:1019200081918093F10081E0EF30F807C9F736C06C
:10193000803299F49132B1F58091E80082FFFCCFBA
:10194000E8E0F1E08091F100819381E0EF30F80769
:10195000C9F78BEF8093E80021C0823241F49132C5
:1019600009F043C0E0926D010E941F0817C0811169
:1019700019C099830E941F089981923851F40093ED
:10198000E9008091EB0085FB882780F91092E9003F
:1019900001C080E08093F1001092F1008EEF8093FF
:1019A000E80026C0282F2D7F2130F9F49230E9F489
:1019B000EF28D9F40F779FEF900F9430B0F49EEF9B
:1019C0009093E8000093E900833079F089E18093F7
:1019D000EB0081E090E0002E01C0880F0A94EAF746
:1019E0008093EA001092EA0003C081E28093EB004A
:1019F0000F90DF91CF91FF91EF91BF91AF919F91A8
:101A00008F917F916F915F914F913F912F911F9196
:101A10000F91FF90EF900F900FBE0F901F901895B1
:101A20001F93CF93DF93EC01FE011491112351F02A
:101A30001A3019F48DE00E947D08812F0E947D08E4
:101A40002196F2CFDF91CF911F9108958A3010F443
:101A500090E301C097E3890F0C947D08CF93C82FC2
:101A600082958F700E94260D8C2F8F70CF910C94D1
:101A7000260DCF93C82F892F0E942E0D8C2FCF912A
:101A80000C942E0D0C942E0DEF92FF920F931F933A
:101A9000CF93DF93CDB7DEB727970FB6F894DEBFAD
:101AA0000FBECDBF8E010F5F1F4F27E0F8011192CF
:101AB0002A95E9F74AE0B8010E94C1127E01F8E0D8
:101AC000EF0EF11CF80181918F0181110E947D08B8
:101AD0000E151F05B9F727960FB6F894DEBF0FBE97
:101AE000CDBFDF91CF911F910F91FF90EF9008959F
:101AF000EF92FF920F931F93CF93DF9300D000D00C
:101B000000D0CDB7DEB78E010F5F1F4F26E0F80182
:101B100011922A95E9F74AE0B8010E94FD127E0170
:101B2000F6E0EF0EF11CF80181918F0181110E9406
:101B30007D080E151F05B9F726960FB6F894DEBF7F
:101B40000FBECDBFDF91CF911F910F91FF90EF900E
:101B50000895EF92FF920F931F93CF93DF93CDB72A
:101B6000DEB72B970FB6F894DEBF0FBECDBF8E0148
:101B70000F5F1F4F2BE0F80111922A95E9F72AE039
:101B8000A8010E94CC127E01FCE0EF0EF11CF801CE
:101B900081918F0181110E947D080E151F05B9F7F3
:101BA0002B960FB6F894DEBF0FBECDBFDF91CF915D
:101BB0001F910F91FF90EF900895EF92FF920F9376
:101BC0001F93CF93DF93CDB7DEB72B970FB6F89463
:101BD000DEBF0FBECDBF8E010F5F1F4F2BE0F801A0
:101BE00011922A95E9F72AE0A8010E94DB127E01F2
:101BF000FBE0EF0EF11CF80181918F0181110E9431
:101C00007D080E151F05B9F72B960FB6F894DEBFA9
:101C10000FBECDBFDF91CF911F910F91FF90EF903D
:101C200008950E946A0122242394312CC2E3D0E05B
:101C30000EEC1FEF412C512C98EC692E92E4792E7A
:101C400080910001909101018130910519F0029776
:101C500089F036C12FEF85EA9EE021508040904008
:101C6000E1F700C00000A2E0B0E0B0930101A09352
:101C70000001E6CFBFEF22E587E0B1502040804071
:101C8000E1F700C0000080911201909113018A30A9
:101C90009105ECF50196909313018093120120E0D9
:101CA00030E0A901609128017091290180912A01F9
:101CB00090912B010E942C1087FF11C010921E01E1
:101CC00010921F01109220011092210140921601E2
:101CD00050921701609218017092190118C083EC9C
:101CE00095EFA8E4B0E480931E0190931F01A093A8
:101CF0002001B093210180E090E0A8ECB2EC809349
:101D0000160190931701A0931801B09319019FEF4A
:101D1000A1EEB4E09150A040B040E1F700C0000057
:101D2000209116013091170140911801509119012D
:101D3000609128017091290180912A0190912B01D5
:101D40000E942C1087FFBCC020E030E040E850E447
:101D500060911E0170911F018091200190912101DD
:101D60000E94660F9B01AC016091240170912501D6
:101D700080912601909127010E94DC111816A4F48D
:101D8000D0931D01C0931C0110931B0100931A01F5
:101D900082E390E00E94430180911A0190911B011F
:101DA0000E9452016A9A72982FEF80E792E02150C8
:101DB00080409040E1F700C0000020E030E040E8C3
:101DC00050E460911E0170911F018091200190915B
:101DD00021010E94650F9B01AC016091240170916B
:101DE000250180912601909127010E942C1087FFE8
:101DF00014C010931D0100931C01D0931B01C093CC
:101E00001A018EEC9FEF0E94360180911A01909189
:101E10001B010E9452016A9A729AAFEFB0E722E06A
:101E2000A150B0402040E1F700C0000080901E01AA
:101E300090901F01A0902001B0902101C09024013A
:101E4000D0902501E0902601F090270120E030E0BD
:101E500040E850E4C501B4010E94660F9B01AC014B
:101E6000C701B6010E942C1087FF20C020E030E09F
:101E700040E850E4C501B4010E94650FA701960136
:101E80000E942C1087FF12C0D0931D01C0931C012B
:101E9000D0931B01C0931A0182E390E00E9443019A
:101EA00080911A0190911B010E9452018FEF90E7DF
:101EB000A2E081509040A040E1F700C00000C0CEF9
:101EC0003092010120920001BBCE5058BB27AA27B7
:101ED0000ED027C2F0D130F0F5D120F031F49F3F81
:101EE00011F41EF4C0C10EF4E095E7FBB6C1E92F72
:101EF0003AD280F3BA17620773078407950718F080
:101F000071F49EF552C20EF4E0950B2EBA2FA02D5F
:101F10000B01B90190010C01CA01A0011124FF2796
:101F2000591B99F0593F50F4503E68F11A16F04091
:101F3000A22F232F342F4427585FF3CF4695379590
:101F40002795A795F0405395C9F77EF41F16BA0B55
:101F5000620B730B840BBAF09150A1F0FF0FBB1F03
:101F6000661F771F881FC2F70EC0BA0F621F731F4C
:101F7000841F48F4879577956795B795F7959E3FA9
:101F800008F0B3CF9395880F08F09927EE0F979537
:101F90008795089590D158F080E891E009F49EEF7C
:101FA00091D128F040E851E059F45EEF09C05BC1DF
:101FB000FCC1E92FE078D7D168F3092E052AC1F3D7
:101FC000261737074807590738F00E2E07F8E0257F
:101FD00069F0E025E0640AC0EF6307F8009407FAAF
:101FE000DB01B9019D01DC01CA01AD01EF934AD0CB
:101FF00098D10AD05F91552331F02BED3FE049E4B1
:1020000050FD49EC63CF0895DF93DD27B92FBF77EB
:1020100040E85FE31616170648075B0710F4D92F50
:10202000CFD19F938F937F936F937CD2EEE2F1E0B9
:102030001DD177D12F913F914F915F91D4D1DD2365
:1020400049F09058A2EA2AED3FE049EC5FE3D078EE
:102050005D274DDFDF9165C1DCD008F481E0089594
:1020600039D1E3956FC10CD05CC12CD140F023D1A4
:1020700030F021F45F3F19F0F0C0511197C1F3C067
:1020800072D198F39923C9F35523B1F3951B550BDE
:10209000BB27AA2762177307840738F09F5F5F4F3B
:1020A000220F331F441FAA1FA9F333D00E2E3AF07C
:1020B000E0E830D091505040E695001CCAF729D096
:1020C000FE2F27D0660F771F881FBB1F26173707E5
:1020D0004807AB07B0E809F0BB0B802DBF01FF2715
:1020E00093585F4F2AF09E3F510568F0B6C05EC11D
:1020F0005F3FECF3983EDCF3869577956795B7954F
:10210000F7959F5FC9F7880F911D9695879597F969
:102110000895E1E0660F771F881FBB1F62177307E2
:102120008407BA0720F0621B730B840BBA0BEE1FF7
:1021300088F7E095089504D06894B11137C10895E7
:102140001AD188F09F5790F0B92F9927B751A0F076
:10215000D1F0660F771F881F991F1AF0BA95C9F73B
:1021600012C0B13081F021D1B1E008951EC1672FB6
:10217000782F8827B85F39F0B93FCCF386957795EB
:102180006795B395D9F73EF49095809570956195D4
:102190007F4F8F4F9F4F0895E89409C097FB3EF4FF
:1021A00090958095709561957F4F8F4F9F4F9923A4
:1021B000A9F0F92F96E9BB279395F6958795779522
:1021C0006795B795F111F8CFFAF4BB0F11F460FFE2
:1021D0001BC06F5F7F4F8F4F9F4F16C0882311F03A
:1021E00096E911C0772321F09EE8872F762F05C04E
:1021F000662371F096E8862F70E060E02AF09A95E9
:10220000660F771F881FDAF7880F9695879597F9DD
:102210000895990F0008550FAA0BE0E8FEEF161677
:102220001706E807F907C0F012161306E407F507CA
:1022300098F0621B730B840B950B39F40A2661F03E
:10224000232B242B252B21F408950A2609F4A140E1
:10225000A6958FEF811D811D089597F99F6780E8EE
:1022600070E060E008959FEF80EC0895DF93CF93D6
:102270001F930F93FF92EF92DF927B018C01689482
:1022800005C0DA2EEF01AFD0FE01E894A5912591AB
:10229000359145915591AEF3EF0129DEFE0197018D
:1022A000A801DA9479F7DF90EF90FF900F911F91DA
:1022B000CF91DF91089500240A9416161706180688
:1022C0000906089500240A9412161306140605063A
:1022D0000895C9CF50D0E8F3E894E0E0BB279F57BA
:1022E000F0F02AED3FE049EC06C0EE0FBB0F661F91
:1022F000771F881F28F0B23A62077307840728F017
:10230000B25A620B730B840BE3959A9572F780387F
:1023100030F49A95BB0F661F771F881FD2F790483D
:1023200006C1092E0394000C11F4882352F0BB0F50
:1023300040F4BF2B11F460FF04C06F5F7F4F8F4FDD
:102340009F4F0895EF93E0FF06C0A2EA2AED3FE019
:1023500049EC5FEBCCDDE5DF0F90039401FC905876
:10236000EBE5F1E0F7C057FD9058440F551F59F0C9
:102370005F3F71F04795880F97FB991F61F09F3F72
:1023800079F087950895121613061406551FF2CF9B
:102390004695F1DF08C0161617061806991FF1CFEB
:1023A00086957105610508940895E894BB27662712
:1023B0007727CB0197F908952CDF08F48FEF089564
:1023C0009B01AC0160E070E080E89FE34CCE0BD055
:1023D000A8CF71DF28F076DF18F0952309F03DCF04
:1023E00042CF1124E3CFBFDFA0F3959FD1F3950F28
:1023F00050E0551F629FF001729FBB27F00DB11D89
:10240000639FAA27F00DB11DAA1F649F6627B00D18
:10241000A11D661F829F2227B00DA11D621F739F01
:10242000B00DA11D621F839FA00D611D221F749F0F
:102430003327A00D611D231F849F600D211D822F56
:10244000762F6A2F11249F5750408AF0E1F088239D
:102450004AF0EE0FFF1FBB1F661F771F881F9150AA
:102460005040A9F79E3F510570F0F7CE9FCF5F3FD8
:10247000ECF3983EDCF3869577956795B795F795DD
:10248000E7959F5FC1F7FE2B880F911D9695879565
:1024900097F908959F931EDF0F9007FCEE5F52CFD0
:1024A00011F40EF4E0CE41C066DFD0F39923D9F3E6
:1024B000CEF39F57550B87FF46D00024A0E640EA95
:1024C000900180585695979528F4805C660F771F89
:1024D000881F20F026173707480730F4621B730B5C
:1024E000840B202931294A2BA6951794079420257F
:1024F00031254A2758F7660F771F881F20F02617C7
:102500003707480730F4620B730B840B200D311D25
:10251000411DA09581F7B901842F9158880F969598
:10252000879508959B01AC0152CF9F3F31F09150A8
:1025300020F4879577956795B795880F911D9695A7
:10254000879597F9089591505040660F771F881F1F
:10255000D2F708959F938F937F936F93FF93EF9399
:102560009B01AC0134DFEF91FF9180DE2F913F9111
:102570004F915F912CCFEE0FFF1F0590F491E02D4E
:102580000994BB274A3031F4992322F4BDE2909597
:1025900081959F4F0C94FE12BB272A3051F499234A
:1025A00042F4BDE290958095709561957F4F8F4F75
:1025B0009F4F0C94DC12BB27FA01A62F62177105FE
:1025C00081059105330B30FB66F0AA27660F771F54
:1025D000881F991FAA1FA21710F0A21B63953850DD
:1025E000A9F7A05DAA3308F0A95DA19336F7B11150
:1025F000B1931082CA010C941713BB27FB01552716
:10260000AA27880F991FAA1FA41710F0A41B83954F
:102610005051B9F7A05DAA3308F0A95DA1930097C6
:1026200079F7B111B1931192CB010C941713DC011E
:10263000FC01672F71917723E1F7329704C07C91F9
:102640006D9370836291AE17BF07C8F30895F89435
:02265000FFCFBA
:10265200020002000AD7A33E00E1000000000800C9
:00000001FF
