:100000000C9440010C945D010C945D010C9434142B
:100010000C945D010C945D010C945D010C945D01E8
:100020000C945D010C945D010C941F1B0C94591BE6
:100030000C945D010C945D010C945D010C945D01C8
:100040000C945D010C945D010C945D010C945D01B8
:100050000C9420140C945D010C945D010C945D01D2
:100060000C945D010C945D010C945D010C945D0198
:100070000C945D010C9443140C945D010C945D018F
:100080000C9457140C945D010C945D010C945D016B
:100090000C945D010C945D010C945D010C945D0168
:1000A0000C945D010C945D010C945D01A90BBA0BDD
:1000B000C90BDC0BEB0BFA0B090C180C270C670CAB
:1000C000740C980CA90CB80CCB0CDA0CE90CF80CDD
:1000D000070D160D560D630DE01F2E2521206321FF
:1000E0002A1EF3212A1E2A1EC71ABF1AB71AAF1AD0
:1000F000A71A9F1A971A8F1A871A7F1A771A6F1AD8
:10010000671A5F1A571A4F1A471A3F1A371A2F1AC7
:10011000271A1F1A171A0F1A071AFF19F719EF19BA
:10012000E719DF19D719CF19C719BF19B719AF19AF
:10013000A7199F1997198F1987197F1977196F199F
:1001400067195F1957194F1947193F1937192F198F
:1001500027191F1917190F190719FF18F718EF1882
:10016000E718DF18D718CF18C718084AD73B3BCE77
:10017000016E84BCBFFDC12F3D6C74319ABD5683A6
:100180003DDA3D00C77F11BED9E4BB4C3E916BAA5E
:10019000AABE000000803F05A84CCDB2D44EB938AD
:1001A00036A9020C50B9918688083CA6AAAA2ABE94
:1001B000000000803F000A002020002020002020B6
:1001C00000090009000900090009000900000100F8
:1001D0000064021200020000210243000300001D1F
:1001E00002040103090409021202030904010206C0
:1001F00003030904F701080803340031003000004C
:100200000006034D003200000012034A002E0020B9
:10021000004600690065006E0065000000040309E7
:100220000409024300020100C03209040000010277
:10023000020100052400100105240101010424022B
:100240000605240600010705820310004009040189
:1002500000020A00000007050302400000070584B1
:10026000024000001201000202000010C0167A04D1
:100270000001010203010001C11201803601813633
:1002800011241FBECFEFDAE0DEBFCDBF11E0A0E04A
:10029000B1E0E2EFF1E502C005900D92A636B1079C
:1002A000D9F722E0A6E6B1E001C01D92AE33B20755
:1002B000E1F70E94211E0C94F7280C9400002C9A60
:1002C0000895469A08950F931F93CF93DF93559AFD
:1002D0005D9880E8809361001092610085BF85BFC2
:1002E0000E9473140E94BC17209A219A229A239A82
:1002F000249A3E9A53984AE069E181E00E941B15D6
:100300000E944516809181008B7F809381008091AF
:100310008100826080938100809181008160809360
:1003200081008091810080618093810080918100B3
:10033000886080938100809180008260809380003B
:100340008091800081608093800080916F00816047
:1003500080936F0084EC99E09093890080938800EB
:1003600078941092CF001092D00088EC8093D10046
:100370003F9A269A8091C10088608093C100809145
:10038000C10084608093C1008091C1008D7F809303
:10039000C1008091C1008E7F8093C1008091C30015
:1003A0008D7F8093C3008091C3008E7F8093C300B4
:1003B0008091C00082608093C0008091C0008068FE
:1003C0008093C0008091C0008F7B8093C00080919B
:1003D000C00081608093C0008091C00080628093E3
:1003E000C0008091C0008F7E8093C00080917C000F
:1003F0008F7780937C0080917C00806480937C0068
:1004000080917A00846080937A0080917A00826083
:1004100080937A0080917A00816080937A00809145
:100420007E00816080937E0080917E008260809358
:100430007E0080917E00806180937E0080917E00AE
:10044000806280937E0080917E00806480937E0035
:1004500080917E00806880937E0080917D00816025
:1004600080937D0080917D00826080937D008091EB
:100470007D00846080937D0080917B008F7D8093E0
:100480007B0080917C008B7F80937C0080917C003E
:100490008D7F80937C0080917C008E7F80937C0098
:1004A00080917A00886080937A0080917B008F7DB4
:1004B00080937B0080917C008B7F80937C00809177
:1004C0007C008D7F80937C0080917C008E7F809368
:1004D0007C0080917A00806880937A0040E060E040
:1004E00080E20E94B31D41E060E080E20E94B31D03
:1004F00042E060E080E20E94E01D43E060E080E2D4
:100500000E94B31D44E060E080E20E94B31D45E01C
:1005100060E080E20E94B31D46E060E080E20E945D
:10052000B31D47E060E080E20E94B31D40E061E05F
:1005300080E20E94B31DC0E3D1E000E111E0299107
:1005400039914991599160E070E080E894E40E940B
:1005500035259B01AC0160E070E080E894E40E94E6
:100560000326F80161937193819391938F01F1E0D8
:10057000C035DF0721F7DF91CF911F910F910895CB
:100580002F923F924F925F926F927F928F929F92A3
:10059000AF92BF92CF92DF92EF92FF920F931F9391
:1005A000CF93DF93CDB7DEB7C458D1090FB6F89417
:1005B000DEBF0FBECDBF2C01FE01319680E4DF010E
:1005C0001D928A95E9F7BE016F5B7F4F84E2DB01E4
:1005D0001D928A95E9F7D20120E030E080E090E0BA
:1005E0004D915D914F3F534009F401962F5F3F4F6E
:1005F0002B303105A9F78230910509F471C234F02E
:100600006E9A76986A9A729A80E0F4C46A9A72989E
:100610006E9A769AE796FFAFEEAFE797A7965FAE32
:100620004EAEA797612C712CEB961FAE1EAEEB97CA
:1006300000E010E0212C312CA796AEADBFADA797FE
:100640006D917C9180E090E00E949C26C358DF4F22
:10065000688379838A839B83CD57D040A796EEAD7C
:10066000FFADA7976281738180E090E00E949C2695
:10067000CF57DF4F688379838A839B83C158D040EB
:10068000AB965FAE4EAEAB97AF961FAE1EAEAF97BA
:10069000E3961FAE1EAEE397AB96AEADBFADAB9784
:1006A0006D917C9180E090E00E949C269B01AC01C2
:1006B000C358DF4F688179818A819B81CD57D040B3
:1006C0000E9435254B015C01AB96EEADFFADAB97BB
:1006D0006281738180E090E00E949C269B01AC01C6
:1006E000CF57DF4F688179818A819B81C158D04083
:1006F0000E9435256B017C01A5019401C501B4015F
:100700000E94B7274B015C01A7019601C701B60102
:100710000E94B7279B01AC01C501B4010E94362598
:100720000E9424286B017C01E796EEADFFADE797B0
:10073000AF962EAD3FADAF97E20FF31F608371838D
:1007400082839383EB964EAD5FADEB97BA0188271A
:1007500077FD8095982F0E949E269B01AC01C701D2
:10076000B6010E94AC2718166CF4C701B6010E94AE
:100770006B26EB967FAF6EAFEB97E3960EAD1FAD9A
:10078000E3971301E3968EAD9FADE3970196E39651
:100790009FAF8EAFE397AB96AEADBFADAB9716965E
:1007A000AB96BFAFAEAFAB97AF96EEADFFADAF9729
:1007B0003496AF96FFAFEEAFAF97049709F06CCFCA
:1007C000FFEF6F1A7F0AA7962EAD3FADA7972A5F5E
:1007D0003F4FA7963FAF2EAFA797E7964EAD5FADC1
:1007E000E797405F5F4FE7965FAF4EAFE79754E004
:1007F0006516710409F020CF80E090E08215930522
:10080000A1F18017910789F1F101EE0FFF1FEE0FA3
:10081000FF1FE80FF91FEE0FFF1FEE0FFF1FEE2463
:10082000E394F12CEC0EFD1EEE0DFF1DD801AA0F76
:10083000BB1FAA0FBB1FA80FB91FAA0FBB1FAA0F70
:10084000BB1FAE0DBF1D2D913D914D915C916081FF
:100850007181828193810E94FC2587FF0EC0902FB9
:10086000812F8101292E382E08C0019684309105F0
:1008700029F6212C312C00E010E086E0782E709EC5
:100880007001719EF00C1124E40CF51CD7016D91E0
:100890007C9180E090E00E949C264B015C01F70176
:1008A0006281738180E090E00E949C266B017C0154
:1008B000729C8001739C100D1124040D151DD8012C
:1008C0006D917C9180E090E00E949C262B013C0180
:1008D000F8016281738180E090E00E949C26E1969D
:1008E0006CAF7DAF8EAF9FAFE1979B01AC01C701AD
:1008F000B6010E943525A9966CAF7DAF8EAF9FAF34
:10090000A997A3019201C501B4010E943525A996BA
:100910002CAD3DAD4EAD5FADA9970E94A925E596E2
:100920006CAF7DAF8EAF9FAFE5979B01AC01505888
:10093000A9962CAF3DAF4EAF5FAFA997CA01B901E1
:100940000E940026AD966CAF7DAF8EAF9FAFAD9786
:10095000A3019201C501B4010E94362520E030E0D8
:1009600040E05FE30E94B72720E030E040E054E43D
:100970000E9435252B013C01A9966CAD7DAD8EAD55
:100980009FADA9970E941A284B015C01E1962CADFE
:100990003DAD4EAD5FADE197C701B6010E94362572
:1009A00020E030E040E05FE30E94B72720E030E045
:1009B00040EC53E40E943525E9966CAF7DAF8EAFD5
:1009C0009FAFE9978091580190915901A0915A01E8
:1009D000B0915B01E1968CAF9DAFAEAFBFAFE19739
:1009E000AD966CAD7DAD8EAD9FADAD979058A3012A
:1009F00092010E94B7276B017C01E9962CAD3DADB9
:100A00004EAD5FADE997C501B4010E94B7279B01C8
:100A1000AC01C701B6010E9435259B01AC015058BD
:100A2000E1966CAD7DAD8EAD9FADE1970E94B7278D
:100A30006093C3017093C4018093C5019093C60174
:100A4000A3019201C501B4010E94B7276B017C018B
:100A5000E9962CAD3DAD4EAD5FADE997AD966CAD71
:100A60007DAD8EAD9FADAD970E94B7279B01AC01C8
:100A7000C701B6010E9435259B01AC01E1966CAD22
:100A80007DAD8EAD9FADE1970E94B7276093C70102
:100A90007093C8018093C9019093CA0120E030E0AF
:100AA000A901A9966CAD7DAD8EAD9FADA9970E94B1
:100AB000FC2587FF83C2E5962CAD3DAD4EAD5FAD05
:100AC000E59763EC75EF88EC90E40E943525609320
:100AD000BF017093C0018093C1019093C2017CC299
:100AE0006A9A72986E9A7698D20141E050E020E0BE
:100AF00030E080E090E00D911C9111970F3FE3E012
:100B00001E0709F46BC2F901E81BF90BEE0FFF1F7A
:100B1000EE0FFF1FE553FE4F1183008312960D91D8
:100B20001C911397FC01EE0FFF1F7A01EE1AFF0ACA
:100B3000F701EE0FFF1FE553FE4F118300832F5F78
:100B40003F4F16964E5F5F4F24303105A1F6AB96AE
:100B50007FAF6EAFAB972BEC31E0E3963FAF2EAF9C
:100B6000E397412C512CE7961FAE1EAEE79700E0AD
:100B700010E0212C312CE396AEADBFADE3976D9123
:100B80007C9180E090E00E949C26ED966CAF7DAF5A
:100B90008EAF9FAFED97E396EEADFFADE397628129
:100BA000738180E090E00E949C26C358DF4F6883E9
:100BB00079838A839B83CD57D0402BEC31E0A79675
:100BC0003FAF2EAFA797AF961FAE1EAEAF97612C6B
:100BD000712CA796AEADBFADA7976D917C9180E0CB
:100BE00090E00E949C269B01AC01ED966CAD7DAD22
:100BF0008EAD9FADED970E9435254B015C01A79608
:100C0000EEADFFADA7976281738180E090E00E9416
:100C10009C269B01AC01C358DF4F688179818A8192
:100C20009B81CD57D0400E9435256B017C01A501E9
:100C30009401C501B4010E94B7274B015C01A701D3
:100C40009601C701B6010E94B7279B01AC01C501FF
:100C5000B4010E9436250E9424286B017C01AB96CA
:100C6000EEADFFADAB97AF962EAD3FADAF97E20FB8
:100C7000F31F6083718382839383E7964EAD5FADEC
:100C8000E797BA01882777FD8095982F0E949E26C6
:100C90009B01AC01C701B6010E94AC27181654F4A1
:100CA000C701B6010E946B26E7967FAF6EAFE7974C
:100CB000830112015FEF651A750AA7968EAD9FAD8D
:100CC000A7970496A7969FAF8EAFA797AF96AEADA6
:100CD000BFADAF971496AF96BFAFAEAFAF97B3E0CF
:100CE0006B16710409F075CFEFEF4E1A5E0AE396AA
:100CF0002EAD3FADE3972C5F3F4FE3963FAF2EAF56
:100D0000E397AB964EAD5FADAB97445F5F4FAB964D
:100D10005FAF4EAFAB9753E04516510409F02BCFB0
:100D200080E090E08215930509F45AC1801791077D
:100D300009F456C1F101EE0FFF1FE20DF31DE80F9C
:100D4000F91FEE0FFF1FEE0FFF1F41E450E04C0FA5
:100D50005D1FE40FF51FD801AA0FBB1FA00FB11F25
:100D6000A80FB91FAA0FBB1FAA0FBB1FA40FB51F47
:100D70002D913D914D915C91608171818281938132
:100D80000E94FC2587FF05C0902F812F8101292E0D
:100D9000382E7801EE0CFF1CE00EF11EF701EE0F6D
:100DA000FF1FE553FE4F6081718180E090E00E945B
:100DB0009C264B015C01F701EE0FFF1FE353FE4F32
:100DC0006081718180E090E00E949C266B017C0133
:100DD0008101000F111F020D131DF801EE0FFF1FFF
:100DE000E553FE4F6081718180E090E00E949C2677
:100DF0002B013C01F801EE0FFF1FE353FE4F608112
:100E0000718180E090E00E949C26AD966CAF7DAF32
:100E10008EAF9FAFAD979B01AC01C701B6010E9499
:100E20003525A9966CAF7DAF8EAF9FAFA997A30173
:100E30009201C501B4010E943525A9962CAD3DADA6
:100E40004EAD5FADA9970E94A9259B01AC015058FA
:100E5000A9962CAF3DAF4EAF5FAFA997CA01B901BC
:100E60000E940026E5966CAF7DAF8EAF9FAFE597F1
:100E7000A3019201C501B4010E94362520E030E0B3
:100E800040E05FE30E94B72720E030E040E054E418
:100E90000E9435252B013C01A9966CAD7DAD8EAD30
:100EA0009FADA9970E941A284B015C01AD962CAD0D
:100EB0003DAD4EAD5FADAD97C701B6010E94362581
:100EC00020E030E040E05FE30E94B72720E030E020
:100ED00040EC53E40E943525E1966CAF7DAF8EAFB8
:100EE0009FAFE1978091580190915901A0915A01CB
:100EF000B0915B01AD968CAF9DAFAEAFBFAFAD977C
:100F0000E5966CAD7DAD8EAD9FADE5979058A30194
:100F100092010E94B7276B017C01E1962CAD3DAD9B
:100F20004EAD5FADE197C501B4010E94B7279B01AB
:100F3000AC01C701B6010E9435259B01AC01505898
:100F4000AD966CAD7DAD8EAD9FADAD970E94B727D0
:100F50006093C3017093C4018093C5019093C6014F
:100F6000A3019201C501B4010E94B7276B017C0166
:100F7000E1962CAD3DAD4EAD5FADE197E5966CAD24
:100F80007DAD8EAD9FADE5970E94B7279B01AC016B
:100F9000C701B6010E9435259B01AC01AD966CAD31
:100FA0007DAD8EAD9FADAD970E94B7276093C70111
:100FB0007093C8018093C9019093CA01A9962CAD82
:100FC0003DAD4EAD5FADA9972093BF013093C001F9
:100FD0004093C1015093C20181E00CC00196AFCD96
:100FE00001968330910509F09DCE212C312C00E033
:100FF00010E0CFCECC57DF4F0FB6F894DEBF0FBE58
:10100000CDBFDF91CF911F910F91FF90EF90DF90B7
:10101000CF90BF90AF909F908F907F906F905F9098
:101020004F903F902F900895CF92DF92EF92FF92D2
:101030000F931F93CF93DF93EC018B01FB01208172
:10104000318142815381688179818A819B810E94AB
:10105000B72720E030E0A9010E9436256B017C0112
:10106000F80124813581468157816C817D818E8193
:101070009F810E94B7279B01AC01C701B6010E9466
:101080003625DF91CF911F910F91FF90EF90DF9068
:10109000CF9008950F931F93CF93DF938091A30177
:1010A0009091A401892B09F041C060917800709162
:1010B00079000091A3011091A401C091A301D091E6
:1010C000A40180E090E00E949C26F801EE0FFF1F33
:1010D000EE0FFF1FE05DFE4F208131814281538181
:1010E0000E943525CC0FDD1FCC0FDD1FC05FDE4F0A
:1010F000288139814A815B810E94B7270E946B2633
:1011000070930F0260930E028091A3019091A4014D
:1011100001969093A4018093A30180917A008F7728
:1011200080937A0080917B008F7DBEC18091A30166
:101130009091A401019709F057C0609178007091D7
:1011400079000091A3011091A401C091A301D09155
:10115000A40180E090E00E949C26F801EE0FFF1FA2
:10116000EE0FFF1FE05DFE4F2081318142815381F0
:101170000E943525CC0FDD1FCC0FDD1FC05FDE4F79
:10118000288139814A815B810E94B7270E946B26A2
:1011900070933902609338028091A3019091A40169
:1011A00001969093A4018093A30180917A008F7798
:1011B00080937A0080917B008F7D80937B0080916B
:1011C0007C00846080937C0080917C008D7F809384
:1011D0007C0080917C008E7F80937C0080917A00DF
:1011E000806180937A00E9C18091A3019091A4016C
:1011F000029709F050C060917800709179000091D9
:10120000A3011091A401C091A301D091A40180E099
:1012100090E00E949C26F801EE0FFF1FEE0FFF1FCB
:10122000E05DFE4F20813181428153810E9435254E
:10123000CC0FDD1FCC0FDD1FC05FDE4F2881398151
:101240004A815B810E94B7270E946B2670931F0220
:1012500060931E028091A3019091A4010196909346
:10126000A4018093A30180917A008F7780937A0004
:1012700080917B008F7D80937B0080917C008460D7
:1012800080937C0080917C008D7F80937C00809196
:101290007C008160A1CF8091A3019091A40103976C
:1012A00009F046C060917800709179000091A30127
:1012B0001091A401C091A301D091A40180E090E01D
:1012C0000E949C26F801EE0FFF1FEE0FFF1FE05D4E
:1012D000FE4F20813181428153810E943525CC0F00
:1012E000DD1FCC0FDD1FC05FDE4F288139814A81B1
:1012F0005B810E94B7270E946B2670933702609330
:1013000036028091A3019091A40101969093A401CB
:101310008093A30180917A008F7780937A008091E7
:101320007B008F7D80937B0080917C00846000C176
:101330008091A3019091A4010497F1F56091780048
:101340007091790080E090E00E949C2620914C01F1
:1013500030914D0140914E0150914F010E94352531
:1013600020912C0130912D0140912E0150912F019F
:101370000E94B7270E946B2670931902609318028F
:101380008091A3019091A40101969093A401809370
:10139000A30180917A008F7780937A0080917B00FF
:1013A0008F7D80937B0080917C00846080937C00A3
:1013B00080917C00826069CF8091A3019091A4010B
:1013C0000597C9F5609178007091790080E090E010
:1013D0000E949C26209148013091490140914A0188
:1013E00050914B010E94352520912801309129010F
:1013F00040912A0150912B010E94B7270E946B2631
:1014000070932702609326028091A3019091A4011A
:1014100001969093A4018093A30180917A008F7725
:1014200080937A0080917B00806280937B00809122
:101430007C008B7FC7CE8091A3019091A401069779
:10144000C9F5609178007091790080E090E00E9489
:101450009C262091440130914501409146015091D4
:1014600047010E94352520912401309125014091AA
:101470002601509127010E94B7270E946B26709386
:101480000B0260930A028091A3019091A40101963E
:101490009093A4018093A30180917A008F77809329
:1014A0007A0080917B00806280937B0080917C0039
:1014B0008B7FE6CE8091A3019091A4010797F1F56F
:1014C000609178007091790080E090E00E949C2605
:1014D00020914001309141014091420150914301DE
:1014E0000E94352520912001309121014091220157
:1014F000509123010E94B7270E946B26709315021A
:10150000609314028091A3019091A401019690939D
:10151000A4018093A30180917A008F7780937A0051
:1015200080917B00806280937B0080917C008B7F28
:1015300080937C0080917C00826049CE8091A301E1
:101540009091A4010897C9F5809178009091790055
:1015500090932902809328028091A3019091A40185
:1015600001969093A4018093A30180917A008F77D4
:1015700080937A0080917B008F7D80937B008091A7
:101580007C008B7F80937C0080917C008D7F80939A
:101590007C0080917C008E7F80937C0080917A001B
:1015A000806180937A001092A4011092A30181E0DF
:1015B00090E09093210280932002809120029091EC
:1015C0002102892B09F4A2C060910E0270910F02D2
:1015D000882777FD8095982F0E949E2660937F0133
:1015E0007093800180938101909382016091380211
:1015F00070913902882777FD8095982F0E949E264A
:101600006093830170938401809385019093860198
:1016100060911E0270911F02882777FD8095982F98
:101620000E949E26609387017093880180938901B0
:1016300090938A016091360270913702882777FD76
:101640008095982F0E949E2660938B0170938C0149
:1016500080938D0190938E01609114027091150218
:10166000882777FD8095982F0E949E2660938F0192
:1016700070939001809391019093920160910A027E
:1016800070910B02882777FD8095982F0E949E26E7
:1016900060939301709394018093950190939601C8
:1016A0006091260270912702882777FD8095982FF8
:1016B0000E949E26609397017093980180939901F0
:1016C00090939A016091180270911902882777FD12
:1016D0008095982F0E949E2660939B0170939C0199
:1016E00080939D0190939E01609128027091290240
:1016F000882777FD8095982F0E949E2660939F01F2
:101700007093A0018093A1019093A20110922102F5
:101710001092200280917A00806880937A008091F4
:101720007A00806480937A00DF91CF911F910F91AE
:101730000895CF92DF92EF92FF92E0913202F09102
:101740003302EB30F10508F0DEC0EA5AFF4F0C948B
:101750008B2888E290E090937E0180937D0188ED54
:101760009FEF90937C0180937B011092A6011092D1
:10177000A501C9C084E190E090937E0180937D0132
:101780008CEE9FEF90937C0180937B0181E090E051
:101790000EC088E290E090937E0180937D0188EDF9
:1017A0009FEF90937C0180937B0182E090E0909387
:1017B000A6018093A501A7C088E290E090937E01E6
:1017C00080937D0188ED9FEF90937C0180937B0156
:1017D00083E090E0ECCF88E290E090937E018093EC
:1017E0007D0188ED9FEF90937C0180937B0184E0E5
:1017F00090E0DDCF88ED9FEF90937E0180937D0197
:1018000088E290E090937C0180937B0185E090E0FA
:10181000CECF88ED9FEF90937E0180937D0188E28B
:1018200090E090937C0180937B0186E090E0BFCFB5
:101830008CEE9FEF90937E0180937D0184E190E098
:1018400090937C0180937B0187E090E0B0CFC090C3
:101850007301D0907401E0907501F090760123EC53
:1018600035EF48E450E4C701B6010E94AC271816D2
:10187000A4F423EC35EF48EC50E4C701B6010E9414
:10188000FC25181654F088E290E090937E01809336
:101890007D0190937C0180937B0120E030E0A901E1
:1018A000C701B6010E94AC2718166CF523EC35EF82
:1018B00048E450E4C701B6010E94FC2518161CF14B
:1018C00080E590E090937E0180937D0108C088E2DE
:1018D00090E090937E0180937D0188ED9FEF90933F
:1018E0007C0180937B010FC080916D0190916E010E
:1018F000892B19F086E090E002C084E090E090939C
:101900005D0180935C01FF90EF90DF90CF90089590
:10191000CF92DF92EF92FF92E0913202F091330288
:10192000EB30F10508F0DEC0EF59FF4F0C948B2827
:1019300088E290E090937E0180937D0188ED9FEF97
:1019400090937C0180937B011092A6011092A501D7
:10195000C9C088E290E090937E0180937D0188ED7C
:101960009FEF90937C0180937B0181E090E00EC01B
:1019700088E290E090937E0180937D0188ED9FEF57
:1019800090937C0180937B0182E090E09093A6018C
:101990008093A501A7C088E290E090937E01809398
:1019A0007D0188ED9FEF90937C0180937B0183E024
:1019B00090E0ECCF88E290E090937E0180937D01EF
:1019C00088ED9FEF90937C0180937B0184E090E011
:1019D000DDCF88ED9FEF90937E0180937D0188E2BB
:1019E00090E090937C0180937B0185E090E0CECFE6
:1019F00088E290E090937E0180937D018CE390E0FB
:101A000090937C0180937B0186E090E0BFCF88E2D9
:101A100090E090937E0180937D018CE390E0909321
:101A20007C0180937B0187E090E0B0CFC090730190
:101A3000D0907401E0907501F090760123EC35EFC1
:101A400048E450E4C701B6010E94AC271816A4F47C
:101A500023EC35EF48EC50E4C701B6010E94FC25A9
:101A6000181654F088E290E090937E0180937D01F7
:101A700090937C0180937B0120E030E0A901C701B5
:101A8000B6010E94AC2718166CF523EC35EF48E43C
:101A900050E4C701B6010E94FC2518161CF180E530
:101AA00090E090937E0180937D0108C088E290E0F1
:101AB00090937E0180937D0188ED9FEF90937C0150
:101AC00080937B010FC080916D0190916E01892BF5
:101AD00019F086E090E002C084E090E090935D0110
:101AE00080935C01FF90EF90DF90CF9008958F92EC
:101AF0009F92AF92BF92CF92DF92EF92FF920F939D
:101B00001F93CF93DF9310920D0210920C028091DD
:101B10007A00806480937A00A0900C02B0900D024D
:101B20008090320290903302C0E0D0E08E01000F2E
:101B3000111F000F111F01581E4FF801C080D180E6
:101B4000E280F380B501882777FD8095982F0E9469
:101B50009E269B01AC01C701B6010E94AC27181656
:101B60004CF4F80160817181828193810E946B261F
:101B70004E015B012196C830D105C1F6B0920D022D
:101B8000A0920C028092320290923302809128023D
:101B9000909129028438934034F48AE090E0909345
:101BA0003302809332028091320290913302009787
:101BB00019F0079709F04AC060917F017091800188
:101BC000809181019091820120E030E048E454E46A
:101BD0000E94FC2587FD10C060919B0170919C01C3
:101BE00080919D0190919E0120E030E048E454E412
:101BF0000E94FC2587FF06C088E090E090933302A6
:101C00008093320260917F01709180018091810107
:101C10009091820120919B0130919C0140919D0106
:101C200050919E010E9435250E946B269B0177FFF3
:101C300004C022273327261B370B2436310534F402
:101C400088E090E0909333028093320280910C02FE
:101C500090910D02843691053CF488E090E09093D9
:101C600033028093320203C08032934014F40E9406
:101C7000880C80910C0290910D028032934074F098
:101C8000DF91CF911F910F91FF90EF90DF90CF9058
:101C9000BF90AF909F908F900C94990BDF91CF9154
:101CA0001F910F91FF90EF90DF90CF90BF90AF907A
:101CB0009F908F900895CF93DF9380916B019091C7
:101CC0006C01019690936C0180936B01C091670148
:101CD000D09168012196D0936801C0936701059760
:101CE000A1F58091BF019091C001A091C101B09177
:101CF000C2018093100290931102A0931202B0933C
:101D000013028091C3019091C401A091C501B091CB
:101D1000C60180933A0290933B02A0933C02B09399
:101D20003D028091C7019091C801A091C901B09175
:101D3000CA0180932A0290932B02A0932C02B093A5
:101D40002D0210926C0110926B0180916B019091A9
:101D50006C010497D9F52091C3013091C4014091E1
:101D6000C5015091C60160913A0270913B02809189
:101D70003C0290913D020E9435250E946B266E5FC9
:101D80007F4F6530710510F52091C7013091C80172
:101D90004091C9015091CA0160912A0270912B02B1
:101DA00080912C0290912D020E9435250E946B2675
:101DB0006E5F7F4F6530710548F4809134029091D9
:101DC0003502019690933502809334026E9794F019
:101DD0008091340290913502059764F41092350297
:101DE00010923402109268011092670110926A01F9
:101DF0001092690180916F0190917001009761F0DC
:101E0000109235021092340210926801109267010C
:101E100010926A01109269012091340230913502CA
:101E20002530310584F0892B71F481E090E09093A6
:101E30006A01809369011092680110926701109203
:101E4000350210923402DF91CF91089597FD03C0BF
:101E50002A9A2B9805C02A982B9A919581959109D9
:101E600090915601989F802D11248093D000089561
:101E7000109202015D9AE1E9F0E080818460808344
:101E800080818D7F808380818E7F808380818F7E23
:101E90008083808188608083E0E9F0E080818D7FAD
:101EA000808380818E7F808388EE93E09093990079
:101EB00080939800E1E7F0E080818260808308955C
:101EC0002091560197FD08C0289F802D11248093F2
:101ED000CF00289A29980895919581959109289F76
:101EE000802D11248093CF002898299A08954F922D
:101EF0005F926F927F928F929F92AF92BF92CF929A
:101F0000DF92EF92FF92CF93DF9300D000D0CDB756
:101F1000DEB780902E0290902F02A0903002B090F9
:101F2000310220E030E048EC51E4C501B4010E94E8
:101F3000FC2518160CF4E5C020E030E0A901C5012D
:101F4000B4010E94AC2718160CF0DBC0C0907301DE
:101F5000D0907401E0907501F090760123EC35EF9C
:101F600048E450E4C701B6010E94AC271816E4F417
:101F700022E538EB46E950E4C701B6010E94FC2592
:101F8000181694F081E090E090931D0280931C025B
:101F900088E290E09093B6018093B5018AE590E0E5
:101FA0009093B8018093B70122E538EB46E950E4FD
:101FB000C701B6010E94AC271816E4F423EC35EFF4
:101FC00048EC50E4C701B6010E94FC25181694F0B5
:101FD00081E090E090931D0280931C028AE590E0DE
:101FE0009093B6018093B50188E290E09093B80198
:101FF0008093B7014090090150900A0160900B0155
:1020000070900C01A301920163EC75EF88EC9FE3E3
:102010000E94352569837A838B839C839B01AC0165
:10202000C701B6010E94FC251816DCF020E030E064
:10203000A901C701B6010E94AC27181694F482E0EA
:1020400090E090931D0280931C028AE590E09093AB
:10205000B6018093B5018CE390E09093B801809332
:10206000B70123EC35EF48EC5FE3C301B2010E94F6
:1020700036252B013C019B01AC01C701B6010E9432
:10208000AC271816E4F423EC35EF48E450E4C7011C
:10209000B6010E94FC25181694F083E090E090931E
:1020A0001D0280931C0288E290E09093B601809319
:1020B000B5018AE590E09093B8018093B701A30140
:1020C0009201C701B6010E94FC251816D4F029819F
:1020D0003A814B815C81C701B6010E94AC2718167A
:1020E00084F48AE590E09093B6018093B5019093D3
:1020F000B8018093B7018FE090E090931D02809328
:102100001C0220E030E0A901C501B4010E94FC25B9
:1021100018160CF4E6C020E030E048EC51ECC501A4
:10212000B4010E94AC2718160CF0DBC0C0907301FC
:10213000D0907401E0907501F090760122E538EBC3
:1021400046E950E4C701B6010E94AC271816E4F432
:1021500023EC35EF48EC50E4C701B6010E94FC25A2
:10216000181694F08AE590E09093B6018093B5013B
:1021700088E290E09093B8018093B70184E090E00A
:1021800090931D0280931C0223EC35EF48E450E449
:10219000C701B6010E94AC271816E4F422E538EB1B
:1021A00046E950E4C701B6010E94FC25181694F0D8
:1021B0008AE590E09093B6018093B50188E290E0C3
:1021C0009093B8018093B70184E090E090931D0252
:1021D00080931C024090090150900A0160900B010D
:1021E00070900C01A301920163EC75EF88EC9FE302
:1021F0000E94352569837A838B839C839B01AC0184
:10220000C701B6010E94FC251816DCF020E030E082
:10221000A901C701B6010E94AC27181694F48AE5FB
:1022200090E09093B6018093B50188E290E090939E
:10223000B8018093B70185E090E090931D028093F0
:102240001C0223EC35EF48EC5FE3C301B2010E94AE
:1022500036252B013C019B01AC01C701B6010E9450
:10226000AC271816E4F423EC35EF48E450E4C7013A
:10227000B6010E94FC25181694F088E290E0909335
:10228000B6018093B5018AE590E09093B801809300
:10229000B70186E090E090931D0280931C02A30199
:1022A0009201C701B6010E94FC251816D4F02981BD
:1022B0003A814B815C81C701B6010E94AC27181698
:1022C00084F48AE590E09093B6018093B5019093F1
:1022D000B8018093B7018FE090E090931D02809346
:1022E0001C0220E030E048EC51ECC501B4010E9432
:1022F000FC2518160CF4BFC0C0907301D090740177
:10230000E0907501F090760123EC35EF48E450E45D
:10231000C701B6010E94AC271816E4F422E538EB99
:1023200046E950E4C701B6010E94FC25181694F056
:102330008AE590E09093B6018093B50182E190E048
:102340009093B8018093B70187E090E090931D02CD
:1023500080931C0220E030E0A901C701B6010E9471
:10236000AC271816B4F423EC35EF48E45FE3C7015B
:10237000B6010E94FC25181664F08AE590E090935F
:10238000B6018093B5018CE390E09093B8018093FF
:10239000B70123EC35EF48EC5FE3C701B6010E94BB
:1023A000FC251816E4F023EC35EF48E45FE3C701A1
:1023B000B6010E94AC27181694F48CE390E0909339
:1023C000B6018093B5018AE590E09093B8018093BF
:1023D000B70188E090E090931D0280931C0222E5F3
:1023E00038EB46E950E4C701B6010E94AC27181645
:1023F000E4F423EC35EF48EC50E4C701B6010E9449
:10240000FC25181694F08AE590E09093B60180932D
:10241000B50188E290E09093B8018093B70189E01C
:1024200090E090931D0280931C0223EC35EF48EC62
:102430005FE3C701B6010E94AC271816E4F423EC51
:1024400035EF48E450E4C701B6010E94FC25181698
:1024500094F082E190E09093B6018093B5018AE513
:1024600090E09093B8018093B7018AE090E0909358
:102470001D0280931C0220E030E048EC51E4C501CD
:10248000B4010E94AC2718160CF0C5C0C0907301AF
:10249000D0907401E0907501F090760123EC35EF57
:1024A00048E450E4C701B6010E94AC271816E4F4D2
:1024B00022E538EB46E950E4C701B6010E94FC254D
:1024C000181694F088E290E09093B6018093B501DD
:1024D0008AE590E09093B8018093B7018BE090E09B
:1024E00090931D0280931C0222E538EB46E150E4F4
:1024F000C701B6010E94AC271816E4F423EC35EFAF
:1025000048E450E4C701B6010E94FC25181694F077
:102510008CE390E09093B6018093B5018AE590E05A
:102520009093B8018093B7018BE090E090931D02E7
:1025300080931C0223EC35EF48EC5FE3C701B60142
:102540000E94AC271816E4F422E538EB46E150E48B
:10255000C701B6010E94FC25181694F08AE590E0A8
:102560009093B6018093B5018CE390E09093B8010D
:102570008093B7018BE090E090931D0280931C0242
:1025800023EC35EF48EC5FE3C701B6010E94FC2560
:102590001816DCF020E030E0A901C701B6010E9466
:1025A000AC27181694F48AE590E09093B6018093D6
:1025B000B50182E190E09093B8018093B7018CE07F
:1025C00090E090931D0280931C0222E538EB46E9CF
:1025D00050E4C701B6010E94AC271816E4F423ECBE
:1025E00035EF48EC50E4C701B6010E94FC251816EF
:1025F00094F082E190E09093B6018093B5018AE572
:1026000090E09093B8018093B7018DE090E09093B3
:102610001D0280931C0280910201882309F456C098
:1026200020E030E048EC51E4C501B4010E94FC25F3
:1026300018160CF44BC020E030E048EC51ECC5011A
:10264000B4010E94AC2787FD41C020E030E040EF9C
:1026500051EC6091060270910702809108029091FE
:1026600009020E94FC2587FF31C0C0907301D09001
:102670007401E0907501F0907601809009019090CE
:102680000A01A0900B01B0900C01A501940163EC2C
:1026900075EF88EC9FE30E9435259B01AC01C701D3
:1026A000B6010E94AC2718168CF423EC35EF48ECE9
:1026B0005FE3C501B4010E9436259B01AC01C7014F
:1026C000B6010E94FC2587FD0E94380F8091B5015C
:1026D0009091B6010E94600F8091B7019091B8016E
:1026E0000F900F900F900F90DF91CF91FF90EF9090
:1026F000DF90CF90BF90AF909F908F907F906F9022
:102700005F904F900C94260F089581110C945F01F7
:102710002C98089581110C946101469808956AE0FF
:1027200088EF91E00E9473152091F80181E090E01C
:102730009093010180930001223A09F45CC02CF4CB
:10274000203A61F0213AD1F15AC0243A09F453C039
:102750000CF451C0263A09F44EC051C080910102D8
:10276000823591F480E00E948A130E945F012FEF6E
:1027700083EC99E0215080409040E1F700C00000D8
:1027800080E00E94851313C0823489F480E00E94A7
:1027900085130E9461012FEF83EC99E02150804066
:1027A0009040E1F700C0000080E00E948A1381E0C1
:1027B00090E0909301018093000121C0809101027B
:1027C000823529F480E00E948A130E945F01809183
:1027D0000102823429F480E00E9485130E94610185
:1027E00080916D0190916E01892B19F086E090E047
:1027F00002C083E090E090935D0180935C011092B1
:102800007101089543E062E1882319F080E20C949D
:10281000B31D80E20C94E01D46E062E1882319F0CC
:1028200080E20C94B31D80E20C94E01D40E062E174
:10283000882319F080E20C94B31D80E20C94E01D13
:102840001F920F920FB60F9211248F9381E0809305
:102850006601809172018F5F809372018F910F905A
:102860000FBE0F901F9018951F920F920FB60F92E8
:1028700011248F9381E0809371018F910F900FBE8F
:102880000F901F9018951F920F920FB60F92112460
:102890008F939F9381E090E09093080180930701CC
:1028A0009F918F910F900FBE0F901F9018951F92C0
:1028B0000F920FB60F9211248F93EF93FF935D98B1
:1028C000E1E9F0E080818B7F808380818D7F808350
:1028D00080818E7F8083FF91EF918F910F900FBE4B
:1028E0000F901F901895589A599A5A9A8CE0809395
:1028F000B800E9E6F0E080818062808380818F7E8D
:102900008083EA9A7894089584E88093BC0080914B
:10291000BC0087FFFCCF8091BB00089584E98093C1
:10292000BC00089520E030E08091BC0087FD06C027
:102930002F5F3F4F293E83E03807B1F781E0283E03
:10294000334009F480E008958093BB0084E88093CD
:10295000BC000E949214882321F08091B900887FE6
:10296000089580E008951F93CF93DF931F92CDB712
:10297000DEB7182F84EA8093BC0069830E9492140A
:102980006981811104C094E99093BC0014C0812F27
:10299000880F662331F08F5F0E94A414883451F4AD
:1029A00004C00E94A414803229F484E98093BC00FE
:1029B00080E001C081E00F90DF91CF911F910895D9
:1029C000CF93DF93C82FD62F60E00E94B3148823E3
:1029D00091F08D2F0E94A414882369F084E98093DC
:1029E000BC0061E08C2F0E94B314882321F0DF919A
:1029F000CF910C94841480E0DF91CF910895CF9310
:102A0000DF93D62FC42F60E00E94B314811102C05F
:102A100080E00EC08D2F0E94A4148823C9F38C2F50
:102A20000E94A4148823A1F384E98093BC0081E070
:102A3000DF91CF910895CF93DF9300D01F92CDB750
:102A4000DEB74B836A8389830E94731494EA909360
:102A5000BC0089816A814B819091BC0097FFFCCFBB
:102A600090E59093BB0094E89093BC009091BC00DB
:102A700097FFFCCF9091B900987F903229F484E9B8
:102A80008093BC0080E029C091E09093BB0094E863
:102A90009093BC009091BC0097FFFCCF8093BB004B
:102AA00084E88093BC008091BC0087FFFCCF6093DA
:102AB000BB0084E88093BC008091BC0087FFFCCF02
:102AC0004093BB0084E88093BC008091BC0087FFEA
:102AD000FCCF84E98093BC0081E00F900F900F90B1
:102AE000DF91CF91089524EA2093BC002091BC008F
:102AF00027FFFCCF21E52093BB0024E82093BC00F6
:102B00002091BC0027FFFCCF2091B900287F2834FA
:102B1000A9F024EC2093BC002091BC0027FFFCCF3F
:102B20002091BB0026130AC0FC0120E030E077278B
:102B300067FD70956150710944EC0EC084E9809383
:102B4000BC0080E008955091BC0057FFFCCF50912D
:102B5000BB0051932F5F3F4F261737071CF440935C
:102B6000BC00F1CF44E84093BC004091BC0047FF5B
:102B7000FCCF4091BB00FC01E20FF31F408384E9CE
:102B80008093BC0081E00895F89494EA9093BC008F
:102B90009091BC0097FFFCCF90E59093BB0094E828
:102BA0009093BC009091BC0097FFFCCF9091B9002E
:102BB000987F903231F484E98093BC00789480E06F
:102BC000089593E09093BB0094E89093BC0090919B
:102BD000BC0097FFFCCF8093BB0084E88093BC00CF
:102BE0008091BC0087FFFCCFFB01552747FD509526
:102BF00024E8CF01861B970B8417950754F4819125
:102C00008093BB002093BC008091BC0087FFFCCF69
:102C1000F0CF84E98093BC00789481E0089520E0AF
:102C200030E08091BC0087FD06C02F5F3F4F293EFA
:102C300083E03807B1F781E0283E334009F480E0B3
:102C400008958093BB0084E88093BC000E940F1617
:102C5000882319F08091B900887F0895CF93C82FF9
:102C600084EA8093BC000E940F16882361F08C2FA9
:102C7000880F0E942116803229F484E98093BC00D9
:102C800080E001C081E0CF9108950E94731488E52F
:102C90000E942E16811102C080E0089580E30E94F8
:102CA00021168823C9F381E00E9421168823A1F30D
:102CB00084E98093BC008FE39CE90197F1F700C0A1
:102CC000000088E50E942E16882331F380E00E94E0
:102CD0002116882309F380E00E9421168823E1F25F
:102CE00080E00E9421168823B9F280E00E9421161C
:102CF000882391F280E00E942116882369F280E007
:102D00000E942116882341F280E00E942116882328
:102D100019F280E90E942116882309F4BDCF84E9C5
:102D20008093BC008FE39CE90197F1F700C000009D
:102D300088E50E942E16882309F4AECF87E00E9412
:102D40002116882309F4A8CF80E00E942116882349
:102D500009F4A2CF81E40E942116882309F49CCFB4
:102D600084E98093BC008FE39CE90197F1F700C0F0
:102D7000000088E50E942E16882309F48DCF8AE191
:102D80000E942116882309F487CF80E40E9421162F
:102D9000882309F481CF80E00E942116882309F45A
:102DA0007BCF84E98093BC008FE39CE90197F1F726
:102DB00000C0000088E50E942E16882309F46CCF1D
:102DC00083E30E942116882309F466CF83E00E94E2
:102DD0002116882309F460CF84E98093BC008FE337
:102DE0009CE90197F1F700C0000088E50E942E16CB
:102DF000882309F451CF80E30E942116882309F427
:102E00004BCF88E00E942116882309F445CF84E93E
:102E10008093BC008FE39CE90197F1F700C00000AC
:102E200081E00895CF93C82F84EA8093BC000E946C
:102E30000F16882369F08C2F880F8F5F0E94211650
:102E4000883429F484E98093BC0080E001C081E0EB
:102E5000CF910895EF92FF920F931F93CF93DF933B
:102E6000CDB7DEB760970FB6F894DEBF0FBECDBF0B
:102E70007C018E010F5F1F4F80E1F80111928A954E
:102E8000E9F788E50E942E16811102C080E05EC03D
:102E900086E30E9421168823C9F384E98093BC004D
:102EA000F5E8FA95F1F7000088E50E9412178823EB
:102EB00069F3F8019E01205F3F4F94EC9093BC00B2
:102EC0008091BC0087FFFCCF8091BB008193E2170B
:102ED000F307A1F784E88093BC008091BC0087FFD2
:102EE000FCCF8091BB00888B84E98093BC00DE011D
:102EF000149687016C91762F7073AD014250510981
:102F0000FA01808190E0F0E17F9F800D911D1124F6
:102F1000F80191838083762F707C4F5F5F4FFA01B9
:102F2000808190E0F4E07F9F800D911D1124F801D5
:102F3000938382836F70862F90E0958384831396AA
:102F40000A5F1F4FA217B307A9F681E060960FB67C
:102F5000F894DEBF0FBECDBFDF91CF911F910F91CF
:102F6000FF90EF90089584E98093BC0008958091CC
:102F7000E80080FFFCCF089581E08093D70080EACD
:102F80008093D80082E189BD09B400FEFDCF80E9BD
:102F90008093D8001092E000109205021092020275
:102FA0008CE08093E2007894089580910502089562
:102FB0009FB7F89480910502882339F083E08093CD
:102FC000E9008091E80085FD03C09FBF8FEF089561
:102FD0008091F1002091E80025FD03C02BE62093AD
:102FE000E8009FBF08959FB7F89480910502882359
:102FF00031F083E08093E9008091F20001C080E02D
:103000009FBF089580910502882371F08FB7F894CF
:1030100093E09093E9002BE69091E80095FF03C0C0
:103020002093E800F9CF8FBF08959091050299236E
:1030300071F09FB7F89424E02093E90020910302F7
:10304000222349F02091E80025FD03C09FBF8FEFA8
:103050000895109203022091E400275E34E040912D
:10306000E80045FD12C09FBF9091E400921304C098
:1030700081E080930302EBCF90910502992339F30D
:103080009FB7F8943093E900EACF8093F1008091E4
:10309000E80085FD03C08AE38093E80085E0809323
:1030A00004029FBF80E00895909105029923D1F01A
:1030B0009FB7F89424E02093E9002091E80025FDD3
:1030C00002C09FBF0FC08093F1008091E80085FD92
:1030D00003C08AE38093E80085E0809304029FBFE9
:1030E00080E008958FEF0895EF92FF921F93CF93A2
:1030F000DF937C01CB0120910502222371F0AFB751
:10310000F89424E02093E90020910302222349F05F
:103110002091E80025FD03C0AFBF8FEF42C210929F
:103120000302B4E0C0E4DAE315E0009709F437C223
:103130002091E400275E3091E80035FD12C0AFBF5A
:103140003091E400321304C081E080930302E5CFA4
:1031500030910502332309F3AFB7F894B093E90037
:10316000EACF2091F2004C2F421B242F30E082172F
:10317000930708F4482F841B910950E0413451050E
:1031800008F0FDC14C585F4FFA010C948B28F701F1
:1031900020812093F10097012F5F3F4F7901F701C4
:1031A00020812093F10097012F5F3F4F7901F701B4
:1031B00020812093F10097012F5F3F4F7901F701A4
:1031C00020812093F10097012F5F3F4F7901F70194
:1031D00020812093F10097012F5F3F4F7901F70184
:1031E00020812093F10097012F5F3F4F7901F70174
:1031F00020812093F10097012F5F3F4F7901F70164
:1032000020812093F10097012F5F3F4F7901F70153
:1032100020812093F10097012F5F3F4F7901F70143
:1032200020812093F10097012F5F3F4F7901F70133
:1032300020812093F10097012F5F3F4F7901F70123
:1032400020812093F10097012F5F3F4F7901F70113
:1032500020812093F10097012F5F3F4F7901F70103
:1032600020812093F10097012F5F3F4F7901F701F3
:1032700020812093F10097012F5F3F4F7901F701E3
:1032800020812093F10097012F5F3F4F7901F701D3
:1032900020812093F10097012F5F3F4F7901F701C3
:1032A00020812093F10097012F5F3F4F7901F701B3
:1032B00020812093F10097012F5F3F4F7901F701A3
:1032C00020812093F10097012F5F3F4F7901F70193
:1032D00020812093F10097012F5F3F4F7901F70183
:1032E00020812093F10097012F5F3F4F7901F70173
:1032F00020812093F10097012F5F3F4F7901F70163
:1033000020812093F10097012F5F3F4F7901F70152
:1033100020812093F10097012F5F3F4F7901F70142
:1033200020812093F10097012F5F3F4F7901F70132
:1033300020812093F10097012F5F3F4F7901F70122
:1033400020812093F10097012F5F3F4F7901F70112
:1033500020812093F10097012F5F3F4F7901F70102
:1033600020812093F10097012F5F3F4F7901F701F2
:1033700020812093F10097012F5F3F4F7901F701E2
:1033800020812093F10097012F5F3F4F7901F701D2
:1033900020812093F10097012F5F3F4F7901F701C2
:1033A00020812093F10097012F5F3F4F7901F701B2
:1033B00020812093F10097012F5F3F4F7901F701A2
:1033C00020812093F10097012F5F3F4F7901F70192
:1033D00020812093F10097012F5F3F4F7901F70182
:1033E00020812093F10097012F5F3F4F7901F70172
:1033F00020812093F10097012F5F3F4F7901F70162
:1034000020812093F10097012F5F3F4F7901F70151
:1034100020812093F10097012F5F3F4F7901F70141
:1034200020812093F10097012F5F3F4F7901F70131
:1034300020812093F10097012F5F3F4F7901F70121
:1034400020812093F10097012F5F3F4F7901F70111
:1034500020812093F10097012F5F3F4F7901F70101
:1034600020812093F10097012F5F3F4F7901F701F1
:1034700020812093F10097012F5F3F4F7901F701E1
:1034800020812093F10097012F5F3F4F7901F701D1
:1034900020812093F10097012F5F3F4F7901F701C1
:1034A00020812093F10097012F5F3F4F7901F701B1
:1034B00020812093F10097012F5F3F4F7901F701A1
:1034C00020812093F10097012F5F3F4F7901F70191
:1034D00020812093F10097012F5F3F4F7901F70181
:1034E00020812093F10097012F5F3F4F7901F70171
:1034F00020812093F10097012F5F3F4F7901F70161
:1035000020812093F10097012F5F3F4F7901F70150
:1035100020812093F10097012F5F3F4F7901F70140
:1035200020812093F10097012F5F3F4F7901F70130
:1035300020812093F10097012F5F3F4F7901F70120
:1035400020812093F10097012F5F3F4F7901F70110
:1035500020812093F10097012F5F3F4F7901F70100
:1035600020812093F10097012F5F3F4F7901F701F0
:1035700020812093F10097012F5F3F4F7901F701E0
:1035800020812093F10097012F5F3F4F7901209117
:10359000E80025FFD093E80010930402C6CDAFBF2A
:1035A00080E0DF91CF911F91FF90EF9008958FB74A
:1035B000F89490910402992341F094E09093E900EB
:1035C0009AE39093E800109204028FBF08958091CF
:1035D00062010895809163010895809164010895C6
:1035E0008091020208959FB7F8942091050222234A
:1035F00039F022E02093E9003091E80035FD03C066
:103600009FBF8FEF089531EA3093F10030E230939D
:10361000F1001092F1001092F1001092F10010925E
:10362000F1002093F1001092F1008093F1001092CC
:10363000F1008AE38093E8009FBF80E008951F9225
:103640000F920FB60F9211248F939F938091E100F8
:103650001092E10083FF11C01092E90091E0909375
:10366000EB001092EC0092E19093ED0098E09093C3
:10367000F000109205021092020282FF13C08091A6
:103680000502882379F080910402882359F0815043
:1036900080930402811106C084E08093E9008AE3EC
:1036A0008093E8009F918F910F900FBE0F901F9015
:1036B00018951F920F920FB60F921124EF92FF925E
:1036C0000F931F932F933F934F935F936F937F932A
:1036D0008F939F93AF93BF93EF93FF93CF93DF931A
:1036E0001F92CDB7DEB71092E9008091E80083FF0A
:1036F00014C19091F1008091F1003091F10020917E
:10370000F100E32EF12CF22A0091F1002091F1005A
:1037100010E0122B2091F1006091F10032EF309314
:10372000E800863009F046C036E08DEC91E0FC01FF
:10373000459154914E155F0539F4FC01329645913F
:1037400054914017510721F00796315081F7E5C099
:10375000FC01349645915491FC013696849130E0F9
:10376000362B2F3F310519F010F02FEF30E02817DE
:1037700008F4822F3EEF9091E800292F2570D9F3AD
:1037800092FDCEC0982F813108F090E1FA01292FE7
:10379000222331F064916093F10021503196F8CFEB
:1037A000490F511D891B3093E8008111E4CF9031FE
:1037B00011F3B6C0853051F48EEF8093E8000E947B
:1037C000B7178E2D80688093E300AAC0893059F521
:1037D000911180C0E0920502109202021092040240
:1037E0008EEF8093E80041E086E792E04093E900A5
:1037F0009C012F5F3F4FFC0154915093EB005523E8
:1038000059F0F90124912093EC009C012D5F3F4F6A
:10381000319684918093ED004F5F453011F0C901DE
:10382000E5CF8EE175C0883051F4903809F052C070
:103830000E94B717809105028093F10047C0813242
:1038400079F4913A09F046C00E94B717EEE5F1E02D
:1038500081918093F10081E0E536F807C9F736C021
:10386000803299F49132B1F58091E80082FFFCCF6B
:10387000EEE5F1E08091F100819381E0E536F80713
:10388000C9F78BEF8093E80021C0823241F4913276
:1038900009F043C0E09202020E94B71717C08111DD
:1038A00019C099830E94B7179981923851F40093F7
:1038B000E9008091EB0085FB882780F91092E900F0
:1038C00001C080E08093F1001092F1008EEF8093B0
:1038D000E80026C0282F2D7F2130F9F49230E9F43A
:1038E000EF28D9F40F779FEF900F9430B0F49EEF4C
:1038F0009093E8000093E900833079F089E18093A8
:10390000EB0081E090E0002E01C0880F0A94EAF7F6
:103910008093EA001092EA0003C081E28093EB00FA
:103920000F90DF91CF91FF91EF91BF91AF919F9158
:103930008F917F916F915F914F913F912F911F9147
:103940000F91FF90EF900F900FBE0F901F90189562
:103950001F93CF93DF93EC01FE011491112351F0DB
:103960001A3019F48DE00E941518812F0E94151845
:103970002196F2CFDF91CF911F9108958A3010F4F4
:1039800090E301C097E3890F0C941518CF93C82FCB
:1039900082958F700E94BE1C8C2F8F70CF910C94DB
:1039A000BE1CCF93C82F892F0E94C61C8C2FCF918D
:1039B0000C94C61C0C94C61CEF92FF920F931F939D
:1039C000CF93DF93CDB7DEB727970FB6F894DEBF5E
:1039D0000FBECDBF8E010F5F1F4F27E0F801119280
:1039E0002A95E9F74AE0B8010E9491287E01F8E0A3
:1039F000EF0EF11CF80181918F0181110E941518C1
:103A00000E151F05B9F727960FB6F894DEBF0FBE47
:103A1000CDBFDF91CF911F910F91FF90EF9008954F
:103A2000EF92FF920F931F93CF93DF9300D000D0BC
:103A300000D0CDB7DEB78E010F5F1F4F26E0F80133
:103A400011922A95E9F74AE0B8010E94CD287E013B
:103A5000F6E0EF0EF11CF80181918F0181110E94B7
:103A600015180E151F05B9F726960FB6F894DEBF88
:103A70000FBECDBFDF91CF911F910F91FF90EF90BF
:103A80000895EF92FF920F931F93CF93DF93CDB7DB
:103A9000DEB72B970FB6F894DEBF0FBECDBF8E01F9
:103AA0000F5F1F4F2BE0F80111922A95E9F72AE0EA
:103AB000A8010E949C287E01FCE0EF0EF11CF80199
:103AC00081918F0181110E9415180E151F05B9F7FC
:103AD0002B960FB6F894DEBF0FBECDBFDF91CF910E
:103AE0001F910F91FF90EF900895EF92FF920F9327
:103AF0001F93CF93DF93CDB7DEB72B970FB6F89414
:103B0000DEBF0FBECDBF8E010F5F1F4F2BE0F80150
:103B100011922A95E9F72AE0A8010E94AB287E01BC
:103B2000FBE0EF0EF11CF80181918F0181110E94E1
:103B300015180E151F05B9F72B960FB6F894DEBFB2
:103B40000FBECDBFDF91CF911F910F91FF90EF90EE
:103B5000089548E365E00E94FF1491E0811101C0DF
:103B600090E0892F08951F93CF93DF93D82FC62F0E
:103B7000142F0E94E014C23058F4E1E0F0E0012E6E
:103B800001C0EE0F0A94EAF74E2F409548230DC06E
:103B90009EEE9C0F923078F421E030E0012E01C0BF
:103BA000220F0A94EAF7482F422B6C2F8D2F0E9488
:103BB000FF1481E001C080E0DF91CF911F91089553
:103BC0001F93CF93DF93D82FC62F142F0E94E0149A
:103BD0009EEE9C0F923058F4E1E0F0E0012E01C01F
:103BE000EE0F0A94EAF74E2F409548230BC0C230DF
:103BF00078F421E030E0012E01C0220F0A94EAF7A8
:103C0000482F422B6C2F8D2F0E94FF1481E001C0A2
:103C100080E0DF91CF911F910895CF93DF931F92A2
:103C2000CDB7DEB749830E94E01490E0498102C01D
:103C3000959587954A95E2F781700F90DF91CF9126
:103C400008950E94630178E2272E312CC8EDDFEF42
:103C50000AE510E00E94D517882309F497C08091E7
:103C6000020190E00E94DC1C8BEC91E00E94A81CF9
:103C700060910602709107028091080290910902FA
:103C80000E946B26CB010E94DC1C89EC91E00E9413
:103C9000A81C60912E0270912F02809130029091A9
:103CA00031020E946B26CB010E94DC1C87EC91E064
:103CB0000E94A81C20E030E04EEF52E460917301B6
:103CC0007091740180917501909176010E94B727DF
:103CD0002AE939E949EC50E40E9403260E946B2648
:103CE000CB010E94DC1C85EC91E00E94A81C809115
:103CF0005C0190915D010E94DC1C83EC91E00E94CC
:103D0000A81C20E030E04EEF52E460917301709106
:103D1000740180917501909176010E94B7272AE97C
:103D200039E949EC50E40E9403260E946B26CB013E
:103D30000E94DC1C81EC91E00E94A81C80910C0286
:103D400090910D020E94DC1C8EEB91E00E94A81C59
:103D500080913202909133020E94DC1C8BEB91E047
:103D60000E94A81C8091B7019091B8010E94DC1CB0
:103D700088EB91E00E94A81C8091B5019091B6015A
:103D80000E94DC1C86EB91E00E94A81C80917101CE
:103D900081110E948F138091070190910801892B56
:103DA00031F00E944A081092080110920701809198
:103DB0006601882309F4F7C08091B5019091B6019E
:103DC000892B69F48091B7019091B801892B39F45E
:103DD00081E090E09093700180936F0104C0109295
:103DE000700110926F018DED91E00E942A178DED08
:103DF00091E00E94C002E0900D01F0900E0191E070
:103E0000E916F10489F48091BF019091C001A0915D
:103E1000C101B091C2018093220290932302A0932A
:103E20002402B093250254C02FEFE216F20609F0E7
:103E30004FC08090BF019090C001A090C101B09090
:103E4000C20120E030E0A901C501B4010E94AC2705
:103E500087FD1AC023EC35EF48E450E4C501B401F6
:103E60000E94FC2587FF10C023EC35EF48E450E4A6
:103E7000C501B4010E94362560932202709323028B
:103E8000809324029093250223EC35EF48E450E41C
:103E9000C501B4010E94AC2787FD1AC023EC35EFA1
:103EA00048EC50E4C501B4010E94FC25181684F0CA
:103EB00023EC35EF48E450E4C501B4010E943525F8
:103EC0006093220270932302809324029093250230
:103ED0008091220290912302A0912402B0912502A8
:103EE0008093730190937401A0937501B093760150
:103EF0008090C3019090C401A090C501B090C6010C
:103F0000B701882777FD8095982F0E949E262B0168
:103F10003C019B01AC01C501B4010E94B72760932D
:103F20000602709307028093080290930902C090E2
:103F3000C701D090C801E090C901F090CA01A30167
:103F40009201C701B6010E94B72760932E027093B9
:103F50002F028093300290933102C501B4010E9478
:103F60006B266093F501C701B6010E946B26609332
:103F7000F60120E030E04EEF52E46091BF01709115
:103F8000C0018091C1019091C2010E94B7272AE926
:103F900039E949EC50E40E9403260E946B266093A5
:103FA000F70110926601E0915C01F0915D0131979B
:103FB000E830F10508F052C5E459FF4F0C948B2806
:103FC0001092B8011092B7011092B6011092B5018B
:103FD00080E090E00E94260F8091B5019091B6019B
:103FE0000E94600F80E00E94021480E00E9416147C
:103FF0004B9B0FC080910F01882359F00E945F01F5
:104000008FEF9FEF90930E0180930D0181E090E080
:1040100011C04B9923C580910F01882309F41EC557
:104020000E94610181E090E090930E0180930D0168
:1040300082E090E0909378018093770110920F01D5
:104040000DC580E00E94021480E00E940C1480E004
:104050000E9416148091690190916A01892B09F4DC
:1040600010C18090060290900702A0900802B090C4
:10407000090220E030E040EA52E4C501B4010E94A8
:10408000FC2587FFFEC0C0907301D0907401E090C2
:104090007501F090760123EC35EF48E450E4C70158
:1040A000B6010E94FC2518160CF4D1C020E030E0C7
:1040B000A901C701B6010E94AC2787FDC8C023EC47
:1040C00035EF48EC5FE3C701B6010E94AC27181634
:1040D00094F520E030E040EF51EC60912E027091B9
:1040E0002F0280913002909131020E94FC25181617
:1040F00054F082EE9FEF9093B6018093B501109338
:10410000B8010093B70120E030E040EF51E4609146
:104110002E0270912F0280913002909131020E9404
:10412000AC27181644F41093B6010093B501109310
:10413000B8010093B70120E030E0A901C701B60142
:104140000E94AC2718160CF047C023EC35EF48EC62
:104150005FE3C701B6010E94FC251816CCF020E0F1
:1041600030E040EF51EC60912E0270912F0280916F
:104170003002909131020E94FC2518169CF0109399
:10418000B6010093B5011093B8010093B7010AC0BE
:1041900023EC35EF48EC5FE3C701B6010E94FC2534
:1041A0001816D4F020E030E040EF51E460912E0288
:1041B00070912F0280913002909131020E94AC27C1
:1041C000181654F41093B6010093B50182EE9FEFD8
:1041D0009093B8018093B701C0902E02D0902F0227
:1041E000E0903002F090310220E030E040EF51E406
:1041F000C701B6010E94FC251816E4F020E030E06B
:1042000040EF51ECC701B6010E94AC27181694F498
:1042100020E030E048EC52E4C501B4010E94AC2734
:10422000181644F41093B6010093B5011093B80129
:104230000093B7018091B5019091B6010E94600F83
:104240008091B7019091B8010E94260F1AC00E9478
:10425000770D80917D0190917E019093B6018093BE
:10426000B50180917B0190917C019093B80180937E
:10427000B7010E94260F8091B5019091B6010E946E
:10428000600F8091690190916A01892B09F0E2CC5D
:104290000E94770D80917D0190917E019093B601EF
:1042A0008093B50180917B0190917C019093B8013E
:1042B0008093B7010E94260F8091B5019091B601BD
:1042C0000E94600FC7CC43E062E180E20E94B31D10
:1042D00080E00E940C1480E00E9416148091690115
:1042E00090916A01892B09F46BC0C0907301D09042
:1042F0007401E0907501F090760120E030E0A901B2
:10430000C701B6010E94AC2787FD5AC023EC35EFE8
:1043100048E450E4C701B6010E94FC2518160CF4CD
:104320004FC0C0902E02D0902F02E0903002F0904B
:10433000310220E030E040EF51E4C701B6010E94B5
:10434000FC25181694F020E030E040EF51ECC70156
:10435000B6010E94AC2787FD08C01093B6010093F8
:10436000B5011093B8010093B70120E030E040EFB1
:1043700051E4C701B6010E94AC27181654F020E0A2
:1043800030E040EF51ECC701B6010E94FC2587FFE9
:1043900009C0D093B601C093B501D093B801C093C2
:1043A000B70102C00E94770F8091B5019091B601CC
:1043B0000E94600F8091B7019091B8010E94260F72
:1043C0008091690190916A01892B11F40E94770F05
:1043D0008091280290912902853893400CF43ACCC0
:1043E00083E090E03DC30E94770D20910C02309154
:1043F0000D0280911A0290911B02243843E0340789
:104400000CF0D8C0892B09F012C1C0907301D09074
:104410007401E0907501F090760120E030E0A90190
:10442000C701B6010E94AC2787FD1EC02091030181
:1044300030910401409105015091060163EC75EF44
:1044400088EC9FE30E9435259B01AC01C701B601B2
:104450000E94FC2587FF08C03092B6012092B5016A
:10446000D093B801C093B70140900301509004016C
:10447000609005017090060123EC35EF48EC5FE396
:10448000C301B2010E9436254B015C019B01AC01C6
:10449000C701B6010E94AC27181694F422E538EB48
:1044A00046E950E4C701B6010E94FC2587FF08C019
:1044B000D093B601C093B5013092B8012092B701F4
:1044C00022E538EB46E950E4C701B6010E94AC276B
:1044D00087FD12C023EC35EF48EC50E4C701B6016C
:1044E0000E94FC25181644F03092B6012092B501C6
:1044F000D093B801C093B701A301920163EC75EFAB
:1045000088EC9FE30E9435252B013C019B01AC0107
:10451000C701B6010E94AC2718160CF5A50194013D
:10452000C701B6010E94FC2587FF21C020E030E0D2
:1045300048EC52E4609106027091070280910802F3
:10454000909109020E94FC251816D4F0D093B8016E
:10455000C093B701D093B601C093B50111C0A301B8
:104560009201C701B6010E94AC2787FD60C0A5017A
:104570009401C701B6010E94FC2518160CF457C01F
:1045800020E030E048EC52E46091060270910702AE
:1045900080910802909109020E94AC2718160CF035
:1045A00046C01092B8011092B7011092B601109255
:1045B000B5013DC024383340D1F1892BC1F520E04D
:1045C00030E040E752E4609106027091070280916A
:1045D0000802909109020E94AC2787FD12C00E9438
:1045E000990B80917B0190917C019093B80180930D
:1045F000B70180917D0190917E019093B6018093E7
:10460000B50120E030E040E752E46091060270918D
:10461000070280910802909109020E94FC25181659
:1046200034F081E090E090931B0280931A02809115
:104630002802909129028438934044F41093B601E3
:104640000093B5011093B8010093B70180911A024D
:1046500090911B02892B09F4F4C180902E02909056
:104660002F02A0903002B090310220E030E040E70D
:1046700051E4C501B4010E94AC2718160CF07FC0AC
:10468000C0907301D0907401E0907501F0907601B4
:1046900023EC35EF48EC5FE3C701B6010E94FC252F
:1046A00087FF13C020E030E0A901C701B6010E94D6
:1046B000AC2787FD0AC08EEC9FEF9093B6018093E4
:1046C000B501D093B801C093B70123EC35EF48ECA6
:1046D00050E4C701B6010E94FC2587FF14C022E503
:1046E00038EB46E950E4C701B6010E94AC2787FDCC
:1046F0000AC0D093B601C093B5018EEC9FEF9093A2
:10470000B8018093B70122E538EB46E950E4C701D0
:10471000B6010E94FC2587FF14C023EC35EF48E466
:1047200050E4C701B6010E94AC2787FD0AC082E3AE
:1047300090E09093B6018093B5019093B801809377
:10474000B70123EC35EF48E450E4C701B6010E94FD
:10475000FC2587FF14C023EC35EF48EC5FE3C7016D
:10476000B6010E94AC2787FD0AC08EEC9FEF9093A4
:10477000B6018093B501D093B801C093B70120E092
:1047800030E040E751ECC501B4010E94FC2587FFF1
:104790007FC0C0907301D0907401E0907501F090DB
:1047A000760123EC35EF48EC5FE3C701B6010E94C8
:1047B000FC2587FF13C020E030E0A901C701B60146
:1047C0000E94AC2787FD0AC0D093B601C093B50103
:1047D0008EEC9FEF9093B8018093B70123EC35EFF7
:1047E00048EC50E4C701B6010E94FC2587FF14C0C5
:1047F00022E538EB46E950E4C701B6010E94AC2738
:1048000087FD0AC082E390E09093B6018093B501E2
:104810003092B8012092B70122E538EB46E950E426
:10482000C701B6010E94FC2587FF14C023EC35EFB9
:1048300048E450E4C701B6010E94AC2787FD0AC0D6
:104840008EEC9FEF9093B6018093B501D093B801A1
:10485000C093B70123EC35EF48E450E4C701B6013B
:104860000E94FC2587FF14C023EC35EF48EC5FE382
:10487000C701B6010E94AC2787FD0AC0D093B601DC
:10488000C093B5018EEC9FEF9093B8018093B70170
:10489000C501B4010E946B26CB010F964F9708F01B
:1048A000D0C0C0907301D0907401E0907501F09079
:1048B000760120E030E0A901C701B6010E94AC27D3
:1048C00087FD1EC020910301309104014091050134
:1048D0005091060163EC75EF88EC9FE30E9435254B
:1048E0009B01AC01C701B6010E94FC2587FF08C0EF
:1048F0003092B6012092B501D093B801C093B701B0
:1049000040900301509004016090050170900601F1
:1049100023EC35EF48EC5FE3C301B2010E9436257A
:104920004B015C019B01AC01C701B6010E94AC27A1
:10493000181694F422E538EB46E950E4C701B601B5
:104940000E94FC2587FF08C0D093B601C093B50133
:104950003092B8012092B70122E538EB46E950E4E5
:10496000C701B6010E94AC2787FD12C023EC35EFCA
:1049700048EC50E4C701B6010E94FC25181644F02B
:104980003092B6012092B501D093B801C093B7011F
:10499000A301920163EC75EF88EC9FE30E9435253B
:1049A0002B013C019B01AC01C701B6010E94AC2761
:1049B00087FD23C0A5019401C701B6010E94FC2513
:1049C00018161CF120E030E048EC52E46091060239
:1049D0007091070280910802909109020E94FC25C3
:1049E00087FF1BC084EC9FEF9093B8018093B701C1
:1049F0009093B6018093B50110C0A3019201C70145
:104A0000B6010E94AC2787FD1CC0A5019401C70117
:104A1000B6010E94FC251816A4F020E030E048EC16
:104A200052E4609106027091070280910802909111
:104A300009020E94AC27181624F410921B0210924F
:104A40001A028091B5019091B6010E94600F809189
:104A5000B7019091B8010E94260FFCC881E090E058
:104A600090935D0180935C01F5C85058BB27AA273D
:104A70000ED027C2F0D130F0F5D120F031F49F3FB5
:104A800011F41EF4C0C10EF4E095E7FBB6C1E92FA6
:104A90003AD280F3BA17620773078407950718F0B4
:104AA00071F49EF552C20EF4E0950B2EBA2FA02D94
:104AB0000B01B90190010C01CA01A0011124FF27CB
:104AC000591B99F0593F50F4503E68F11A16F040C6
:104AD000A22F232F342F4427585FF3CF46953795C5
:104AE0002795A795F0405395C9F77EF41F16BA0B8A
:104AF000620B730B840BBAF09150A1F0FF0FBB1F38
:104B0000661F771F881FC2F70EC0BA0F621F731F80
:104B1000841F48F4879577956795B795F7959E3FDD
:104B200008F0B3CF9395880F08F09927EE0F97956B
:104B30008795089590D158F080E891E009F49EEFB0
:104B400091D128F040E851E059F45EEF09C05BC113
:104B5000FCC1E92FE078D7D168F3092E052AC1F30B
:104B6000261737074807590738F00E2E07F8E025B3
:104B700069F0E025E0640AC0EF6307F8009407FAE3
:104B8000DB01B9019D01DC01CA01AD01EF934AD0FF
:104B900098D10AD05F91552331F02BED3FE049E4E5
:104BA00050FD49EC63CF0895DF93DD27B92FBF7720
:104BB00040E85FE31616170648075B0710F4D92F85
:104BC000CFD19F938F937F936F937CD2EAE6F1E0EE
:104BD0001DD177D12F913F914F915F91D4D1DD239A
:104BE00049F09058A2EA2AED3FE049EC5FE3D07823
:104BF0005D274DDFDF9165C1DCD008F481E00895C9
:104C000039D1E3956FC10CD05CC12CD140F023D1D8
:104C100030F021F45F3F19F0F0C0511197C1F3C09B
:104C200072D198F39923C9F35523B1F3951B550B12
:104C3000BB27AA2762177307840738F09F5F5F4F6F
:104C4000220F331F441FAA1FA9F333D00E2E3AF0B0
:104C5000E0E830D091505040E695001CCAF729D0CA
:104C6000FE2F27D0660F771F881FBB1F2617370719
:104C70004807AB07B0E809F0BB0B802DBF01FF2749
:104C800093585F4F2AF09E3F510568F0B6C05EC151
:104C90005F3FECF3983EDCF3869577956795B79583
:104CA000F7959F5FC9F7880F911D9695879597F99E
:104CB0000895E1E0660F771F881FBB1F6217730717
:104CC0008407BA0720F0621B730B840BBA0BEE1F2C
:104CD00088F7E095089504D06894B11137C108951C
:104CE0001AD188F09F5790F0B92F9927B751A0F0AB
:104CF000D1F0660F771F881F991F1AF0BA95C9F770
:104D000012C0B13081F021D1B1E008951EC1672FEA
:104D1000782F8827B85F39F0B93FCCF3869577951F
:104D20006795B395D9F73EF4909580957095619508
:104D30007F4F8F4F9F4F0895E89409C097FB3EF433
:104D400090958095709561957F4F8F4F9F4F9923D8
:104D5000A9F0F92F96E9BB279395F6958795779556
:104D60006795B795F111F8CFFAF4BB0F11F460FF16
:104D70001BC06F5F7F4F8F4F9F4F16C0882311F06E
:104D800096E911C0772321F09EE8872F762F05C082
:104D9000662371F096E8862F70E060E02AF09A951D
:104DA000660F771F881FDAF7880F9695879597F912
:104DB0000895990F0008550FAA0BE0E8FEEF1616AC
:104DC0001706E807F907C0F012161306E407F507FF
:104DD00098F0621B730B840B950B39F40A2661F073
:104DE000232B242B252B21F408950A2609F4A14016
:104DF000A6958FEF811D811D089597F99F6780E823
:104E000070E060E008959FEF80EC0895DF93CF930A
:104E10001F930F93FF92EF92DF927B018C016894B6
:104E200005C0DA2EEF01AFD0FE01E894A5912591DF
:104E3000359145915591AEF3EF0129DEFE019701C1
:104E4000A801DA9479F7DF90EF90FF900F911F910E
:104E5000CF91DF91089500240A94161617061806BC
:104E60000906089500240A9412161306140605066E
:104E70000895C9CF50D0E8F3E894E0E0BB279F57EE
:104E8000F0F02AED3FE049EC06C0EE0FBB0F661FC5
:104E9000771F881F28F0B23A62077307840728F04B
:104EA000B25A620B730B840BE3959A9572F78038B4
:104EB00030F49A95BB0F661F771F881FD2F7904872
:104EC00006C1092E0394000C11F4882352F0BB0F85
:104ED00040F4BF2B11F460FF04C06F5F7F4F8F4F12
:104EE0009F4F0895EF93E0FF06C0A2EA2AED3FE04E
:104EF00049EC5FEBCCDDE5DF0F90039401FC9058AB
:104F0000E7E9F1E0F7C057FD9058440F551F59F0FD
:104F10005F3F71F04795880F97FB991F61F09F3FA6
:104F200079F087950895121613061406551FF2CFCF
:104F30004695F1DF08C0161617061806991FF1CF1F
:104F400086957105610508940895E894BB27662746
:104F50007727CB0197F908952CDF08F48FEF089598
:104F60009B01AC0160E070E080E89FE34CCE0BD089
:104F7000A8CF71DF28F076DF18F0952309F03DCF38
:104F800042CF1124E3CFBFDFA0F3959FD1F3950F5C
:104F900050E0551F629FF001729FBB27F00DB11DBD
:104FA000639FAA27F00DB11DAA1F649F6627B00D4D
:104FB000A11D661F829F2227B00DA11D621F739F36
:104FC000B00DA11D621F839FA00D611D221F749F44
:104FD0003327A00D611D231F849F600D211D822F8B
:104FE000762F6A2F11249F5750408AF0E1F08823D2
:104FF0004AF0EE0FFF1FBB1F661F771F881F9150DF
:105000005040A9F79E3F510570F0F7CE9FCF5F3F0C
:10501000ECF3983EDCF3869577956795B795F79511
:10502000E7959F5FC1F7FE2B880F911D9695879599
:1050300097F908959F931EDF0F9007FCEE5F52CF04
:1050400011F40EF4E0CE41C066DFD0F39923D9F31A
:10505000CEF39F57550B87FF46D00024A0E640EAC9
:10506000900180585695979528F4805C660F771FBD
:10507000881F20F026173707480730F4621B730B90
:10508000840B202931294A2BA695179407942025B3
:1050900031254A2758F7660F771F881F20F02617FB
:1050A0003707480730F4620B730B840B200D311D5A
:1050B000411DA09581F7B901842F9158880F9695CD
:1050C000879508959B01AC0152CF9F3F31F09150DD
:1050D00020F4879577956795B795880F911D9695DC
:1050E000879597F9089591505040660F771F881F54
:1050F000D2F708959F938F937F936F93FF93EF93CE
:105100009B01AC0134DFEF91FF9180DE2F913F9145
:105110004F915F912CCFEE0FFF1F0590F491E02D82
:105120000994BB274A3031F4992322F4BDE29095CB
:1051300081959F4F0C94CE28BB272A3051F4992398
:1051400042F4BDE290958095709561957F4F8F4FA9
:105150009F4F0C94AC28BB27FA01A62F621771054C
:1051600081059105330B30FB66F0AA27660F771F88
:10517000881F991FAA1FA21710F0A21B6395385011
:10518000A9F7A05DAA3308F0A95DA19336F7B11184
:10519000B1931082CA010C94E728BB27FB01552765
:1051A000AA27880F991FAA1FA41710F0A41B839584
:1051B0005051B9F7A05DAA3308F0A95DA1930097FB
:1051C00079F7B111B1931192CB010C94E728DC016E
:1051D000FC01672F71917723E1F7329704C07C912E
:1051E0006D9370836291AE17BF07C8F30895F8946A
:0251F000FFCFEF
:1051F2000100010000803E0100CDCC4C3E010001C7
:105202000000803F0000803F0000803F0000803FA0
:105212000000803F0000803F0000803F0000803F90
:1052220000003E430000AF430000AF4300008C4348
:105232000000C84300007A430000BE4300003E4322
:105242008200C3F5C83F02000AD7A33E010000E175
:065252000000000008004E
:00000001FF
