:100000000C944B010C9468010C9468010C947109D8
:100010000C9468010C9468010C9468010C946801BC
:100020000C9468010C9468010C94F2130C942C1439
:100030000C9468010C9468010C9468010C9468019C
:100040000C9468010C9468010C9468010C9468018C
:100050000C9462090C9468010C9468010C9468017A
:100060000C9468010C9468010C9468010C9468016C
:100070000C9468010C94D6090C9468010C946801E6
:100080000C9468010C9468010C9468010C9468014C
:100090000C9468010C9468010C9468010C9468013C
:1000A0000C9468010C9468010C946801B208C308B0
:1000B000D208E108F008FF080E091D0930093709C8
:1000C0009A1392138A1382137A1372136A136213A8
:1000D0005A1352134A1342133A1332132A13221398
:1000E0001A1312130A130213FA12F212EA12E2128C
:1000F000DA12D212CA12C212BA12B212AA12A21280
:100100009A1292128A1282127A1272126A1262126F
:100110005A1252124A1242123A1232122A1222125F
:100120001A1212120A120212FA11F211EA11E21153
:10013000DA11D211CA11C211BA11B211AA11A21147
:100140009A11084AD73B3BCE016E84BCBFFDC12F3C
:100150003D6C74319ABD56833DDA3D00C77F11BEB8
:10016000D9E4BB4C3E916BAAAABE000000803F05BB
:10017000A84CCDB2D44EB93836A9020C50B99186EC
:1001800088083CA6AAAA2ABE000000803F000A00F8
:100190000A00204242203D2000205234203D200011
:1001A000202000205233203D200020200020523209
:1001B000203D2000202000205231203D2000202022
:1001C00000204C34203D200020200020204C3320F3
:1001D0003D2000204C323D20002020004C31203DAD
:1001E00020000001000079021200020000360243E4
:1001F00000030000320204010309041E021202037C
:100200000904160206030309040C0208080334005B
:1002100031003000000006034D00320000001203E0
:100220004A002E0020004600690065006E0065004F
:1002300000000403090409024300020100C032095E
:100240000400000102020100052400100105240140
:10025000010104240206052406000107058203109B
:10026000004009040100020A0000000705030240E3
:100270000000070584024000001201000202000095
:1002800010C0167A040001010203010001C112012D
:1002900080360181360011241FBECFEFDAE0DEBFC9
:1002A000CDBF11E0A0E0B1E0E0ECFCE302C00590BE
:1002B0000D92A635B107D9F722E0A6E5B1E001C05D
:1002C0001D92A330B207E1F70E94F4160C945E1E53
:1002D0000C9400002898299A919581959109909104
:1002E0004701989F802D11248093D00008952C9A67
:1002F0000895469A0895CF93DF93E1E6F0E080E811
:100300008083108285BF85BF0E94460D0E948F109A
:10031000209A219A229A239A249A3E9A53984AE044
:1003200069E181E00E94EE0D0E94180FE1E8F0E023
:1003300080818B7F808380818260808380818160E7
:100340008083808180618083808188608083E0E811
:10035000F0E0808182608083808181608083EFE62D
:10036000F0E080818160808384EC99E09093890043
:100370008093880078941092CF001092D00088EC7F
:100380008093D1003F9A269AE1ECF0E0808188606A
:10039000808380818460808380818D7F8083808161
:1003A0008E7F8083E3ECF0E080818D7F808380818D
:1003B0008E7F8083E0ECF0E08081826080838081AA
:1003C0008068808380818F7B80838081816080834F
:1003D00080818062808380818F7E8083ECE7F0E083
:1003E00080818F778083808180648083AAE7B0E0FA
:1003F0008C9184608C938C9182608C938C918160C1
:100400008C93CEE7D0E08881816088838881826088
:1004100088838881806188838881806288838881DD
:1004200080648883888180688883CDE7D0E0888174
:1004300081608883888182608883888184608883E2
:10044000CBE7D0E088818F7D888380818B7F80831C
:1004500080818D7F808380818E7F80838C91886076
:100460008C9388818F7D888380818B7F808380813E
:100470008D7F808380818E7F80838C9180688C9338
:100480008C9180648C9340E060E080E20E9486164C
:1004900041E060E080E20E94861642E060E080E297
:1004A0000E94861643E060E080E20E94861644E0E7
:1004B00060E080E20E94861645E060E080E20E94F3
:1004C000861646E060E080E20E94861647E060E023
:1004D00080E20E94861640E061E080E2DF91CF91E9
:1004E0000C9486162F923F924F925F926F927F925A
:1004F0008F929F92AF92BF92CF92DF92EF92FF9234
:100500000F931F93CF93DF93CDB7DEB7C458D109B4
:100510000FB6F894DEBF0FBECDBF2C01FE013196A1
:1005200080E4DF011D928A95E9F7BE016F5B7F4F82
:1005300084E2DB011D928A95E9F7D20120E030E0E8
:1005400080E090E04D915D914F3F534009F401965A
:100550002F5F3F4F2B303105A9F78230910509F409
:1005600071C234F06E9A76986A9A729A80E0F4C4F6
:100570006E9A769A6A9A7298E796FFAFEEAFE7970F
:10058000A7965FAE4EAEA797612C712CEB961FAE6F
:100590001EAEEB9700E010E0212C312CA796AEADFB
:1005A000BFADA7976D917C9180E090E00E94031C05
:1005B000C358DF4F688379838A839B83CD57D040AC
:1005C000A796EEADFFADA7976281738180E090E0C2
:1005D0000E94031CCF57DF4F688379838A839B83F4
:1005E000C158D040AB965FAE4EAEAB97AF961FAE44
:1005F0001EAEAF97E3961FAE1EAEE397AB96AEADC1
:10060000BFADAB976D917C9180E090E00E94031CA0
:100610009B01AC01C358DF4F688179818A819B813E
:10062000CD57D0400E949C1A4B015C01AB96EEADB9
:10063000FFADAB976281738180E090E00E94031C64
:100640009B01AC01CF57DF4F688179818A819B8103
:10065000C158D0400E949C1A6B017C01A5019401F5
:10066000C501B4010E941E1D4B015C01A70196014A
:10067000C701B6010E941E1D9B01AC01C501B4015A
:100680000E949D1A0E948B1D6B017C01E796EEADC6
:10069000FFADE797AF962EAD3FADAF97E20FF31FDB
:1006A0006083718382839383EB964EAD5FADEB974E
:1006B000BA01882777FD8095982F0E94051C9B0121
:1006C000AC01C701B6010E94131D18166CF4C701D6
:1006D000B6010E94D21BEB967FAF6EAFEB97E3960D
:1006E0000EAD1FADE3971301E3968EAD9FADE3977B
:1006F0000196E3969FAF8EAFE397AB96AEADBFADDD
:10070000AB971696AB96BFAFAEAFAB97AF96EEADCD
:10071000FFADAF973496AF96FFAFEEAFAF970497AC
:1007200009F06CCFFFEF6F1A7F0AA7962EAD3FAD91
:10073000A7972A5F3F4FA7963FAF2EAFA797E796A1
:100740004EAD5FADE797405F5F4FE7965FAF4EAF4F
:10075000E79754E06516710409F020CF80E090E03F
:1007600082159305A1F18017910789F1F101EE0F30
:10077000FF1FEE0FFF1FE80FF91FEE0FFF1FEE0F19
:10078000FF1FEE24E394F12CEC0EFD1EEE0DFF1D79
:10079000D801AA0FBB1FAA0FBB1FA80FB91FAA0F12
:1007A000BB1FAA0FBB1FAE0DBF1D2D913D914D91DB
:1007B0005C9160817181828193810E94631B87FFBC
:1007C0000EC0902F812F8101292E382E08C001964E
:1007D0008430910529F6212C312C00E010E086E0D0
:1007E000782E709E7001719EF00C1124E40CF51CA3
:1007F000D7016D917C9180E090E00E94031C4B0139
:100800005C01F7016281738180E090E00E94031C2B
:100810006B017C01729C8001739C100D1124040DEE
:10082000151DD8016D917C9180E090E00E94031C21
:100830002B013C01F8016281738180E090E00E940D
:10084000031CE1966CAF7DAF8EAF9FAFE1979B012C
:10085000AC01C701B6010E949C1AA9966CAF7DAF8E
:100860008EAF9FAFA997A3019201C501B4010E9469
:100870009C1AA9962CAD3DAD4EAD5FADA9970E94D7
:10088000101BE5966CAF7DAF8EAF9FAFE5979B01D8
:10089000AC015058A9962CAF3DAF4EAF5FAFA997B2
:1008A000CA01B9010E94671BAD966CAF7DAF8EAFD8
:1008B0009FAFAD97A3019201C501B4010E949D1A9B
:1008C00020E030E040E05FE30E941E1D20E030E0C9
:1008D00040E054E40E949C1A2B013C01A9966CADA7
:1008E0007DAD8EAD9FADA9970E94811D4B015C012E
:1008F000E1962CAD3DAD4EAD5FADE197C701B601C0
:100900000E949D1A20E030E040E05FE30E941E1D3F
:1009100020E030E040EC53E40E949C1AE9966CAF72
:100920007DAF8EAF9FAFE9978091490190914A01C9
:10093000A0914B01B0914C01E1968CAF9DAFAEAF51
:10094000BFAFE197AD966CAD7DAD8EAD9FADAD9770
:100950009058A30192010E941E1D6B017C01E99633
:100960002CAD3DAD4EAD5FADE997C501B4010E9420
:100970001E1D9B01AC01C701B6010E949C1A9B0180
:10098000AC015058E1966CAD7DAD8EAD9FADE19759
:100990000E941E1D6093A3017093A4018093A50182
:1009A0009093A601A3019201C501B4010E941E1DEE
:1009B0006B017C01E9962CAD3DAD4EAD5FADE99785
:1009C000AD966CAD7DAD8EAD9FADAD970E941E1DF9
:1009D0009B01AC01C701B6010E949C1A9B01AC01AE
:1009E000E1966CAD7DAD8EAD9FADE1970E941E1D71
:1009F0006093A7017093A8018093A9019093AA0125
:100A000020E030E0A901A9966CAD7DAD8EAD9FAD23
:100A1000A9970E94631B87FF83C2E5962CAD3DAD6D
:100A20004EAD5FADE59763EC75EF88EC90E40E9406
:100A30009C1A60939F017093A0018093A1019093F1
:100A4000A2017CC26E9A76986A9A7298D20141E0AD
:100A500050E020E030E080E090E00D911C91119793
:100A60000F3FE3E01E0709F46BC2F901E81BF90B25
:100A7000EE0FFF1FEE0FFF1FE555FE4F11830083A2
:100A800012960D911C911397FC01EE0FFF1F7A0136
:100A9000EE1AFF0AF701EE0FFF1FE555FE4F118317
:100AA00000832F5F3F4F16964E5F5F4F2430310516
:100AB000A1F6AB967FAF6EAFAB972BEA31E0E39632
:100AC0003FAF2EAFE397412C512CE7961FAE1EAEE1
:100AD000E79700E010E0212C312CE396AEADBFADDE
:100AE000E3976D917C9180E090E00E94031CED966D
:100AF0006CAF7DAF8EAF9FAFED97E396EEADFFADE0
:100B0000E3976281738180E090E00E94031CC358E8
:100B1000DF4F688379838A839B83CD57D0402BEA4C
:100B200031E0A7963FAF2EAFA797AF961FAE1EAE90
:100B3000AF97612C712CA796AEADBFADA7976D9105
:100B40007C9180E090E00E94031C9B01AC01ED963B
:100B50006CAD7DAD8EAD9FADED970E949C1A4B01A3
:100B60005C01A796EEADFFADA7976281738180E02F
:100B700090E00E94031C9B01AC01C358DF4F6881C9
:100B800079818A819B81CD57D0400E949C1A6B014C
:100B90007C01A5019401C501B4010E941E1D4B01F9
:100BA0005C01A7019601C701B6010E941E1D9B01B1
:100BB000AC01C501B4010E949D1A0E948B1D6B01FE
:100BC0007C01AB96EEADFFADAB97AF962EAD3FADD2
:100BD000AF97E20FF31F6083718382839383E7965D
:100BE0004EAD5FADE797BA01882777FD8095982FC6
:100BF0000E94051C9B01AC01C701B6010E94131D98
:100C0000181654F4C701B6010E94D21BE7967FAFB5
:100C10006EAFE797830112015FEF651A750AA79619
:100C20008EAD9FADA7970496A7969FAF8EAFA7975F
:100C3000AF96AEADBFADAF971496AF96BFAFAEAFA8
:100C4000AF97B3E06B16710409F075CFEFEF4E1A52
:100C50005E0AE3962EAD3FADE3972C5F3F4FE396E0
:100C60003FAF2EAFE397AB964EAD5FADAB97445F12
:100C70005F4FAB965FAF4EAFAB9753E04516510455
:100C800009F02BCF80E090E08215930509F45AC15A
:100C90008017910709F456C1F101EE0FFF1FE20D15
:100CA000F31DE80FF91FEE0FFF1FEE0FFF1F41E4CA
:100CB00050E04C0F5D1FE40FF51FD801AA0FBB1FBA
:100CC000A00FB11FA80FB91FAA0FBB1FAA0FBB1FF0
:100CD000A40FB51F2D913D914D915C916081718163
:100CE000828193810E94631B87FF05C0902F812F13
:100CF0008101292E382E7801EE0CFF1CE00EF11E2A
:100D0000F701EE0FFF1FE555FE4F6081718180E016
:100D100090E00E94031C4B015C01F701EE0FFF1FE6
:100D2000E355FE4F6081718180E090E00E94031CDA
:100D30006B017C018101000F111F020D131DF801D1
:100D4000EE0FFF1FE555FE4F6081718180E090E05E
:100D50000E94031C2B013C01F801EE0FFF1FE3551D
:100D6000FE4F6081718180E090E00E94031CAD968F
:100D70006CAF7DAF8EAF9FAFAD979B01AC01C7014C
:100D8000B6010E949C1AA9966CAF7DAF8EAF9FAF43
:100D9000A997A3019201C501B4010E949C1AA996CA
:100DA0002CAD3DAD4EAD5FADA9970E94101B9B01D0
:100DB000AC015058A9962CAF3DAF4EAF5FAFA9978D
:100DC000CA01B9010E94671BE5966CAF7DAF8EAF7B
:100DD0009FAFE597A3019201C501B4010E949D1A3E
:100DE00020E030E040E05FE30E941E1D20E030E0A4
:100DF00040E054E40E949C1A2B013C01A9966CAD82
:100E00007DAD8EAD9FADA9970E94811D4B015C0108
:100E1000AD962CAD3DAD4EAD5FADAD97C701B60102
:100E20000E949D1A20E030E040E05FE30E941E1D1A
:100E300020E030E040EC53E40E949C1AE1966CAF55
:100E40007DAF8EAF9FAFE1978091490190914A01AC
:100E5000A0914B01B0914C01AD968CAF9DAFAEAF60
:100E6000BFAFAD97E5966CAD7DAD8EAD9FADE5970F
:100E70009058A30192010E941E1D6B017C01E19616
:100E80002CAD3DAD4EAD5FADE197C501B4010E9403
:100E90001E1D9B01AC01C701B6010E949C1A9B015B
:100EA000AC015058AD966CAD7DAD8EAD9FADAD979C
:100EB0000E941E1D6093A3017093A4018093A5015D
:100EC0009093A601A3019201C501B4010E941E1DC9
:100ED0006B017C01E1962CAD3DAD4EAD5FADE19770
:100EE000E5966CAD7DAD8EAD9FADE5970E941E1D64
:100EF0009B01AC01C701B6010E949C1A9B01AC0189
:100F0000AD966CAD7DAD8EAD9FADAD970E941E1DB3
:100F10006093A7017093A8018093A9019093AA01FF
:100F2000A9962CAD3DAD4EAD5FADA99720939F0125
:100F30003093A0014093A1015093A20181E00CC025
:100F40000196AFCD01968330910509F09DCE212CFD
:100F5000312C00E010E0CFCECC57DF4F0FB6F89425
:100F6000DEBF0FBECDBFDF91CF911F910F91FF90DC
:100F7000EF90DF90CF90BF90AF909F908F907F9039
:100F80006F905F904F903F902F900895CF92DF9297
:100F9000EF92FF920F931F93CF93DF93EC018B019E
:100FA000FB012081318142815381688179818A816D
:100FB0009B810E941E1D20E030E0A9010E949D1A25
:100FC0006B017C01F80124813581468157816C8158
:100FD0007D818E819F810E941E1D9B01AC01C701F6
:100FE000B6010E949D1ADF91CF911F910F91FF9042
:100FF000EF90DF90CF9008951816190654F4289AB0
:10100000299890914701989F802D11248093D000BA
:1010100008950C946A01209147011816190644F4AA
:10102000289F802D11248093CF002A9A2B98089511
:10103000919581959109289F802D11248093CF004F
:101040002A982B9A089581110C9477012C98089571
:1010500081110C94790146980895AF92BF92CF9276
:10106000DF92EF92FF920F931F93CF93DF9380E075
:101070000E94280880E00E94230800E010E0C12CB4
:10108000D12C7601C0E0D0E05801AA0CBB1CAA0C00
:10109000BB1CC501815A9E4F5C01FC0160817181BE
:1010A00082819381A70196010E94131D181634F4C2
:1010B000F501C080D180E280F380E8010F5F1F4F0F
:1010C0000830110509F78091FD019091FE018438E7
:1010D00093408CF484E090E090934E0180934D0116
:1010E00020E030E048EC52E4C701B6010E94631BE7
:1010F00087FDB6C0C8C0209719F0C730D105F9F4F4
:1011000060915F0170916001809161019091620135
:1011100020917B0130917C0140917D0150917E01B5
:101120000E949C1A0E94D21B9B0177FF04C02227B9
:101130003327261B370B243631050CF491C020E0F1
:1011400030E048EC52E4C701B6010E94631B87FD02
:1011500087C0CA30D10508F096C0FE01EA5AFF4F99
:101160000C94F21D84E190E090935E0180935D0108
:101170008CEE9FEF90935C0180935B01109286014F
:101180001092850180C084E190E090935E0180938D
:101190005D018CEE9FEF90935C0180935B0181E099
:1011A00090E059C084E190E090935E0180935D01EE
:1011B0008CEE9FEF90935C0180935B0182E090E066
:1011C0004AC084E190E090935E0180935D018CEED3
:1011D0009FEF90935C0180935B0183E090E03BC0C4
:1011E0008CEE9FEF90935E0180935D0184E190E02F
:1011F00090935C0180935B0184E090E02CC08CEEC6
:101200009FEF90935E0180935D0184E190E0909365
:101210005C0180935B0185E090E01DC08CEE9FEF48
:1012200090935E0180935D0184E190E090935C0176
:1012300080935B0186E090E00EC08CEE9FEF909370
:101240005E0180935D0184E190E090935C01809366
:101250005B0187E090E0909386018093850113C045
:1012600082E390E090935E0180935D0108C084E189
:1012700090E090935E0180935D018CEE9FEF9093E0
:101280005C0180935B01DF91CF911F910F91FF90E3
:10129000EF90DF90CF90BF90AF90089540E062E173
:1012A000882319F080E20C94861680E20C94B31621
:1012B00042E062E1882319F080E20C94861680E215
:1012C0000C94B3161F920F920FB60F9211248F93A6
:1012D00081E0809356018F910F900FBE0F901F9069
:1012E00018951F920F920FB60F9211242F933F93D0
:1012F0004F935F936F937F938F939F93AF93BF931E
:10130000EF93FF936AE08FED91E00E94460E80918B
:10131000DF01813A39F1843A41F1803A61F58091F7
:10132000570190915801019779F40E9477012FEFAE
:1013300081EE94E0215080409040E1F700C0000031
:1013400080E00E9423080EC00E9479012FEF81EEF9
:1013500094E0215080409040E1F700C0000080E020
:101360000E94280883E090E002C081E090E0909322
:101370004E0180934D0180914D0190914E010E944C
:10138000AF158EE891E00E947B15FF91EF91BF9120
:10139000AF919F918F917F916F915F914F913F910D
:1013A0002F910F900FBE0F901F9018951F920F92C4
:1013B0000FB60F9211240F931F932F933F934F93C8
:1013C0005F936F937F938F939F93AF93BF93CF93CD
:1013D000DF93EF93FF938091830190918401892B98
:1013E00009F041C06091780070917900009183010B
:1013F00010918401C0918301D091840180E090E03C
:101400000E94031CF801EE0FFF1FEE0FFF1FEF5DA0
:10141000FE4F20813181428153810E949C1ACC0F62
:10142000DD1FCC0FDD1FCF5FDE4F288139814A8160
:101430005B810E941E1D0E94D21B7093F20160937B
:10144000F101809183019091840101969093840130
:101450008093830180917A008F7780937A008091C6
:101460007B008F7DBEC180918301909184010197A3
:1014700009F057C060917800709179000091830164
:1014800010918401C0918301D091840180E090E0AB
:101490000E94031CF801EE0FFF1FEE0FFF1FEF5D10
:1014A000FE4F20813181428153810E949C1ACC0FD2
:1014B000DD1FCC0FDD1FCF5FDE4F288139814A81D0
:1014C0005B810E941E1D0E94D21B709302026093DA
:1014D000010280918301909184010196909384018F
:1014E0008093830180917A008F7780937A00809136
:1014F0007B008F7D80937B0080917C008460809353
:101500007C0080917C008D7F80937C0080917C00AA
:101510008E7F80937C0080917A00806180937A0036
:10152000E9C18091830190918401029709F050C034
:10153000609178007091790000918301109184018D
:10154000C0918301D091840180E090E00E94031C4F
:10155000F801EE0FFF1FEE0FFF1FEF5DFE4F208122
:101560003181428153810E949C1ACC0FDD1FCC0F28
:10157000DD1FCF5FDE4F288139814A815B810E9468
:101580001E1D0E94D21B7093F8016093F701809199
:10159000830190918401019690938401809383014B
:1015A00080917A008F7780937A0080917B008F7D85
:1015B00080937B0080917C00846080937C0080918C
:1015C0007C008D7F80937C0080917C008160A1CF26
:1015D0008091830190918401039709F046C0609146
:1015E0007800709179000091830110918401C0917D
:1015F0008301D091840180E090E00E94031CF801F7
:10160000EE0FFF1FEE0FFF1FEF5DFE4F20813181B8
:10161000428153810E949C1ACC0FDD1FCC0FDD1F2D
:10162000CF5FDE4F288139814A815B810E941E1D78
:101630000E94D21B709300026093FF01809183018E
:10164000909184010196909384018093830180910D
:101650007A008F7780937A0080917B008F7D8093D2
:101660007B0080917C00846000C180918301909117
:1016700084010497F1F5609178007091790080E021
:1016800090E00E94031C20913D0130913E01409169
:101690003F01509140010E949C1A20911D01309100
:1016A0001E0140911F01509120010E941E1D0E94A9
:1016B000D21B7093F6016093F501809183019091A4
:1016C00084010196909384018093830180917A0034
:1016D0008F7780937A0080917B008F7D80937B0051
:1016E00080917C00846080937C0080917C0082608B
:1016F00069CF80918301909184010597C9F560912C
:1017000078007091790080E090E00E94031C2091A5
:10171000390130913A0140913B0150913C010E94C6
:101720009C1A2091190130911A0140911B0150918E
:101730001C010E941E1D0E94D21B7093FC0160932D
:10174000FB01809183019091840101969093840123
:101750008093830180917A008F7780937A008091C3
:101760007B00806280937B0080917C008B7FC7CE62
:1017700080918301909184010697C9F5609178006A
:101780007091790080E090E00E94031C2091350167
:101790003091360140913701509138010E949C1AD6
:1017A00020911501309116014091170150911801B7
:1017B0000E941E1D0E94D21B7093EE016093ED01EA
:1017C000809183019091840101969093840180938C
:1017D000830180917A008F7780937A0080917B00DB
:1017E000806280937B0080917C008B7FE6CE80912D
:1017F0008301909184010797F1F5609178007091D1
:10180000790080E090E00E94031C2091310130912A
:10181000320140913301509134010E949C1A209171
:1018200011013091120140911301509114010E9455
:101830001E1D0E94D21B7093F4016093F3018091EE
:101840008301909184010196909384018093830198
:1018500080917A008F7780937A0080917B008062FC
:1018600080937B0080917C008B7F80937C008091B3
:101870007C00826049CE8091830190918401089719
:10188000C9F580917800909179009093FE01809342
:10189000FD018091830190918401019690938401D0
:1018A0008093830180917A008F7780937A00809172
:1018B0007B008F7D80937B0080917C008B7F809369
:1018C0007C0080917C008D7F80937C0080917C00E7
:1018D0008E7F80937C0080917A00806180937A0073
:1018E000109284011092830181E090E09093FA01BC
:1018F0008093F9018091F9019091FA01892B09F403
:10190000A2C06091F1017091F201882777FD809566
:10191000982F0E94051C60935F0170936001809373
:101920006101909362016091010270910202882727
:1019300077FD8095982F0E94051C6093630170933A
:10194000640180936501909366016091F701709145
:10195000F801882777FD8095982F0E94051C6093D9
:101960006701709368018093690190936A016091A7
:10197000FF0170910002882777FD8095982F0E94C3
:10198000051C60936B0170936C0180936D019093C3
:101990006E016091F3017091F401882777FD8095C5
:1019A000982F0E94051C60936F01709370018093C3
:1019B0007101909372016091ED017091EE018827A1
:1019C00077FD8095982F0E94051C6093730170939A
:1019D000740180937501909376016091FB01709181
:1019E000FC01882777FD8095982F0E94051C609345
:1019F0007701709378018093790190937A016091D7
:101A0000F5017091F601882777FD8095982F0E9447
:101A1000051C60937B0170937C0180937D01909302
:101A20007E016091FD017091FE01882777FD809510
:101A3000982F0E94051C60937F0170938001809312
:101A40008101909382011092FA011092F901809124
:101A50007A00806880937A0080917A008064809315
:101A60007A00FF91EF91DF91CF91BF91AF919F915C
:101A70008F917F916F915F914F913F912F911F9126
:101A80000F910F900FBE0F901F901895589A599A6A
:101A90005A9A8CE08093B800E9E6F0E08081806299
:101AA000808380818F7E8083EA9A7894089584E889
:101AB0008093BC008091BC0087FFFCCF8091BB006D
:101AC000089584E98093BC00089520E030E080917F
:101AD000BC0087FD06C02F5F3F4F293E83E03807DB
:101AE000B1F781E0283E334009F480E00895809307
:101AF000BB0084E88093BC000E94650D882321F020
:101B00008091B900887F089580E008951F93CF9356
:101B1000DF931F92CDB7DEB7182F84EA8093BC0005
:101B200069830E94650D6981811104C094E99093D5
:101B3000BC0014C0812F880F662331F08F5F0E9494
:101B4000770D883451F404C00E94770D803229F457
:101B500084E98093BC0080E001C081E00F90DF91B8
:101B6000CF911F910895CF93DF93C82FD62F60E0B8
:101B70000E94860D882391F08D2F0E94770D882377
:101B800069F084E98093BC0061E08C2F0E94860D8F
:101B9000882321F0DF91CF910C94570D80E0DF91E5
:101BA000CF910895CF93DF93D62FC42F60E00E948A
:101BB000860D811102C080E00EC08D2F0E94770D2E
:101BC0008823C9F38C2F0E94770D8823A1F384E921
:101BD0008093BC0081E0DF91CF910895CF93DF9394
:101BE00000D01F92CDB7DEB74B836A8389830E94F2
:101BF000460D94EA9093BC0089816A814B81909153
:101C0000BC0097FFFCCF90E59093BB0094E89093C5
:101C1000BC009091BC0097FFFCCF9091B900987FD9
:101C2000903229F484E98093BC0080E029C091E0DF
:101C30009093BB0094E89093BC009091BC0097FFF8
:101C4000FCCF8093BB0084E88093BC008091BC00F3
:101C500087FFFCCF6093BB0084E88093BC00809139
:101C6000BC0087FFFCCF4093BB0084E88093BC009E
:101C70008091BC0087FFFCCF84E98093BC0081E0A9
:101C80000F900F900F90DF91CF91089524EA209349
:101C9000BC002091BC0027FFFCCF21E52093BB00B6
:101CA00024E82093BC002091BC0027FFFCCF2091AA
:101CB000B900287F2834A9F024EC2093BC0020919F
:101CC000BC0027FFFCCF2091BB0026130AC0FC01FB
:101CD00020E030E0772767FD70956150710944EC92
:101CE0000EC084E98093BC0080E008955091BC0050
:101CF00057FFFCCF5091BB0051932F5F3F4F2617EA
:101D000037071CF44093BC00F1CF44E84093BC007B
:101D10004091BC0047FFFCCF4091BB00FC01E20FAB
:101D2000F31F408384E98093BC0081E00895F89418
:101D300094EA9093BC009091BC0097FFFCCF90E593
:101D40009093BB0094E89093BC009091BC0097FFE7
:101D5000FCCF9091B900987F903231F484E9809360
:101D6000BC00789480E0089593E09093BB0094E8E1
:101D70009093BC009091BC0097FFFCCF8093BB0078
:101D800084E88093BC008091BC0087FFFCCFFB01FE
:101D9000552747FD509524E8CF01861B970B8417E4
:101DA000950754F481918093BB002093BC008091EF
:101DB000BC0087FFFCCFF0CF84E98093BC0078940F
:101DC00081E0089520E030E08091BC0087FD06C0EE
:101DD0002F5F3F4F293E83E03807B1F781E0283E6F
:101DE000334009F480E008958093BB0084E8809339
:101DF000BC000E94E20E882319F08091B900887F10
:101E00000895CF93C82F84EA8093BC000E94E20E0D
:101E1000882361F08C2F880F0E94F40E803229F401
:101E200084E98093BC0080E001C081E0CF910895F7
:101E30000E94460D88E50E94010F811102C080E0DA
:101E4000089580E30E94F40E8823C9F381E00E9484
:101E5000F40E8823A1F384E98093BC008FE39CE90E
:101E60000197F1F700C0000088E50E94010F882368
:101E700031F380E00E94F40E882309F380E00E9491
:101E8000F40E8823E1F280E00E94F40E8823B9F278
:101E900080E00E94F40E882391F280E00E94F40E0C
:101EA000882369F280E00E94F40E882341F280E0EA
:101EB0000E94F40E882319F280E90E94F40E882310
:101EC00009F4BDCF84E98093BC008FE39CE90197BE
:101ED000F1F700C0000088E50E94010F882309F493
:101EE000AECF87E00E94F40E882309F4A8CF80E0EB
:101EF0000E94F40E882309F4A2CF81E40E94F40E1C
:101F0000882309F49CCF84E98093BC008FE39CE98B
:101F10000197F1F700C0000088E50E94010F8823B7
:101F200009F48DCF8AE10E94F40E882309F487CF4B
:101F300080E40E94F40E882309F481CF80E00E949F
:101F4000F40E882309F47BCF84E98093BC008FE3EF
:101F50009CE90197F1F700C0000088E50E94010F9D
:101F6000882309F46CCF83E30E94F40E882309F4DC
:101F700066CF83E00E94F40E882309F460CF84E9E1
:101F80008093BC008FE39CE90197F1F700C000004B
:101F900088E50E94010F882309F451CF80E30E9455
:101FA000F40E882309F44BCF88E00E94F40E8823B6
:101FB00009F445CF84E98093BC008FE39CE9019745
:101FC000F1F700C0000081E00895CF93C82F84EAA4
:101FD0008093BC000E94E20E882369F08C2F880F4A
:101FE0008F5F0E94F40E883429F484E98093BC004A
:101FF00080E001C081E0CF910895EF92FF920F93AE
:102000001F93CF93DF93CDB7DEB760970FB6F894E9
:10201000DEBF0FBECDBF7C018E010F5F1F4F80E181
:10202000F80111928A95E9F788E50E94010F811164
:1020300002C080E05EC086E30E94F40E8823C9F3EC
:1020400084E98093BC00F5E8FA95F1F7000088E593
:102050000E94E50F882369F3F8019E01205F3F4F3E
:1020600094EC9093BC008091BC0087FFFCCF8091E2
:10207000BB008193E217F307A1F784E88093BC00CB
:102080008091BC0087FFFCCF8091BB00888B84E9E6
:102090008093BC00DE01149687016C91762F7073DB
:1020A000AD0142505109FA01808190E0F0E17F9F3B
:1020B000800D911D1124F80191838083762F707C0F
:1020C0004F5F5F4FFA01808190E0F4E07F9F800DC9
:1020D000911D1124F801938382836F70862F90E005
:1020E0009583848313960A5F1F4FA217B307A9F63F
:1020F00081E060960FB6F894DEBF0FBECDBFDF91D2
:10210000CF911F910F91FF90EF90089584E98093F4
:10211000BC0008958091E80080FFFCCF089581E025
:102120008093D70080EA8093D80082E189BD09B40A
:1021300000FEFDCF80E98093D8001092E00010925D
:10214000EC011092E9018CE08093E200789408950C
:102150008091EC0108959FB7F8948091EC01882359
:1021600039F083E08093E9008091E80085FD03C0A9
:102170009FBF8FEF08958091F1002091E80025FD29
:1021800003C02BE62093E8009FBF08959FB7F89403
:102190008091EC01882331F083E08093E900809105
:1021A000F20001C080E09FBF08958091EC01882378
:1021B00071F08FB7F89493E09093E9002BE690913B
:1021C000E80095FF03C02093E800F9CF8FBF089582
:1021D0009091EC01992371F09FB7F89424E020933B
:1021E000E9002091EA01222349F02091E80025FD31
:1021F00003C09FBF8FEF08951092EA012091E40081
:10220000275E34E04091E80045FD12C09FBF9091E9
:10221000E400921304C081E08093EA01EBCF909137
:10222000EC01992339F39FB7F8943093E900EACF92
:102230008093F1008091E80085FD03C08AE38093DC
:10224000E80085E08093EB019FBF80E008959091C6
:10225000EC019923D1F09FB7F89424E02093E90092
:102260002091E80025FD02C09FBF0FC08093F100C0
:102270008091E80085FD03C08AE38093E80085E053
:102280008093EB019FBF80E008958FEF0895EF9258
:10229000FF921F93CF93DF937C01CB012091EC0140
:1022A000222371F0AFB7F89424E02093E900209145
:1022B000EA01222349F02091E80025FD03C0AFBFC9
:1022C0008FEF42C21092EA01B4E0C0E4DAE315E015
:1022D000009709F437C22091E400275E3091E800AE
:1022E00035FD12C0AFBF3091E400321304C081E06D
:1022F0008093EA01E5CF3091EC01332309F3AFB7C6
:10230000F894B093E900EACF2091F2004C2F421BE1
:10231000242F30E08217930708F4482F841B91097B
:1023200050E04134510508F0FDC1405A5F4FFA01B9
:102330000C94F21DF70120812093F10097012F5F8B
:102340003F4F7901F70120812093F10097012F5F22
:102350003F4F7901F70120812093F10097012F5F12
:102360003F4F7901F70120812093F10097012F5F02
:102370003F4F7901F70120812093F10097012F5FF2
:102380003F4F7901F70120812093F10097012F5FE2
:102390003F4F7901F70120812093F10097012F5FD2
:1023A0003F4F7901F70120812093F10097012F5FC2
:1023B0003F4F7901F70120812093F10097012F5FB2
:1023C0003F4F7901F70120812093F10097012F5FA2
:1023D0003F4F7901F70120812093F10097012F5F92
:1023E0003F4F7901F70120812093F10097012F5F82
:1023F0003F4F7901F70120812093F10097012F5F72
:102400003F4F7901F70120812093F10097012F5F61
:102410003F4F7901F70120812093F10097012F5F51
:102420003F4F7901F70120812093F10097012F5F41
:102430003F4F7901F70120812093F10097012F5F31
:102440003F4F7901F70120812093F10097012F5F21
:102450003F4F7901F70120812093F10097012F5F11
:102460003F4F7901F70120812093F10097012F5F01
:102470003F4F7901F70120812093F10097012F5FF1
:102480003F4F7901F70120812093F10097012F5FE1
:102490003F4F7901F70120812093F10097012F5FD1
:1024A0003F4F7901F70120812093F10097012F5FC1
:1024B0003F4F7901F70120812093F10097012F5FB1
:1024C0003F4F7901F70120812093F10097012F5FA1
:1024D0003F4F7901F70120812093F10097012F5F91
:1024E0003F4F7901F70120812093F10097012F5F81
:1024F0003F4F7901F70120812093F10097012F5F71
:102500003F4F7901F70120812093F10097012F5F60
:102510003F4F7901F70120812093F10097012F5F50
:102520003F4F7901F70120812093F10097012F5F40
:102530003F4F7901F70120812093F10097012F5F30
:102540003F4F7901F70120812093F10097012F5F20
:102550003F4F7901F70120812093F10097012F5F10
:102560003F4F7901F70120812093F10097012F5F00
:102570003F4F7901F70120812093F10097012F5FF0
:102580003F4F7901F70120812093F10097012F5FE0
:102590003F4F7901F70120812093F10097012F5FD0
:1025A0003F4F7901F70120812093F10097012F5FC0
:1025B0003F4F7901F70120812093F10097012F5FB0
:1025C0003F4F7901F70120812093F10097012F5FA0
:1025D0003F4F7901F70120812093F10097012F5F90
:1025E0003F4F7901F70120812093F10097012F5F80
:1025F0003F4F7901F70120812093F10097012F5F70
:102600003F4F7901F70120812093F10097012F5F5F
:102610003F4F7901F70120812093F10097012F5F4F
:102620003F4F7901F70120812093F10097012F5F3F
:102630003F4F7901F70120812093F10097012F5F2F
:102640003F4F7901F70120812093F10097012F5F1F
:102650003F4F7901F70120812093F10097012F5F0F
:102660003F4F7901F70120812093F10097012F5FFF
:102670003F4F7901F70120812093F10097012F5FEF
:102680003F4F7901F70120812093F10097012F5FDF
:102690003F4F7901F70120812093F10097012F5FCF
:1026A0003F4F7901F70120812093F10097012F5FBF
:1026B0003F4F7901F70120812093F10097012F5FAF
:1026C0003F4F7901F70120812093F10097012F5F9F
:1026D0003F4F7901F70120812093F10097012F5F8F
:1026E0003F4F7901F70120812093F10097012F5F7F
:1026F0003F4F7901F70120812093F10097012F5F6F
:102700003F4F7901F70120812093F10097012F5F5E
:102710003F4F7901F70120812093F10097012F5F4E
:102720003F4F7901F70120812093F10097012F5F3E
:102730003F4F79012091E80025FFD093E8001093E6
:10274000EB01C6CDAFBF80E0DF91CF911F91FF902D
:10275000EF9008958FB7F8949091EB01992341F091
:1027600094E09093E9009AE39093E8001092EB01D3
:102770008FBF089580915301089580915401089569
:102780008091550108958091E90108959FB7F894CB
:102790002091EC01222339F022E02093E9003091CE
:1027A000E80035FD03C09FBF8FEF089531EA3093F5
:1027B000F10030E23093F1001092F1001092F1003C
:1027C0001092F1001092F1002093F1001092F100AC
:1027D0008093F1001092F1008AE38093E8009FBF9C
:1027E00080E008951F920F920FB60F9211248F93DD
:1027F0009F938091E1001092E10083FF11C010923D
:10280000E90091E09093EB001092EC0092E190933C
:10281000ED0098E09093F0001092EC011092E90125
:1028200082FF13C08091EC01882379F08091EB0145
:10283000882359F081508093EB01811106C084E018
:102840008093E9008AE38093E8009F918F910F9035
:102850000FBE0F901F9018951F920F920FB60F92F8
:102860001124EF92FF920F931F932F933F934F9357
:102870005F936F937F938F939F93AF93BF93EF93E8
:10288000FF93CF93DF931F92CDB7DEB71092E9008D
:102890008091E80083FF14C19091F1008091F100D4
:1028A0003091F1002091F100E32EF12CF22A0091F9
:1028B000F1002091F10010E0122B2091F1006091C5
:1028C000F10032EF3093E800863009F046C036E080
:1028D00082EE91E0FC01459154914E155F0539F46B
:1028E000FC013296459154914017510721F007960B
:1028F000315081F7E5C0FC01349645915491FC01BB
:102900003696849130E0362B2F3F310519F010F0C8
:102910002FEF30E0281708F4822F3EEF9091E80067
:10292000292F2570D9F392FDCEC0982F813108F060
:1029300090E1FA01292F222331F064916093F10094
:1029400021503196F8CF490F511D891B3093E80073
:102950008111E4CF903111F3B6C0853051F48EEF80
:102960008093E8000E948A108E2D80688093E30097
:10297000AAC0893059F5911180C0E092EC01109203
:10298000E9011092EB018EEF8093E80041E08BE8C3
:1029900092E04093E9009C012F5F3F4FFC0154916E
:1029A0005093EB00552359F0F90124912093EC004A
:1029B0009C012D5F3F4F319684918093ED004F5FD6
:1029C000453011F0C901E5CF8EE175C0883051F472
:1029D000903809F052C00E948A108091EC018093D7
:1029E000F10047C0813279F4913A09F046C00E9463
:1029F0008A10EFE4F1E081918093F10081E0E63507
:102A0000F807C9F736C0803299F49132B1F5809158
:102A1000E80082FFFCCFEFE4F1E08091F1008193C8
:102A200081E0E635F807C9F78BEF8093E80021C015
:102A3000823241F4913209F043C0E092E9010E94F0
:102A40008A1017C0811119C099830E948A10998138
:102A5000923851F40093E9008091EB0085FB8827C0
:102A600080F91092E90001C080E08093F10010929B
:102A7000F1008EEF8093E80026C0282F2D7F2130B3
:102A8000F9F49230E9F4EF28D9F40F779FEF900F23
:102A90009430B0F49EEF9093E8000093E900833007
:102AA00079F089E18093EB0081E090E0002E01C095
:102AB000880F0A94EAF78093EA001092EA0003C0B4
:102AC00081E28093EB000F90DF91CF91FF91EF9126
:102AD000BF91AF919F918F917F916F915F914F9136
:102AE0003F912F911F910F91FF90EF900F900FBE8C
:102AF0000F901F9018951F93CF93DF93EC01FE0169
:102B00001491112351F01A3019F48DE00E94E8104D
:102B1000812F0E94E8102196F2CFDF91CF911F9173
:102B200008958A3010F490E301C097E3890F0C9464
:102B3000E810CF93C82F82958F700E9491158C2F2B
:102B40008F70CF910C949115CF93C82F892F0E942D
:102B500099158C2FCF910C9499150C949915EF928F
:102B6000FF920F931F93CF93DF93CDB7DEB72797D5
:102B70000FB6F894DEBF0FBECDBF8E010F5F1F4FA3
:102B800027E0F80111922A95E9F74AE0B8010E947E
:102B9000F81D7E01F8E0EF0EF11CF80181918F0124
:102BA00081110E94E8100E151F05B9F727960FB680
:102BB000F894DEBF0FBECDBFDF91CF911F910F9173
:102BC000FF90EF900895EF92FF920F931F93CF9392
:102BD000DF9300D000D000D0CDB7DEB78E010F5FFD
:102BE0001F4F26E0F80111922A95E9F74AE0B80153
:102BF0000E94341E7E01F6E0EF0EF11CF801819177
:102C00008F0181110E94E8100E151F05B9F7269655
:102C10000FB6F894DEBF0FBECDBFDF91CF911F91ED
:102C20000F91FF90EF900895EF92FF920F931F93F3
:102C3000CF93DF93CDB7DEB72B970FB6F894DEBFF7
:102C40000FBECDBF8E010F5F1F4F2BE0F801119219
:102C50002A95E9F72AE0A8010E94031E7E01FCE004
:102C6000EF0EF11CF80181918F0181110E94E81093
:102C70000E151F05B9F72B960FB6F894DEBF0FBEE1
:102C8000CDBFDF91CF911F910F91FF90EF900895ED
:102C9000EF92FF920F931F93CF93DF93CDB7DEB7E1
:102CA0002B970FB6F894DEBF0FBECDBF8E010F5F1E
:102CB0001F4F2BE0F80111922A95E9F72AE0A801AD
:102CC0000E94121E7E01FBE0EF0EF11CF8018191C3
:102CD0008F0181110E94E8100E151F05B9F72B9680
:102CE0000FB6F894DEBF0FBECDBFDF91CF911F911D
:102CF0000F91FF90EF90089548E365E00E94D20D98
:102D000091E0811101C090E0892F08951F93CF9326
:102D1000DF93D82FC62F142F0E94B30DC23058F462
:102D2000E1E0F0E0012E01C0EE0F0A94EAF74E2F29
:102D3000409548230DC09EEE9C0F923078F421E020
:102D400030E0012E01C0220F0A94EAF7482F422BEF
:102D50006C2F8D2F0E94D20D81E001C080E0DF91A9
:102D6000CF911F9108951F93CF93DF93D82FC62F34
:102D7000142F0E94B30D9EEE9C0F923058F4E1E0A8
:102D8000F0E0012E01C0EE0F0A94EAF74E2F4095B5
:102D900048230BC0C23078F421E030E0012E01C09E
:102DA000220F0A94EAF7482F422B6C2F8D2F0E9496
:102DB000D20D81E001C080E0DF91CF911F91089595
:102DC000CF93DF931F92CDB7DEB749830E94B30D37
:102DD00090E0498102C0959587954A95E2F7817008
:102DE0000F90DF91CF9108950E947B01C1E2D1E065
:102DF00001E011E0299139914991599160E070E029
:102E000080E894E40E949C1A9B01AC0160E070E0B1
:102E100080E894E40E946A1BD8016D937D938D93A2
:102E20009D938D01B1E0C134DB0721F781E00E9461
:102E3000580981E00E944E0901E010E0E3E02E2EE7
:102E4000312CC8E2D0E0F2E5CF2EF8EBDF2EF6E928
:102E5000EF2EF0E4FF2E0E94A810882309F476C01C
:102E60008CED91E00E947B158091F1019091F2012F
:102E70000E94AF1589ED91E00E947B1583ED91E0F2
:102E80000E947B1580910102909102020E94AF1571
:102E90008BEC91E00E947B158091F7019091F801F5
:102EA0000E94AF1588EC91E00E947B1581EC91E0C7
:102EB0000E947B158091FF01909100020E94AF1546
:102EC0008EEB91E00E947B1587EB91E00E947B15D1
:102ED0008091F5019091F6010E94AF1584EB91E08D
:102EE0000E947B158DEA91E00E947B158091FB0189
:102EF0009091FC010E94AF158AEA91E00E947B1537
:102F000083EA91E00E947B158091ED019091EE01A2
:102F10000E94AF1580EA91E00E947B1589E991E05B
:102F20000E947B158091F3019091F4010E94AF15EE
:102F300082E991E00E947B158091FD019091FE0154
:102F40000E94AF1580E991E00E947B15E1E0E093DB
:102F500056018DEB91E00E94FD0F8DEB91E00E94F8
:102F600072026091A3017091A4018091A5019091DA
:102F7000A6010E94D21B6093D5016091A7017091B8
:102F8000A8018091A9019091AA010E94D21B60938F
:102F9000D60120E030E04EEF52E460919F01709145
:102FA000A0018091A1019091A2010E941E1D2AE919
:102FB00039E949EC50E40E946A1B0E94D21B6093DD
:102FC000D7014AE065ED71E088E10E94970E10920A
:102FD000560180914D0190914E018330910509F485
:102FE000ACC13CF48130910561F0029709F486C0D0
:102FF0009EC28430910509F4CBC108970CF42BCF05
:1030000096C2109298011092970110929601109218
:10301000950180E090E00E946A0180919501909175
:1030200096010E940B0880E00E94230880E00E9425
:1030300028084B9B28C080910001882321F10E9421
:103040007701FFEF21EE84E0F15020408040E1F76E
:1030500000C0000080E00E94230880E00E94280851
:1030600082E890E09093420180934101C092430135
:10307000D0924401E0924501F0924601109358012C
:10308000009357012FC04B992FC0809100018823D6
:1030900059F10E9479019FEFA1EEB4E09150A04058
:1030A000B040E1F700C0000080E00E94280880E006
:1030B0000E942308EEE7FFEFF0934201E093410105
:1030C00083EC95EFA8ECBFE3809343019093440118
:1030D000A0934501B0934601A2E0B0E0B09358013F
:1030E000A093570110920001BFEFE1EEF4E0B15060
:1030F000E040F040E1F700C0000014C280E00E9410
:1031000023080E94790180918D0190918E01892B75
:1031100009F041C010938E0100938D0120E030E052
:10312000A9016091A3017091A4018091A5019091E2
:10313000A6010E94631B87FF0DC0C0929901D09227
:103140009A01E0929B01F0929C0180E090E0A8EC53
:10315000B2E410C083EC95EFA8ECBFE38093990133
:1031600090939A01A0939B01B0939C0180E090E022
:10317000A8ECB2EC8093910190939201A0939301FB
:10318000B09394019FEFA1EEB4E09150A040B04005
:10319000E1F700C000006091A3017091A40180914B
:1031A000A5019091A6010E94D21B5B0177FF04C08C
:1031B000AA24BB24A61AB70A6091910170919201CA
:1031C00080919301909194010E94D21B9B0177FF03
:1031D00004C022273327261B370BA216B3060CF098
:1031E000A5C02BE734E14EE25EE360919901709156
:1031F0009A0180919B0190919C010E949D1A9B01D4
:10320000AC0160919F017091A0018091A10190910A
:10321000A2010E94131D1816B4F484E190E090936B
:103220009801809397018CEE9FEF90939601809385
:10323000950184E190E00E94FC07809195019091B6
:1032400096010E940B082BE734E14EE25EE36091A9
:10325000990170919A0180919B0190919C010E942B
:103260009C1A9B01AC0160919F017091A00180911B
:10327000A1019091A2010E94631B87FF16C08CEEF2
:103280009FEF909398018093970184E190E0909351
:103290009601809395018CEE9FEF0E946A018091C8
:1032A0009501909196010E940B08409099015090D1
:1032B0009A0160909B0170909C0180909F0190907A
:1032C000A001A090A101B090A2012BE734E14EE251
:1032D0005EE3C301B2010E949C1AA50194010E9401
:1032E000631B87FFB8CD2BE734E14EE25EE3C301F9
:1032F000B2010E949D1A9B01AC01C501B4010E945C
:10330000631B87FFA8CD84E190E0909398018093A0
:10331000970190939601809395010E94FC078091FC
:103320009501909196010E940B0895CDE2E0F0E0A6
:10333000F0934E01E0934D018ECD80E00E9428086D
:103340000E942D0880915D0190915E0190939601FD
:103350008093950180915B0190915C01909398011D
:10336000809397010E94FC078091950190919601AE
:103370000E940B088091590190915A01892B09F400
:103380006ACD84E090E090934E0180934D0163CD2F
:103390000E9479010E947701A0904101B090420102
:1033A0006091A3017091A4018091A5019091A60163
:1033B0000E94D21B9B0177FF04C022273327261BC4
:1033C000370BB7FE03C0B194A194B1082A153B0591
:1033D0000CF0A0C02BE734E14EE25EE360914301C4
:1033E0007091440180914501909146010E949D1A7F
:1033F0009B01AC0160919F017091A0018091A1019E
:103400009091A2010E94131D1816A4F4ACE3B0E041
:10341000B0939801A0939701D0939601C093950122
:103420008CE390E00E94FC078091950190919601B9
:103430000E940B082BE734E14EE25EE3609143010A
:103440007091440180914501909146010E949C1A1F
:103450009B01AC0160919F017091A0018091A1013D
:103460009091A2010E94631B87FF14C0D093980122
:10347000C0939701ECE3F0E0F0939601E09395019F
:1034800088E290E00E94FC0780919501909196015E
:103490000E940B0840904301509044016090450108
:1034A0007090460180909F019090A001A090A10192
:1034B000B090A2012BE734E14EE25EE3C301B2011A
:1034C0000E949C1AA50194010E94631B87FF22C0E1
:1034D0002BE734E14EE25EE3C301B2010E949D1A84
:1034E0009B01AC01C501B4010E94631B87FF12C0A0
:1034F000D0939801C0939701D0939601C093950102
:1035000088E290E00E94FC078091950190919601DD
:103510000E940B088091FD019091FE018538934037
:103520000CF499CC30924E0120924D0194CC109322
:103530004E0100934D018FCC5058BB27AA270ED0C7
:1035400027C2F0D130F0F5D120F031F49F3F11F4D3
:103550001EF4C0C10EF4E095E7FBB6C1E92F3AD2E4
:1035600080F3BA17620773078407950718F071F4A0
:103570009EF552C20EF4E0950B2EBA2FA02D0B0132
:10358000B90190010C01CA01A0011124FF27591BA8
:1035900099F0593F50F4503E68F11A16F040A22FAE
:1035A000232F342F4427585FF3CF4695379527951F
:1035B000A795F0405395C9F77EF41F16BA0B620B1E
:1035C000730B840BBAF09150A1F0FF0FBB1F661F65
:1035D000771F881FC2F70EC0BA0F621F731F841FA8
:1035E00048F4879577956795B795F7959E3F08F0CE
:1035F000B3CF9395880F08F09927EE0F979587958D
:10360000089590D158F080E891E009F49EEF91D1AF
:1036100028F040E851E059F45EEF09C05BC1FCC1FD
:10362000E92FE078D7D168F3092E052AC1F32617D0
:1036300037074807590738F00E2E07F8E02569F0DC
:10364000E025E0640AC0EF6307F8009407FADB01A5
:10365000B9019D01DC01CA01AD01EF934AD098D1B7
:103660000AD05F91552331F02BED3FE049E450FD46
:1036700049EC63CF0895DF93DD27B92FBF7740E88A
:103680005FE31616170648075B0710F4D92FCFD152
:103690009F938F937F936F937CD2E2E4F1E01DD1EF
:1036A00077D12F913F914F915F91D4D1DD2349F094
:1036B0009058A2EA2AED3FE049EC5FE3D0785D271D
:1036C0004DDFDF9165C1DCD008F481E0089539D188
:1036D000E3956FC10CD05CC12CD140F023D130F008
:1036E00021F45F3F19F0F0C0511197C1F3C072D1BE
:1036F00098F39923C9F35523B1F3951B550BBB27B9
:10370000AA2762177307840738F09F5F5F4F220F65
:10371000331F441FAA1FA9F333D00E2E3AF0E0E85E
:1037200030D091505040E695001CCAF729D0FE2FAA
:1037300027D0660F771F881FBB1F2617370748073C
:10374000AB07B0E809F0BB0B802DBF01FF279358F2
:103750005F4F2AF09E3F510568F0B6C05EC15F3FE3
:10376000ECF3983EDCF3869577956795B795F795DA
:103770009F5FC9F7880F911D9695879597F90895D2
:10378000E1E0660F771F881FBB1F6217730784076E
:10379000BA0720F0621B730B840BBA0BEE1F88F77D
:1037A000E095089504D06894B11137C108951AD1F5
:1037B00088F09F5790F0B92F9927B751A0F0D1F01A
:1037C000660F771F881F991F1AF0BA95C9F712C0A4
:1037D000B13081F021D1B1E008951EC1672F782F5B
:1037E0008827B85F39F0B93FCCF386957795679510
:1037F000B395D9F73EF490958095709561957F4F7C
:103800008F4F9F4F0895E89409C097FB3EF4909521
:103810008095709561957F4F8F4F9F4F9923A9F0A9
:10382000F92F96E9BB279395F69587957795679538
:10383000B795F111F8CFFAF4BB0F11F460FF1BC07C
:103840006F5F7F4F8F4F9F4F16C0882311F096E90F
:1038500011C0772321F09EE8872F762F05C06623BD
:1038600071F096E8862F70E060E02AF09A95660F76
:10387000771F881FDAF7880F9695879597F908952F
:10388000990F0008550FAA0BE0E8FEEF1616170671
:10389000E807F907C0F012161306E407F50798F0D9
:1038A000621B730B840B950B39F40A2661F0232BF2
:1038B000242B252B21F408950A2609F4A140A6956E
:1038C0008FEF811D811D089597F99F6780E870E053
:1038D00060E008959FEF80EC0895DF93CF931F93EE
:1038E0000F93FF92EF92DF927B018C01689405C0E9
:1038F000DA2EEF01AFD0FE01E894A5912591359124
:1039000045915591AEF3EF0129DEFE019701A80123
:10391000DA9479F7DF90EF90FF900F911F91CF919C
:10392000DF91089500240A94161617061806090652
:10393000089500240A941216130614060506089525
:10394000C9CF50D0E8F3E894E0E0BB279F57F0F0F0
:103950002AED3FE049EC06C0EE0FBB0F661F771F54
:10396000881F28F0B23A62077307840728F0B25A1A
:10397000620B730B840BE3959A9572F7803830F4E1
:103980009A95BB0F661F771F881FD2F7904806C114
:10399000092E0394000C11F4882352F0BB0F40F45D
:1039A000BF2B11F460FF04C06F5F7F4F8F4F9F4F9D
:1039B0000895EF93E0FF06C0A2EA2AED3FE049EC4C
:1039C0005FEBCCDDE5DF0F90039401FC9058EFE650
:1039D000F1E0F7C057FD9058440F551F59F05F3F75
:1039E00071F04795880F97FB991F61F09F3F79F021
:1039F00087950895121613061406551FF2CF4695A3
:103A0000F1DF08C0161617061806991FF1CF869524
:103A10007105610508940895E894BB276627772708
:103A2000CB0197F908952CDF08F48FEF08959B01DF
:103A3000AC0160E070E080E89FE34CCE0BD0A8CFF3
:103A400071DF28F076DF18F0952309F03DCF42CFE3
:103A50001124E3CFBFDFA0F3959FD1F3950F50E082
:103A6000551F629FF001729FBB27F00DB11D639F30
:103A7000AA27F00DB11DAA1F649F6627B00DA11DD6
:103A8000661F829F2227B00DA11D621F739FB00D7C
:103A9000A11D621F839FA00D611D221F749F3327EC
:103AA000A00D611D231F849F600D211D822F762F85
:103AB0006A2F11249F5750408AF0E1F088234AF082
:103AC000EE0FFF1FBB1F661F771F881F91505040CE
:103AD000A9F79E3F510570F0F7CE9FCF5F3FECF303
:103AE000983EDCF3869577956795B795F795E795BA
:103AF0009F5FC1F7FE2B880F911D9695879597F9CB
:103B000008959F931EDF0F9007FCEE5F52CF11F4D4
:103B10000EF4E0CE41C066DFD0F39923D9F3CEF3A3
:103B20009F57550B87FF46D00024A0E640EA90013E
:103B300080585695979528F4805C660F771F881FEC
:103B400020F026173707480730F4621B730B840BED
:103B5000202931294A2BA695179407942025312531
:103B60004A2758F7660F771F881F20F02617370758
:103B7000480730F4620B730B840B200D311D411D7F
:103B8000A09581F7B901842F9158880F9695879554
:103B900008959B01AC0152CF9F3F31F0915020F42A
:103BA000879577956795B795880F911D9695879519
:103BB00097F9089591505040660F771F881FD2F7EC
:103BC00008959F938F937F936F93FF93EF939B0140
:103BD000AC0134DFEF91FF9180DE2F913F914F9147
:103BE0005F912CCFEE0FFF1F0590F491E02D09940B
:103BF000BB274A3031F4992322F4BDE29095819598
:103C00009F4F0C94351EBB272A3051F4992342F460
:103C1000BDE290958095709561957F4F8F4F9F4F36
:103C20000C94131EBB27FA01A62F6217710581059C
:103C30009105330B30FB66F0AA27660F771F881FAC
:103C4000991FAA1FA21710F0A21B63953850A9F75D
:103C5000A05DAA3308F0A95DA19336F7B111B19325
:103C60001082CA010C944E1EBB27FB015527AA27C0
:103C7000880F991FAA1FA41710F0A41B83955051F9
:103C8000B9F7A05DAA3308F0A95DA193009779F771
:103C9000B111B1931192CB010C944E1EDC01FC01C9
:103CA000672F71917723E1F7329704C07C916D9370
:103CB00070836291AE17BF07C8F30895F894FFCFE1
:103CC000010000803F0000803F0000803F00008036
:103CD0003F0000803F0000803F0000803F000080E8
:103CE0003F00003E430000AF430000AF4300008CA4
:103CF000430000C84300007A430000BE4300003E7A
:103D0000437EFFC3F5C83F02000AD7A33E0100006F
:063D1000E10000000008C4
:00000001FF
