:100000000C9429010C9446010C9446010C94B109FE
:100010000C9446010C9446010C9446010C94460144
:100020000C9446010C9446010C9438140C947214F0
:100030000C9446010C9446010C9446010C94460124
:100040000C9446010C9446010C9446010C94460114
:100050000C94A2090C9446010C9446010C944601A0
:100060000C9446010C9446010C9446010C944601F4
:100070000C9446010C941C0A0C9446010C94460105
:100080000C9446010C9446010C9446010C944601D4
:100090000C9446010C9446010C9446010C944601C4
:1000A0000C9446010C9446010C944601C208D308F6
:1000B000E208F10800090F091E092D094009470946
:1000C000E013D813D013C813C013B813B013A81378
:1000D000A013981390138813801378137013681368
:1000E0006013581350134813401338133013281358
:1000F00020131813101308130013F812F012E8124B
:10010000E012D812D012C812C012B812B012A8123F
:10011000A01298129012881280127812701268122F
:10012000601258125012481240123812301228121F
:1001300020121812101208120012F811F011E81112
:10014000E011084AD73B3BCE016E84BCBFFDC12FF6
:100150003D6C74319ABD56833DDA3D00C77F11BEB8
:10016000D9E4BB4C3E916BAAAABE000000803F05BB
:10017000A84CCDB2D44EB93836A9020C50B99186EC
:1001800088083CA6AAAA2ABE000000803F000A00F8
:10019000090009000900090009000900090000011F
:1001A000000035021200020000F2014300030000CB
:1001B000EE010401030904DA011202030904D20169
:1001C0000603030904C801080803340031003000A5
:1001D000000006034D003200000012034A002E000A
:1001E00020004600690065006E0065000000040301
:1001F000090409024300020100C0320904000001A1
:10020000020201000524001001052401010104245B
:1002100002060524060001070582031000400904B8
:100220000100020A00000007050302400000070564
:1002300084024000001201000202000010C0167A81
:10024000040001010203010001C112018036018195
:10025000360011241FBECFEFDAE0DEBFCDBF11E0C4
:10026000A0E0B1E0EEE8F2E402C005900D92AC35FA
:10027000B107D9F722E0ACE5B1E001C01D92AF3182
:10028000B207E1F70E943A170C9445210C94000044
:100290002A982B9A91958195910990914D01989F5B
:1002A000802D11248093D00008952C9A0895469AA9
:1002B00008950F931F93CF93DF9380E8809361009D
:1002C0001092610085BF85BF0E948C0D0E94D510E1
:1002D000209A219A229A239A249A3E9A53984AE085
:1002E00069E181E00E94340E0E945E0F80918100DE
:1002F0008B7F809381008091810082608093810058
:100300008091810081608093810080918100806173
:10031000809381008091810088608093810080912A
:100320008000826080938000809180008160809353
:10033000800080916F00816080936F0084EC99E071
:10034000909389008093880078941092CF00109247
:10035000D00088EC8093D1003F9A269A8091C1000A
:1003600088608093C1008091C10084608093C10047
:100370008091C1008D7F8093C1008091C1008E7FEC
:100380008093C1008091C3008D7F8093C3008091D2
:10039000C3008E7F8093C3008091C00082608093F1
:1003A000C0008091C00080688093C0008091C00030
:1003B0008F7B8093C0008091C00081608093C000DB
:1003C0008091C00080628093C0008091C0008F7EC9
:1003D0008093C00080917C008F7780937C00809117
:1003E0007C00806480937C0080917A00846080939C
:1003F0007A0080917A00826080937A0080917A00FE
:10040000816080937A0080917E00816080937E007D
:1004100080917E00826080937E0080917E0080616A
:1004200080937E0080917E00806280937E00809128
:100430007E00806480937E0080917E00806880933F
:100440007E0080917D00816080937D0080917D00A1
:10045000826080937D0080917D00846080937D0028
:1004600080917B008F7D80937B0080917C008B7FCF
:1004700080937C0080917C008D7F80937C008091B4
:100480007C008E7F80937C0080917A0088608093CE
:100490007A0080917B008F7D80937B0080917C002F
:1004A0008B7F80937C0080917C008D7F80937C008B
:1004B00080917C008E7F80937C0080917A008068A0
:1004C00080937A0080917A00806480937A0040E083
:1004D00060E080E20E94CC1641E060E080E20E9491
:1004E000CC1642E060E080E20E94CC1643E060E07F
:1004F00080E20E94CC1644E060E080E20E94CC16CC
:1005000045E060E080E20E94CC1646E060E080E2D8
:100510000E94CC1647E060E080E20E94CC1640E0EA
:1005200061E080E20E94CC16C7E2D1E007E011E072
:10053000299139914991599160E070E080E894E403
:100540000E94831D9B01AC0160E070E080E894E4B0
:100550000E94511EF80161937193819391938F01D1
:10056000F1E0C734DF0721F7DF91CF911F910F91A1
:1005700008952F923F924F925F926F927F928F9247
:100580009F92AF92BF92CF92DF92EF92FF920F9322
:100590001F93CF93DF93CDB7DEB7C458D1090FB601
:1005A000F894DEBF0FBECDBF2C01FE01319680E472
:1005B000DF011D928A95E9F7BE016F5B7F4F84E2F0
:1005C000DB011D928A95E9F7D20120E030E080E05E
:1005D00090E04D915D914F3F534009F401962F5F9C
:1005E0003F4F2B303105A9F78230910509F471C2D4
:1005F00034F06E9A76986A9A729A80E0F4C46A9A95
:1006000072986E9A769AE796FFAFEEAFE797A79645
:100610005FAE4EAEA797612C712CEB961FAE1EAE4F
:10062000EB9700E010E0212C312CA796AEADBFADCA
:10063000A7976D917C9180E090E00E94EA1EC358DC
:10064000DF4F688379838A839B83CD57D040A796F9
:10065000EEADFFADA7976281738180E090E00E94CC
:10066000EA1ECF57DF4F688379838A839B83C15803
:10067000D040AB965FAE4EAEAB97AF961FAE1EAE00
:10068000AF97E3961FAE1EAEE397AB96AEADBFAD90
:10069000AB976D917C9180E090E00E94EA1E9B01F7
:1006A000AC01C358DF4F688179818A819B81CD5726
:1006B000D0400E94831D4B015C01AB96EEADFFADB7
:1006C000AB976281738180E090E00E94EA1E9B01FB
:1006D000AC01CF57DF4F688179818A819B81C158F6
:1006E000D0400E94831D6B017C01A5019401C501CE
:1006F000B4010E9405204B015C01A7019601C701CE
:10070000B6010E9405209B01AC01C501B4010E9405
:10071000841D0E9472206B017C01E796EEADFFAD57
:10072000E797AF962EAD3FADAF97E20FF31F608313
:10073000718382839383EB964EAD5FADEB97BA01E5
:10074000882777FD8095982F0E94EC1E9B01AC01B5
:10075000C701B6010E94FA1F18166CF4C701B60152
:100760000E94B91EEB967FAF6EAFEB97E3960EAD8E
:100770001FADE3971301E3968EAD9FADE39701960E
:10078000E3969FAF8EAFE397AB96AEADBFADAB97A1
:100790001696AB96BFAFAEAFAB97AF96EEADFFADD3
:1007A000AF973496AF96FFAFEEAFAF97049709F0CF
:1007B0006CCFFFEF6F1A7F0AA7962EAD3FADA797BC
:1007C0002A5F3F4FA7963FAF2EAFA797E7964EAD54
:1007D0005FADE797405F5F4FE7965FAF4EAFE7973C
:1007E00054E06516710409F020CF80E090E0821596
:1007F0009305A1F18017910789F1F101EE0FFF1F19
:10080000EE0FFF1FE80FF91FEE0FFF1FEE0FFF1F88
:10081000EE24E394F12CEC0EFD1EEE0DFF1DD8012D
:10082000AA0FBB1FAA0FBB1FA80FB91FAA0FBB1F80
:10083000AA0FBB1FAE0DBF1D2D913D914D915C9137
:1008400060817181828193810E944A1E87FF0EC060
:10085000902F812F8101292E382E08C001968430D7
:10086000910529F6212C312C00E010E086E0782E4D
:10087000709E7001719EF00C1124E40CF51CD701E0
:100880006D917C9180E090E00E94EA1E4B015C013A
:10089000F7016281738180E090E00E94EA1E6B01A3
:1008A0007C01729C8001739C100D1124040D151D98
:1008B000D8016D917C9180E090E00E94EA1E2B01AE
:1008C0003C01F8016281738180E090E00E94EA1EA1
:1008D000E1966CAF7DAF8EAF9FAFE1979B01AC010E
:1008E000C701B6010E94831DA9966CAF7DAF8EAF84
:1008F0009FAFA997A3019201C501B4010E94831D76
:10090000A9962CAD3DAD4EAD5FADA9970E94F71DE8
:10091000E5966CAF7DAF8EAF9FAFE5979B01AC01C5
:100920005058A9962CAF3DAF4EAF5FAFA997CA0103
:10093000B9010E944E1EAD966CAF7DAF8EAF9FAFDA
:10094000AD97A3019201C501B4010E94841D20E06E
:1009500030E040E05FE30E94052020E030E040E02E
:1009600054E40E94831D2B013C01A9966CAD7DAD22
:100970008EAD9FADA9970E9468204B015C01E19666
:100980002CAD3DAD4EAD5FADE197C701B6010E9404
:10099000841D20E030E040E05FE30E94052020E07D
:1009A00030E040EC53E40E94831DE9966CAF7DAFCC
:1009B0008EAF9FAFE99780914F0190915001A09128
:1009C0005101B0915201E1968CAF9DAFAEAFBFAF78
:1009D000E197AD966CAD7DAD8EAD9FADAD97905866
:1009E000A30192010E9405206B017C01E9962CADC8
:1009F0003DAD4EAD5FADE997C501B4010E94052044
:100A00009B01AC01C701B6010E94831D9B01AC0193
:100A10005058E1966CAD7DAD8EAD9FADE1970E94D3
:100A200005206093AD017093AE018093AF01909368
:100A3000B001A3019201C501B4010E9405206B0120
:100A40007C01E9962CAD3DAD4EAD5FADE997AD961D
:100A50006CAD7DAD8EAD9FADAD970E9405209B0125
:100A6000AC01C701B6010E94831D9B01AC01E19658
:100A70006CAD7DAD8EAD9FADE1970E94052060937A
:100A8000B1017093B2018093B3019093B40120E05F
:100A900030E0A901A9966CAD7DAD8EAD9FADA99753
:100AA0000E944A1E87FF83C2E5962CAD3DAD4EAD38
:100AB0005FADE59763EC75EF88EC90E40E94831DD1
:100AC0006093A9017093AA018093AB019093AC014C
:100AD0007CC26A9A72986E9A7698D20141E050E090
:100AE00020E030E080E090E00D911C9111970F3FE5
:100AF000E3E01E0709F46BC2F901E81BF90BEE0FE6
:100B0000FF1FEE0FFF1FEB54FE4F11830083129661
:100B10000D911C911397FC01EE0FFF1F7A01EE1A45
:100B2000FF0AF701EE0FFF1FEB54FE4F1183008306
:100B30002F5F3F4F16964E5F5F4F24303105A1F671
:100B4000AB967FAF6EAFAB9725EB31E0E3963FAF4F
:100B50002EAFE397412C512CE7961FAE1EAEE797C0
:100B600000E010E0212C312CE396AEADBFADE39751
:100B70006D917C9180E090E00E94EA1EED966CAF52
:100B80007DAF8EAF9FAFED97E396EEADFFADE397F0
:100B90006281738180E090E00E94EA1EC358DF4FBB
:100BA000688379838A839B83CD57D04025EB31E0DE
:100BB000A7963FAF2EAFA797AF961FAE1EAEAF97CB
:100BC000612C712CA796AEADBFADA7976D917C91AE
:100BD00080E090E00E94EA1E9B01AC01ED966CADB6
:100BE0007DAD8EAD9FADED970E94831D4B015C01E5
:100BF000A796EEADFFADA7976281738180E090E08C
:100C00000E94EA1E9B01AC01C358DF4F68817981C5
:100C10008A819B81CD57D0400E94831D6B017C014E
:100C2000A5019401C501B4010E9405204B015C019E
:100C3000A7019601C701B6010E9405209B01AC01E6
:100C4000C501B4010E94841D0E9472206B017C01C9
:100C5000AB96EEADFFADAB97AF962EAD3FADAF9778
:100C6000E20FF31F6083718382839383E7964EAD17
:100C70005FADE797BA01882777FD8095982F0E948E
:100C8000EC1E9B01AC01C701B6010E94FA1F1816A9
:100C900054F4C701B6010E94B91EE7967FAF6EAF4C
:100CA000E797830112015FEF651A750AA7968EAD6B
:100CB0009FADA7970496A7969FAF8EAFA797AF96C5
:100CC000AEADBFADAF971496AF96BFAFAEAFAF9717
:100CD000B3E06B16710409F075CFEFEF4E1A5E0AA0
:100CE000E3962EAD3FADE3972C5F3F4FE3963FAFCA
:100CF0002EAFE397AB964EAD5FADAB97445F5F4FC2
:100D0000AB965FAF4EAFAB9753E04516510409F079
:100D10002BCF80E090E08215930509F45AC180172B
:100D2000910709F456C1F101EE0FFF1FE20DF31D0B
:100D3000E80FF91FEE0FFF1FEE0FFF1F41E450E019
:100D40004C0F5D1FE40FF51FD801AA0FBB1FA00FAA
:100D5000B11FA80FB91FAA0FBB1FAA0FBB1FA40F5B
:100D6000B51F2D913D914D915C9160817181828182
:100D700093810E944A1E87FF05C0902F812F810119
:100D8000292E382E7801EE0CFF1CE00EF11EF70123
:100D9000EE0FFF1FEB54FE4F6081718180E090E009
:100DA0000E94EA1E4B015C01F701EE0FFF1FE954A0
:100DB000FE4F6081718180E090E00E94EA1E6B012D
:100DC0007C018101000F111F020D131DF801EE0FB0
:100DD000FF1FEB54FE4F6081718180E090E00E9424
:100DE000EA1E2B013C01F801EE0FFF1FE954FE4FF4
:100DF0006081718180E090E00E94EA1EAD966CAF48
:100E00007DAF8EAF9FAFAD979B01AC01C701B6011F
:100E10000E94831DA9966CAF7DAF8EAF9FAFA9973F
:100E2000A3019201C501B4010E94831DA9962CADB6
:100E30003DAD4EAD5FADA9970E94F71D9B01AC0182
:100E40005058A9962CAF3DAF4EAF5FAFA997CA01DE
:100E5000B9010E944E1EE5966CAF7DAF8EAF9FAF7D
:100E6000E597A3019201C501B4010E94841D20E011
:100E700030E040E05FE30E94052020E030E040E009
:100E800054E40E94831D2B013C01A9966CAD7DADFD
:100E90008EAD9FADA9970E9468204B015C01AD9675
:100EA0002CAD3DAD4EAD5FADAD97C701B6010E9413
:100EB000841D20E030E040E05FE30E94052020E058
:100EC00030E040EC53E40E94831DE1966CAF7DAFAF
:100ED0008EAF9FAFE19780914F0190915001A0910B
:100EE0005101B0915201AD968CAF9DAFAEAFBFAF87
:100EF000AD97E5966CAD7DAD8EAD9FADE597905805
:100F0000A30192010E9405206B017C01E1962CADAA
:100F10003DAD4EAD5FADE197C501B4010E94052026
:100F20009B01AC01C701B6010E94831D9B01AC016E
:100F30005058AD966CAD7DAD8EAD9FADAD970E9416
:100F400005206093AD017093AE018093AF01909343
:100F5000B001A3019201C501B4010E9405206B01FB
:100F60007C01E1962CAD3DAD4EAD5FADE197E596D0
:100F70006CAD7DAD8EAD9FADE5970E9405209B01C8
:100F8000AC01C701B6010E94831D9B01AC01AD9667
:100F90006CAD7DAD8EAD9FADAD970E940520609389
:100FA000B1017093B2018093B3019093B401A996FB
:100FB0002CAD3DAD4EAD5FADA9972093A901309307
:100FC000AA014093AB015093AC0181E00CC00196A3
:100FD000AFCD01968330910509F09DCE212C312CA7
:100FE00000E010E0CFCECC57DF4F0FB6F894DEBF55
:100FF0000FBECDBFDF91CF911F910F91FF90EF906A
:10100000DF90CF90BF90AF909F908F907F906F9028
:101010005F904F903F902F900895CF92DF92EF9284
:10102000FF920F931F93CF93DF93EC018B01FB0192
:101030002081318142815381688179818A819B81BC
:101040000E94052020E030E0A9010E94841D6B0170
:101050007C01F80124813581468157816C817D8135
:101060008E819F810E9405209B01AC01C701B601C2
:101070000E94841DDF91CF911F910F91FF90EF90FF
:10108000DF90CF900895AF92BF92CF92DF92EF9210
:10109000FF920F931F93CF93DF9300E010E0C12CDA
:1010A000D12C7601C0E0D0E05801AA0CBB1CAA0CE0
:1010B000BB1CC5018B599E4F5C01FC016081718195
:1010C00082819381A70196010E94FA1F181634F4B9
:1010D000F501C080D180E280F380E8010F5F1F4FEF
:1010E0000830110509F78091150290911602843895
:1010F00093408CF484E090E09093540180935301EA
:1011000020E030E048EC52E4C701B6010E944A1EDC
:1011100087FDB6C0C8C0209719F0C730D105F9F4D3
:1011200060916501709166018091670190916801FD
:10113000209181013091820140918301509184017D
:101140000E94831D0E94B91E9B0177FF04C02227C5
:101150003327261B370B243631050CF491C020E0D1
:1011600030E048EC52E4C701B6010E944A1E87FDF8
:1011700087C0CA30D10508F096C0FE01EA5AFF4F79
:101180000C94D9208EE190E09093640180936301E8
:1011900082EE9FEF909362018093610110928C0127
:1011A00010928B0180C08EE190E090936401809357
:1011B000630182EE9FEF909362018093610181E071
:1011C00090E059C08EE190E09093640180936301B8
:1011D00082EE9FEF909362018093610182E090E044
:1011E0004AC08EE190E0909364018093630182EEA7
:1011F0009FEF909362018093610183E090E03BC098
:101200008EE190E0909364018093630182EE9FEF02
:10121000909362018093610184E090E02CC082EEA3
:101220009FEF90936401809363018EE190E090932F
:1012300062018093610185E090E01DC082EE9FEF26
:1012400090936401809363018EE190E0909362013A
:101250008093610186E090E00EC082EE9FEF909354
:101260006401809363018EE190E09093620180932A
:10127000610187E090E090938C0180938B0113C013
:1012800082E390E0909364018093630108C08EE153
:1012900090E0909364018093630182EE9FEF9093BE
:1012A000620180936101DF91CF911F910F91FF90B7
:1012B000EF90DF90CF90BF90AF900895089597FD85
:1012C0000AC02A9A2B9890914D01989F802D112445
:1012D0008093D00008950C94480120914D0197FD12
:1012E00008C0289F802D11248093CF00289A299828
:1012F0000895919581959109289F802D11248093BF
:10130000CF002898299A089581110C9455012C98A2
:10131000089581110C9457014698089540E062E1C8
:10132000882319F080E20C94CC1680E20C94F91614
:1013300042E062E1882319F080E20C94CC1680E24E
:101340000C94F9161F920F920FB60F9211248F93DF
:1013500081E080935C018F910F900FBE0F901F90E2
:1013600018951F920F920FB60F9211242F933F934F
:101370004F935F936F937F938F939F93AF93BF939D
:10138000EF93FF936AE089EE91E00E948C0E8091CA
:10139000E901813A11F1843AC1F1803AE1F5809195
:1013A0005D0190915E01019761F40E9455012FEF5C
:1013B00081EE94E0215080409040E1F700C00000B1
:1013C00020C00E9457012FEF81EE94E02150804011
:1013D0009040E1F700C000000EC083E090E09093E1
:1013E00054018093530180915D0190915E010197BA
:1013F00031F40E94550180E00E9489090CC00E94CE
:10140000570180E00E94840906C081E090E090933B
:10141000540180935301FF91EF91BF91AF919F9140
:101420008F917F916F915F914F913F912F910F908D
:101430000FBE0F901F9018951F920F920FB60F922C
:1014400011240F931F932F933F934F935F936F93A9
:101450007F938F939F93AF93BF93CF93DF93EF933C
:10146000FF938091890190918A01892B09F041C0F5
:1014700060917800709179000091890110918A0142
:10148000C0918901D0918A0180E090E00E94EA1E1B
:10149000F801EE0FFF1FEE0FFF1FE95DFE4F2081E9
:1014A0003181428153810E94831DCC0FDD1FCC0FFF
:1014B000DD1FC95FDE4F288139814A815B810E942F
:1014C00005200E94B91E709300026093FF01809175
:1014D000890190918A01019690938A0180938901F4
:1014E00080917A008F7780937A0080917B008F7D46
:1014F000BEC18091890190918A01019709F057C07E
:1015000060917800709179000091890110918A01B1
:10151000C0918901D0918A0180E090E00E94EA1E8A
:10152000F801EE0FFF1FEE0FFF1FE95DFE4F208158
:101530003181428153810E94831DCC0FDD1FCC0F6E
:10154000DD1FC95FDE4F288139814A815B810E949E
:1015500005200E94B91E70931E0260931D028091A7
:10156000890190918A01019690938A018093890163
:1015700080917A008F7780937A0080917B008F7DB5
:1015800080937B0080917C00846080937C008091BC
:101590007C008D7F80937C0080917C008E7F809387
:1015A0007C0080917A00806180937A00E9C180910B
:1015B000890190918A01029709F050C060917800EA
:1015C000709179000091890110918A01C09189017F
:1015D000D0918A0180E090E00E94EA1EF801EE0FAF
:1015E000FF1FEE0FFF1FE95DFE4F20813181428119
:1015F00053810E94831DCC0FDD1FCC0FDD1FC95FFF
:10160000DE4F288139814A815B810E9405200E943A
:10161000B91E70930C0260930B0280918901909126
:101620008A01019690938A018093890180917A00C2
:101630008F7780937A0080917B008F7D80937B00F1
:1016400080917C00846080937C0080917C008D7F01
:1016500080937C0080917C008160A1CF8091890182
:1016600090918A01039709F046C0609178007091CB
:1016700079000091890110918A01C0918901D0916E
:101680008A0180E090E00E94EA1EF801EE0FFF1F41
:10169000EE0FFF1FE95DFE4F2081318142815381B2
:1016A0000E94831DCC0FDD1FCC0FDD1FC95FDE4FF5
:1016B000288139814A815B810E9405200E94B91EE0
:1016C00070931C0260931B028091890190918A01A2
:1016D000019690938A018093890180917A008F7797
:1016E00080937A0080917B008F7D80937B00809136
:1016F0007C00846000C18091890190918A010497E7
:10170000F1F5609178007091790080E090E00E949E
:10171000EA1E2091430130914401409145015091CE
:1017200046010E94831D20912301309124014091A4
:101730002501509126010E9405200E94B91E709338
:101740000802609307028091890190918A010196B5
:1017500090938A018093890180917A008F7780939A
:101760007A0080917B008F7D80937B0080917C004C
:10177000846080937C0080917C00826069CF80913E
:10178000890190918A010597C9F56091780070915F
:10179000790080E090E00E94EA1E20913F013091A4
:1017A000400140914101509142010E94831D2091CE
:1017B0001F013091200140912101509122010E948E
:1017C00005200E94B91E7093140260931302809149
:1017D000890190918A01019690938A0180938901F1
:1017E00080917A008F7780937A0080917B0080626D
:1017F00080937B0080917C008B7FC7CE8091890194
:1018000090918A010697C9F56091780070917900EE
:1018100080E090E00E94EA1E20913B0130913C0163
:1018200040913D0150913E010E94831D20911B017A
:1018300030911C0140911D0150911E010E94052014
:101840000E94B91E7093FC016093FB018091890195
:1018500090918A01019690938A01809389018091E9
:101860007A008F7780937A0080917B0080628093EA
:101870007B0080917C008B7FE6CE809189019091E6
:101880008A010797F1F5609178007091790080E006
:1018900090E00E94EA1E209137013091380140917A
:1018A000390150913A010E94831D20911701309116
:1018B00018014091190150911A010E9405200E94BF
:1018C000B91E709306026093050280918901909180
:1018D0008A01019690938A018093890180917A0010
:1018E0008F7780937A0080917B00806280937B0069
:1018F00080917C008B7F80937C0080917C00826053
:1019000049CE8091890190918A010897C9F580910B
:10191000780090917900909316028093150280913F
:10192000890190918A01019690938A01809389019F
:1019300080917A008F7780937A0080917B008F7DF1
:1019400080937B0080917C008B7F80937C008091D2
:101950007C008D7F80937C0080917C008E7F8093C3
:101960007C0080917A00806180937A0010928A01D5
:101970001092890181E090E090930E0280930D0215
:1019800080910D0290910E02892B09F4A2C0609102
:10199000FF0170910002882777FD8095982F0E94A3
:1019A000EC1E6093650170936601809367019093CC
:1019B000680160911D0270911E02882777FD809555
:1019C000982F0E94EC1E6093690170936A018093C6
:1019D0006B0190936C0160910B0270910C0288274F
:1019E00077FD8095982F0E94EC1E60936D01709397
:1019F0006E0180936F019093700160911B02709152
:101A00001C02882777FD8095982F0E94EC1E60931A
:101A100071017093720180937301909374016091CE
:101A2000050270910602882777FD8095982F0E9405
:101A3000EC1E60937501709376018093770190930B
:101A400078016091FB017091FC01882777FD8095FA
:101A5000982F0E94EC1E6093790170937A01809315
:101A60007B0190937C01609113027091140288278E
:101A700077FD8095982F0E94EC1E60937D017093F6
:101A80007E0180937F0190938001609107027091A5
:101A90000802882777FD8095982F0E94EC1E60939E
:101AA00081017093820180938301909384016091FE
:101AB000150270911602882777FD8095982F0E9455
:101AC000EC1E60938501709386018093870190934B
:101AD000880110920E0210920D0280917A008068A7
:101AE00080937A0080917A00806480937A00FF91DD
:101AF000EF91DF91CF91BF91AF919F918F917F91A6
:101B00006F915F914F913F912F911F910F910F9086
:101B10000FBE0F901F901895589A599A5A9A8CE0B8
:101B20008093B800E9E6F0E0808180628083808164
:101B30008F7E8083EA9A7894089584E88093BC002D
:101B40008091BC0087FFFCCF8091BB00089584E9A1
:101B50008093BC00089520E030E08091BC0087FDB8
:101B600006C02F5F3F4F293E83E03807B1F781E081
:101B7000283E334009F480E008958093BB0084E858
:101B80008093BC000E94AB0D882321F08091B900A6
:101B9000887F089580E008951F93CF93DF931F926D
:101BA000CDB7DEB7182F84EA8093BC0069830E940A
:101BB000AB0D6981811104C094E99093BC0014C0FD
:101BC000812F880F662331F08F5F0E94BD0D88340E
:101BD00051F404C00E94BD0D803229F484E9809341
:101BE000BC0080E001C081E00F90DF91CF911F9198
:101BF0000895CF93DF93C82FD62F60E00E94CC0DBD
:101C0000882391F08D2F0E94BD0D882369F084E90F
:101C10008093BC0061E08C2F0E94CC0D882321F0C2
:101C2000DF91CF910C949D0D80E0DF91CF910895CD
:101C3000CF93DF93D62FC42F60E00E94CC0D81118B
:101C400002C080E00EC08D2F0E94BD0D8823C9F315
:101C50008C2F0E94BD0D8823A1F384E98093BC00E2
:101C600081E0DF91CF910895CF93DF9300D01F9251
:101C7000CDB7DEB74B836A8389830E948C0D94EACB
:101C80009093BC0089816A814B819091BC0097FF41
:101C9000FCCF90E59093BB0094E89093BC009091AA
:101CA000BC0097FFFCCF9091B900987F903229F447
:101CB00084E98093BC0080E029C091E09093BB0050
:101CC00094E89093BC009091BC0097FFFCCF809368
:101CD000BB0084E88093BC008091BC0087FFFCCFF0
:101CE0006093BB0084E88093BC008091BC0087FFB8
:101CF000FCCF4093BB0084E88093BC008091BC0083
:101D000087FFFCCF84E98093BC0081E00F900F90A7
:101D10000F90DF91CF91089524EA2093BC00209189
:101D2000BC0027FFFCCF21E52093BB0024E82093D3
:101D3000BC002091BC0027FFFCCF2091B900287F78
:101D40002834A9F024EC2093BC002091BC0027FF8C
:101D5000FCCF2091BB0026130AC0FC0120E030E03C
:101D6000772767FD70956150710944EC0EC084E9D6
:101D70008093BC0080E008955091BC0057FFFCCFD9
:101D80005091BB0051932F5F3F4F261737071CF42C
:101D90004093BC00F1CF44E84093BC004091BC00AC
:101DA00047FFFCCF4091BB00FC01E20FF31F4083D3
:101DB00084E98093BC0081E00895F89494EA9093BC
:101DC000BC009091BC0097FFFCCF90E59093BB00C6
:101DD00094E89093BC009091BC0097FFFCCF909149
:101DE000B900987F903231F484E98093BC007894F4
:101DF00080E0089593E09093BB0094E89093BC003A
:101E00009091BC0097FFFCCF8093BB0084E8809347
:101E1000BC008091BC0087FFFCCFFB01552747FD2C
:101E2000509524E8CF01861B970B8417950754F42F
:101E300081918093BB002093BC008091BC0087FF00
:101E4000FCCFF0CF84E98093BC00789481E00895C2
:101E500020E030E08091BC0087FD06C02F5F3F4F3F
:101E6000293E83E03807B1F781E0283E334009F48A
:101E700080E008958093BB0084E88093BC000E94BA
:101E8000280F882319F08091B900887F0895CF9397
:101E9000C82F84EA8093BC000E94280F882361F039
:101EA0008C2F880F0E943A0F803229F484E98093A6
:101EB000BC0080E001C081E0CF9108950E948C0DAC
:101EC00088E50E94470F811102C080E0089580E3F9
:101ED0000E943A0F8823C9F381E00E943A0F8823B9
:101EE000A1F384E98093BC008FE39CE90197F1F7AB
:101EF00000C0000088E50E94470F882331F380E08E
:101F00000E943A0F882309F380E00E943A0F882349
:101F1000E1F280E00E943A0F8823B9F280E00E944B
:101F20003A0F882391F280E00E943A0F882369F2E9
:101F300080E00E943A0F882341F280E00E943A0F2D
:101F4000882319F280E90E943A0F882309F4BDCF53
:101F500084E98093BC008FE39CE90197F1F700C00E
:101F6000000088E50E94470F882309F4AECF87E080
:101F70000E943A0F882309F4A8CF80E00E943A0F0C
:101F8000882309F4A2CF81E40E943A0F882309F440
:101F90009CCF84E98093BC008FE39CE90197F1F723
:101FA00000C0000088E50E94470F882309F48DCF08
:101FB0008AE10E943A0F882309F487CF80E40E94C7
:101FC0003A0F882309F481CF80E00E943A0F8823DA
:101FD00009F47BCF84E98093BC008FE39CE90197EF
:101FE000F1F700C0000088E50E94470F882309F43C
:101FF0006CCF83E30E943A0F882309F466CF83E015
:102000000E943A0F882309F460CF84E98093BC00D2
:102010008FE39CE90197F1F700C0000088E50E947A
:10202000470F882309F451CF80E30E943A0F882399
:1020300009F44BCF88E00E943A0F882309F445CF7A
:1020400084E98093BC008FE39CE90197F1F700C01D
:10205000000081E00895CF93C82F84EA8093BC00EC
:102060000E94280F882369F08C2F880F8F5F0E94B1
:102070003A0F883429F484E98093BC0080E001C0E1
:1020800081E0CF910895EF92FF920F931F93CF932A
:10209000DF93CDB7DEB760970FB6F894DEBF0FBE03
:1020A000CDBF7C018E010F5F1F4F80E1F8011192BF
:1020B0008A95E9F788E50E94470F811102C080E008
:1020C0005EC086E30E943A0F8823C9F384E98093B7
:1020D000BC00F5E8FA95F1F7000088E50E942B10A6
:1020E000882369F3F8019E01205F3F4F94EC9093A1
:1020F000BC008091BC0087FFFCCF8091BB00819326
:10210000E217F307A1F784E88093BC008091BC003C
:1021100087FFFCCF8091BB00888B84E98093BC0053
:10212000DE01149687016C91762F7073AD014250D9
:102130005109FA01808190E0F0E17F9F800D911DAF
:102140001124F80191838083762F707C4F5F5F4F5D
:10215000FA01808190E0F4E07F9F800D911D1124B1
:10216000F801938382836F70862F90E09583848338
:1021700013960A5F1F4FA217B307A9F681E0609676
:102180000FB6F894DEBF0FBECDBFDF91CF911F9188
:102190000F91FF90EF90089584E98093BC0008951B
:1021A0008091E80080FFFCCF089581E08093D70004
:1021B00080EA8093D80082E189BD09B400FEFDCF9A
:1021C00080E98093D8001092E0001092F6011092FE
:1021D000F3018CE08093E200789408958091F601F9
:1021E00008959FB7F8948091F601882339F083E031
:1021F0008093E9008091E80085FD03C09FBF8FEFC9
:1022000008958091F1002091E80025FD03C02BE6A0
:102210002093E8009FBF08959FB7F8948091F6013E
:10222000882331F083E08093E9008091F20001C0BF
:1022300080E09FBF08958091F601882371F08FB7E9
:10224000F89493E09093E9002BE69091E80095FFD5
:1022500003C02093E800F9CF8FBF08959091F60155
:10226000992371F09FB7F89424E02093E90020911E
:10227000F401222349F02091E80025FD03C09FBF0F
:102280008FEF08951092F4012091E400275E34E06E
:102290004091E80045FD12C09FBF9091E400921369
:1022A00004C081E08093F401EBCF9091F601992373
:1022B00039F39FB7F8943093E900EACF8093F100A7
:1022C0008091E80085FD03C08AE38093E80085E003
:1022D0008093F5019FBF80E008959091F6019923C6
:1022E000D1F09FB7F89424E02093E9002091E80012
:1022F00025FD02C09FBF0FC08093F1008091E800D0
:1023000085FD03C08AE38093E80085E08093F501B2
:102310009FBF80E008958FEF0895EF92FF921F9383
:10232000CF93DF937C01CB012091F601222371F042
:10233000AFB7F89424E02093E9002091F401222320
:1023400049F02091E80025FD03C0AFBF8FEF42C2E6
:102350001092F401B4E0C0E4DAE315E0009709F468
:1023600037C22091E400275E3091E80035FD12C0AD
:10237000AFBF3091E400321304C081E08093F401D8
:10238000E5CF3091F601332309F3AFB7F894B0935A
:10239000E900EACF2091F2004C2F421B242F30E0BD
:1023A0008217930708F4482F841B910950E04134A9
:1023B000510508F0FDC1405A5F4FFA010C94D92035
:1023C000F70120812093F10097012F5F3F4F7901A2
:1023D000F70120812093F10097012F5F3F4F790192
:1023E000F70120812093F10097012F5F3F4F790182
:1023F000F70120812093F10097012F5F3F4F790172
:10240000F70120812093F10097012F5F3F4F790161
:10241000F70120812093F10097012F5F3F4F790151
:10242000F70120812093F10097012F5F3F4F790141
:10243000F70120812093F10097012F5F3F4F790131
:10244000F70120812093F10097012F5F3F4F790121
:10245000F70120812093F10097012F5F3F4F790111
:10246000F70120812093F10097012F5F3F4F790101
:10247000F70120812093F10097012F5F3F4F7901F1
:10248000F70120812093F10097012F5F3F4F7901E1
:10249000F70120812093F10097012F5F3F4F7901D1
:1024A000F70120812093F10097012F5F3F4F7901C1
:1024B000F70120812093F10097012F5F3F4F7901B1
:1024C000F70120812093F10097012F5F3F4F7901A1
:1024D000F70120812093F10097012F5F3F4F790191
:1024E000F70120812093F10097012F5F3F4F790181
:1024F000F70120812093F10097012F5F3F4F790171
:10250000F70120812093F10097012F5F3F4F790160
:10251000F70120812093F10097012F5F3F4F790150
:10252000F70120812093F10097012F5F3F4F790140
:10253000F70120812093F10097012F5F3F4F790130
:10254000F70120812093F10097012F5F3F4F790120
:10255000F70120812093F10097012F5F3F4F790110
:10256000F70120812093F10097012F5F3F4F790100
:10257000F70120812093F10097012F5F3F4F7901F0
:10258000F70120812093F10097012F5F3F4F7901E0
:10259000F70120812093F10097012F5F3F4F7901D0
:1025A000F70120812093F10097012F5F3F4F7901C0
:1025B000F70120812093F10097012F5F3F4F7901B0
:1025C000F70120812093F10097012F5F3F4F7901A0
:1025D000F70120812093F10097012F5F3F4F790190
:1025E000F70120812093F10097012F5F3F4F790180
:1025F000F70120812093F10097012F5F3F4F790170
:10260000F70120812093F10097012F5F3F4F79015F
:10261000F70120812093F10097012F5F3F4F79014F
:10262000F70120812093F10097012F5F3F4F79013F
:10263000F70120812093F10097012F5F3F4F79012F
:10264000F70120812093F10097012F5F3F4F79011F
:10265000F70120812093F10097012F5F3F4F79010F
:10266000F70120812093F10097012F5F3F4F7901FF
:10267000F70120812093F10097012F5F3F4F7901EF
:10268000F70120812093F10097012F5F3F4F7901DF
:10269000F70120812093F10097012F5F3F4F7901CF
:1026A000F70120812093F10097012F5F3F4F7901BF
:1026B000F70120812093F10097012F5F3F4F7901AF
:1026C000F70120812093F10097012F5F3F4F79019F
:1026D000F70120812093F10097012F5F3F4F79018F
:1026E000F70120812093F10097012F5F3F4F79017F
:1026F000F70120812093F10097012F5F3F4F79016F
:10270000F70120812093F10097012F5F3F4F79015E
:10271000F70120812093F10097012F5F3F4F79014E
:10272000F70120812093F10097012F5F3F4F79013E
:10273000F70120812093F10097012F5F3F4F79012E
:10274000F70120812093F10097012F5F3F4F79011E
:10275000F70120812093F10097012F5F3F4F79010E
:10276000F70120812093F10097012F5F3F4F7901FE
:10277000F70120812093F10097012F5F3F4F7901EE
:10278000F70120812093F10097012F5F3F4F7901DE
:10279000F70120812093F10097012F5F3F4F7901CE
:1027A000F70120812093F10097012F5F3F4F7901BE
:1027B000F70120812093F10097012F5F3F4F7901AE
:1027C0002091E80025FFD093E8001093F501C6CDD5
:1027D000AFBF80E0DF91CF911F91FF90EF90089500
:1027E0008FB7F8949091F501992341F094E090937C
:1027F000E9009AE39093E8001092F5018FBF0895E5
:1028000080915901089580915A01089580915B014A
:1028100008958091F30108959FB7F8942091F601EF
:10282000222339F022E02093E9003091E80035FDC1
:1028300003C09FBF8FEF089531EA3093F10030E27B
:102840003093F1001092F1001092F1001092F1001B
:102850001092F1002093F1001092F1008093F100AA
:102860001092F1008AE38093E8009FBF80E0089512
:102870001F920F920FB60F9211248F939F93809106
:10288000E1001092E10083FF11C01092E90091E095
:102890009093EB001092EC0092E19093ED0098E0A1
:1028A0009093F0001092F6011092F30182FF13C092
:1028B0008091F601882379F08091F501882359F001
:1028C00081508093F501811106C084E08093E90076
:1028D0008AE38093E8009F918F910F900FBE0F9035
:1028E0001F9018951F920F920FB60F921124EF921E
:1028F000FF920F931F932F933F934F935F936F9389
:102900007F938F939F93AF93BF93EF93FF93CF9357
:10291000DF931F92CDB7DEB71092E9008091E800F7
:1029200083FF14C19091F1008091F1003091F1008A
:102930002091F100E32EF12CF22A0091F100209178
:10294000F10010E0122B2091F1006091F10032EFC4
:102950003093E800863009F046C036E08EE991E019
:10296000FC01459154914E155F0539F4FC013296F6
:10297000459154914017510721F00796315081F746
:10298000E5C0FC01349645915491FC013696849142
:1029900030E0362B2F3F310519F010F02FEF30E0EB
:1029A000281708F4822F3EEF9091E800292F257018
:1029B000D9F392FDCEC0982F813108F090E1FA0151
:1029C000292F222331F064916093F1002150319638
:1029D000F8CF490F511D891B3093E8008111E4CFD6
:1029E000903111F3B6C0853051F48EEF8093E8003A
:1029F0000E94D0108E2D80688093E300AAC0893099
:102A000059F5911180C0E092F6011092F3011092F5
:102A1000F5018EEF8093E80041E087E492E0409377
:102A2000E9009C012F5F3F4FFC0154915093EB0054
:102A3000552359F0F90124912093EC009C012D5F5E
:102A40003F4F319684918093ED004F5F453011F0F8
:102A5000C901E5CF8EE175C0883051F4903809F096
:102A600052C00E94D0108091F6018093F10047C0BF
:102A7000813279F4913A09F046C00E94D010E5E520
:102A8000F1E081918093F10081E0EC35F807C9F71E
:102A900036C0803299F49132B1F58091E80082FF1E
:102AA000FCCFE5E5F1E08091F100819381E0EC3528
:102AB000F807C9F78BEF8093E80021C0823241F418
:102AC000913209F043C0E092F3010E94D01017C088
:102AD000811119C099830E94D0109981923851F4C4
:102AE0000093E9008091EB0085FB882780F9109224
:102AF000E90001C080E08093F1001092F1008EEFB8
:102B00008093E80026C0282F2D7F2130F9F49230E1
:102B1000E9F4EF28D9F40F779FEF900F9430B0F4D9
:102B20009EEF9093E8000093E900833079F089E10B
:102B30008093EB0081E090E0002E01C0880F0A94A2
:102B4000EAF78093EA001092EA0003C081E28093E2
:102B5000EB000F90DF91CF91FF91EF91BF91AF917B
:102B60009F918F917F916F915F914F913F912F91A5
:102B70001F910F91FF90EF900F900FBE0F901F903D
:102B800018951F93CF93DF93EC01FE01149111234D
:102B900051F01A3019F48DE00E942E11812F0E94FD
:102BA0002E112196F2CFDF91CF911F9108958A3097
:102BB00010F490E301C097E3890F0C942E11CF938A
:102BC000C82F82958F700E94D7158C2F8F70CF9150
:102BD0000C94D715CF93C82F892F0E94DF158C2F07
:102BE000CF910C94DF150C94DF15EF92FF920F93A9
:102BF0001F93CF93DF93CDB7DEB727970FB6F89427
:102C0000DEBF0FBECDBF8E010F5F1F4F27E0F80163
:102C100011922A95E9F74AE0B8010E94DF207E016F
:102C2000F8E0EF0EF11CF80181918F0181110E94F3
:102C30002E110E151F05B9F727960FB6F894DEBFB3
:102C40000FBECDBFDF91CF911F910F91FF90EF90FD
:102C50000895EF92FF920F931F93CF93DF9300D0CD
:102C600000D000D0CDB7DEB78E010F5F1F4F26E03A
:102C7000F80111922A95E9F74AE0B8010E941B2158
:102C80007E01F6E0EF0EF11CF80181918F018111B8
:102C90000E942E110E151F05B9F726960FB6F8944F
:102CA000DEBF0FBECDBFDF91CF911F910F91FF907F
:102CB000EF900895EF92FF920F931F93CF93DF93BE
:102CC000CDB7DEB72B970FB6F894DEBF0FBECDBFE2
:102CD0008E010F5F1F4F2BE0F80111922A95E9F743
:102CE0002AE0A8010E94EA207E01FCE0EF0EF11C20
:102CF000F80181918F0181110E942E110E151F057F
:102D0000B9F72B960FB6F894DEBF0FBECDBFDF919B
:102D1000CF911F910F91FF90EF900895EF92FF9246
:102D20000F931F93CF93DF93CDB7DEB72B970FB6DB
:102D3000F894DEBF0FBECDBF8E010F5F1F4F2BE09B
:102D4000F80111922A95E9F72AE0A8010E94F920DA
:102D50007E01FBE0EF0EF11CF80181918F018111E2
:102D60000E942E110E151F05B9F72B960FB6F89479
:102D7000DEBF0FBECDBFDF91CF911F910F91FF90AE
:102D8000EF90089548E365E00E94180E91E08111EC
:102D900001C090E0892F08951F93CF93DF93D82F20
:102DA000C62F142F0E94F90DC23058F4E1E0F0E074
:102DB000012E01C0EE0F0A94EAF74E2F40954823EA
:102DC0000DC09EEE9C0F923078F421E030E0012E91
:102DD00001C0220F0A94EAF7482F422B6C2F8D2F47
:102DE0000E94180E81E001C080E0DF91CF911F9119
:102DF00008951F93CF93DF93D82FC62F142F0E94CF
:102E0000F90D9EEE9C0F923058F4E1E0F0E0012EB7
:102E100001C0EE0F0A94EAF74E2F409548230BC0ED
:102E2000C23078F421E030E0012E01C0220F0A9474
:102E3000EAF7482F422B6C2F8D2F0E94180E81E04D
:102E400001C080E0DF91CF911F910895CF93DF9370
:102E50001F92CDB7DEB749830E94F90D90E04981FA
:102E600002C0959587954A95E2F781700F90DF91A2
:102E7000CF910895CF93DF9300D000D0CDB7DEB7C8
:102E80000E94590122242394312C08E210E00E9470
:102E9000EE10882309F46BC0809153019091540186
:102EA0000E94F5158CE991E00E94C11520E030E008
:102EB0004EEF52E460910102709102028091030290
:102EC000909104020E9405202AE939E949EC50E476
:102ED0000E94511E0E94B91ECB010E94F5158AE97D
:102EE00091E00E94C1156091F7017091F801809105
:102EF000F9019091FA010E94B91ECB010E94F515CB
:102F000088E991E00E94C115609117027091180242
:102F10008091190290911A020E94B91ECB010E9461
:102F2000F51586E991E00E94C11580910902909102
:102F30000A020E94F51584E991E00E94C115809172
:102F40009B0190919C010E94F51582E991E00E94FD
:102F5000C11580919D0190919E010E94F51580E917
:102F600091E00E94C1158EE891E00E94C115809108
:102F70005C01882309F4D1C087EC91E00E944310E2
:102F800087EC91E00E94B902E0900401F090050105
:102F90004090A9015090AA016090AB017090AC01E3
:102FA000E114F10449F040920F0250921002609235
:102FB0001102709212022CC020E030E0A901C3017E
:102FC000B2010E94FA1F18169CF423EC35EF48E476
:102FD00050E4C301B2010E944A1E87FF09C023ECDE
:102FE00035EF48E450E4C301B2010E94841D08C0DB
:102FF00023EC35EF48E450E4C301B2010E94831D85
:1030000060930F027093100280931102909312024A
:1030100023E333E343E75FE360910102709102022F
:1030200080910302909104020E9405204B015C01F3
:103030002DEC3CEC4CE45DE3C301B2010E940520A1
:103040009B01AC01C501B4010E94841D6093010283
:103050007093020280930302909304028090AD016A
:103060009090AE01A090AF01B090B001B701882759
:1030700077FD8095982F0E94EC1E69837A838B835D
:103080009C839B01AC01C501B4010E9405206093A3
:10309000F7017093F8018093F9019093FA01C090C1
:1030A000B101D090B201E090B301F090B401298158
:1030B0003A814B815C81C701B6010E940520609373
:1030C0001702709318028093190290931A02C50197
:1030D000B4010E94B91E6093DF01C701B6010E94CE
:1030E000B91E6093E00120E030E04EEF52E4C301EE
:1030F000B2010E9405202AE939E949EC50E40E9416
:10310000511E0E94B91E6093E1014AE06FED71E02B
:1031100088E10E94DD0E10925C0180915301909134
:1031200054018330910509F4A0C13CF4813091052C
:1031300061F0029709F480C0E1C48430910509F47C
:10314000B7C108970CF4A3CED9C480E00E948E09C1
:1031500080E00E94840980E00E94890980E00E944A
:1031600098094B9B32C080910601882371F10E941F
:1031700055012FEF81EE94E0215080409040E1F71F
:1031800000C0000080E00E94840980E00E9489095C
:1031900082E890E0909348018093470182E598EBA4
:1031A000A6E9B0E48093490190934A01A0934B01B2
:1031B000B0934C018FEF9FEF909305018093040132
:1031C00030925E0120925D0134C04B9960CE8091B7
:1031D0000601882309F45BCE0E945701AFEFB1EEE0
:1031E000E4E0A150B040E040E1F700C0000080E022
:1031F0000E94890980E00E9484098EE79FEF9093E6
:1032000048018093470183EC95EFA8ECBFE38093DE
:10321000490190934A01A0934B01B0934C01309225
:1032200005012092040182E090E090935E0180937A
:103230005D01109206012BCE80E00E948E098091E4
:10324000930190919401892B09F045C0309294012B
:103250002092930120E030E0A9016091AD017091CE
:10326000AE018091AF019091B0010E944A1E87FF8C
:1032700011C082E598EBA6E9B0E480939F0190939A
:10328000A001A093A101B093A20180E090E0A8EC7E
:10329000B2E410C083EC95EFA8ECBFE380939F01EC
:1032A0009093A001A093A101B093A20180E090E0CF
:1032B000A8ECB2EC8093970190939801A0939901A8
:1032C000B0939A019FEFA1EEB4E09150A040B040BE
:1032D000E1F700C000006091AD017091AE018091F6
:1032E000AF019091B0010E94B91E7B0177FF04C02D
:1032F000EE24FF24E61AF70A609197017091980175
:103300008091990190919A010E94B91E9B0177FFCB
:1033100004C022273327261B370BE216F3060CF0D6
:10332000A1C02AE939E949E95EE360919F01709102
:10333000A0018091A1019091A2010E94841D9B0196
:10334000AC016091A5017091A6018091A7019091B7
:10335000A8010E94FA1F1816B4F484E190E090933B
:103360009E0180939D018CEE9FEF90939C01809332
:103370009B0184E190E00E945F0980919B01909104
:103380009C010E946D092AE939E949E95EE36091EF
:103390009F017091A0018091A1019091A2010E94D2
:1033A000831D9B01AC016091A5017091A6018091E4
:1033B000A7019091A8010E944A1E87FF16C08CEEBB
:1033C0009FEF90939E0180939D0184E190E0909304
:1033D0009C0180939B018CEE9FEF0E94480180919D
:1033E0009B0190919C010E946D09C0909F01D0901B
:1033F000A001E090A101F090A2012AE939E949E990
:103400005EE3C701B6010E94831D2091A5013091A2
:10341000A6014091A7015091A8010E944A1E87FF72
:1034200036CD2AE939E949E95EE3C701B6010E94D0
:10343000841D9B01AC016091A9017091AA0180914A
:10344000AB019091AC010E944A1E87FF20CD84E120
:1034500090E090939E0180939D0190939C018093B6
:103460009B011DC0E2E0F0E044C380E00E948E09B1
:1034700042E062E180E20E94CC160E944308809103
:1034800063019091640190939C0180939B018091D2
:1034900061019091620190939E0180939D010E9431
:1034A0005F0980919B0190919C010E946D09EFCC76
:1034B00040E062E180E20E94CC1680E00E94980920
:1034C00082E090E090930A028093090280911702B3
:1034D00090911802A0911902B0911A0289839A83DF
:1034E000AB83BC8320E030E04CE052E4BC01CD0172
:1034F0000E944A1E87FFB5C020E030E0A901698123
:103500007A818B819C810E94FA1F18160CF0A9C049
:10351000C0900102D0900202E0900302F0900402F9
:1035200023EC35EF48E450E4C701B6010E94FA1FCE
:103530001816C4F423EC35EF48EC50E4C701B6018B
:103540000E944A1E87FF0EC030920A022092090292
:1035500010939C0100939B01A4E6B0E0B0939E0100
:10356000A0939D01409000015090010160900201E4
:1035700070900301A301920163EC75EF88EC9FE367
:103580000E94831D4B015C019B01AC01C701B60188
:103590000E944A1E87FF19C020E030E0A901C70140
:1035A000B6010E94FA1F181684F4E2E0F0E0F093EE
:1035B0000A02E093090284E690E090939C018093D4
:1035C0009B0110939E0100939D0123EC35EF48EC85
:1035D0005FE3C301B2010E94841D2B013C019B01EA
:1035E000AC01C701B6010E94FA1F1816D4F423ECEF
:1035F00035EF48E450E4C701B6010E944A1E87FF38
:1036000010C0A3E0B0E0B0930A02A09309021093A7
:103610009C0100939B01E4E6F0E0F0939E01E093AF
:103620009D01A3019201C701B6010E944A1E87FFB6
:1036300018C0A5019401C701B6010E94FA1F18160F
:1036400084F484E690E090939C0180939B01909396
:103650009E0180939D018FE090E090930A028093F9
:10366000090220E030E0A90169817A818B819C8187
:103670000E944A1E87FFB8C020E030E04CE052ECC8
:1036800069817A818B819C810E94FA1F18160CF047
:10369000ABC0C0900102D0900202E0900302F09013
:1036A000040223EC35EF48E450E4C701B6010E9460
:1036B000FA1F1816D4F423EC35EF48EC50E4C70198
:1036C000B6010E944A1E87FF10C0A4E6B0E0B09386
:1036D0009C01A0939B0110939E0100939D0184E0A7
:1036E00090E090930A02809309024090000150906C
:1036F00001016090020170900301A301920163EC4B
:1037000075EF88EC9FE30E94831D4B015C019B01D8
:10371000AC01C701B6010E944A1E87FF19C020E014
:1037200030E0A901C701B6010E94FA1F181684F4FF
:10373000E4E6F0E0F0939C01E0939B0110939E017E
:1037400000939D0185E090E090930A028093090226
:1037500023EC35EF48EC5FE3C301B2010E94841D06
:103760002B013C019B01AC01C701B6010E94FA1F6D
:103770001816D4F423EC35EF48E450E4C701B60141
:103780000E944A1E87FF10C010939C0100939B016A
:1037900084E690E090939E0180939D0186E090E006
:1037A00090930A0280930902A3019201C701B60116
:1037B0000E944A1E87FF18C0A5019401C701B601E7
:1037C0000E94FA1F181684F4A4E6B0E0B0939C019E
:1037D000A0939B01B0939E01A0939D018FE090E088
:1037E00090930A028093090220E030E04CE052EC12
:1037F00069817A818B819C810E944A1E87FFABC0C0
:10380000C0900102D0900202E0900302F090040206
:1038100023EC35EF48E450E4C701B6010E94FA1FDB
:103820001816D4F422E538EB46E950E4C701B60196
:103830000E944A1E87FF10C010939C0100939B01B9
:10384000E4E6F0E0F0939E01E0939D0187E090E0D4
:1038500090930A02809309028090000190900101E8
:10386000A0900201B0900301A501940163EC75EFF3
:1038700088EC9FE30E94831D9B01AC01C701B60148
:103880000E944A1E87FF19C020E030E0A901C7014D
:10389000B6010E94FA1F181684F484E690E0909313
:1038A0009C0180939B0110929E0110929D0188E0E3
:1038B00090E090930A028093090222E538EB46E9F2
:1038C00050E4C701B6010E94FA1F1816D4F423EC85
:1038D00035EF48EC50E4C701B6010E944A1E87FF4D
:1038E00010C010929C0110929B01A4E6B0E0B0932E
:1038F0009E01A0939D01E9E0F0E0F0930A02E093BD
:10390000090223EC35EF48EC5FE3C501B4010E94E6
:10391000841D9B01AC01C701B6010E94FA1F181655
:10392000D4F423EC35EF48E450E4C701B6010E941B
:103930004A1E87FF10C010939C0100939B0184E6F0
:1039400090E090939E0180939D01AAE0B0E0B09337
:103950000A02A093090220E030E04CE052E46981C1
:103960007A818B819C810E94FA1F18160CF0ABC0E3
:10397000C0900102D0900202E0900302F090040295
:1039800023EC35EF48E450E4C701B6010E94FA1F6A
:103990001816D4F422E538EB46E950E4C701B60125
:1039A0000E944A1E87FF10C0E4E6F0E0F0939C01FD
:1039B000E0939B0110929E0110929D018BE090E09C
:1039C00090930A0280930902809000019090010177
:1039D000A0900201B0900301A501940163EC75EF82
:1039E00088EC9FE30E94831D9B01AC01C701B601D7
:1039F0000E944A1E87FF19C020E030E0A901C701DC
:103A0000B6010E94FA1F181684F410939C010093CB
:103A10009B01A4E6B0E0B0939E01A0939D01ECE071
:103A2000F0E0F0930A02E093090222E538EB46E960
:103A300050E4C701B6010E94FA1F1816D4F423EC13
:103A400035EF48EC50E4C701B6010E944A1E87FFDB
:103A500010C084E690E090939C0180939B011093AA
:103A60009E0100939D01ADE0B0E0B0930A02A093E7
:103A7000090223EC35EF48EC5FE3C501B4010E9475
:103A8000841D9B01AC01C701B6010E94FA1F1816E4
:103A9000D4F423EC35EF48E450E4C701B6010E94AA
:103AA0004A1E87FF10C010929C0110929B01E4E611
:103AB000F0E0F0939E01E0939D018EE090E0909302
:103AC0000A028093090280919B0190919C010E94BF
:103AD0006D0980919D0190919E010E945F098091E6
:103AE000150290911602853893400CF4D0C9E3E09A
:103AF000F0E0F0935401E0935301C9C930925401AE
:103B000020925301C4C95058BB27AA270ED027C200
:103B1000F0D130F0F5D120F031F49F3F11F41EF4D4
:103B2000C0C10EF4E095E7FBB6C1E92F3AD280F3AD
:103B3000BA17620773078407950718F071F49EF5AA
:103B400052C20EF4E0950B2EBA2FA02D0B01B90135
:103B500090010C01CA01A0011124FF27591B99F003
:103B6000593F50F4503E68F11A16F040A22F232F0F
:103B7000342F4427585FF3CF469537952795A7955F
:103B8000F0405395C9F77EF41F16BA0B620B730B06
:103B9000840BBAF09150A1F0FF0FBB1F661F771F77
:103BA000881FC2F70EC0BA0F621F731F841F48F42C
:103BB000879577956795B795F7959E3F08F0B3CFB2
:103BC0009395880F08F09927EE0F9795879508959C
:103BD00090D158F080E891E009F49EEF91D128F05F
:103BE00040E851E059F45EEF09C05BC1FCC1E92F28
:103BF000E078D7D168F3092E052AC1F326173707D5
:103C00004807590738F00E2E07F8E02569F0E0253F
:103C1000E0640AC0EF6307F8009407FADB01B9011A
:103C20009D01DC01CA01AD01EF934AD098D10AD0C1
:103C30005F91552331F02BED3FE049E450FD49EC15
:103C400063CF0895DF93DD27B92FBF7740E85FE3A7
:103C50001616170648075B0710F4D92FCFD19F938C
:103C60008F937F936F937CD2E2E4F1E01DD177D103
:103C70002F913F914F915F91D4D1DD2349F090581E
:103C8000A2EA2AED3FE049EC5FE3D0785D274DDF03
:103C9000DF9165C1DCD008F481E0089539D1E39566
:103CA0006FC10CD05CC12CD140F023D130F021F495
:103CB0005F3F19F0F0C0511197C1F3C072D198F372
:103CC0009923C9F35523B1F3951B550BBB27AA279D
:103CD00062177307840738F09F5F5F4F220F331F0F
:103CE000441FAA1FA9F333D00E2E3AF0E0E830D0DB
:103CF00091505040E695001CCAF729D0FE2F27D0DE
:103D0000660F771F881FBB1F261737074807AB07AB
:103D1000B0E809F0BB0B802DBF01FF2793585F4F20
:103D20002AF09E3F510568F0B6C05EC15F3FECF3DC
:103D3000983EDCF3869577956795B795F7959F5FE5
:103D4000C9F7880F911D9695879597F90895E1E039
:103D5000660F771F881FBB1F621773078407BA0798
:103D600020F0621B730B840BBA0BEE1F88F7E095F3
:103D7000089504D06894B11137C108951AD188F01C
:103D80009F5790F0B92F9927B751A0F0D1F0660F47
:103D9000771F881F991F1AF0BA95C9F712C0B13062
:103DA00081F021D1B1E008951EC1672F782F8827B7
:103DB000B85F39F0B93FCCF3869577956795B395A1
:103DC000D9F73EF490958095709561957F4F8F4F10
:103DD0009F4F0895E89409C097FB3EF49095809515
:103DE000709561957F4F8F4F9F4F9923A9F0F92FC1
:103DF00096E9BB279395F695879577956795B7953F
:103E0000F111F8CFFAF4BB0F11F460FF1BC06F5F24
:103E10007F4F8F4F9F4F16C0882311F096E911C036
:103E2000772321F09EE8872F762F05C0662371F057
:103E300096E8862F70E060E02AF09A95660F771F6B
:103E4000881FDAF7880F9695879597F90895990F47
:103E50000008550FAA0BE0E8FEEF16161706E80754
:103E6000F907C0F012161306E407F50798F0621B75
:103E7000730B840B950B39F40A2661F0232B242B4A
:103E8000252B21F408950A2609F4A140A6958FEF69
:103E9000811D811D089597F99F6780E870E060E0BB
:103EA00008959FEF80EC0895DF93CF931F930F93B6
:103EB000FF92EF92DF927B018C01689405C0DA2EAD
:103EC000EF01AFD0FE01E894A59125913591459180
:103ED0005591AEF3EF0129DEFE019701A801DA94B6
:103EE00079F7DF90EF90FF900F911F91CF91DF91C5
:103EF000089500240A941616170618060906089550
:103F000000240A9412161306140605060895C9CF54
:103F100050D0E8F3E894E0E0BB279F57F0F02AED9B
:103F20003FE049EC06C0EE0FBB0F661F771F881FEE
:103F300028F0B23A62077307840728F0B25A620B7E
:103F4000730B840BE3959A9572F7803830F49A9549
:103F5000BB0F661F771F881FD2F7904806C1092E36
:103F60000394000C11F4882352F0BB0F40F4BF2BD4
:103F700011F460FF04C06F5F7F4F8F4F9F4F089514
:103F8000EF93E0FF06C0A2EA2AED3FE049EC5FEBC9
:103F9000CCDDE5DF0F90039401FC9058EFE6F1E0F3
:103FA000F7C057FD9058440F551F59F05F3F71F00F
:103FB0004795880F97FB991F61F09F3F79F0879590
:103FC0000895121613061406551FF2CF4695F1DF19
:103FD00008C0161617061806991FF1CF86957105A9
:103FE000610508940895E894BB2766277727CB01DD
:103FF00097F908952CDF08F48FEF08959B01AC0129
:1040000060E070E080E89FE34CCE0BD0A8CF71DF7A
:1040100028F076DF18F0952309F03DCF42CF112428
:10402000E3CFBFDFA0F3959FD1F3950F50E0551F6D
:10403000629FF001729FBB27F00DB11D639FAA27FD
:10404000F00DB11DAA1F649F6627B00DA11D661F4C
:10405000829F2227B00DA11D621F739FB00DA11D6D
:10406000621F839FA00D611D221F749F3327A00D27
:10407000611D231F849F600D211D822F762F6A2FC3
:1040800011249F5750408AF0E1F088234AF0EE0F48
:10409000FF1FBB1F661F771F881F91505040A9F755
:1040A0009E3F510570F0F7CE9FCF5F3FECF3983EF7
:1040B000DCF3869577956795B795F795E7959F5FBC
:1040C000C1F7FE2B880F911D9695879597F9089556
:1040D0009F931EDF0F9007FCEE5F52CF11F40EF49A
:1040E000E0CE41C066DFD0F39923D9F3CEF39F57DA
:1040F000550B87FF46D00024A0E640EA9001805887
:104100005695979528F4805C660F771F881F20F0DE
:1041100026173707480730F4621B730B840B2029DE
:1041200031294A2BA69517940794202531254A2733
:1041300058F7660F771F881F20F0261737074807A4
:1041400030F4620B730B840B200D311D411DA095C3
:1041500081F7B901842F9158880F96958795089516
:104160009B01AC0152CF9F3F31F0915020F48795D5
:1041700077956795B795880F911D9695879597F9CF
:10418000089591505040660F771F881FD2F7089509
:104190009F938F937F936F93FF93EF939B01AC015A
:1041A00034DFEF91FF9180DE2F913F914F915F912E
:1041B0002CCFEE0FFF1F0590F491E02D0994BB2743
:1041C0004A3031F4992322F4BDE2909581959F4FB6
:1041D0000C941C21BB272A3051F4992342F4BDE2F0
:1041E00090958095709561957F4F8F4F9F4F0C9460
:1041F000FA20BB27FA01A62F6217710581059105E8
:10420000330B30FB66F0AA27660F771F881F991FB4
:10421000AA1FA21710F0A21B63953850A9F7A05D42
:10422000AA3308F0A95DA19336F7B111B1931082BA
:10423000CA010C943521BB27FB015527AA27880FFB
:10424000991FAA1FA41710F0A41B83955051B9F70A
:10425000A05DAA3308F0A95DA193009779F7B11189
:10426000B1931192CB010C943521DC01FC01672F35
:1042700071917723E1F7329704C07C916D9370833D
:0E4280006291AE17BF07C8F30895F894FFCF00
:10428E009A99193EFFFF010000803F0000803F0019
:10429E0000803F0000803F0000803F0000803F0014
:1042AE0000803F0000803F00003E430000AF43000F
:1042BE0000AF4300008C430000C84300007A430067
:1042CE0000BE4300003E437EFFC3F5C83F02000A16
:0C42DE00D7A33E010000E1000000000832
:00000001FF
