:100000000C9436010C9453010C9453010C94BF09C9
:100010000C9453010C9453010C9453010C94530110
:100020000C9453010C9453010C9446140C948014BA
:100030000C9453010C9453010C9453010C945301F0
:100040000C9453010C9453010C9453010C945301E0
:100050000C94B0090C9453010C9453010C9453016B
:100060000C9453010C9453010C9453010C945301C0
:100070000C9453010C942A0A0C9453010C945301D0
:100080000C9453010C9453010C9453010C945301A0
:100090000C9453010C9453010C9453010C94530190
:1000A0000C9453010C9453010C945301CF08E008B5
:1000B000EF08FE080D091C092B093A094D095409DE
:1000C000011DF61C131D011D081D131D181D081D03
:1000D000311D1F1D261D311D3C1DEE13E613DE13C1
:1000E000D613CE13C613BE13B613AE13A6139E13A8
:1000F00096138E1386137E1376136E1366135E1398
:1001000056134E1346133E1336132E1326131E1387
:1001100016130E130613FE12F612EE12E612DE127C
:10012000D612CE12C612BE12B612AE12A6129E126F
:1001300096128E1286127E1276126E1266125E125F
:1001400056124E1246123E1236122E1226121E124F
:1001500016120E120612FE11F611EE11084AD73BC6
:100160003BCE016E84BCBFFDC12F3D6C74319ABD86
:1001700056833DDA3D00C77F11BED9E4BB4C3E91AA
:100180006BAAAABE000000803F05A84CCDB2D44E99
:10019000B93836A9020C50B9918688083CA6AAAA9B
:1001A0002ABE000000803F000A0009000900090083
:1001B0000900090009000900000100004F021200B7
:1001C0000200000C024300030000080204010309BE
:1001D00004F4011202030904EC010603030904E21A
:1001E00001080803340031003000000006034D0010
:1001F0003200000012034A002E0020004600690071
:1002000065006E0065000000040309040902430054
:10021000020100C0320904000001020201000524AD
:100220000010010524010101042402060524060032
:10023000010705820310004009040100020A0000C2
:100240000007050302400000070584024000001279
:1002500001000202000010C0167A0400010102032E
:10026000010001C1120180360181360011241FBE38
:10027000CFEFDAE0DEBFCDBF11E0A0E0B1E0E2E613
:10028000F2E402C005900D92AA35B107D9F722E039
:10029000AAE5B1E001C01D92AF31B207E1F70E94BB
:1002A00048170C942F210C9400002898299A9195B6
:1002B0008195910990914B01989F802D11248093F5
:1002C000D00008952C9A0895469A08950F931F938D
:1002D000CF93DF9380E8809361001092610085BF27
:1002E00085BF0E949A0D0E94E310209A219A229ABB
:1002F000239A249A3E9A53984AE069E181E00E9449
:10030000420E0E946C0F809181008B7F8093810050
:100310008091810082608093810080918100816062
:100320008093810080918100806180938100809121
:10033000810088608093810080918000826080933A
:1003400080008091800081608093800080916F00A8
:10035000816080936F0084EC99E090938900809392
:10036000880078941092CF001092D00088EC80938F
:10037000D1003F9A269A8091C10088608093C10085
:100380008091C10084608093C1008091C1008D7F05
:100390008093C1008091C1008E7F8093C1008091C5
:1003A000C3008D7F8093C3008091C3008E7F8093B4
:1003B000C3008091C00082608093C0008091C00023
:1003C00080688093C0008091C0008F7B8093C000C4
:1003D0008091C00081608093C0008091C0008062E5
:1003E0008093C0008091C0008F7E8093C000809178
:1003F0007C008F7780937C0080917C008064809368
:100400007C0080917A00846080937A0080917A00E9
:10041000826080937A0080917A00816080937A0074
:1004200080917E00816080937E0080917E0082605A
:1004300080937E0080917E00806180937E00809119
:100440007E00806280937E0080917E008064809335
:100450007E0080917E00806880937E0080917D0088
:10046000816080937D0080917D00826080937D001B
:1004700080917D00846080937D0080917B008F7DE2
:1004800080937B0080917C008B7F80937C008091A7
:100490007C008D7F80937C0080917C008E7F809398
:1004A0007C0080917A00886080937A0080917B0044
:1004B0008F7D80937B0080917C008B7F80937C007C
:1004C00080917C008D7F80937C0080917C008E7F6A
:1004D00080937C0080917A00806880937A0080917C
:1004E0007A00806480937A0040E060E080E20E94BD
:1004F000DA1641E060E080E20E94DA1642E060E055
:1005000080E20E94DA1643E060E080E20E94DA16A0
:1005100044E060E080E20E94DA1645E060E080E2BC
:100520000E94DA1646E060E080E20E94DA1647E0B8
:1005300060E080E20E94DA1640E061E080E20E9422
:10054000DA16C5E2D1E005E011E02991399149912F
:10055000599160E070E080E894E40E946D1D9B0179
:10056000AC0160E070E080E894E40E943B1EF8017A
:1005700061937193819391938F01F1E0C534DF070B
:1005800021F7DF91CF911F910F9108952F923F9204
:100590004F925F926F927F928F929F92AF92BF9293
:1005A000CF92DF92EF92FF920F931F93CF93DF933F
:1005B000CDB7DEB7C458D1090FB6F894DEBF0FBE71
:1005C000CDBF2C01FE01319680E4DF011D928A959A
:1005D000E9F7BE016F5B7F4F84E2DB011D928A95D4
:1005E000E9F7D20120E030E080E090E04D915D91AC
:1005F0004F3F534009F401962F5F3F4F2B30310599
:10060000A9F78230910509F471C234F06E9A769898
:100610006A9A729A80E0F4C46E9A769A6A9A72988C
:10062000E796FFAFEEAFE797A7965FAE4EAEA79700
:10063000612C712CEB961FAE1EAEEB9700E010E024
:10064000212C312CA796AEADBFADA7976D917C91B3
:1006500080E090E00E94D41EC358DF4F6883798306
:100660008A839B83CD57D040A796EEADFFADA79769
:100670006281738180E090E00E94D41ECF57DF4FEB
:10068000688379838A839B83C158D040AB965FAEE1
:100690004EAEAB97AF961FAE1EAEAF97E3961FAEB2
:1006A0001EAEE397AB96AEADBFADAB976D917C91AF
:1006B00080E090E00E94D41E9B01AC01C358DF4F44
:1006C000688179818A819B81CD57D0400E946D1DC0
:1006D0004B015C01AB96EEADFFADAB9762817381D0
:1006E00080E090E00E94D41E9B01AC01CF57DF4F09
:1006F000688179818A819B81C158D0400E946D1D9B
:100700006B017C01A5019401C501B4010E94EF1F9A
:100710004B015C01A7019601C701B6010E94EF1FC2
:100720009B01AC01C501B4010E946E1D0E945C20BA
:100730006B017C01E796EEADFFADE797AF962EAD6E
:100740003FADAF97E20FF31F608371838283938382
:10075000EB964EAD5FADEB97BA01882777FD80959C
:10076000982F0E94D61E9B01AC01C701B6010E94C2
:10077000E41F18166CF4C701B6010E94A31EEB9685
:100780007FAF6EAFEB97E3960EAD1FADE39713010E
:10079000E3968EAD9FADE3970196E3969FAF8EAF44
:1007A000E397AB96AEADBFADAB971696AB96BFAF2A
:1007B000AEAFAB97AF96EEADFFADAF973496AF96B9
:1007C000FFAFEEAFAF97049709F06CCFFFEF6F1A52
:1007D0007F0AA7962EAD3FADA7972A5F3F4FA796FA
:1007E0003FAF2EAFA797E7964EAD5FADE797405F5F
:1007F0005F4FE7965FAF4EAFE79754E06516710421
:1008000009F020CF80E090E082159305A1F18017D8
:10081000910789F1F101EE0FFF1FEE0FFF1FE80FA7
:10082000F91FEE0FFF1FEE0FFF1FEE24E394F12CD4
:10083000EC0EFD1EEE0DFF1DD801AA0FBB1FAA0F67
:10084000BB1FA80FB91FAA0FBB1FAA0FBB1FAE0D5E
:10085000BF1D2D913D914D915C916081718182818F
:1008600093810E94341E87FF0EC0902F812F81013B
:10087000292E382E08C001968430910529F6212CA6
:10088000312C00E010E086E0782E709E7001719EA1
:10089000F00C1124E40CF51CD7016D917C9180E0E3
:1008A00090E00E94D41E4B015C01F70162817381CC
:1008B00080E090E00E94D41E6B017C01729C80015C
:1008C000739C100D1124040D151DD8016D917C91A0
:1008D00080E090E00E94D41E2B013C01F80162816F
:1008E000738180E090E00E94D41EE1966CAF7DAFF2
:1008F0008EAF9FAFE1979B01AC01C701B6010E948B
:100900006D1DA9966CAF7DAF8EAF9FAFA997A30168
:100910009201C501B4010E946D1DA9962CAD3DAD9B
:100920004EAD5FADA9970E94E11DE5966CAF7DAF1E
:100930008EAF9FAFE5979B01AC015058A9962CAFA5
:100940003DAF4EAF5FAFA997CA01B9010E94381EF3
:10095000AD966CAF7DAF8EAF9FAFAD97A301920107
:10096000C501B4010E946E1D20E030E040E05FE36D
:100970000E94EF1F20E030E040E054E40E946D1D33
:100980002B013C01A9966CAD7DAD8EAD9FADA997B5
:100990000E9452204B015C01E1962CAD3DAD4EAD65
:1009A0005FADE197C701B6010E946E1D20E030E007
:1009B00040E05FE30E94EF1F20E030E040EC53E4B2
:1009C0000E946D1DE9966CAF7DAF8EAF9FAFE9972A
:1009D00080914D0190914E01A0914F01B091500135
:1009E000E1968CAF9DAFAEAFBFAFE197AD966CAD6A
:1009F0007DAD8EAD9FADAD979058A30192010E9441
:100A0000EF1F6B017C01E9962CAD3DAD4EAD5FADA6
:100A1000E997C501B4010E94EF1F9B01AC01C7011A
:100A2000B6010E946D1D9B01AC015058E1966CAD62
:100A30007DAD8EAD9FADE1970E94EF1F6093AB013E
:100A40007093AC018093AD019093AE01A30192012C
:100A5000C501B4010E94EF1F6B017C01E9962CAD2A
:100A60003DAD4EAD5FADE997AD966CAD7DAD8EAD54
:100A70009FADAD970E94EF1F9B01AC01C701B6016E
:100A80000E946D1D9B01AC01E1966CAD7DAD8EADFC
:100A90009FADE1970E94EF1F6093AF017093B0018B
:100AA0008093B1019093B20120E030E0A901A996B2
:100AB0006CAD7DAD8EAD9FADA9970E94341E87FFB2
:100AC00083C2E5962CAD3DAD4EAD5FADE59763ECD1
:100AD00075EF88EC90E40E946D1D6093A701709300
:100AE000A8018093A9019093AA017CC26E9A76987E
:100AF0006A9A7298D20141E050E020E030E080E054
:100B000090E00D911C9111970F3FE3E01E0709F44F
:100B10006BC2F901E81BF90BEE0FFF1FEE0FFF1F71
:100B2000ED54FE4F1183008312960D911C91139783
:100B3000FC01EE0FFF1F7A01EE1AFF0AF701EE0F1C
:100B4000FF1FED54FE4F118300832F5F3F4F16961A
:100B50004E5F5F4F24303105A1F6AB967FAF6EAF8D
:100B6000AB9723EB31E0E3963FAF2EAFE397412CF9
:100B7000512CE7961FAE1EAEE79700E010E0212C47
:100B8000312CE396AEADBFADE3976D917C9180E0E3
:100B900090E00E94D41EED966CAF7DAF8EAF9FAFFC
:100BA000ED97E396EEADFFADE3976281738180E050
:100BB00090E00E94D41EC358DF4F688379838A83F4
:100BC0009B83CD57D04023EB31E0A7963FAF2EAFAC
:100BD000A797AF961FAE1EAEAF97612C712CA7964C
:100BE000AEADBFADA7976D917C9180E090E00E9483
:100BF000D41E9B01AC01ED966CAD7DAD8EAD9FAD6D
:100C0000ED970E946D1D4B015C01A796EEADFFAD07
:100C1000A7976281738180E090E00E94D41E9B01BF
:100C2000AC01C358DF4F688179818A819B81CD57A0
:100C3000D0400E946D1D6B017C01A5019401C5018E
:100C4000B4010E94EF1F4B015C01A7019601C7018F
:100C5000B6010E94EF1F9B01AC01C501B4010E94C7
:100C60006E1D0E945C206B017C01AB96EEADFFAD6A
:100C7000AB97AF962EAD3FADAF97E20FF31F6083FA
:100C8000718382839383E7964EAD5FADE797BA0198
:100C9000882777FD8095982F0E94D61E9B01AC0176
:100CA000C701B6010E94E41F181654F4C701B6012B
:100CB0000E94A31EE7967FAF6EAFE79783011201F4
:100CC0005FEF651A750AA7968EAD9FADA79704963C
:100CD000A7969FAF8EAFA797AF96AEADBFADAF97BC
:100CE0001496AF96BFAFAEAFAF97B3E06B1671047B
:100CF00009F075CFEFEF4E1A5E0AE3962EAD3FADC9
:100D0000E3972C5F3F4FE3963FAF2EAFE397AB9651
:100D10004EAD5FADAB97445F5F4FAB965FAF4EAFED
:100D2000AB9753E04516510409F02BCF80E090E0DB
:100D30008215930509F45AC18017910709F456C129
:100D4000F101EE0FFF1FE20DF31DE80FF91FEE0F8B
:100D5000FF1FEE0FFF1F41E450E04C0F5D1FE40F3B
:100D6000F51FD801AA0FBB1FA00FB11FA80FB91FF5
:100D7000AA0FBB1FAA0FBB1FA40FB51F2D913D913A
:100D80004D915C9160817181828193810E94341EBA
:100D900087FF05C0902F812F8101292E382E7801E1
:100DA000EE0CFF1CE00EF11EF701EE0FFF1FED54DD
:100DB000FE4F6081718180E090E00E94D41E4B0163
:100DC0005C01F701EE0FFF1FEB54FE4F6081718154
:100DD00080E090E00E94D41E6B017C018101000F35
:100DE000111F020D131DF801EE0FFF1FED54FE4FF2
:100DF0006081718180E090E00E94D41E2B013C0153
:100E0000F801EE0FFF1FEB54FE4F6081718180E00F
:100E100090E00E94D41EAD966CAF7DAF8EAF9FAFB9
:100E2000AD979B01AC01C701B6010E946D1DA9964B
:100E30006CAF7DAF8EAF9FAFA997A3019201C501A3
:100E4000B4010E946D1DA9962CAD3DAD4EAD5FADB8
:100E5000A9970E94E11D9B01AC015058A9962CAFA7
:100E60003DAF4EAF5FAFA997CA01B9010E94381ECE
:100E7000E5966CAF7DAF8EAF9FAFE597A301920172
:100E8000C501B4010E946E1D20E030E040E05FE348
:100E90000E94EF1F20E030E040E054E40E946D1D0E
:100EA0002B013C01A9966CAD7DAD8EAD9FADA99790
:100EB0000E9452204B015C01AD962CAD3DAD4EAD74
:100EC0005FADAD97C701B6010E946E1D20E030E016
:100ED00040E05FE30E94EF1F20E030E040EC53E48D
:100EE0000E946D1DE1966CAF7DAF8EAF9FAFE19715
:100EF00080914D0190914E01A0914F01B091500110
:100F0000AD968CAF9DAFAEAFBFAFAD97E5966CAD74
:100F10007DAD8EAD9FADE5979058A30192010E94E3
:100F2000EF1F6B017C01E1962CAD3DAD4EAD5FAD89
:100F3000E197C501B4010E94EF1F9B01AC01C701FD
:100F4000B6010E946D1D9B01AC015058AD966CAD71
:100F50007DAD8EAD9FADAD970E94EF1F6093AB014D
:100F60007093AC018093AD019093AE01A301920107
:100F7000C501B4010E94EF1F6B017C01E1962CAD0D
:100F80003DAD4EAD5FADE197E5966CAD7DAD8EADFF
:100F90009FADE5970E94EF1F9B01AC01C701B60111
:100FA0000E946D1D9B01AC01AD966CAD7DAD8EAD0B
:100FB0009FADAD970E94EF1F6093AF017093B0019A
:100FC0008093B1019093B201A9962CAD3DAD4EAD89
:100FD0005FADA9972093A7013093A8014093A90181
:100FE0005093AA0181E00CC00196AFCD01968330E9
:100FF000910509F09DCE212C312C00E010E0CFCEE0
:10100000CC57DF4F0FB6F894DEBF0FBECDBFDF91D8
:10101000CF911F910F91FF90EF90DF90CF90BF90F5
:10102000AF909F908F907F906F905F904F903F9088
:101030002F900895CF92DF92EF92FF920F931F931C
:10104000CF93DF93EC018B01FB0120813181428141
:101050005381688179818A819B810E94EF1F20E002
:1010600030E0A9010E946E1D6B017C01F801248112
:101070003581468157816C817D818E819F810E945F
:10108000EF1F9B01AC01C701B6010E946E1DDF91ED
:10109000CF911F910F91FF90EF90DF90CF90089527
:1010A000AF92BF92CF92DF92EF92FF920F931F9376
:1010B000CF93DF9300E010E0C12CD12C7601C0E08B
:1010C000D0E05801AA0CBB1CAA0CBB1CC5018D5951
:1010D0009E4F5C01FC016081718182819381A70137
:1010E00096010E94E41F181634F4F501C080D180E7
:1010F000E280F380E8010F5F1F4F0830110509F708
:101100008091150290911602843893408CF484E00B
:1011100090E0909352018093510120E030E048EC40
:1011200052E4C701B6010E94341E87FDB6C0C8C094
:10113000209719F0C730D105F9F4609163017091DF
:101140006401809165019091660120917F01309149
:10115000800140918101509182010E946D1D0E9489
:10116000A31E9B0177FF04C022273327261B370BC2
:10117000243631050CF491C020E030E048EC52E414
:10118000C701B6010E94341E87FD87C0CA30D10551
:1011900008F096C0FE01EA5AFF4F0C94C32084E188
:1011A00090E090936201809361018CEE9FEF9093A9
:1011B000600180935F0110928A011092890180C0C2
:1011C00084E190E090936201809361018CEE9FEF47
:1011D0009093600180935F0181E090E059C084E1C9
:1011E00090E090936201809361018CEE9FEF909369
:1011F000600180935F0182E090E04AC084E190E06A
:1012000090936201809361018CEE9FEF9093600157
:1012100080935F0183E090E03BC084E190E0909395
:101220006201809361018CEE9FEF90936001809347
:101230005F0184E090E02CC08CEE9FEF9093620100
:101240008093610184E190E09093600180935F015D
:1012500085E090E01DC08CEE9FEF9093620180933B
:10126000610184E190E09093600180935F0186E0EA
:1012700090E00EC08CEE9FEF90936201809361012D
:1012800084E190E09093600180935F0187E090E0BB
:1012900090938A018093890113C084E190E0909338
:1012A00062018093610108C084E190E09093620143
:1012B000809361018CEE9FEF9093600180935F01BA
:1012C000DF91CF911F910F91FF90EF90DF90CF9022
:1012D000BF90AF9008951816190654F4289A2998CB
:1012E00090914B01989F802D11248093D0000895F8
:1012F0000C94550120914B011816190644F4289FAF
:10130000802D11248093CF002A9A2B9808959195CF
:1013100081959109289F802D11248093CF002A98D0
:101320002B9A089581110C9462012C9808958111D3
:101330000C9464014698089540E062E1882319F016
:1013400080E20C94DA1680E20C94071742E062E126
:10135000882319F080E20C94DA1680E20C940717C7
:101360001F920F920FB60F9211248F9381E08093FA
:101370005A018F910F900FBE0F901F9018951F92DA
:101380000F920FB60F9211242F933F934F935F93B9
:101390006F937F938F939F93AF93BF93EF93FF933D
:1013A0006AE087EE91E00E949A0E8091E701813A0F
:1013B00011F1843AC1F1803AE1F580915B0190919D
:1013C0005C01019761F40E9462012FEF81EE94E0CD
:1013D000215080409040E1F700C0000020C00E94F2
:1013E00064012FEF81EE94E0215080409040E1F7BE
:1013F00000C000000EC083E090E090935201809303
:10140000510180915B0190915C01019731F40E9440
:10141000620180E00E9497090CC00E94640180E094
:101420000E94920906C081E090E09093520180935F
:101430005101FF91EF91BF91AF919F918F917F915A
:101440006F915F914F913F912F910F900FBE0F9031
:101450001F9018951F920F920FB60F9211240F93A1
:101460001F932F933F934F935F936F937F938F932C
:101470009F93AF93BF93CF93DF93EF93FF938091AD
:10148000870190918801892B09F041C06091780013
:10149000709179000091870110918801C0918701B6
:1014A000D091880180E090E00E94D41EF801EE0FF8
:1014B000FF1FEE0FFF1FEB5DFE4F20813181428148
:1014C00053810E946D1DCC0FDD1FCC0FDD1FCB5F44
:1014D000DE4F288139814A815B810E94EF1F0E9483
:1014E000A31E7093FE016093FD018091870190918E
:1014F00088010196909388018093870180917A00FA
:101500008F7780937A0080917B008F7DBEC1809120
:10151000870190918801019709F057C06091780088
:10152000709179000091870110918801C091870125
:10153000D091880180E090E00E94D41EF801EE0F67
:10154000FF1FEE0FFF1FEB5DFE4F208131814281B7
:1015500053810E946D1DCC0FDD1FCC0FDD1FCB5FB3
:10156000DE4F288139814A815B810E94EF1F0E94F2
:10157000A31E70931E0260931D02809187019091BB
:1015800088010196909388018093870180917A0069
:101590008F7780937A0080917B008F7D80937B0092
:1015A00080917C00846080937C0080917C008D7FA2
:1015B00080937C0080917C008E7F80937C00809162
:1015C0007A00806180937A00E9C1809187019091CF
:1015D0008801029709F050C06091780070917900FD
:1015E0000091870110918801C0918701D0918801F5
:1015F00080E090E00E94D41EF801EE0FFF1FEE0F76
:10160000FF1FEB5DFE4F20813181428153810E949B
:101610006D1DCC0FDD1FCC0FDD1FCB5FDE4F288192
:1016200039814A815B810E94EF1F0E94A31E709343
:101630000A026093090280918701909188010196C6
:10164000909388018093870180917A008F778093AF
:101650007A0080917B008F7D80937B0080917C005D
:10166000846080937C0080917C008D7F80937C00DF
:1016700080917C008160A1CF809187019091880149
:10168000039709F046C0609178007091790000914D
:10169000870110918801C0918701D091880180E075
:1016A00090E00E94D41EF801EE0FFF1FEE0FFF1F07
:1016B000EB5DFE4F20813181428153810E946D1D7F
:1016C000CC0FDD1FCC0FDD1FCB5FDE4F28813981B2
:1016D0004A815B810E94EF1F0E94A31E70931C022F
:1016E00060931B02809187019091880101969093ED
:1016F00088018093870180917A008F7780937A00A8
:1017000080917B008F7D80937B0080917C00846042
:1017100000C180918701909188010497F1F5609153
:1017200078007091790080E090E00E94D41E2091B2
:1017300041013091420140914301509144010E9486
:101740006D1D209121013091220140912301509182
:1017500024010E94EF1F0E94A31E70930602609353
:1017600005028091870190918801019690938801EC
:101770008093870180917A008F7780937A0080919F
:101780007B008F7D80937B0080917C0084608093C0
:101790007C0080917C00826069CF8091870190916C
:1017A00088010597C9F5609178007091790080E013
:1017B00090E00E94D41E20913D0130913E01409165
:1017C0003F01509140010E946D1D20911D013091FB
:1017D0001E0140911F01509120010E94EF1F0E94A5
:1017E000A31E70931402609313028091870190915D
:1017F00088010196909388018093870180917A00F7
:101800008F7780937A0080917B00806280937B0049
:1018100080917C008B7FC7CE809187019091880159
:101820000697C9F5609178007091790080E090E0AA
:101830000E94D41E2091390130913A0140913B0120
:1018400050913C010E946D1D2091190130911A01A7
:1018500040911B0150911C010E94EF1F0E94A31E8A
:101860007093FA016093F90180918701909188014A
:101870000196909388018093870180917A008F77F9
:1018800080937A0080917B00806280937B008091BE
:101890007C008B7FE6CE809187019091880107972D
:1018A000F1F5609178007091790080E090E00E94FD
:1018B000D41E20913501309136014091370150916D
:1018C00038010E946D1D2091150130911601409143
:1018D0001701509118010E94EF1F0E94A31E7093E0
:1018E0000402609303028091870190918801019620
:1018F000909388018093870180917A008F778093FD
:101900007A0080917B00806280937B0080917C00D4
:101910008B7F80937C0080917C00826049CE809197
:101920008701909188010897C9F58091780090917E
:10193000790090931602809315028091870190910F
:1019400088010196909388018093870180917A00A5
:101950008F7780937A0080917B008F7D80937B00CE
:1019600080917C008B7F80937C0080917C008D7FB8
:1019700080937C0080917C008E7F80937C0080919E
:101980007A00806180937A0010928801109287011A
:1019900081E090E090930C0280930B0280910B0207
:1019A00090910C02892B09F4A2C06091FD01709105
:1019B000FE01882777FD8095982F0E94D61E6093A0
:1019C0006301709364018093650190936601609157
:1019D0001D0270911E02882777FD8095982F0E9426
:1019E000D61E60936701709368018093690190939C
:1019F0006A016091090270910A02882777FD80953B
:101A0000982F0E94D61E60936B0170936C01809397
:101A10006D0190936E0160911B0270911C028827EA
:101A200077FD8095982F0E94D61E60936F0170936A
:101A30007001809371019093720160910302709123
:101A40000402882777FD8095982F0E94D61E609308
:101A50007301709374018093750190937601609186
:101A6000F9017091FA01882777FD8095982F0E94DF
:101A7000D61E6093770170937801809379019093DB
:101A80007A016091130270911402882777FD809586
:101A9000982F0E94D61E60937B0170937C018093E7
:101AA0007D0190937E016091050270910602882766
:101AB00077FD8095982F0E94D61E60937F017093CA
:101AC0008001809381019093820160911502709151
:101AD0001602882777FD8095982F0E94D61E609366
:101AE0008301709384018093850190938601109205
:101AF0000C0210920B0280917A00806880937A0029
:101B000080917A00806480937A00FF91EF91DF9159
:101B1000CF91BF91AF919F918F917F916F915F9185
:101B20004F913F912F911F910F910F900FBE0F90EA
:101B30001F901895589A599A5A9A8CE08093B80039
:101B4000E9E6F0E080818062808380818F7E8083FF
:101B5000EA9A7894089584E88093BC008091BC0050
:101B600087FFFCCF8091BB00089584E98093BC007F
:101B7000089520E030E08091BC0087FD06C02F5F13
:101B80003F4F293E83E03807B1F781E0283E3340DC
:101B900009F480E008958093BB0084E88093BC0042
:101BA0000E94B90D882321F08091B900887F0895A3
:101BB00080E008951F93CF93DF931F92CDB7DEB7D8
:101BC000182F84EA8093BC0069830E94B90D698153
:101BD000811104C094E99093BC0014C0812F880F38
:101BE000662331F08F5F0E94CB0D883451F404C01E
:101BF0000E94CB0D803229F484E98093BC0080E000
:101C000001C081E00F90DF91CF911F910895CF9394
:101C1000DF93C82FD62F60E00E94DA0D882391F061
:101C20008D2F0E94CB0D882369F084E98093BC003E
:101C300061E08C2F0E94DA0D882321F0DF91CF9193
:101C40000C94AB0D80E0DF91CF910895CF93DF939B
:101C5000D62FC42F60E00E94DA0D811102C080E00F
:101C60000EC08D2F0E94CB0D8823C9F38C2F0E94AC
:101C7000CB0D8823A1F384E98093BC0081E0DF9140
:101C8000CF910895CF93DF9300D01F92CDB7DEB7E9
:101C90004B836A8389830E949A0D94EA9093BC00D7
:101CA00089816A814B819091BC0097FFFCCF90E5C0
:101CB0009093BB0094E89093BC009091BC0097FF78
:101CC000FCCF9091B900987F903229F484E98093F9
:101CD000BC0080E029C091E09093BB0094E8909311
:101CE000BC009091BC0097FFFCCF8093BB0084E8C0
:101CF0008093BC008091BC0087FFFCCF6093BB0049
:101D000084E88093BC008091BC0087FFFCCF4093A7
:101D1000BB0084E88093BC008091BC0087FFFCCFAF
:101D200084E98093BC0081E00F900F900F90DF91C9
:101D3000CF91089524EA2093BC002091BC0027FF96
:101D4000FCCF21E52093BB0024E82093BC00209128
:101D5000BC0027FFFCCF2091B900287F2834A9F0D0
:101D600024EC2093BC002091BC0027FFFCCF2091E5
:101D7000BB0026130AC0FC0120E030E0772767FD96
:101D800070956150710944EC0EC084E98093BC00E9
:101D900080E008955091BC0057FFFCCF5091BB00EC
:101DA00051932F5F3F4F261737071CF44093BC0019
:101DB000F1CF44E84093BC004091BC0047FFFCCF0A
:101DC0004091BB00FC01E20FF31F408384E9809344
:101DD000BC0081E00895F89494EA9093BC0090913F
:101DE000BC0097FFFCCF90E59093BB0094E89093E4
:101DF000BC009091BC0097FFFCCF9091B900987FF8
:101E0000903231F484E98093BC00789480E00895A6
:101E100093E09093BB0094E89093BC009091BC0039
:101E200097FFFCCF8093BB0084E88093BC00809137
:101E3000BC0087FFFCCFFB01552747FD509524E8E8
:101E4000CF01861B970B8417950754F481918093DB
:101E5000BB002093BC008091BC0087FFFCCFF0CF7B
:101E600084E98093BC00789481E0089520E030E01C
:101E70008091BC0087FD06C02F5F3F4F293E83E065
:101E80003807B1F781E0283E334009F480E0089537
:101E90008093BB0084E88093BC000E94360F8823A7
:101EA00019F08091B900887F0895CF93C82F84EAF4
:101EB0008093BC000E94360F882361F08C2F880F1E
:101EC0000E94480F803229F484E98093BC0080E0AE
:101ED00001C081E0CF9108950E949A0D88E50E948B
:101EE000550F811102C080E0089580E30E94480FE1
:101EF0008823C9F381E00E94480F8823A1F384E975
:101F00008093BC008FE39CE90197F1F700C00000CB
:101F100088E50E94550F882331F380E00E94480F26
:101F2000882309F380E00E94480F8823E1F280E0D3
:101F30000E94480F8823B9F280E00E94480F88234E
:101F400091F280E00E94480F882369F280E00E94AD
:101F5000480F882341F280E00E94480F882319F23D
:101F600080E90E94480F882309F4BDCF84E980935B
:101F7000BC008FE39CE90197F1F700C0000088E501
:101F80000E94550F882309F4AECF87E00E94480FC6
:101F9000882309F4A8CF80E00E94480F882309F421
:101FA000A2CF81E40E94480F882309F49CCF84E9E2
:101FB0008093BC008FE39CE90197F1F700C000001B
:101FC00088E50E94550F882309F48DCF8AE10E948D
:101FD000480F882309F487CF80E40E94480F8823A4
:101FE00009F481CF80E00E94480F882309F47BCF59
:101FF00084E98093BC008FE39CE90197F1F700C06E
:10200000000088E50E94550F882309F46CCF83E314
:102010000E94480F882309F466CF83E00E94480F8E
:10202000882309F460CF84E98093BC008FE39CE9A6
:102030000197F1F700C0000088E50E94550F882342
:1020400009F451CF80E30E94480F882309F44BCF55
:1020500088E00E94480F882309F445CF84E98093E3
:10206000BC008FE39CE90197F1F700C0000081E01C
:102070000895CF93C82F84EA8093BC000E94360F46
:10208000882369F08C2F880F8F5F0E94480F883457
:1020900029F484E98093BC0080E001C081E0CF9105
:1020A0000895EF92FF920F931F93CF93DF93CDB7D5
:1020B000DEB760970FB6F894DEBF0FBECDBF7C01D0
:1020C0008E010F5F1F4F80E1F80111928A95E9F7A9
:1020D00088E50E94550F811102C080E05EC086E352
:1020E0000E94480F8823C9F384E98093BC00F5E877
:1020F000FA95F1F7000088E50E943910882369F30A
:10210000F8019E01205F3F4F94EC9093BC008091BA
:10211000BC0087FFFCCF8091BB008193E217F307DF
:10212000A1F784E88093BC008091BC0087FFFCCFBE
:102130008091BB00888B84E98093BC00DE011496FB
:1021400087016C91762F7073AD0142505109FA01ED
:10215000808190E0F0E17F9F800D911D1124F801B6
:1021600091838083762F707C4F5F5F4FFA0180816F
:1021700090E0F4E07F9F800D911D1124F80193837E
:1021800082836F70862F90E09583848313960A5F15
:102190001F4FA217B307A9F681E060960FB6F89417
:1021A000DEBF0FBECDBFDF91CF911F910F91FF908A
:1021B000EF90089584E98093BC0008958091E80031
:1021C00080FFFCCF089581E08093D70080EA809360
:1021D000D80082E189BD09B400FEFDCF80E980937B
:1021E000D8001092E0001092F4011092F1018CE0FE
:1021F0008093E200789408958091F40108959FB748
:10220000F8948091F401882339F083E08093E90009
:102210008091E80085FD03C09FBF8FEF08958091F6
:10222000F1002091E80025FD03C02BE62093E80093
:102230009FBF08959FB7F8948091F401882331F0EF
:1022400083E08093E9008091F20001C080E09FBFAD
:1022500008958091F401882371F08FB7F89493E08A
:102260009093E9002BE69091E80095FF03C020933E
:10227000E800F9CF8FBF08959091F401992371F090
:102280009FB7F89424E02093E9002091F2012223E3
:1022900049F02091E80025FD03C09FBF8FEF08950E
:1022A0001092F2012091E400275E34E04091E800B2
:1022B00045FD12C09FBF9091E400921304C081E0DD
:1022C0008093F201EBCF9091F401992339F39FB7FA
:1022D000F8943093E900EACF8093F1008091E80010
:1022E00085FD03C08AE38093E80085E08093F301D5
:1022F0009FBF80E008959091F4019923D1F09FB79A
:10230000F89424E02093E9002091E80025FD02C024
:102310009FBF0FC08093F1008091E80085FD03C04E
:102320008AE38093E80085E08093F3019FBF80E01B
:1023300008958FEF0895EF92FF921F93CF93DF934D
:102340007C01CB012091F401222371F0AFB7F89406
:1023500024E02093E9002091F201222349F020910A
:10236000E80025FD03C0AFBF8FEF42C21092F2011B
:10237000B4E0C0E4DAE315E0009709F437C2209135
:10238000E400275E3091E80035FD12C0AFBF309108
:10239000E400321304C081E08093F201E5CF309174
:1023A000F401332309F3AFB7F894B093E900EACF0F
:1023B0002091F2004C2F421B242F30E0821793070C
:1023C00008F4482F841B910950E04134510508F06E
:1023D000FDC143595F4FFA010C94C320F7012081DE
:1023E0002093F10097012F5F3F4F7901F701208182
:1023F0002093F10097012F5F3F4F7901F701208172
:102400002093F10097012F5F3F4F7901F701208161
:102410002093F10097012F5F3F4F7901F701208151
:102420002093F10097012F5F3F4F7901F701208141
:102430002093F10097012F5F3F4F7901F701208131
:102440002093F10097012F5F3F4F7901F701208121
:102450002093F10097012F5F3F4F7901F701208111
:102460002093F10097012F5F3F4F7901F701208101
:102470002093F10097012F5F3F4F7901F7012081F1
:102480002093F10097012F5F3F4F7901F7012081E1
:102490002093F10097012F5F3F4F7901F7012081D1
:1024A0002093F10097012F5F3F4F7901F7012081C1
:1024B0002093F10097012F5F3F4F7901F7012081B1
:1024C0002093F10097012F5F3F4F7901F7012081A1
:1024D0002093F10097012F5F3F4F7901F701208191
:1024E0002093F10097012F5F3F4F7901F701208181
:1024F0002093F10097012F5F3F4F7901F701208171
:102500002093F10097012F5F3F4F7901F701208160
:102510002093F10097012F5F3F4F7901F701208150
:102520002093F10097012F5F3F4F7901F701208140
:102530002093F10097012F5F3F4F7901F701208130
:102540002093F10097012F5F3F4F7901F701208120
:102550002093F10097012F5F3F4F7901F701208110
:102560002093F10097012F5F3F4F7901F701208100
:102570002093F10097012F5F3F4F7901F7012081F0
:102580002093F10097012F5F3F4F7901F7012081E0
:102590002093F10097012F5F3F4F7901F7012081D0
:1025A0002093F10097012F5F3F4F7901F7012081C0
:1025B0002093F10097012F5F3F4F7901F7012081B0
:1025C0002093F10097012F5F3F4F7901F7012081A0
:1025D0002093F10097012F5F3F4F7901F701208190
:1025E0002093F10097012F5F3F4F7901F701208180
:1025F0002093F10097012F5F3F4F7901F701208170
:102600002093F10097012F5F3F4F7901F70120815F
:102610002093F10097012F5F3F4F7901F70120814F
:102620002093F10097012F5F3F4F7901F70120813F
:102630002093F10097012F5F3F4F7901F70120812F
:102640002093F10097012F5F3F4F7901F70120811F
:102650002093F10097012F5F3F4F7901F70120810F
:102660002093F10097012F5F3F4F7901F7012081FF
:102670002093F10097012F5F3F4F7901F7012081EF
:102680002093F10097012F5F3F4F7901F7012081DF
:102690002093F10097012F5F3F4F7901F7012081CF
:1026A0002093F10097012F5F3F4F7901F7012081BF
:1026B0002093F10097012F5F3F4F7901F7012081AF
:1026C0002093F10097012F5F3F4F7901F70120819F
:1026D0002093F10097012F5F3F4F7901F70120818F
:1026E0002093F10097012F5F3F4F7901F70120817F
:1026F0002093F10097012F5F3F4F7901F70120816F
:102700002093F10097012F5F3F4F7901F70120815E
:102710002093F10097012F5F3F4F7901F70120814E
:102720002093F10097012F5F3F4F7901F70120813E
:102730002093F10097012F5F3F4F7901F70120812E
:102740002093F10097012F5F3F4F7901F70120811E
:102750002093F10097012F5F3F4F7901F70120810E
:102760002093F10097012F5F3F4F7901F7012081FE
:102770002093F10097012F5F3F4F7901F7012081EE
:102780002093F10097012F5F3F4F7901F7012081DE
:102790002093F10097012F5F3F4F7901F7012081CE
:1027A0002093F10097012F5F3F4F7901F7012081BE
:1027B0002093F10097012F5F3F4F7901F7012081AE
:1027C0002093F10097012F5F3F4F7901F70120819E
:1027D0002093F10097012F5F3F4F79012091E8008E
:1027E00025FFD093E8001093F301C6CDAFBF80E082
:1027F000DF91CF911F91FF90EF9008958FB7F894DC
:102800009091F301992341F094E09093E9009AE3C9
:102810009093E8001092F3018FBF089580915701C3
:1028200008958091580108958091590108958091EB
:10283000F10108959FB7F8942091F401222339F013
:1028400022E02093E9003091E80035FD03C09FBFEE
:102850008FEF089531EA3093F10030E23093F100C8
:102860001092F1001092F1001092F1001092F1001C
:102870002093F1001092F1008093F1001092F1008A
:102880008AE38093E8009FBF80E008951F920F9233
:102890000FB60F9211248F939F938091E1001092B5
:1028A000E10083FF11C01092E90091E09093EB00EA
:1028B0001092EC0092E19093ED0098E09093F0007C
:1028C0001092F4011092F10182FF13C08091F40183
:1028D000882379F08091F301882359F08150809307
:1028E000F301811106C084E08093E9008AE38093BC
:1028F000E8009F918F910F900FBE0F901F90189539
:102900001F920F920FB60F921124EF92FF920F9326
:102910001F932F933F934F935F936F937F938F9367
:102920009F93AF93BF93EF93FF93CF93DF931F9248
:10293000CDB7DEB71092E9008091E80083FF14C1A3
:102940009091F1008091F1003091F1002091F1001F
:10295000E32EF12CF22A0091F1002091F10010E019
:10296000122B2091F1006091F10032EF3093E800DA
:10297000863009F046C036E088EB91E0FC014591D5
:1029800054914E155F0539F4FC01329645915491EE
:102990004017510721F00796315081F7E5C0FC013F
:1029A000349645915491FC013696849130E0362B53
:1029B0002F3F310519F010F02FEF30E0281708F401
:1029C000822F3EEF9091E800292F2570D9F392FDD8
:1029D000CEC0982F813108F090E1FA01292F2223EF
:1029E00031F064916093F10021503196F8CF490F96
:1029F000511D891B3093E8008111E4CF903111F310
:102A0000B6C0853051F48EEF8093E8000E94DE104E
:102A10008E2D80688093E300AAC0893059F591110A
:102A200080C0E092F4011092F1011092F3018EEF58
:102A30008093E80041E081E692E04093E9009C0148
:102A40002F5F3F4FFC0154915093EB00552359F0F9
:102A5000F90124912093EC009C012D5F3F4F3196AA
:102A600084918093ED004F5F453011F0C901E5CFAF
:102A70008EE175C0883051F4903809F052C00E9440
:102A8000DE108091F4018093F10047C0813279F427
:102A9000913A09F046C00E94DE10E3E5F1E0819131
:102AA0008093F10081E0EA35F807C9F736C080323B
:102AB00099F49132B1F58091E80082FFFCCFE3E513
:102AC000F1E08091F100819381E0EA35F807C9F7E0
:102AD0008BEF8093E80021C0823241F4913209F0FB
:102AE00043C0E092F1010E94DE1017C0811119C0AD
:102AF00099830E94DE109981923851F40093E90085
:102B00008091EB0085FB882780F91092E90001C0D5
:102B100080E08093F1001092F1008EEF8093E80046
:102B200026C0282F2D7F2130F9F49230E9F4EF28C8
:102B3000D9F40F779FEF900F9430B0F49EEF9093FD
:102B4000E8000093E900833079F089E18093EB009D
:102B500081E090E0002E01C0880F0A94EAF780938C
:102B6000EA001092EA0003C081E28093EB000F902C
:102B7000DF91CF91FF91EF91BF91AF919F918F9195
:102B80007F916F915F914F913F912F911F910F9185
:102B9000FF90EF900F900FBE0F901F9018951F930E
:102BA000CF93DF93EC01FE011491112351F01A3001
:102BB00019F48DE00E943C11812F0E943C11219656
:102BC000F2CFDF91CF911F9108958A3010F490E3F6
:102BD00001C097E3890F0C943C11CF93C82F8295C5
:102BE0008F700E94E5158C2F8F70CF910C94E51596
:102BF000CF93C82F892F0E94ED158C2FCF910C9465
:102C0000ED150C94ED15EF92FF920F931F93CF9358
:102C1000DF93CDB7DEB727970FB6F894DEBF0FBEB0
:102C2000CDBF8E010F5F1F4F27E0F80111922A954B
:102C3000E9F74AE0B8010E94C9207E01F8E0EF0EF2
:102C4000F11CF80181918F0181110E943C110E1538
:102C50001F05B9F727960FB6F894DEBF0FBECDBF9C
:102C6000DF91CF911F910F91FF90EF900895EF9218
:102C7000FF920F931F93CF93DF9300D000D000D02B
:102C8000CDB7DEB78E010F5F1F4F26E0F80111921E
:102C90002A95E9F74AE0B8010E9405217E01F6E095
:102CA000EF0EF11CF80181918F0181110E943C11FE
:102CB0000E151F05B9F726960FB6F894DEBF0FBEA6
:102CC000CDBFDF91CF911F910F91FF90EF900895AD
:102CD000EF92FF920F931F93CF93DF93CDB7DEB7A1
:102CE0002B970FB6F894DEBF0FBECDBF8E010F5FDE
:102CF0001F4F2BE0F80111922A95E9F72AE0A8016D
:102D00000E94D4207E01FCE0EF0EF11CF8018191BD
:102D10008F0181110E943C110E151F05B9F72B96EA
:102D20000FB6F894DEBF0FBECDBFDF91CF911F91DC
:102D30000F91FF90EF900895EF92FF920F931F93E2
:102D4000CF93DF93CDB7DEB72B970FB6F894DEBFE6
:102D50000FBECDBF8E010F5F1F4F2BE0F801119208
:102D60002A95E9F72AE0A8010E94E3207E01FBE012
:102D7000EF0EF11CF80181918F0181110E943C112D
:102D80000E151F05B9F72B960FB6F894DEBF0FBED0
:102D9000CDBFDF91CF911F910F91FF90EF900895DC
:102DA00048E365E00E94260E91E0811101C090E0A9
:102DB000892F08951F93CF93DF93D82FC62F142FF9
:102DC0000E94070EC23058F4E1E0F0E0012E01C08D
:102DD000EE0F0A94EAF74E2F409548230DC09EEE61
:102DE0009C0F923078F421E030E0012E01C0220FD8
:102DF0000A94EAF7482F422B6C2F8D2F0E94260E43
:102E000081E001C080E0DF91CF911F9108951F9371
:102E1000CF93DF93D82FC62F142F0E94070E9EEE5C
:102E20009C0F923058F4E1E0F0E0012E01C0EE0F6B
:102E30000A94EAF74E2F409548230BC0C23078F42D
:102E400021E030E0012E01C0220F0A94EAF7482F5A
:102E5000422B6C2F8D2F0E94260E81E001C080E056
:102E6000DF91CF911F910895CF93DF931F92CDB73C
:102E7000DEB749830E94070E90E0498102C0959514
:102E800087954A95E2F781700F90DF91CF91089571
:102E9000CF93DF9300D000D0CDB7DEB70E9466019C
:102EA00022242394312C08E210E00E94FC10882395
:102EB00009F46BC06091AB017091AC018091AD01E0
:102EC0009091AE010E94A31ECB010E94031686EBD7
:102ED00091E00E94CF156091AF017091B001809197
:102EE000B1019091B2010E94A31ECB010E94031672
:102EF00084EB91E00E94CF1520E030E04EEF52E4E9
:102F00006091A7017091A8018091A9019091AA01F7
:102F10000E94EF1F2AE939E949EC50E40E943B1E68
:102F20000E94A31ECB010E94031682EB91E00E9437
:102F3000CF1580915101909152010E94031680EBB0
:102F400091E00E94CF1580910702909108020E94A3
:102F500003168EEA91E00E94CF158091990190911D
:102F60009A010E9403168CEA91E00E94CF1580918D
:102F70009B0190919C010E9403168AEA91E00E94B5
:102F8000CF1588EA91E00E94CF1580915A018823DD
:102F900009F4D1C085EC91E00E94511085EC91E0DC
:102FA0000E94C602E0900D02F0900E024090A70130
:102FB0005090A8016090A9017090AA01E114F10459
:102FC00049F040920F0250921002609211027092EA
:102FD00012022CC020E030E0A901C301B2010E941E
:102FE000E41F18169CF423EC35EF48E450E4C301C9
:102FF000B2010E94341E87FF09C023EC35EF48E47C
:1030000050E4C301B2010E946E1D08C023EC35EFED
:1030100048E450E4C301B2010E946D1D60930F02A9
:1030200070931002809311029093120223E333E312
:1030300043E75FE36091FF0170910002809101021C
:10304000909102020E94EF1F4B015C012DEC3CECC1
:103050004CE45DE3C301B2010E94EF1F9B01AC0190
:10306000C501B4010E946E1D6093FF0170930002C0
:1030700080930102909302028090AB019090AC018A
:10308000A090AD01B090AE01B701882777FD809583
:10309000982F0E94D61E69837A838B839C839B0121
:1030A000AC01C501B4010E94EF1F6093F50170935C
:1030B000F6018093F7019093F801C090AF01D09092
:1030C000B001E090B101F090B20129813A814B81C9
:1030D0005C81C701B6010E94EF1F609317027093D5
:1030E00018028093190290931A02C501B4010E943C
:1030F000A31E6093DD01C701B6010E94A31E609369
:10310000DE0120E030E04EEF52E4C301B2010E9444
:10311000EF1F2AE939E949EC50E40E943B1E0E9466
:10312000A31E6093DF014AE06DED71E088E10E942B
:10313000EB0E10925A01809151019091520183300F
:10314000910509F4BBC13CF48130910561F002970F
:1031500009F494C0BDC48430910509F4D0C1089726
:103160000CF4A3CEB5C410939C0100939B01109264
:103170009A011092990188E290E00E946B09809177
:10318000990190919A010E947A0980E00E949C091D
:1031900080E00E94920980E00E94970942E062E18B
:1031A00080E20E94DA164B9B32C080910401882392
:1031B00071F10E9462012FEF81EE94E02150804076
:1031C0009040E1F700C0000080E00E94920980E09A
:1031D0000E94970982E890E0909346018093450110
:1031E00082E598EBA6E9B0E480934701909348010B
:1031F000A0934901B0934A018FEF9FEF90930E0285
:1032000080930D0230925C0120925B0134C04B9997
:103210004CCE80910401882309F447CE0E946401BA
:10322000AFEFB1EEE4E0A150B040E040E1F700C004
:10323000000080E00E94970980E00E9492098EE7DA
:103240009FEF909346018093450183EC95EFA8ECA6
:10325000BFE38093470190934801A0934901B09345
:103260004A0130920E0220920D0282E090E090938B
:103270005C0180935B011092040117CE80E00E94F4
:1032800092090E94640180E00E949C098091910152
:1032900090919201892B09F045C0309292012092C1
:1032A000910120E030E0A9016091AB017091AC0187
:1032B0008091AD019091AE010E94341E87FF11C034
:1032C00082E598EBA6E9B0E480939D0190939E017E
:1032D000A0939F01B093A00180E090E0A8ECB2E43D
:1032E00010C083EC95EFA8ECBFE380939D01909311
:1032F0009E01A0939F01B093A00180E090E0A8EC14
:10330000B2EC8093950190939601A0939701B093AE
:1033100098019FEFA1EEB4E09150A040B040E1F7DA
:1033200000C000006091AB017091AC018091AD01D3
:103330009091AE010E94A31E7B0177FF04C0EE2492
:10334000FF24E61AF70A6091950170919601809129
:103350009701909198010E94A31E9B0177FF04C0E2
:1033600022273327261B370BE216F3060CF0A3C0E7
:103370002AE939E949E95EE360919D0170919E0176
:1033800080919F019091A0010E946E1D9B01AC0154
:103390006091A3017091A4018091A5019091A60173
:1033A0000E94E41F1816B4F4E4E1F0E0F0939C01ED
:1033B000E0939B018CEE9FEF90939A01809399018B
:1033C00084E190E00E946B098091990190919A01AB
:1033D0000E947A092AE939E949E95EE360919D0191
:1033E00070919E0180919F019091A0010E946D1D9E
:1033F0009B01AC016091A3017091A4018091A50192
:103400009091A6010E94341E87FF16C08CEE9FEF9C
:1034100090939C0180939B0184E190E090939A01AA
:10342000809399018CEE9FEF0E9455018091990144
:1034300090919A010E947A09C0909D01D0909E01BE
:10344000E0909F01F090A0012AE939E949E95EE3A3
:10345000C701B6010E946D1D2091A3013091A40106
:103460004091A5015091A6010E94341E87FF1DCDF9
:103470002AE939E949E95EE3C701B6010E946E1DF8
:103480009B01AC016091A7017091A8018091A901F5
:103490009091AA010E94341E87FF07CDA4E1B0E0FD
:1034A000B0939C01A0939B01B0939A01A0939901C2
:1034B00084E190E01BC082E090E005C380E00E94C0
:1034C0009C0980E00E94A6090E9450088091610139
:1034D0009091620190939A018093990180915F018C
:1034E0009091600190939C0180939B010E946B09D5
:1034F0008091990190919A010E947A09D6CC40E07E
:1035000062E180E20E94DA1680911702909118021F
:10351000A0911902B0911A0289839A83AB83BC836C
:1035200020E030E04CE052E4BC01CD010E94341EAA
:1035300087FF8BC020E030E0A90169817A818B810F
:103540009C810E94E41F18160CF07FC0C090FF0100
:10355000D0900002E0900102F090020223EC35EFDF
:1035600048E450E4C701B6010E94E41F181674F441
:1035700023EC35EF48EC50E4C701B6010E94341E3D
:1035800087FF04C030920802209207024090000199
:10359000509001016090020170900301A30192011B
:1035A00063EC75EF88EC9FE30E946D1D4B015C019D
:1035B0009B01AC01C701B6010E94341E87FF0DC0FC
:1035C00020E030E0A901C701B6010E94E41F1816EF
:1035D00024F4309208022092070223EC35EF48ECE5
:1035E0005FE3C301B2010E946E1D2B013C019B01F0
:1035F000AC01C701B6010E94E41F181684F423EC45
:1036000035EF48E450E4C701B6010E94341E87FF3D
:1036100006C082E090E09093080280930702A30125
:103620009201C701B6010E94341E87FF0EC0A5019A
:103630009401C701B6010E94E41F181634F4ADE0EE
:10364000B0E0B0930802A093070220E030E0A901A7
:1036500069817A818B819C810E94341E87FF90C092
:1036600020E030E04CE052EC69817A818B819C81D2
:103670000E94E41F18160CF083C0C090FF01D09088
:103680000002E0900102F090020223EC35EF48E4E2
:1036900050E4C701B6010E94E41F181684F423EC1D
:1036A00035EF48EC50E4C701B6010E94341E87FF95
:1036B00006C0E3E0F0E0F0930802E09307024090D8
:1036C0000001509001016090020170900301A3017C
:1036D000920163EC75EF88EC9FE30E946D1D4B0136
:1036E0005C019B01AC01C701B6010E94341E87FF3B
:1036F0000FC020E030E0A901C701B6010E94E41F1D
:10370000181634F483E090E0909308028093070247
:1037100023EC35EF48EC5FE3C301B2010E946E1D5C
:103720002B013C019B01AC01C701B6010E94E41FC3
:10373000181684F423EC35EF48E450E4C701B601D1
:103740000E94341E87FF06C084E090E09093080238
:1037500080930702A3019201C701B6010E94341EA3
:1037600087FF0EC0A5019401C701B6010E94E41FA6
:10377000181634F4ADE0B0E0B0930802A09307024D
:1037800020E030E04CE052EC69817A818B819C81B1
:103790000E94341E87FF88C0C090FF01D0900002B5
:1037A000E0900102F090020223EC35EF48E450E48F
:1037B000C701B6010E94E41F181684F422E538EB15
:1037C00046E950E4C701B6010E94341E87FF06C0D7
:1037D0008AE090E0909308028093070280900001B5
:1037E00090900101A0900201B0900301A501940105
:1037F00063EC75EF88EC9FE30E946D1D9B01AC01AB
:10380000C701B6010E94341E87FF20C020E030E0CF
:10381000A901C701B6010E94E41F1816BCF488E094
:1038200090E0909308028093070222E538EB46E986
:1038300050E4C701B6010E94E41F1816ACF487E0FB
:1038400090E090930802809307020EC022E538EBC7
:1038500046E950E4C701B6010E94E41F181624F49B
:1038600020E030E0A901E5CF23EC35EF48EC5FE341
:10387000C501B4010E946E1D9B01AC01C701B601D8
:103880000E94E41F181684F423EC35EF48E450E45A
:10389000C701B6010E94341E87FF06C0E9E0F0E0D0
:1038A000F0930802E093070220E030E04CE052E49D
:1038B00069817A818B819C810E94E41F18160CF02B
:1038C00088C0C090FF01D0900002E0900102F0900B
:1038D000020223EC35EF48E450E4C701B6010E9430
:1038E000E41F181684F422E538EB46E950E4C701DA
:1038F000B6010E94341E87FF06C085E090E09093D9
:103900000802809307028090000190900101A0902E
:103910000201B0900301A501940163EC75EF88ECFE
:103920009FE30E946D1D9B01AC01C701B6010E947F
:10393000341E87FF20C020E030E0A901C701B60196
:103940000E94E41F1816BCF4ABE0B0E0B09308028C
:10395000A093070222E538EB46E950E4C701B6011F
:103960000E94E41F1816ACF4ECE0F0E0F0930802BB
:10397000E09307020EC022E538EB46E950E4C701A8
:10398000B6010E94E41F181624F420E030E0A901DB
:10399000E5CF23EC35EF48EC5FE3C501B4010E94AD
:1039A0006E1D9B01AC01C701B6010E94E41F1816F1
:1039B00084F423EC35EF48E450E4C701B6010E94DB
:1039C000341E87FF06C086E090E090930802809343
:1039D0000702E0910702F09108023197ED30F105FE
:1039E00008F055C0E05AFF4F0C94C32010939A0181
:1039F00000939901E4E1F0E0F0939C01E0939B01D6
:103A00004CC0A4E1B0E0B0939A01A093990106C024
:103A1000E4E1F0E0F0939A01E093990110939C01A6
:103A200000939B013AC010939A01009399011DC025
:103A300010939A0100939901A4E1B0E023C0A4E19E
:103A4000B0E0B0939A01A093990106C0E4E1F0E0E0
:103A5000F0939A01E093990110929C0110929B01BE
:103A60001CC010929A011092990184E190E0909309
:103A70009C0180939B0111C0AEE1B0E0B0939A012C
:103A8000A0939901B0939C01A0939B0106C0EDE027
:103A9000F0E0F0930802E093070280919901909181
:103AA0009A010E947A0980919B0190919C010E9449
:103AB0006B098091150290911602853893400CF4A1
:103AC000F4C983E090E09093520180935101EDC9D5
:103AD0003092520120925101E8C95058BB27AA27C1
:103AE0000ED027C2F0D130F0F5D120F031F49F3F55
:103AF00011F41EF4C0C10EF4E095E7FBB6C1E92F46
:103B00003AD280F3BA17620773078407950718F053
:103B100071F49EF552C20EF4E0950B2EBA2FA02D33
:103B20000B01B90190010C01CA01A0011124FF276A
:103B3000591B99F0593F50F4503E68F11A16F04065
:103B4000A22F232F342F4427585FF3CF4695379564
:103B50002795A795F0405395C9F77EF41F16BA0B29
:103B6000620B730B840BBAF09150A1F0FF0FBB1FD7
:103B7000661F771F881FC2F70EC0BA0F621F731F20
:103B8000841F48F4879577956795B795F7959E3F7D
:103B900008F0B3CF9395880F08F09927EE0F97950B
:103BA0008795089590D158F080E891E009F49EEF50
:103BB00091D128F040E851E059F45EEF09C05BC1B3
:103BC000FCC1E92FE078D7D168F3092E052AC1F3AB
:103BD000261737074807590738F00E2E07F8E02553
:103BE00069F0E025E0640AC0EF6307F8009407FA83
:103BF000DB01B9019D01DC01CA01AD01EF934AD09F
:103C000098D10AD05F91552331F02BED3FE049E484
:103C100050FD49EC63CF0895DF93DD27B92FBF77BF
:103C200040E85FE31616170648075B0710F4D92F24
:103C3000CFD19F938F937F936F937CD2ECE5F1E08C
:103C40001DD177D12F913F914F915F91D4D1DD2339
:103C500049F09058A2EA2AED3FE049EC5FE3D078C2
:103C60005D274DDFDF9165C1DCD008F481E0089568
:103C700039D1E3956FC10CD05CC12CD140F023D178
:103C800030F021F45F3F19F0F0C0511197C1F3C03B
:103C900072D198F39923C9F35523B1F3951B550BB2
:103CA000BB27AA2762177307840738F09F5F5F4F0F
:103CB000220F331F441FAA1FA9F333D00E2E3AF050
:103CC000E0E830D091505040E695001CCAF729D06A
:103CD000FE2F27D0660F771F881FBB1F26173707B9
:103CE0004807AB07B0E809F0BB0B802DBF01FF27E9
:103CF00093585F4F2AF09E3F510568F0B6C05EC1F1
:103D00005F3FECF3983EDCF3869577956795B79522
:103D1000F7959F5FC9F7880F911D9695879597F93D
:103D20000895E1E0660F771F881FBB1F62177307B6
:103D30008407BA0720F0621B730B840BBA0BEE1FCB
:103D400088F7E095089504D06894B11137C10895BB
:103D50001AD188F09F5790F0B92F9927B751A0F04A
:103D6000D1F0660F771F881F991F1AF0BA95C9F70F
:103D700012C0B13081F021D1B1E008951EC1672F8A
:103D8000782F8827B85F39F0B93FCCF386957795BF
:103D90006795B395D9F73EF49095809570956195A8
:103DA0007F4F8F4F9F4F0895E89409C097FB3EF4D3
:103DB00090958095709561957F4F8F4F9F4F992378
:103DC000A9F0F92F96E9BB279395F69587957795F6
:103DD0006795B795F111F8CFFAF4BB0F11F460FFB6
:103DE0001BC06F5F7F4F8F4F9F4F16C0882311F00E
:103DF00096E911C0772321F09EE8872F762F05C022
:103E0000662371F096E8862F70E060E02AF09A95BC
:103E1000660F771F881FDAF7880F9695879597F9B1
:103E20000895990F0008550FAA0BE0E8FEEF16164B
:103E30001706E807F907C0F012161306E407F5079E
:103E400098F0621B730B840B950B39F40A2661F012
:103E5000232B242B252B21F408950A2609F4A140B5
:103E6000A6958FEF811D811D089597F99F6780E8C2
:103E700070E060E008959FEF80EC0895DF93CF93AA
:103E80001F930F93FF92EF92DF927B018C01689456
:103E900005C0DA2EEF01AFD0FE01E894A59125917F
:103EA000359145915591AEF3EF0129DEFE01970161
:103EB000A801DA9479F7DF90EF90FF900F911F91AE
:103EC000CF91DF91089500240A941616170618065C
:103ED0000906089500240A9412161306140605060E
:103EE0000895C9CF50D0E8F3E894E0E0BB279F578E
:103EF000F0F02AED3FE049EC06C0EE0FBB0F661F65
:103F0000771F881F28F0B23A62077307840728F0EA
:103F1000B25A620B730B840BE3959A9572F7803853
:103F200030F49A95BB0F661F771F881FD2F7904811
:103F300006C1092E0394000C11F4882352F0BB0F24
:103F400040F4BF2B11F460FF04C06F5F7F4F8F4FB1
:103F50009F4F0895EF93E0FF06C0A2EA2AED3FE0ED
:103F600049EC5FEBCCDDE5DF0F90039401FC90584A
:103F7000E9E8F1E0F7C057FD9058440F551F59F09C
:103F80005F3F71F04795880F97FB991F61F09F3F46
:103F900079F087950895121613061406551FF2CF6F
:103FA0004695F1DF08C0161617061806991FF1CFBF
:103FB00086957105610508940895E894BB276627E6
:103FC0007727CB0197F908952CDF08F48FEF089538
:103FD0009B01AC0160E070E080E89FE34CCE0BD029
:103FE000A8CF71DF28F076DF18F0952309F03DCFD8
:103FF00042CF1124E3CFBFDFA0F3959FD1F3950FFC
:1040000050E0551F629FF001729FBB27F00DB11D5C
:10401000639FAA27F00DB11DAA1F649F6627B00DEC
:10402000A11D661F829F2227B00DA11D621F739FD5
:10403000B00DA11D621F839FA00D611D221F749FE3
:104040003327A00D611D231F849F600D211D822F2A
:10405000762F6A2F11249F5750408AF0E1F0882371
:104060004AF0EE0FFF1FBB1F661F771F881F91507E
:104070005040A9F79E3F510570F0F7CE9FCF5F3FAC
:10408000ECF3983EDCF3869577956795B795F795B1
:10409000E7959F5FC1F7FE2B880F911D9695879539
:1040A00097F908959F931EDF0F9007FCEE5F52CFA4
:1040B00011F40EF4E0CE41C066DFD0F39923D9F3BA
:1040C000CEF39F57550B87FF46D00024A0E640EA69
:1040D000900180585695979528F4805C660F771F5D
:1040E000881F20F026173707480730F4621B730B30
:1040F000840B202931294A2BA69517940794202553
:1041000031254A2758F7660F771F881F20F026179A
:104110003707480730F4620B730B840B200D311DF9
:10412000411DA09581F7B901842F9158880F96956C
:10413000879508959B01AC0152CF9F3F31F091507C
:1041400020F4879577956795B795880F911D96957B
:10415000879597F9089591505040660F771F881FF3
:10416000D2F708959F938F937F936F93FF93EF936D
:104170009B01AC0134DFEF91FF9180DE2F913F91E5
:104180004F915F912CCFEE0FFF1F0590F491E02D22
:104190000994BB274A3031F4992322F4BDE290956B
:1041A00081959F4F0C940621BB272A3051F4992307
:1041B00042F4BDE290958095709561957F4F8F4F49
:1041C0009F4F0C94E420BB27FA01A62F62177105BC
:1041D00081059105330B30FB66F0AA27660F771F28
:1041E000881F991FAA1FA21710F0A21B63953850B1
:1041F000A9F7A05DAA3308F0A95DA19336F7B11124
:10420000B1931082CA010C941F21BB27FB015527D3
:10421000AA27880F991FAA1FA41710F0A41B839523
:104220005051B9F7A05DAA3308F0A95DA19300979A
:1042300079F7B111B1931192CB010C941F21DC01DC
:10424000FC01672F71917723E1F7329704C07C91CD
:104250006D9370836291AE17BF07C8F30895F89409
:02426000FFCF8E
:10426200CDCCCC3D010000803F0000803F000080AB
:104272003F0000803F0000803F0000803F00008040
:104282003F0000803F00003E430000AF430000AF0C
:104292004300008C430000C84300007A430000BE84
:1042A2004300003E437EFFC3F5C83F02000AD7A386
:0A42B2003E010000E10000000008DA
:00000001FF
