:100000000C9422010C943F010C943F010C943F018D
:100010000C943F010C943F010C943F010C943F0160
:100020000C943F010C943F010C946B0B0C94A50BAA
:100030000C943F010C943F010C943F010C943F0140
:100040000C943F010C943F010C943F010C943F0130
:100050000C943F010C943F010C943F010C943F0120
:100060000C943F010C943F010C943F010C943F0110
:100070000C943F010C943F010C943F010C943F0100
:100080000C943F010C943F010C943F010C943F01F0
:100090000C943F010C943F010C943F010C943F01E0
:1000A0000C943F010C943F010C943F01130B0B0B7C
:1000B000030BFB0AF30AEB0AE30ADB0AD30ACB0AB7
:1000C000C30ABB0AB30AAB0AA30A9B0A930A8B0AA8
:1000D000830A7B0A730A6B0A630A5B0A530A4B0A98
:1000E000430A3B0A330A2B0A230A1B0A130A0B0A88
:1000F000030AFB09F309EB09E309DB09D309CB097F
:10010000C309BB09B309AB09A3099B0993098B096F
:1001100083097B0973096B0963095B0953094B095F
:1001200043093B0933092B0923091B091309084A11
:10013000D73B3BCE016E84BCBFFDC12F3D6C7431FB
:100140009ABD56833DDA3D00C77F11BED9E4BB4C52
:100150003E916BAAAABE000000803F05A84CCDB21C
:10016000D44EB93836A9020C50B9918688083CA6FD
:10017000AAAA2ABE000000803F000A000900090068
:100180000900090009000900090009000900090027
:100190000001000027021200020000E401430003F6
:1001A0000000E0010401030904CC01120203090468
:1001B000C4010603030904BA01080803340031002E
:1001C0003000000006034D003200000012034A0018
:1001D0002E0020004600690065006E0065000000EA
:1001E0000403090409024300020100C032090400AB
:1001F0000001020201000524001001052401010193
:1002000004240206052406000107058203100040AD
:1002100009040100020A0000000705030240000073
:10022000070584024000001201000202000010C015
:10023000167A040001010203010001C11201803697
:100240000181360011241FBECFEFDAE0DEBFCDBF43
:1002500011E0A0E0B1E0E8EAF5E202C005900D92FD
:10026000AC30B107D9F721E0ACE0B1E001C01D929C
:10027000A535B207E1F70E94F50D0C94D2120C944B
:100280000000181619061CF4289A299805C0289809
:10029000299A91958195910990910201989F802DBD
:1002A00011248093D0000895209102011816190698
:1002B00044F4289F802D11248093CF002A9A2B98F4
:1002C0000895919581959109289F802D11248093FF
:1002D000CF002A982B9A0895E1E6F0E080E8808329
:1002E000108285BF85BF0E94BF040E940808209A23
:1002F000219A229A239A43E068E182E00E946705EE
:100300000E949106E1E8F0E080818F7E8083808109
:1003100088608083A0E8B0E08C918D7F8C938C9175
:100320008E7F8C93AFE6B0E08C9181608C9388EAED
:1003300091E6909389008093880080818B7F8083F1
:100340008081826080838081816080837894109234
:10035000CF001092D00088EC8093D1003F9A269A6B
:10036000E1ECF0E080818860808380818B7F8083F6
:1003700080818260808380818E7F8083E3ECF0E0E7
:1003800080818D7F808380818E7F8083E0ECF0E0B0
:1003900080818260808380818068808380818F7B80
:1003A000808380818160808380818062808380817E
:1003B0008F7E808308952F923F924F925F926F922B
:1003C0007F928F929F92AF92BF92CF92DF92EF92E5
:1003D000FF920F931F93CF93DF93CDB7DEB7CE5528
:1003E000D1090FB6F894DEBF0FBECDBF2C01FE01C0
:1003F000319680E4DF011D928A95E9F7D20180E011
:1004000090E02D913D912F3F334009F467C2019652
:100410008B309105B1F76396FFAFEEAF63972396EC
:100420005FAE4EAE239727961FAE1EAE2797C12C08
:10043000D12CE12CF12C00E010E0212C312C239662
:10044000AEADBFAD23976D917C9180E090E00E94AE
:1004500077106B966CAF7DAF8EAF9FAF6B97239687
:10046000EEADFFAD23976281738180E090E00E9442
:1004700077106F966CAF7DAF8EAF9FAF6F972B9657
:100480005FAE4EAE2B976496CFAE64976596DFAEA7
:1004900065976696EFAE66976796FFAE67972F965D
:1004A0001FAE1EAE2F97612C712C2B96AEADBFAD3B
:1004B0002B976D917C9180E090E00E9477109B01DA
:1004C000AC016B966CAD7DAD8EAD9FAD6B970E9410
:1004D000100F4B015C012B96EEADFFAD2B976281A7
:1004E000738180E090E00E9477109B01AC016F96D1
:1004F0006CAD7DAD8EAD9FAD6F970E94100F6B01FF
:100500007C01A5019401C501B4010E9492114B0127
:100510005C01A7019601C701B6010E9492119B01DF
:10052000AC01C501B4010E94110F0E94FF116B01C3
:100530007C01CB01D7016396EEADFFAD63972F969B
:100540002EAD3FAD2F97E20FF31F80839183A283DF
:10055000B38364962FAD649765963FAD65976696B5
:100560004FAD669767965FAD6797B601C7010E946A
:10057000871118166CF06496CFAC64976596DFAC63
:1005800065976696EFAC66976796FFAC679705C070
:10059000830127962EAC3FAC27973FEF631A730A6F
:1005A0002B964EAD5FAD2B974A5F5F4F2B965FAF9B
:1005B0004EAF2B972F968EAD9FAD2F9704962F960B
:1005C0009FAF8EAF2F9794E06916710469F064961F
:1005D000CFAE64976596DFAE65976696EFAE669789
:1005E0006796FFAE679761CF2796AEADBFAD2797F1
:1005F00011962796BFAFAEAF27972396EEADFFAD0E
:10060000239736962396FFAFEEAF239763962EADD2
:100610003FAD6397205F3F4F63963FAF2EAF639729
:10062000149709F00CCF80E090E08215930599F1C2
:100630008017910781F1F101EE0FFF1FEE0FFF1FF1
:10064000E80FF91FEE0FFF1FEE0FFF1F21E030E054
:100650002C0F3D1FE20FF31FD801AA0FBB1FAA0FDB
:10066000BB1FA80FB91FAA0FBB1FAA0FBB1FA20F4A
:10067000B31F2D913D914D915C916081718182817B
:1006800093810E94D70F87FF0EC0902F812F810189
:10069000292E382E08C001968430910531F6212C80
:1006A000312C00E010E086E0782E709E7001719E83
:1006B000F00C1124E40CF51CD7016D917C9180E0C5
:1006C00090E00E9477104B015C01F7016281738119
:1006D00080E090E00E9477106B017C01729C8001A9
:1006E000739C100D1124040D151DD8016D917C9182
:1006F00080E090E00E9477102B013C01F8016281BC
:10070000738180E090E00E94771029966CAF7DAFF6
:100710008EAF9FAF29979B01AC01C701B6010E9424
:10072000100F25966CAF7DAF8EAF9FAF2597A301BD
:100730009201C501B4010E94100F25962CAD3DAD6C
:100740004EAD5FAD25970E94840F9B01AC015058C0
:1007500025962CAF3DAF4EAF5FAF2597CA01B901CB
:100760000E94DB0F2D966CAF7DAF8EAF9FAF2D97A4
:10077000A3019201C501B4010E94110F20E030E0F5
:1007800040E05FE30E94921120E030E040E054E45A
:100790000E94100F2B013C0125966CAD7DAD8EADF6
:1007A0009FAD25970E94F5114B015C0129962CAD58
:1007B0003DAD4EAD5FAD2997C701B6010E94110F47
:1007C00020E030E040E05FE30E94921120E030E062
:1007D00040EC53E40E94100F61966CAF7DAF8EAF7A
:1007E0009FAF619780911B0190911C01A0911D0109
:1007F000B0911E0129968CAF9DAFAEAFBFAF2997C8
:100800002D966CAD7DAD8EAD9FAD2D979058A3010B
:1008100092010E9492116B017C0161962CAD3DAD5D
:100820004EAD5FAD6197C501B4010E9492119B016D
:10083000AC01C701B6010E94100F9B01AC015058DA
:1008400029966CAD7DAD8EAD9FAD29970E9492111A
:1008500060932401709325018093260190932701D2
:10086000A3019201C501B4010E9492116B017C01A8
:1008700061962CAD3DAD4EAD5FAD61972D966CADE3
:100880007DAD8EAD9FAD2D970E9492119B01AC0165
:10089000C701B6010E94100F9B01AC0129966CADF7
:1008A0007DAD8EAD9FAD29970E9492116093280176
:1008B0007093290180932A0190932B0125962CADEA
:1008C0003DAD4EAD5FAD25972093200130932101C2
:1008D000409322015093230181E001C080E0C25A7D
:1008E000DF4F0FB6F894DEBF0FBECDBFDF91CF91C3
:1008F0001F910F91FF90EF90DF90CF90BF90AF903E
:100900009F908F907F906F905F904F903F902F902F
:100910000895CF92DF92EF92FF920F931F93CF93A0
:10092000DF93EC018B01FB012081318142815381F6
:10093000688179818A819B810E94921120E030E058
:10094000A9010E94110F6B017C01F80124813581FE
:10095000468157816C817D818E819F810E94921199
:100960009B01AC01C701B6010E94110FDF91CF912D
:100970001F910F91FF90EF90DF90CF900895589ABC
:10098000599A5A9A8CE08093B800E9E6F0E08081A9
:100990008062808380818F7E8083EA9A7894089534
:1009A00084E88093BC008091BC0087FFFCCF8091DD
:1009B000BB00089584E98093BC00089520E030E0F6
:1009C0008091BC0087FD06C02F5F3F4F293E83E02A
:1009D0003807B1F781E0283E334009F480E00895FC
:1009E0008093BB0084E88093BC000E94DE048823CF
:1009F00021F08091B900887F089580E008951F93C9
:100A0000CF93DF931F92CDB7DEB7182F84EA809380
:100A1000BC0069830E94DE046981811104C094E9ED
:100A20009093BC0014C0812F880F662331F08F5F34
:100A30000E94F004883451F404C00E94F004803213
:100A400029F484E98093BC0080E001C081E00F902C
:100A5000DF91CF911F910895CF93DF93C82FD62FA9
:100A600060E00E94FF04882391F08D2F0E94F00423
:100A7000882369F084E98093BC0061E08C2F0E9498
:100A8000FF04882321F0DF91CF910C94D00480E003
:100A9000DF91CF910895CF93DF93D62FC42F60E0DD
:100AA0000E94FF04811102C080E00EC08D2F0E94C1
:100AB000F0048823C9F38C2F0E94F0048823A1F34B
:100AC00084E98093BC0081E0DF91CF910895CF93BA
:100AD000DF9300D01F92CDB7DEB74B836A83898343
:100AE0000E94BF0494EA9093BC0089816A814B8183
:100AF0009091BC0097FFFCCF90E59093BB0094E8E9
:100B00009093BC009091BC0097FFFCCF9091B900EE
:100B1000987F903229F484E98093BC0080E029C05A
:100B200091E09093BB0094E89093BC009091BC003E
:100B300097FFFCCF8093BB0084E88093BC0080913A
:100B4000BC0087FFFCCF6093BB0084E88093BC00AF
:100B50008091BC0087FFFCCF4093BB0084E880936A
:100B6000BC008091BC0087FFFCCF84E98093BC006F
:100B700081E00F900F900F90DF91CF91089524EABC
:100B80002093BC002091BC0027FFFCCF21E52093DF
:100B9000BB0024E82093BC002091BC0027FFFCCFC1
:100BA0002091B900287F2834A9F024EC2093BC00C0
:100BB0002091BC0027FFFCCF2091BB0026130AC068
:100BC000FC0120E030E0772767FD709561507109E6
:100BD00044EC0EC084E98093BC0080E008955091FD
:100BE000BC0057FFFCCF5091BB0051932F5F3F4F8C
:100BF000261737071CF44093BC00F1CF44E840931C
:100C0000BC004091BC0047FFFCCF4091BB00FC0101
:100C1000E20FF31F408384E98093BC0081E00895D4
:100C2000F89494EA9093BC009091BC0097FFFCCF9D
:100C300090E59093BB0094E89093BC009091BC0029
:100C400097FFFCCF9091B900987F903231F484E9FE
:100C50008093BC00789480E0089593E09093BB006B
:100C600094E89093BC009091BC0097FFFCCF8093D8
:100C7000BB0084E88093BC008091BC0087FFFCCF60
:100C8000FB01552747FD509524E8CF01861B970BA4
:100C90008417950754F481918093BB002093BC0086
:100CA0008091BC0087FFFCCFF0CF84E98093BC002B
:100CB000789481E0089520E030E08091BC0087FDC9
:100CC00006C02F5F3F4F293E83E03807B1F781E030
:100CD000283E334009F480E008958093BB0084E807
:100CE0008093BC000E945B06882319F08091B900B4
:100CF000887F0895CF93C82F84EA8093BC000E9418
:100D00005B06882361F08C2F880F0E946D0680326D
:100D100029F484E98093BC0080E001C081E0CF9198
:100D200008950E94BF0488E50E947A06811102C0DE
:100D300080E0089580E30E946D068823C9F381E076
:100D40000E946D068823A1F384E98093BC008FE3A1
:100D50009CE90197F1F700C0000088E50E947A063F
:100D6000882331F380E00E946D06882309F380E038
:100D70000E946D068823E1F280E00E946D068823C0
:100D8000B9F280E00E946D06882391F280E00E9413
:100D90006D06882369F280E00E946D06882341F287
:100DA00080E00E946D06882319F280E90E946D069A
:100DB000882309F4BDCF84E98093BC008FE39CE9CC
:100DC0000197F1F700C0000088E50E947A068823A9
:100DD00009F4AECF87E00E946D06882309F4A8CFFE
:100DE00080E00E946D06882309F4A2CF81E40E946E
:100DF0006D06882309F49CCF84E98093BC008FE3BF
:100E00009CE90197F1F700C0000088E50E947A068E
:100E1000882309F48DCF8AE10E946D06882309F4A6
:100E200087CF80E40E946D06882309F481CF80E09B
:100E30000E946D06882309F47BCF84E98093BC006F
:100E40008FE39CE90197F1F700C0000088E50E945C
:100E50007A06882309F46CCF83E30E946D06882309
:100E600009F466CF83E00E946D06882309F460CF01
:100E700084E98093BC008FE39CE90197F1F700C0FF
:100E8000000088E50E947A06882309F451CF80E3A8
:100E90000E946D06882309F44BCF88E00E946D06FE
:100EA000882309F445CF84E98093BC008FE39CE953
:100EB0000197F1F700C0000081E00895CF93C82F9B
:100EC00084EA8093BC000E945B06882369F08C2F23
:100ED000880F8F5F0E946D06883429F484E980931F
:100EE000BC0080E001C081E0CF910895EF92FF92B5
:100EF0000F931F93CF93DF93CDB7DEB760970FB6F5
:100F0000F894DEBF0FBECDBF7C018E010F5F1F4F77
:100F100080E1F80111928A95E9F788E50E947A0646
:100F2000811102C080E05EC086E30E946D068823C6
:100F3000C9F384E98093BC00F5E8FA95F1F7000065
:100F400088E50E945E07882369F3F8019E01205F0F
:100F50003F4F94EC9093BC008091BC0087FFFCCF86
:100F60008091BB008193E217F307A1F784E8809397
:100F7000BC008091BC0087FFFCCF8091BB00888BB8
:100F800084E98093BC00DE01149687016C91762F72
:100F90007073AD0142505109FA01808190E0F0E197
:100FA0007F9F800D911D1124F80191838083762FFE
:100FB000707C4F5F5F4FFA01808190E0F4E07F9F8B
:100FC000800D911D1124F801938382836F70862F09
:100FD00090E09583848313960A5F1F4FA217B3078F
:100FE000A9F681E060960FB6F894DEBF0FBECDBFC4
:100FF000DF91CF911F910F91FF90EF90089584E9B9
:101000008093BC0008958091E80080FFFCCF089594
:1010100081E08093D70080EA8093D80082E189BD87
:1010200009B400FEFDCF80E98093D8001092E00063
:1010300010925401109251018CE08093E200789458
:1010400008958091540108959FB7F89480915401B8
:10105000882339F083E08093E9008091E80085FDE2
:1010600003C09FBF8FEF08958091F1002091E800A9
:1010700025FD03C02BE62093E8009FBF08959FB78E
:10108000F89480915401882331F083E08093E90043
:101090008091F20001C080E09FBF089580915401CB
:1010A000882371F08FB7F89493E09093E9002BE6D2
:1010B0009091E80095FF03C02093E800F9CF8FBF1F
:1010C000089590915401992371F09FB7F89424E00A
:1010D0002093E90020915201222349F02091E80059
:1010E00025FD03C09FBF8FEF0895109252012091FC
:1010F000E400275E34E04091E80045FD12C09FBF48
:101100009091E400921304C081E080935201EBCFF0
:1011100090915401992339F39FB7F8943093E900E3
:10112000EACF8093F1008091E80085FD03C08AE357
:101130008093E80085E0809353019FBF80E008958D
:10114000909154019923D1F09FB7F89424E0209313
:10115000E9002091E80025FD02C09FBF0FC08093E9
:10116000F1008091E80085FD03C08AE38093E800E8
:1011700085E0809353019FBF80E008958FEF08952D
:10118000EF92FF921F93CF93DF937C01CB012091CD
:101190005401222371F0AFB7F89424E02093E900C2
:1011A00020915201222349F02091E80025FD03C03F
:1011B000AFBF8FEF42C210925201B4E0C0E4DAE355
:1011C00015E0009709F437C22091E400275E3091C2
:1011D000E80035FD12C0AFBF3091E400321304C007
:1011E00081E080935201E5CF30915401332309F31C
:1011F000AFB7F894B093E900EACF2091F2004C2FFA
:10120000421B242F30E08217930708F4482F841BD9
:10121000910950E04134510508F0FDC14A5A5F4F31
:10122000FA010C946612F70120812093F1009701D6
:101230002F5F3F4F7901F70120812093F100970143
:101240002F5F3F4F7901F70120812093F100970133
:101250002F5F3F4F7901F70120812093F100970123
:101260002F5F3F4F7901F70120812093F100970113
:101270002F5F3F4F7901F70120812093F100970103
:101280002F5F3F4F7901F70120812093F1009701F3
:101290002F5F3F4F7901F70120812093F1009701E3
:1012A0002F5F3F4F7901F70120812093F1009701D3
:1012B0002F5F3F4F7901F70120812093F1009701C3
:1012C0002F5F3F4F7901F70120812093F1009701B3
:1012D0002F5F3F4F7901F70120812093F1009701A3
:1012E0002F5F3F4F7901F70120812093F100970193
:1012F0002F5F3F4F7901F70120812093F100970183
:101300002F5F3F4F7901F70120812093F100970172
:101310002F5F3F4F7901F70120812093F100970162
:101320002F5F3F4F7901F70120812093F100970152
:101330002F5F3F4F7901F70120812093F100970142
:101340002F5F3F4F7901F70120812093F100970132
:101350002F5F3F4F7901F70120812093F100970122
:101360002F5F3F4F7901F70120812093F100970112
:101370002F5F3F4F7901F70120812093F100970102
:101380002F5F3F4F7901F70120812093F1009701F2
:101390002F5F3F4F7901F70120812093F1009701E2
:1013A0002F5F3F4F7901F70120812093F1009701D2
:1013B0002F5F3F4F7901F70120812093F1009701C2
:1013C0002F5F3F4F7901F70120812093F1009701B2
:1013D0002F5F3F4F7901F70120812093F1009701A2
:1013E0002F5F3F4F7901F70120812093F100970192
:1013F0002F5F3F4F7901F70120812093F100970182
:101400002F5F3F4F7901F70120812093F100970171
:101410002F5F3F4F7901F70120812093F100970161
:101420002F5F3F4F7901F70120812093F100970151
:101430002F5F3F4F7901F70120812093F100970141
:101440002F5F3F4F7901F70120812093F100970131
:101450002F5F3F4F7901F70120812093F100970121
:101460002F5F3F4F7901F70120812093F100970111
:101470002F5F3F4F7901F70120812093F100970101
:101480002F5F3F4F7901F70120812093F1009701F1
:101490002F5F3F4F7901F70120812093F1009701E1
:1014A0002F5F3F4F7901F70120812093F1009701D1
:1014B0002F5F3F4F7901F70120812093F1009701C1
:1014C0002F5F3F4F7901F70120812093F1009701B1
:1014D0002F5F3F4F7901F70120812093F1009701A1
:1014E0002F5F3F4F7901F70120812093F100970191
:1014F0002F5F3F4F7901F70120812093F100970181
:101500002F5F3F4F7901F70120812093F100970170
:101510002F5F3F4F7901F70120812093F100970160
:101520002F5F3F4F7901F70120812093F100970150
:101530002F5F3F4F7901F70120812093F100970140
:101540002F5F3F4F7901F70120812093F100970130
:101550002F5F3F4F7901F70120812093F100970120
:101560002F5F3F4F7901F70120812093F100970110
:101570002F5F3F4F7901F70120812093F100970100
:101580002F5F3F4F7901F70120812093F1009701F0
:101590002F5F3F4F7901F70120812093F1009701E0
:1015A0002F5F3F4F7901F70120812093F1009701D0
:1015B0002F5F3F4F7901F70120812093F1009701C0
:1015C0002F5F3F4F7901F70120812093F1009701B0
:1015D0002F5F3F4F7901F70120812093F1009701A0
:1015E0002F5F3F4F7901F70120812093F100970190
:1015F0002F5F3F4F7901F70120812093F100970180
:101600002F5F3F4F7901F70120812093F10097016F
:101610002F5F3F4F7901F70120812093F10097015F
:101620002F5F3F4F79012091E80025FFD093E8001C
:1016300010935301C6CDAFBF80E0DF91CF911F91D2
:10164000FF90EF9008958FB7F894909153019923EC
:1016500041F094E09093E9009AE39093E8001092AF
:1016600053018FBF08958091080108958091090169
:10167000089580910A0108958091510108959FB7BE
:10168000F89420915401222339F022E02093E900BC
:101690003091E80035FD03C09FBF8FEF089531EA18
:1016A0003093F10030E23093F1001092F10010928B
:1016B000F1001092F1001092F1002093F1001092CD
:1016C000F1008093F1001092F1008AE38093E8002A
:1016D0009FBF80E008951F920F920FB60F921124C2
:1016E0008F939F938091E1001092E10083FF11C0DE
:1016F0001092E90091E09093EB001092EC0092E1DF
:101700009093ED0098E09093F000109254011092A5
:10171000510182FF13C080915401882379F0809198
:101720005301882359F0815080935301811106C0E1
:1017300084E08093E9008AE38093E8009F918F9191
:101740000F900FBE0F901F9018951F920F920FB61B
:101750000F921124EF92FF920F931F932F933F93B9
:101760004F935F936F937F938F939F93AF93BF93A9
:10177000EF93FF93CF93DF931F92CDB7DEB7109215
:10178000E9008091E80083FF14C19091F1008091FD
:10179000F1003091F1002091F100E32EF12CF22ABA
:1017A0000091F1002091F10010E0122B2091F10046
:1017B0006091F10032EF3093E800863009F046C0C6
:1017C00036E080E991E0FC01459154914E155F05AA
:1017D00039F4FC013296459154914017510721F09C
:1017E0000796315081F7E5C0FC013496459154913C
:1017F000FC013696849130E0362B2F3F310519F0ED
:1018000010F02FEF30E0281708F4822F3EEF909170
:10181000E800292F2570D9F392FDCEC0982F813191
:1018200008F090E1FA01292F222331F064916093AE
:10183000F10021503196F8CF490F511D891B30938B
:10184000E8008111E4CF903111F3B6C0853051F436
:101850008EEF8093E8000E9403088E2D80688093AD
:10186000E300AAC0893059F5911180C0E09254017B
:1018700010925101109253018EEF8093E80041E0E5
:1018800089E392E04093E9009C012F5F3F4FFC0108
:1018900054915093EB00552359F0F9012491209372
:1018A000EC009C012D5F3F4F319684918093ED00B9
:1018B0004F5F453011F0C901E5CF8EE175C088302A
:1018C00051F4903809F052C00E94030880915401ED
:1018D0008093F10047C0813279F4913A09F046C013
:1018E0000E940308E4E0F1E081918093F10081E03F
:1018F000EB30F807C9F736C0803299F49132B1F570
:101900008091E80082FFFCCFE4E0F1E08091F100FB
:10191000819381E0EB30F807C9F78BEF8093E80003
:1019200021C0823241F4913209F043C0E09251016A
:101930000E94030817C0811119C099830E940308EF
:101940009981923851F40093E9008091EB0085FB76
:10195000882780F91092E90001C080E08093F100AF
:101960001092F1008EEF8093E80026C0282F2D7F83
:101970002130F9F49230E9F4EF28D9F40F779FEF92
:10198000900F9430B0F49EEF9093E8000093E9003C
:10199000833079F089E18093EB0081E090E0002EC4
:1019A00001C0880F0A94EAF78093EA001092EA00D7
:1019B00003C081E28093EB000F90DF91CF91FF9104
:1019C000EF91BF91AF919F918F917F916F915F91B7
:1019D0004F913F912F911F910F91FF90EF900F909A
:1019E0000FBE0F901F9018951F93CF93DF93EC01BC
:1019F000FE011491112351F01A3019F48DE00E9468
:101A00006108812F0E9461082196F2CFDF91CF916A
:101A10001F9108958A3010F490E301C097E3890F75
:101A20000C946108CF93C82F82958F700E940A0D85
:101A30008C2F8F70CF910C940A0DCF93C82F892FC4
:101A40000E94120D8C2FCF910C94120D0C94120D3C
:101A5000EF92FF920F931F93CF93DF93CDB7DEB733
:101A600027970FB6F894DEBF0FBECDBF8E010F5F74
:101A70001F4F27E0F80111922A95E9F74AE0B801D3
:101A80000E946C127E01F8E0EF0EF11CF8018191CA
:101A90008F0181110E9461080E151F05B9F7279665
:101AA0000FB6F894DEBF0FBECDBFDF91CF911F916F
:101AB0000F91FF90EF900895EF92FF920F931F9375
:101AC000CF93DF9300D000D000D0CDB7DEB78E012A
:101AD0000F5F1F4F26E0F80111922A95E9F74AE0BF
:101AE000B8010E94A8127E01F6E0EF0EF11CF80189
:101AF00081918F0181110E9461080E151F05B9F7B0
:101B000026960FB6F894DEBF0FBECDBFDF91CF9102
:101B10001F910F91FF90EF900895EF92FF920F9316
:101B20001F93CF93DF93CDB7DEB72B970FB6F89403
:101B3000DEBF0FBECDBF8E010F5F1F4F2BE0F80140
:101B400011922A95E9F72AE0A8010E9477127E01F6
:101B5000FCE0EF0EF11CF80181918F0181110E94D0
:101B600061080E151F05B9F72B960FB6F894DEBF66
:101B70000FBECDBFDF91CF911F910F91FF90EF90DE
:101B80000895EF92FF920F931F93CF93DF93CDB7FA
:101B9000DEB72B970FB6F894DEBF0FBECDBF8E0118
:101BA0000F5F1F4F2BE0F80111922A95E9F72AE009
:101BB000A8010E9486127E01FBE0EF0EF11CF801E5
:101BC00081918F0181110E9461080E151F05B9F7DF
:101BD0002B960FB6F894DEBF0FBECDBFDF91CF912D
:101BE0001F910F91FF90EF9008950E946C0160E4A7
:101BF000D62E74E0C72EC2E0D0E004E610E0E3E2A7
:101C0000EE2EF12C8091000190910101813091051F
:101C1000B1F0029709F0FFC0109315010093140171
:101C2000F0921701E092160184E690E00E945401C0
:101C300080911601909117010E944101E3CF8CE23F
:101C400091E00E9476078CE291E00E94DB01809394
:101C50001A01882321F06A9A8EB18C258EB91092D0
:101C6000D0001092D10060912401709125018091E3
:101C70002601909127010E944610609344016091D3
:101C800028017091290180912A0190912B010E94D5
:101C900046106093450120E030E04EEF52E4609141
:101CA00020017091210180912201909123010E94D5
:101CB00092112AE939E949EC50E40E94DE0F0E94B2
:101CC00046106093460143E064E471E088E10E94BD
:101CD00010066E9A8EB18D258EB90E942108882338
:101CE00009F48FC080912C0190912D010E94280D44
:101CF0008EE891E00E94F40C80912E0190912F01CA
:101D00000E94280D8CE891E00E94F40C8091320131
:101D1000909133010E94280D8AE891E00E94F40C12
:101D200080913401909135010E94280D88E891E05E
:101D30000E94F40C80913801909139010E94280D85
:101D400086E891E00E94F40C80913A0190913B0169
:101D50000E94280D84E891E00E94F40C80913E01DD
:101D600090913F010E94280D82E891E00E94F40CBE
:101D700080914001909141010E94280D80E891E0FE
:101D80000E94F40C6091240170912501809126013C
:101D9000909127010E944610CB010E94280D8EE7EA
:101DA00091E00E94F40C60912801709129018091CA
:101DB0002A0190912B010E944610CB010E94280D10
:101DC0008CE791E00E94F40C20E030E04EEF52E40A
:101DD0006091200170912101809122019091230155
:101DE0000E9492112AE939E949EC50E40E94DE0F81
:101DF0000E944610CB010E94280D8AE791E00E94C4
:101E0000F40C2FEF85EA9EE0215080409040E1F7EE
:101E100000C00000F7CED0930101C0930001F2CEC4
:101E20005058BB27AA270ED027C2F0D130F0F5D1E9
:101E300020F031F49F3F11F41EF4C0C10EF4E09580
:101E4000E7FBB6C1E92F3AD280F3BA1762077307EE
:101E50008407950718F071F49EF552C20EF4E095D0
:101E60000B2EBA2FA02D0B01B90190010C01CA0154
:101E7000A0011124FF27591B99F0593F50F4503EFF
:101E800068F11A16F040A22F232F342F4427585FF1
:101E9000F3CF469537952795A795F0405395C9F709
:101EA0007EF41F16BA0B620B730B840BBAF09150C1
:101EB000A1F0FF0FBB1F661F771F881FC2F70EC060
:101EC000BA0F621F731F841F48F487957795679533
:101ED000B795F7959E3F08F0B3CF9395880F08F01C
:101EE0009927EE0F97958795089590D158F080E83F
:101EF00091E009F49EEF91D128F040E851E059F4C7
:101F00005EEF09C05BC1FCC1E92FE078D7D168F36F
:101F1000092E052AC1F3261737074807590738F055
:101F20000E2E07F8E02569F0E025E0640AC0EF63B3
:101F300007F8009407FADB01B9019D01DC01CA0131
:101F4000AD01EF934AD098D10AD05F91552331F07B
:101F50002BED3FE049E450FD49EC63CF0895DF935A
:101F6000DD27B92FBF7740E85FE31616170648074D
:101F70005B0710F4D92FCFD19F938F937F936F93EB
:101F80007CD2EEE2F1E01DD177D12F913F914F91BC
:101F90005F91D4D1DD2349F09058A2EA2AED3FE0C9
:101FA00049EC5FE3D0785D274DDFDF9165C1DCD080
:101FB00008F481E0089539D1E3956FC10CD05CC17C
:101FC0002CD140F023D130F021F45F3F19F0F0C064
:101FD000511197C1F3C072D198F39923C9F35523D6
:101FE000B1F3951B550BBB27AA276217730784070C
:101FF00038F09F5F5F4F220F331F441FAA1FA9F3C2
:1020000033D00E2E3AF0E0E830D091505040E695B3
:10201000001CCAF729D0FE2F27D0660F771F881F14
:10202000BB1F261737074807AB07B0E809F0BB0B03
:10203000802DBF01FF2793585F4F2AF09E3F510527
:1020400068F0B6C05EC15F3FECF3983EDCF3869566
:1020500077956795B795F7959F5FC9F7880F911D9D
:102060009695879597F90895E1E0660F771F881F89
:10207000BB1F621773078407BA0720F0621B730B3C
:10208000840BBA0BEE1F88F7E095089504D068948E
:10209000B11137C108951AD188F09F5790F0B92F28
:1020A0009927B751A0F0D1F0660F771F881F991FAD
:1020B0001AF0BA95C9F712C0B13081F021D1B1E060
:1020C00008951EC1672F782F8827B85F39F0B93F70
:1020D000CCF3869577956795B395D9F73EF49095AF
:1020E0008095709561957F4F8F4F9F4F0895E8942D
:1020F00009C097FB3EF490958095709561957F4F50
:102100008F4F9F4F9923A9F0F92F96E9BB279395FD
:10211000F695879577956795B795F111F8CFFAF40D
:10212000BB0F11F460FF1BC06F5F7F4F8F4F9F4F3E
:1021300016C0882311F096E911C0772321F09EE89C
:10214000872F762F05C0662371F096E8862F70E002
:1021500060E02AF09A95660F771F881FDAF7880FDC
:102160009695879597F90895990F0008550FAA0B32
:10217000E0E8FEEF16161706E807F907C0F012169A
:102180001306E407F50798F0621B730B840B950B9D
:1021900039F40A2661F0232B242B252B21F40895F2
:1021A0000A2609F4A140A6958FEF811D811D08958F
:1021B00097F99F6780E870E060E008959FEF80ECFA
:1021C0000895DF93CF931F930F93FF92EF92DF92C7
:1021D0007B018C01689405C0DA2EEF01AFD0FE01BF
:1021E000E894A5912591359145915591AEF3EF0174
:1021F00029DEFE019701A801DA9479F7DF90EF90CC
:10220000FF900F911F91CF91DF91089500240A94C0
:102210001616170618060906089500240A941216C1
:102220001306140605060895C9CF50D0E8F3E894C4
:10223000E0E0BB279F57F0F02AED3FE049EC06C0F5
:10224000EE0FBB0F661F771F881F28F0B23A620798
:102250007307840728F0B25A620B730B840BE39563
:102260009A9572F7803830F49A95BB0F661F771FE6
:10227000881FD2F7904806C1092E0394000C11F470
:10228000882352F0BB0F40F4BF2B11F460FF04C051
:102290006F5F7F4F8F4F9F4F0895EF93E0FF06C012
:1022A000A2EA2AED3FE049EC5FEBCCDDE5DF0F90E1
:1022B000039401FC9058EBE5F1E0F7C057FD90580E
:1022C000440F551F59F05F3F71F04795880F97FBFA
:1022D000991F61F09F3F79F08795089512161306B4
:1022E0001406551FF2CF4695F1DF08C016161706E3
:1022F0001806991FF1CF8695710561050894089518
:10230000E894BB2766277727CB0197F908952CDF40
:1023100008F48FEF08959B01AC0160E070E080E865
:102320009FE34CCE0BD0A8CF71DF28F076DF18F0FA
:10233000952309F03DCF42CF1124E3CFBFDFA0F3B7
:10234000959FD1F3950F50E0551F629FF001729F4A
:10235000BB27F00DB11D639FAA27F00DB11DAA1F69
:10236000649F6627B00DA11D661F829F2227B00DB6
:10237000A11D621F739FB00DA11D621F839FA00D41
:10238000611D221F749F3327A00D611D231F849F91
:10239000600D211D822F762F6A2F11249F575040E8
:1023A0008AF0E1F088234AF0EE0FFF1FBB1F661F83
:1023B000771F881F91505040A9F79E3F510570F03C
:1023C000F7CE9FCF5F3FECF3983EDCF38695779591
:1023D0006795B795F795E7959F5FC1F7FE2B880F37
:1023E000911D9695879597F908959F931EDF0F90FD
:1023F00007FCEE5F52CF11F40EF4E0CE41C066DF71
:10240000D0F39923D9F3CEF39F57550B87FF46D0CE
:102410000024A0E640EA900180585695979528F44C
:10242000805C660F771F881F20F026173707480744
:1024300030F4621B730B840B202931294A2BA6959B
:1024400017940794202531254A2758F7660F771FE0
:10245000881F20F026173707480730F4620B730BEC
:10246000840B200D311D411DA09581F7B901842FEA
:102470009158880F9695879508959B01AC0152CF8E
:102480009F3F31F0915020F4879577956795B795E8
:10249000880F911D9695879597F908959150504012
:1024A000660F771F881FD2F708959F938F937F93AE
:1024B0006F93FF93EF939B01AC0134DFEF91FF919A
:1024C00080DE2F913F914F915F912CCFEE0FFF1F38
:1024D0000590F491E02D0994BB274A3031F49923FB
:1024E00022F4BDE2909581959F4F0C94A912BB27D1
:1024F0002A3051F4992342F4BDE29095809570956D
:1025000061957F4F8F4F9F4F0C948712BB27FA0125
:10251000A62F6217710581059105330B30FB66F01C
:10252000AA27660F771F881F991FAA1FA21710F0EE
:10253000A21B63953850A9F7A05DAA3308F0A95DE6
:10254000A19336F7B111B1931082CA010C94C21253
:10255000BB27FB015527AA27880F991FAA1FA4177D
:1025600010F0A41B83955051B9F7A05DAA3308F071
:10257000A95DA193009779F7B111B1931192CB01A5
:102580000C94C212DC01FC01672F71917723E1F7F3
:10259000329704C07C916D9370836291AE17BF0730
:0825A000C8F30895F894FFCF81
:0C25A8000200020000E10000000008003A
:00000001FF
