:100000000C9417010C9434010C9434010C940B04DF
:100010000C9434010C9434010C9434010C9434018C
:100020000C9434010C9434010C94220B0C945C0B52
:100030000C9434010C9434010C9434010C9434016C
:100040000C9434010C9434010C9434010C9434015C
:100050000C94B3030C9434010C9434010C943401CB
:100060000C9434010C9434010C9434010C9434013C
:100070000C9434010C9434010C9434010C9434012C
:100080000C9434010C9434010C9434010C9434011C
:100090000C9434010C9434010C9434010C9434010C
:1000A0000C9434010C9434010C943401CA0AC20A31
:1000B000BA0AB20AAA0AA20A9A0A920A8A0A820A00
:1000C0007A0A720A6A0A620A5A0A520A4A0A420AF0
:1000D0003A0A320A2A0A220A1A0A120A0A0A020AE0
:1000E000FA09F209EA09E209DA09D209CA09C209D8
:1000F000BA09B209AA09A2099A0992098A098209C8
:100100007A0972096A0962095A0952094A094209B7
:100110003A0932092A0922091A0912090A090209A7
:10012000FA08F208EA08E208DA08D208CA08084A17
:10013000D73B3BCE016E84BCBFFDC12F3D6C7431FB
:100140009ABD56833DDA3D00C77F11BED9E4BB4C52
:100150003E916BAAAABE000000803F05A84CCDB21C
:10016000D44EB93836A9020C50B9918688083CA6FD
:10017000AAAA2ABE000000803F0000010000110270
:100180001200020000CE014300030000CA01040176
:10019000030904B6011202030904AE0106030309B0
:1001A00004A40108080334003100300000000603F5
:1001B0004D003200000012034A002E0020004600CD
:1001C000690065006E00650000000403090409026F
:1001D0004300020100C032090400000102020100D4
:1001E0000524001001052401010104240206052450
:1001F0000600010705820310004009040100020AFD
:1002000000000007050302400000070584024000CB
:10021000001201000202000010C0167A0400010161
:100220000203010001C11201803601813600112450
:100230001FBECFEFDAE0DEBFCDBF11E0A0E0B1E03E
:10024000E8E7F4E202C005900D92A031B107D9F7BA
:1002500021E0A0E1B1E001C01D92A535B207E1F7B0
:100260000E94AC0D0C943A120C9400002898299A24
:1002700091958195910990910201989F802D11246B
:100280008093D00008951816190654F4289A2998D6
:1002900090910201989F802D11248093D0000895A1
:1002A0000C943601209102011816190644F4289F77
:1002B000802D11248093D1002A9A2B98089591952E
:1002C00081959109289F802D11248093D1002A982F
:1002D0002B9A0895E1E6F0E080E88083108285BFE4
:1002E00085BF0E947604209A219A229A239A43E09D
:1002F00064E281E00E941E050E944806E1E8F0E009
:1003000080818F7E8083808188608083A0E8B0E0D8
:100310008C918D7F8C938C918E7F8C93AFE6B0E027
:100320008C9181608C9388EA91E690938900809308
:10033000880080818B7F8083808182608083808140
:100340008160808378941092CF001092D0008AEF61
:100350008093D1003F9A269AE1ECF0E0808188609A
:10036000808380818B7F808380818D7F808380816B
:1003700081608083E3ECF0E080818D7F80838081E9
:100380008E7F8083E0ECF0E08081826080838081DA
:100390008068808380818F7B80838081816080837F
:1003A00080818062808380818F7E808308952F92F8
:1003B0003F924F925F926F927F928F929F92AF92F5
:1003C000BF92CF92DF92EF92FF920F931F93CF9342
:1003D000DF93CDB7DEB768970FB6F894DEBF0FBED8
:1003E000CDBF3C01FC0180E090E0219131912F3F95
:1003F000334009F49EC101968B309105B1F77E829E
:100400006D8200E010E0C12CD12CE12CF12C212CCC
:10041000312C412C512CED81FE810190F081E02D99
:10042000FC8BEB8BAD81BE8112960D90BC91A02D03
:10043000BE8BAD8B7A826982CD86D986E98AFA8AAB
:10044000188E1F8AA981BA818D919C91EB89FC89B4
:10045000E81BF90BBF0180E090E00E94DD0F4B012B
:100460005C01A981BA8112968D919C911397ED89B7
:10047000FE89E81BF90BBF0180E090E00E94DD0FD0
:100480006B017C01A5019401C501B4010E94F81023
:100490004B015C01A7019601C701B6010E94F8104B
:1004A0009B01AC01C501B4010E94790E0E94651147
:1004B0006B017C012D85398549895A890E94ED108F
:1004C00018162CF0CD84D984E988FA8803C02F88C7
:1004D000388C28012F89388D2F5F3F4F388F2F8B15
:1004E00089819A8106969A8389832430310529F07F
:1004F000CD86D986E98AFA8AA5CF0F5F1F4FAD81D5
:10050000BE811696BE83AD830430110509F083CFFA
:1005100080E090E08415950519F08215930541F46B
:10052000019684309105B1F7412C512C212C312CAE
:1005300016E0129D7001139DF00C1124E60CF71CBF
:10054000F7016081718180E090E00E94DD0F4B0136
:100550005C01D70112966D917C91139780E090E039
:100560000E94DD0F6B017C01149D1001159D300C64
:100570001124260C371CF1016081718180E090E02C
:100580000E94DD0F2B013C01D10112966D917C91EF
:10059000139780E090E00E94DD0F69877A878B8750
:1005A0009C879B01AC01C701B6010E94780E6D8348
:1005B0007E838F839887A3019201C501B4010E94B5
:1005C000780E2D813E814F8158850E94EC0E6D83FF
:1005D0007E838F839887DC01CB01B05889839A830F
:1005E000AB83BC83BC01CD010E94430F6D877E8726
:1005F0008F87988BA3019201C501B4010E94790EE7
:1006000020E030E040E05FE30E94F81020E030E0BE
:1006100040E054E40E94780E2B013C0169817A810C
:100620008B819C810E945B114B015C0129853A857D
:100630004B855C85C701B6010E94790E20E030E051
:1006400040E05FE30E94F81020E030E040EC53E42B
:100650000E94780E69877A878B879C878091040136
:1006600090910501A0910601B091070189839A83B9
:10067000AB83BC836D857E858F8598899058A30157
:1006800092010E94F8106B017C0129853A854B8507
:100690005C85C501B4010E94F8109B01AC01C70143
:1006A000B6010E94780E9B01AC0169817A818B8131
:1006B0009C810E94F810609324017093250180931F
:1006C000260190932701A3019201C501B4010E9464
:1006D000F8106B017C0129853A854B855C856D8519
:1006E0007E858F8598890E94F8109B01AC01C70117
:1006F000B6010E94780E9B01AC0169817A818B81E1
:100700009C810E94F81060932801709329018093C6
:100710002A0190932B018D819E81AF81B8858093B2
:10072000200190932101A0932201B093230181E045
:1007300001C080E068960FB6F894DEBF0FBECDBF53
:10074000DF91CF911F910F91FF90EF90DF90CF90AD
:10075000BF90AF909F908F907F906F905F904F90E1
:100760003F902F9008951F920F920FB60F92112471
:100770002F933F934F935F936F937F938F939F93A9
:10078000AF93BF93EF93FF9381E080931F0180911C
:100790001F01882379F18CE291E00E942D078CE201
:1007A00091E00E94D70180931E01882309F184E221
:1007B000809344016091240170912501809126016C
:1007C000909127010E94AC0F609345016091280130
:1007D0007091290180912A0190912B010E94AC0F08
:1007E0006093460143E064E471E08AED0E94C7052E
:1007F00010921F01FF91EF91BF91AF919F918F9147
:100800007F916F915F914F913F912F910F900FBE0C
:100810000F901F9018951F920F920FB60F921124F0
:100820002F933F934F935F936F937F938F939F93F8
:10083000AF93BF93EF93FF9363E087E491E00E944F
:1008400076056E9A8EB190E489278EB981EA8093FD
:10085000470182E090E09093010180930001FF91B5
:10086000EF91BF91AF919F918F917F916F915F9128
:100870004F913F912F910F900FBE0F901F901895A1
:10088000CF92DF92EF92FF920F931F93CF93DF935C
:10089000EC018B01FB012081318142815381688110
:1008A00079818A819B810E94F81020E030E0A901C3
:1008B0000E94790E6B017C01F8012481358146810B
:1008C00057816C817D818E819F810E94F8109B01F0
:1008D000AC01C701B6010E94790EDF91CF911F9143
:1008E0000F91FF90EF90DF90CF900895589A599A0A
:1008F0005A9A8CE08093B800E9E6F0E0808180624B
:10090000808380818F7E8083EA9A7894089584E83A
:100910008093BC008091BC0087FFFCCF8091BB001E
:10092000089584E98093BC00089520E030E0809130
:10093000BC0087FD06C02F5F3F4F293E83E038078C
:10094000B1F781E0283E334009F480E008958093B8
:10095000BB0084E88093BC000E949504882321F0AA
:100960008091B900887F089580E008951F93CF9308
:10097000DF931F92CDB7DEB7182F84EA8093BC00B7
:1009800069830E9495046981811104C094E9909360
:10099000BC0014C0812F880F662331F08F5F0E9446
:1009A000A704883451F404C00E94A704803229F4BB
:1009B00084E98093BC0080E001C081E00F90DF916A
:1009C000CF911F910895CF93DF93C82FD62F60E06A
:1009D0000E94B604882391F08D2F0E94A7048823DB
:1009E00069F084E98093BC0061E08C2F0E94B6041A
:1009F000882321F0DF91CF910C94870480E0DF9170
:100A0000CF910895CF93DF93D62FC42F60E00E943B
:100A1000B604811102C080E00EC08D2F0E94A70491
:100A20008823C9F38C2F0E94A7048823A1F384E9AB
:100A30008093BC0081E0DF91CF910895CF93DF9345
:100A400000D01F92CDB7DEB74B836A8389830E94A3
:100A5000760494EA9093BC0089816A814B819091DD
:100A6000BC0097FFFCCF90E59093BB0094E8909377
:100A7000BC009091BC0097FFFCCF9091B900987F8B
:100A8000903229F484E98093BC0080E029C091E091
:100A90009093BB0094E89093BC009091BC0097FFAA
:100AA000FCCF8093BB0084E88093BC008091BC00A5
:100AB00087FFFCCF6093BB0084E88093BC008091EB
:100AC000BC0087FFFCCF4093BB0084E88093BC0050
:100AD0008091BC0087FFFCCF84E98093BC0081E05B
:100AE0000F900F900F90DF91CF91089524EA2093FB
:100AF000BC002091BC0027FFFCCF21E52093BB0068
:100B000024E82093BC002091BC0027FFFCCF20915B
:100B1000B900287F2834A9F024EC2093BC00209150
:100B2000BC0027FFFCCF2091BB0026130AC0FC01AC
:100B300020E030E0772767FD70956150710944EC43
:100B40000EC084E98093BC0080E008955091BC0001
:100B500057FFFCCF5091BB0051932F5F3F4F26179B
:100B600037071CF44093BC00F1CF44E84093BC002D
:100B70004091BC0047FFFCCF4091BB00FC01E20F5D
:100B8000F31F408384E98093BC0081E00895F894CA
:100B900094EA9093BC009091BC0097FFFCCF90E545
:100BA0009093BB0094E89093BC009091BC0097FF99
:100BB000FCCF9091B900987F903231F484E9809312
:100BC000BC00789480E0089593E09093BB0094E893
:100BD0009093BC009091BC0097FFFCCF8093BB002A
:100BE00084E88093BC008091BC0087FFFCCFFB01B0
:100BF000552747FD509524E8CF01861B970B841796
:100C0000950754F481918093BB002093BC008091A0
:100C1000BC0087FFFCCFF0CF84E98093BC007894C0
:100C200081E0089520E030E08091BC0087FD06C09F
:100C30002F5F3F4F293E83E03807B1F781E0283E20
:100C4000334009F480E008958093BB0084E88093EA
:100C5000BC000E941206882319F08091B900887F99
:100C60000895CF93C82F84EA8093BC000E94120697
:100C7000882361F08C2F880F0E942406803229F48B
:100C800084E98093BC0080E001C081E0CF910895A9
:100C90000E94760488E50E943106811102C080E03E
:100CA000089580E30E9424068823C9F381E00E940E
:100CB00024068823A1F384E98093BC008FE39CE998
:100CC0000197F1F700C0000088E50E9431068823F3
:100CD00031F380E00E942406882309F380E00E941B
:100CE00024068823E1F280E00E9424068823B9F2DA
:100CF00080E00E942406882391F280E00E9424066E
:100D0000882369F280E00E942406882341F280E073
:100D10000E942406882319F280E90E942406882371
:100D200009F4BDCF84E98093BC008FE39CE901976F
:100D3000F1F700C0000088E50E943106882309F41D
:100D4000AECF87E00E942406882309F4A8CF80E074
:100D50000E942406882309F4A2CF81E40E9424067D
:100D6000882309F49CCF84E98093BC008FE39CE93D
:100D70000197F1F700C0000088E50E943106882342
:100D800009F48DCF8AE10E942406882309F487CFD5
:100D900080E40E942406882309F481CF80E00E9429
:100DA0002406882309F47BCF84E98093BC008FE379
:100DB0009CE90197F1F700C0000088E50E94310628
:100DC000882309F46CCF83E30E942406882309F466
:100DD00066CF83E00E942406882309F460CF84E96B
:100DE0008093BC008FE39CE90197F1F700C00000FD
:100DF00088E50E943106882309F451CF80E30E94E0
:100E00002406882309F44BCF88E00E942406882317
:100E100009F445CF84E98093BC008FE39CE90197F6
:100E2000F1F700C0000081E00895CF93C82F84EA55
:100E30008093BC000E941206882369F08C2F880FD3
:100E40008F5F0E942406883429F484E98093BC00D3
:100E500080E001C081E0CF910895EF92FF920F935F
:100E60001F93CF93DF93CDB7DEB760970FB6F8949B
:100E7000DEBF0FBECDBF7C018E010F5F1F4F80E133
:100E8000F80111928A95E9F788E50E9431068111EF
:100E900002C080E05EC086E30E9424068823C9F376
:100EA00084E98093BC00F5E8FA95F1F7000088E545
:100EB0000E941507882369F3F8019E01205F3F4FC8
:100EC00094EC9093BC008091BC0087FFFCCF809194
:100ED000BB008193E217F307A1F784E88093BC007D
:100EE0008091BC0087FFFCCF8091BB00888B84E998
:100EF0008093BC00DE01149687016C91762F70738D
:100F0000AD0142505109FA01808190E0F0E17F9FEC
:100F1000800D911D1124F80191838083762F707CC0
:100F20004F5F5F4FFA01808190E0F4E07F9F800D7A
:100F3000911D1124F801938382836F70862F90E0B6
:100F40009583848313960A5F1F4FA217B307A9F6F0
:100F500081E060960FB6F894DEBF0FBECDBFDF9183
:100F6000CF911F910F91FF90EF90089584E98093A6
:100F7000BC0008958091E80080FFFCCF089581E0D7
:100F80008093D70080EA8093D80082E189BD09B4BC
:100F900000FEFDCF80E98093D8001092E00010920F
:100FA0005401109251018CE08093E20078940895EE
:100FB0008091540108959FB7F8948091540188233B
:100FC00039F083E08093E9008091E80085FD03C05B
:100FD0009FBF8FEF08958091F1002091E80025FDDB
:100FE00003C02BE62093E8009FBF08959FB7F894B5
:100FF00080915401882331F083E08093E90080914F
:10100000F20001C080E09FBF0895809154018823C1
:1010100071F08FB7F89493E09093E9002BE69091EC
:10102000E80095FF03C02093E800F9CF8FBF089533
:1010300090915401992371F09FB7F89424E0209384
:10104000E90020915201222349F02091E80025FD7A
:1010500003C09FBF8FEF0895109252012091E400CA
:10106000275E34E04091E80045FD12C09FBF90919B
:10107000E400921304C081E080935201EBCF909181
:101080005401992339F39FB7F8943093E900EACFDC
:101090008093F1008091E80085FD03C08AE380938E
:1010A000E80085E0809353019FBF80E00895909110
:1010B00054019923D1F09FB7F89424E02093E900DC
:1010C0002091E80025FD02C09FBF0FC08093F10072
:1010D0008091E80085FD03C08AE38093E80085E005
:1010E000809353019FBF80E008958FEF0895EF92A2
:1010F000FF921F93CF93DF937C01CB01209154018A
:10110000222371F0AFB7F89424E02093E9002091F6
:101110005201222349F02091E80025FD03C0AFBF12
:101120008FEF42C210925201B4E0C0E4DAE315E05E
:10113000009709F437C22091E400275E3091E8005F
:1011400035FD12C0AFBF3091E400321304C081E01E
:1011500080935201E5CF30915401332309F3AFB7A7
:10116000F894B093E900EACF2091F2004C2F421B93
:10117000242F30E08217930708F4482F841B91092D
:1011800050E04134510508F0FDC14A5A5F4FFA0161
:101190000C94CE11F70120812093F10097012F5F6D
:1011A0003F4F7901F70120812093F10097012F5FD4
:1011B0003F4F7901F70120812093F10097012F5FC4
:1011C0003F4F7901F70120812093F10097012F5FB4
:1011D0003F4F7901F70120812093F10097012F5FA4
:1011E0003F4F7901F70120812093F10097012F5F94
:1011F0003F4F7901F70120812093F10097012F5F84
:101200003F4F7901F70120812093F10097012F5F73
:101210003F4F7901F70120812093F10097012F5F63
:101220003F4F7901F70120812093F10097012F5F53
:101230003F4F7901F70120812093F10097012F5F43
:101240003F4F7901F70120812093F10097012F5F33
:101250003F4F7901F70120812093F10097012F5F23
:101260003F4F7901F70120812093F10097012F5F13
:101270003F4F7901F70120812093F10097012F5F03
:101280003F4F7901F70120812093F10097012F5FF3
:101290003F4F7901F70120812093F10097012F5FE3
:1012A0003F4F7901F70120812093F10097012F5FD3
:1012B0003F4F7901F70120812093F10097012F5FC3
:1012C0003F4F7901F70120812093F10097012F5FB3
:1012D0003F4F7901F70120812093F10097012F5FA3
:1012E0003F4F7901F70120812093F10097012F5F93
:1012F0003F4F7901F70120812093F10097012F5F83
:101300003F4F7901F70120812093F10097012F5F72
:101310003F4F7901F70120812093F10097012F5F62
:101320003F4F7901F70120812093F10097012F5F52
:101330003F4F7901F70120812093F10097012F5F42
:101340003F4F7901F70120812093F10097012F5F32
:101350003F4F7901F70120812093F10097012F5F22
:101360003F4F7901F70120812093F10097012F5F12
:101370003F4F7901F70120812093F10097012F5F02
:101380003F4F7901F70120812093F10097012F5FF2
:101390003F4F7901F70120812093F10097012F5FE2
:1013A0003F4F7901F70120812093F10097012F5FD2
:1013B0003F4F7901F70120812093F10097012F5FC2
:1013C0003F4F7901F70120812093F10097012F5FB2
:1013D0003F4F7901F70120812093F10097012F5FA2
:1013E0003F4F7901F70120812093F10097012F5F92
:1013F0003F4F7901F70120812093F10097012F5F82
:101400003F4F7901F70120812093F10097012F5F71
:101410003F4F7901F70120812093F10097012F5F61
:101420003F4F7901F70120812093F10097012F5F51
:101430003F4F7901F70120812093F10097012F5F41
:101440003F4F7901F70120812093F10097012F5F31
:101450003F4F7901F70120812093F10097012F5F21
:101460003F4F7901F70120812093F10097012F5F11
:101470003F4F7901F70120812093F10097012F5F01
:101480003F4F7901F70120812093F10097012F5FF1
:101490003F4F7901F70120812093F10097012F5FE1
:1014A0003F4F7901F70120812093F10097012F5FD1
:1014B0003F4F7901F70120812093F10097012F5FC1
:1014C0003F4F7901F70120812093F10097012F5FB1
:1014D0003F4F7901F70120812093F10097012F5FA1
:1014E0003F4F7901F70120812093F10097012F5F91
:1014F0003F4F7901F70120812093F10097012F5F81
:101500003F4F7901F70120812093F10097012F5F70
:101510003F4F7901F70120812093F10097012F5F60
:101520003F4F7901F70120812093F10097012F5F50
:101530003F4F7901F70120812093F10097012F5F40
:101540003F4F7901F70120812093F10097012F5F30
:101550003F4F7901F70120812093F10097012F5F20
:101560003F4F7901F70120812093F10097012F5F10
:101570003F4F7901F70120812093F10097012F5F00
:101580003F4F7901F70120812093F10097012F5FF0
:101590003F4F79012091E80025FFD093E800109398
:1015A0005301C6CDAFBF80E0DF91CF911F91FF9077
:1015B000EF9008958FB7F89490915301992341F0DB
:1015C00094E09093E9009AE39093E800109253011D
:1015D0008FBF089580910C01089580910D010895A9
:1015E00080910E0108958091510108959FB7F8945C
:1015F00020915401222339F022E02093E900309118
:10160000E80035FD03C09FBF8FEF089531EA3093A6
:10161000F10030E23093F1001092F1001092F100ED
:101620001092F1001092F1002093F1001092F1005D
:101630008093F1001092F1008AE38093E8009FBF4D
:1016400080E008951F920F920FB60F9211248F938E
:101650009F938091E1001092E10083FF11C01092EE
:10166000E90091E09093EB001092EC0092E19093EE
:10167000ED0098E09093F000109254011092510107
:1016800082FF13C080915401882379F08091530127
:10169000882359F0815080935301811106C084E062
:1016A0008093E9008AE38093E8009F918F910F90E7
:1016B0000FBE0F901F9018951F920F920FB60F92AA
:1016C0001124EF92FF920F931F932F933F934F9309
:1016D0005F936F937F938F939F93AF93BF93EF939A
:1016E000FF93CF93DF931F92CDB7DEB71092E9003F
:1016F0008091E80083FF14C19091F1008091F10086
:101700003091F1002091F100E32EF12CF22A0091AA
:10171000F1002091F10010E0122B2091F100609176
:10172000F10032EF3093E800863009F046C036E031
:101730008AE791E0FC01459154914E155F0539F41B
:10174000FC013296459154914017510721F00796BC
:10175000315081F7E5C0FC01349645915491FC016C
:101760003696849130E0362B2F3F310519F010F07A
:101770002FEF30E0281708F4822F3EEF9091E80019
:10178000292F2570D9F392FDCEC0982F813108F012
:1017900090E1FA01292F222331F064916093F10046
:1017A00021503196F8CF490F511D891B3093E80025
:1017B0008111E4CF903111F3B6C0853051F48EEF32
:1017C0008093E8000E94BA078E2D80688093E30022
:1017D000AAC0893059F5911180C0E092540110924D
:1017E0005101109253018EEF8093E80041E083E2B3
:1017F00092E04093E9009C012F5F3F4FFC01549120
:101800005093EB00552359F0F90124912093EC00FB
:101810009C012D5F3F4F319684918093ED004F5F87
:10182000453011F0C901E5CF8EE175C0883051F423
:10183000903809F052C00E94BA07809154018093F9
:10184000F10047C0813279F4913A09F046C00E9414
:10185000BA07E8E0F1E081918093F10081E0EF3098
:10186000F807C9F736C0803299F49132B1F580910A
:10187000E80082FFFCCFE8E0F1E08091F100819385
:1018800081E0EF30F807C9F78BEF8093E80021C0C3
:10189000823241F4913209F043C0E09251010E943A
:1018A000BA0717C0811119C099830E94BA0799819C
:1018B000923851F40093E9008091EB0085FB882772
:1018C00080F91092E90001C080E08093F10010924D
:1018D000F1008EEF8093E80026C0282F2D7F213065
:1018E000F9F49230E9F4EF28D9F40F779FEF900FD5
:1018F0009430B0F49EEF9093E8000093E9008330B9
:1019000079F089E18093EB0081E090E0002E01C046
:10191000880F0A94EAF78093EA001092EA0003C065
:1019200081E28093EB000F90DF91CF91FF91EF91D7
:10193000BF91AF919F918F917F916F915F914F91E7
:101940003F912F911F910F91FF90EF900F900FBE3D
:101950000F901F9018951F93CF93DF93EC01FE011A
:101960001491112351F01A3019F48DE00E941808D7
:10197000812F0E9418082196F2CFDF91CF911F91FD
:1019800008958A3010F490E301C097E3890F0C9416
:101990001808CF93C82F82958F700E94C10C8C2F8E
:1019A0008F70CF910C94C10CCF93C82F892F0E94B8
:1019B000C90C8C2FCF910C94C90C0C94C90CEF92CC
:1019C000FF920F931F93CF93DF93CDB7DEB7279787
:1019D0000FB6F894DEBF0FBECDBF8E010F5F1F4F55
:1019E00027E0F80111922A95E9F74AE0B8010E9430
:1019F000D4117E01F8E0EF0EF11CF80181918F0106
:101A000081110E9418080E151F05B9F727960FB609
:101A1000F894DEBF0FBECDBFDF91CF911F910F9124
:101A2000FF90EF900895EF92FF920F931F93CF9343
:101A3000DF9300D000D000D0CDB7DEB78E010F5FAE
:101A40001F4F26E0F80111922A95E9F74AE0B80104
:101A50000E9410127E01F6E0EF0EF11CF801819158
:101A60008F0181110E9418080E151F05B9F72696DF
:101A70000FB6F894DEBF0FBECDBFDF91CF911F919F
:101A80000F91FF90EF900895EF92FF920F931F93A5
:101A9000CF93DF93CDB7DEB72B970FB6F894DEBFA9
:101AA0000FBECDBF8E010F5F1F4F2BE0F8011192CB
:101AB0002A95E9F72AE0A8010E94DF117E01FCE0E7
:101AC000EF0EF11CF80181918F0181110E9418081D
:101AD0000E151F05B9F72B960FB6F894DEBF0FBE93
:101AE000CDBFDF91CF911F910F91FF90EF9008959F
:101AF000EF92FF920F931F93CF93DF93CDB7DEB793
:101B00002B970FB6F894DEBF0FBECDBF8E010F5FCF
:101B10001F4F2BE0F80111922A95E9F72AE0A8015E
:101B20000E94EE117E01FBE0EF0EF11CF8018191A5
:101B30008F0181110E9418080E151F05B9F72B9609
:101B40000FB6F894DEBF0FBECDBFDF91CF911F91CE
:101B50000F91FF90EF9008950E946A01C2E3D0E0D8
:101B6000CC24C394D12C0EEC1FEF809100019091F6
:101B700001018130910519F0029729F0B4C010924B
:101B8000D0001092D10010921301109212016091B6
:101B9000160170911701882777FD8095982F0E9474
:101BA000DF0F9B01AC0160912401709125018091B0
:101BB0002601909127010E943F0F87FF94C06091FA
:101BC0001C0170911D016C5F7F4F882777FD809508
:101BD000982F0E94DF0F9B01AC0160912001709152
:101BE000210180912201909123010E94ED1018168D
:101BF000A4F4D0931B01C0931A0110931901009310
:101C0000180182E390E00E944301809118019091B5
:101C100019010E9452016A9A729860911C01709198
:101C20001D0164507109882777FD8095982F0E94C7
:101C3000DF0F9B01AC016091200170912101809127
:101C40002201909123010E943F0F87FF14C010933F
:101C50001B0100931A01D0931901C09318018EEC57
:101C60009FEF0E94360180911801909119010E9406
:101C700052016A9A729A60911C0170911D015B0178
:101C800083E0A80EB11C64507109882777FD809508
:101C9000982F0E94DF0FEE24E394F12C2091200175
:101CA0003091210140912201509123010E943F0F68
:101CB00087FD02C0E12CF12CAE14BF040CF467CFF9
:101CC000D0931B01C0931A01D0931901C09318013E
:101CD00082E390E00E9443018091180190911901E4
:101CE0000E94520154CFD0920101C09200013DCF19
:101CF0005058BB27AA270ED025C2EED130F0F3D121
:101D000020F031F49F3F11F41EF4BEC10EF4E095B3
:101D1000E7FBB4C1E92F38D280F3BA176207730723
:101D20008407950718F071F49EF550C20EF4E09503
:101D30000B2EBA2FA02D0B01B90190010C01CA0185
:101D4000A0011124FF27591B99F0593F50F4503E30
:101D500068F11A16F040A22F232F342F4427585F22
:101D6000F3CF469537952795A795F0405395C9F73A
:101D70007EF41F16BA0B620B730B840BBAF09150F2
:101D8000A1F0FF0FBB1F661F771F881FC2F70EC091
:101D9000BA0F621F731F841F48F487957795679564
:101DA000B795F7959E3F08F0B3CF9395880F08F04D
:101DB0009927EE0F9795879508958ED158F080E872
:101DC00091E009F49EEF8FD128F040E851E059F4FA
:101DD0005EEF09C059C1FAC1E92FE078D5D168F3A7
:101DE000092E052AC1F3261737074807590738F087
:101DF0000E2E07F8E02569F0E025E0640AC0EF63E5
:101E000007F8009407FADB01B9019D01DC01CA0162
:101E1000AD01EF9348D096D10AD05F91552331F0B0
:101E20002BED3FE049E450FD49EC63CF0895DF938B
:101E3000DD27B92FBF7740E85FE31616170648077E
:101E40005B0710F4D92FCDD19F938F937F936F931E
:101E50007AD2EEE2F1E01BD175D12F913F914F91F3
:101E60005F91D2D1DD2349F09058A2EA2AED3FE0FC
:101E700049EC5FE3D0785D274DDFDF9163C1DAD0B5
:101E800008F481E0089537D1E3956DC12CD140F07D
:101E900023D130F021F45F3F19F0F0C0511197C108
:101EA000F3C072D198F39923C9F35523B1F3951B6D
:101EB000550BBB27AA2762177307840738F09F5F6B
:101EC0005F4F220F331F441FAA1FA9F333D00E2EDA
:101ED0003AF0E0E830D091505040E695001CCAF747
:101EE00029D0FE2F27D0660F771F881FBB1F26170C
:101EF00037074807AB07B0E809F0BB0B802DBF01DF
:101F0000FF2793585F4F2AF09E3F510568F0B6C0F7
:101F10005EC15F3FECF3983EDCF38695779567955D
:101F2000B795F7959F5FC9F7880F911D969587958F
:101F300097F90895E1E0660F771F881FBB1F6217AE
:101F400073078407BA0720F0621B730B840BBA0B6C
:101F5000EE1F88F7E095089504D06894B11137C159
:101F600008951AD188F09F5790F0B92F9927B7514B
:101F7000A0F0D1F0660F771F881F991F1AF0BA954D
:101F8000C9F712C0B13081F021D1B1E008951EC16E
:101F9000672F782F8827B85F39F0B93FCCF3869543
:101FA00077956795B395D9F73EF4909580957095A0
:101FB00061957F4F8F4F9F4F0895E89409C097FB1D
:101FC0003EF490958095709561957F4F8F4F9F4F10
:101FD0009923A9F0F92F96E9BB279395F695879554
:101FE00077956795B795F111F8CFFAF4BB0F11F417
:101FF00060FF1BC06F5F7F4F8F4F9F4F16C08823BE
:1020000011F096E911C0772321F09EE8872F762FF3
:1020100005C0662371F096E8862F70E060E02AF034
:102020009A95660F771F881FDAF7880F9695879520
:1020300097F90895990F0008550FAA0BE0E8FEEFF5
:1020400016161706E807F907C0F012161306E4077C
:10205000F50798F0621B730B840B950B39F40A2675
:1020600061F0232B242B252B21F408950A2609F453
:10207000A140A6958FEF811D811D089597F99F6757
:1020800080E870E060E008959FEF80EC0895DF93B2
:10209000CF931F930F93FF92EF92DF927B018C01FE
:1020A000689405C0DA2EEF01AFD0FE01E894A59147
:1020B0002591359145915591AEF3EF012BDEFE014F
:1020C0009701A801DA9479F7DF90EF90FF900F91D4
:1020D0001F91CF91DF91089500240A9416161706D8
:1020E00018060906089500240A9412161306140609
:1020F00005060895C9CF50D0E8F3E894E0E0BB2787
:102100009F57F0F02AED3FE049EC06C0EE0FBB0F01
:10211000661F771F881F28F0B23A6207730784078B
:1021200028F0B25A620B730B840BE3959A9572F701
:10213000803830F49A95BB0F661F771F881FD2F73F
:10214000904808C1092E0394000C11F4882352F022
:10215000BB0F40F4BF2B11F460FF04C06F5F7F4FD3
:102160008F4F9F4F0895EF93E0FF06C0A2EA2AED3C
:102170003FE049EC5FEBCEDDE5DF0F90039401FC1F
:102180009058EBE5F1E0F9C057FD9058440F551F0A
:1021900059F05F3F71F04795880F97FB991F61F0E9
:1021A0009F3F79F087950895121613061406551F60
:1021B000F2CF4695F1DF08C0161617061806991FCC
:1021C000F1CF86957105610508940895E894BB27C1
:1021D00066277727CB0197F908952CDF08F48FEF56
:1021E00008959B01AC0160E070E080E89FE3AEC021
:1021F0000BD0A8CF71DF28F076DF18F0952309F017
:102200003DCF42CF1124E3CFBFDFA0F3959FD1F3A1
:10221000950F50E0551F629FF001729FBB27F00D94
:10222000B11D639FAA27F00DB11DAA1F649F6627E9
:10223000B00DA11D661F829F2227B00DA11D621F38
:10224000739FB00DA11D621F839FA00D611D221FF2
:10225000749F3327A00D611D231F849F600D211DD6
:10226000822F762F6A2F11249F5750408AF0E1F079
:1022700088234AF0EE0FFF1FBB1F661F771F881FC2
:1022800091505040A9F79E3F510570F0F7CE9FCF77
:102290005F3FECF3983EDCF3869577956795B795AD
:1022A000F795E7959F5FC1F7FE2B880F911D9695D7
:1022B000879597F908959F931EDF0F9007FCEE5FB7
:1022C00052CF11F40EF4E0CE43C066DFD0F3992371
:1022D000D9F3CEF39F57550B87FF48D00024A0E6D3
:1022E00040EA900180585695979528F4805C660FD7
:1022F000771F881F20F026173707480730F4621B26
:10230000730B840B202931294A2BA6951794079427
:10231000202531254A2758F7660F771F881F20F0A0
:1023200026173707480730F4620B730B840B200D18
:10233000311D411DA09581F7B901842F9158880F57
:102340009695879508959B01AC0152CFAADDFACEF0
:102350009F3F31F0915020F4879577956795B79519
:10236000880F911D9695879597F908959150504043
:10237000660F771F881FD2F708959F938F937F93DF
:102380006F93FF93EF939B01AC0132DFEF91FF91CD
:102390007EDE2F913F914F915F912ACFEE0FFF1F6D
:1023A0000590F491E02D0994BB274A3031F499232C
:1023B00022F4BDE2909581959F4F0C941112BB279A
:1023C0002A3051F4992342F4BDE29095809570959E
:1023D00061957F4F8F4F9F4F0C94EF11BB27FA01F0
:1023E000A62F6217710581059105330B30FB66F04E
:1023F000AA27660F771F881F991FAA1FA21710F020
:10240000A21B63953850A9F7A05DAA3308F0A95D17
:10241000A19336F7B111B1931082CA010C942A121C
:10242000BB27FB015527AA27880F991FAA1FA417AE
:1024300010F0A41B83955051B9F7A05DAA3308F0A2
:10244000A95DA193009779F7B111B1931192CB01D6
:102450000C942A12DC01FC01672F71917723E1F7BC
:10246000329704C07C916D9370836291AE17BF0761
:08247000C8F30895F894FFCFB2
:10247800010019000000204100E1000000000800F0
:00000001FF
