:100000000C942C010C9449010C9449010C94B20DF0
:100010000C9449010C9449010C9449010C94490138
:100020000C9449010C9449010C94FF140C9439155B
:100030000C9449010C9449010C9449010C94490118
:100040000C9449010C9449010C9449010C94490108
:100050000C94A30D0C9449010C9449010C94490192
:100060000C9449010C9449010C9449010C944901E8
:100070000C9449010C943F0E0C9449010C944901D5
:100080000C9449010C9449010C9449010C944901C8
:100090000C9449010C9449010C9449010C944901B8
:1000A0000C9449010C9449010C9449010C0C1D0C51
:1000B0002C0C3B0C4A0C590C680C770C8A0C910CDC
:1000C000A7149F1497148F1487147F1477146F1438
:1000D00067145F1457144F1447143F1437142F1428
:1000E00027141F1417140F140714FF13F713EF131B
:1000F000E713DF13D713CF13C713BF13B713AF1310
:10010000A7139F1397138F1387137F1377136F13FF
:1001100067135F1357134F1347133F1337132F13EF
:1001200027131F1317130F130713FF12F712EF12E2
:10013000E712DF12D712CF12C712BF12B712AF12D7
:10014000A712084AD73B3BCE016E84BCBFFDC12F2E
:100150003D6C74319ABD56833DDA3D00C77F11BEB8
:10016000D9E4BB4C3E916BAAAABE000000803F05BB
:10017000A84CCDB2D44EB93836A9020C50B99186EC
:1001800088083CA6AAAA2ABE000000803F000900F9
:100190000A00090009000900090009000900090016
:1001A00009000900000100003B021200020000F8F3
:1001B000014300030000F4010401030904E00112FB
:1001C00002030904D8010603030904CE0108080349
:1001D000340031003000000006034D003200000002
:1001E00012034A002E0020004600690065006E00E0
:1001F000650000000403090409024300020100C075
:10020000320904000001020201000524001001056A
:1002100024010101042402060524060001070582C9
:100220000310004009040100020A00000007050352
:100230000240000007058402400000120100020293
:10024000000010C0167A040001010203010001C180
:10025000120180360181360011241FBECFEFDAE093
:10026000DEBFCDBF11E0A0E0B1E0EEEFF2E402C0EE
:1002700005900D92AE35B107D9F722E0AEE5B1E0B9
:1002800001C01D92AE32B207E1F70E9401180C9432
:100290007D210C940000469A089542E062E180E2DC
:1002A0000C9493170F931F93CF93DF93559A5D98F8
:1002B00080E8809361001092610085BF85BF0E9435
:1002C000530E0E949C11209A219A229A239A249AD2
:1002D0003E9A53984AE069E181E00E94FB0E0E9439
:1002E0002510809181008B7F809381008091810017
:1002F0008260809381008091810081608093810081
:10030000809181008061809381008091810088606C
:100310008093810080918000826080938000809132
:10032000800081608093800080916F008160809365
:100330006F0084EC99E09093890080938800789412
:100340001092CF001092D00088EC8093D1003F9A99
:10035000269A8091C10088608093C1008091C1007D
:1003600084608093C1008091C1008D7F8093C10023
:100370008091C1008E7F8093C1008091C3008D7FEA
:100380008093C3008091C3008E7F8093C3008091CF
:10039000C00082608093C0008091C000806880931C
:1003A000C0008091C0008F7B8093C0008091C0000E
:1003B00081608093C0008091C00080628093C00003
:1003C0008091C0008F7E8093C00080917C008F77E9
:1003D00080937C0080917C00806480937C0080917D
:1003E0007A00846080937A0080917A0082608093A2
:1003F0007A0080917A00816080937A0080917E00FB
:10040000816080937E0080917E00826080937E0078
:1004100080917E00806180937E0080917E0080626A
:1004200080937E0080917E00806480937E00809126
:100430007E00806880937E0080917D008160809343
:100440007D0080917D00826080937D0080917D00A1
:10045000846080937D0080917B008F7D80937B0002
:1004600080917C008B7F80937C0080917C008D7FCD
:1004700080937C0080917C008E7F80937C008091B3
:100480007A00886080937A0080917B008F7D8093D2
:100490007B0080917C008B7F80937C0080917C002E
:1004A0008D7F80937C0080917C008E7F80937C0088
:1004B00080917A00806880937A0040E060E080E27A
:1004C0000E94931741E060E080E20E94931742E0AF
:1004D00060E080E20E94C01743E060E080E20E949A
:1004E000931744E060E080E20E94931745E060E0EB
:1004F00080E20E94931746E060E080E20E9493173A
:1005000047E060E080E20E94931740E061E080E213
:100510000E949317C9E2D1E009E011E029913991D5
:100520004991599160E070E080E894E40E94BB1D1D
:100530009B01AC0160E070E080E894E40E94891EB9
:10054000F80161937193819391938F01F1E0C93424
:10055000DF0721F7DF91CF911F910F9108952F921F
:100560003F924F925F926F927F928F929F92AF9243
:10057000BF92CF92DF92EF92FF920F931F93CF9390
:10058000DF93CDB7DEB7C458D1090FB6F894DEBFFC
:100590000FBECDBF2C01FE01319680E4DF011D921C
:1005A0008A95E9F7BE016F5B7F4F84E2DB011D9204
:1005B0008A95E9F7D20120E030E080E090E04D91AB
:1005C0005D914F3F534009F401962F5F3F4F2B3011
:1005D0003105A9F78230910509F471C234F06E9AA1
:1005E00076986A9A729A80E0F4C46A9A72986E9ABF
:1005F000769AE796FFAFEEAFE797A7965FAE4EAE5F
:10060000A797612C712CEB961FAE1EAEEB9700E006
:1006100010E0212C312CA796AEADBFADA7976D9100
:100620007C9180E090E00E94221FC358DF4F6883D6
:1006300079838A839B83CD57D040A796EEADFFADDB
:10064000A7976281738180E090E00E94221FCF57BC
:10065000DF4F688379838A839B83C158D040AB96F0
:100660005FAE4EAEAB97AF961FAE1EAEAF97E396A2
:100670001FAE1EAEE397AB96AEADBFADAB976D911F
:100680007C9180E090E00E94221F9B01AC01C35846
:10069000DF4F688179818A819B81CD57D0400E944C
:1006A000BB1D4B015C01AB96EEADFFADAB9762811C
:1006B000738180E090E00E94221F9B01AC01CF5724
:1006C000DF4F688179818A819B81C158D0400E9427
:1006D000BB1D6B017C01A5019401C501B4010E9401
:1006E0003D204B015C01A7019601C701B6010E94A4
:1006F0003D209B01AC01C501B4010E94BC1D0E94BC
:10070000AA206B017C01E796EEADFFADE797AF96AF
:100710002EAD3FADAF97E20FF31F608371838283ED
:100720009383EB964EAD5FADEB97BA01882777FDCB
:100730008095982F0E94241F9B01AC01C701B60130
:100740000E94322018166CF4C701B6010E94F11EF7
:10075000EB967FAF6EAFEB97E3960EAD1FADE397D1
:100760001301E3968EAD9FADE3970196E3969FAF9D
:100770008EAFE397AB96AEADBFADAB971696AB968B
:10078000BFAFAEAFAB97AF96EEADFFADAF973496C0
:10079000AF96FFAFEEAFAF97049709F06CCFFFEFC6
:1007A0006F1A7F0AA7962EAD3FADA7972A5F3F4FDE
:1007B000A7963FAF2EAFA797E7964EAD5FADE797F1
:1007C000405F5F4FE7965FAF4EAFE79754E0651627
:1007D000710409F020CF80E090E082159305A1F12B
:1007E0008017910789F1F101EE0FFF1FEE0FFF1F38
:1007F000E80FF91FEE0FFF1FEE0FFF1FEE24E3942B
:10080000F12CEC0EFD1EEE0DFF1DD801AA0FBB1F33
:10081000AA0FBB1FA80FB91FAA0FBB1FAA0FBB1F90
:10082000AE0DBF1D2D913D914D915C916081718107
:10083000828193810E94821E87FF0EC0902F812F9C
:100840008101292E382E08C001968430910529F6A1
:10085000212C312C00E010E086E0782E709E700193
:10086000719EF00C1124E40CF51CD7016D917C9164
:1008700080E090E00E94221F4B015C01F701628141
:10088000738180E090E00E94221F6B017C01729CCA
:100890008001739C100D1124040D151DD8016D915C
:1008A0007C9180E090E00E94221F2B013C01F80126
:1008B0006281738180E090E00E94221FE1966CAF1C
:1008C0007DAF8EAF9FAFE1979B01AC01C701B60131
:1008D0000E94BB1DA9966CAF7DAF8EAF9FAFA9974D
:1008E000A3019201C501B4010E94BB1DA9962CADC4
:1008F0003DAD4EAD5FADA9970E942F1EE5966CAF42
:100900007DAF8EAF9FAFE5979B01AC015058A99684
:100910002CAF3DAF4EAF5FAFA997CA01B9010E949E
:10092000861EAD966CAF7DAF8EAF9FAFAD97A30126
:100930009201C501B4010E94BC1D20E030E040E0FE
:100940005FE30E943D2020E030E040E054E40E945C
:10095000BB1D2B013C01A9966CAD7DAD8EAD9FAD4D
:10096000A9970E94A0204B015C01E1962CAD3DAD02
:100970004EAD5FADE197C701B6010E94BC1D20E0FE
:1009800030E040E05FE30E943D2020E030E040ECBA
:1009900053E40E94BB1DE9966CAF7DAF8EAF9FAF55
:1009A000E9978091510190915201A0915301B0912A
:1009B0005401E1968CAF9DAFAEAFBFAFE197AD965E
:1009C0006CAD7DAD8EAD9FADAD979058A3019201FA
:1009D0000E943D206B017C01E9962CAD3DAD4EADF2
:1009E0005FADE997C501B4010E943D209B01AC01B8
:1009F000C701B6010E94BB1D9B01AC015058E19696
:100A00006CAD7DAD8EAD9FADE1970E943D206093B2
:100A1000B1017093B2018093B3019093B401A3012B
:100A20009201C501B4010E943D206B017C01E99651
:100A30002CAD3DAD4EAD5FADE997AD966CAD7DADE6
:100A40008EAD9FADAD970E943D209B01AC01C701CB
:100A5000B6010E94BB1D9B01AC01E1966CAD7DAD62
:100A60008EAD9FADE1970E943D206093B5017093DC
:100A7000B6018093B7019093B80120E030E0A9015E
:100A8000A9966CAD7DAD8EAD9FADA9970E94821EDB
:100A900087FF83C2E5962CAD3DAD4EAD5FADE597CA
:100AA00063EC75EF88EC90E40E94BB1D6093AD0190
:100AB0007093AE018093AF019093B0017CC26A9AAB
:100AC00072986E9A7698D20141E050E020E030E0D2
:100AD00080E090E00D911C9111970F3FE3E01E071D
:100AE00009F46BC2F901E81BF90BEE0FFF1FEE0FC3
:100AF000FF1FE754FE4F1183008312960D911C9146
:100B00001397FC01EE0FFF1F7A01EE1AFF0AF7019F
:100B1000EE0FFF1FE754FE4F118300832F5F3F4FFF
:100B200016964E5F5F4F24303105A1F6AB967FAF2E
:100B30006EAFAB9729EB31E0E3963FAF2EAFE39773
:100B4000412C512CE7961FAE1EAEE79700E010E057
:100B5000212C312CE396AEADBFADE3976D917C9126
:100B600080E090E00E94221FED966CAF7DAF8EAFCB
:100B70009FAFED97E396EEADFFADE3976281738192
:100B800080E090E00E94221FC358DF4F6883798382
:100B90008A839B83CD57D04029EB31E0A7963FAFA6
:100BA0002EAFA797AF961FAE1EAEAF97612C712CDC
:100BB000A796AEADBFADA7976D917C9180E090E018
:100BC0000E94221F9B01AC01ED966CAD7DAD8EADF8
:100BD0009FADED970E94BB1D4B015C01A796EEAD4A
:100BE000FFADA7976281738180E090E00E94221F91
:100BF0009B01AC01C358DF4F688179818A819B8159
:100C0000CD57D0400E94BB1D6B017C01A501940112
:100C1000C501B4010E943D204B015C01A701960172
:100C2000C701B6010E943D209B01AC01C501B40182
:100C30000E94BC1D0E94AA206B017C01AB96EEAD08
:100C4000FFADAB97AF962EAD3FADAF97E20FF31F61
:100C50006083718382839383E7964EAD5FADE797A0
:100C6000BA01882777FD8095982F0E94241F9B0149
:100C7000AC01C701B6010E943220181654F4C70116
:100C8000B6010E94F11EE7967FAF6EAFE797830132
:100C900012015FEF651A750AA7968EAD9FADA797F3
:100CA0000496A7969FAF8EAFA797AF96AEADBFAD98
:100CB000AF971496AF96BFAFAEAFAF97B3E06B16DA
:100CC000710409F075CFEFEF4E1A5E0AE3962EAD70
:100CD0003FADE3972C5F3F4FE3963FAF2EAFE397D7
:100CE000AB964EAD5FADAB97445F5F4FAB965FAFDA
:100CF0004EAFAB9753E04516510409F02BCF80E07F
:100D000090E08215930509F45AC18017910709F400
:100D100056C1F101EE0FFF1FE20DF31DE80FF91FA1
:100D2000EE0FFF1FEE0FFF1F41E450E04C0F5D1F61
:100D3000E40FF51FD801AA0FBB1FA00FB11FA80F0A
:100D4000B91FAA0FBB1FAA0FBB1FA40FB51F2D9160
:100D50003D914D915C9160817181828193810E946E
:100D6000821E87FF05C0902F812F8101292E382EEA
:100D70007801EE0CFF1CE00EF11EF701EE0FFF1FD5
:100D8000E754FE4F6081718180E090E00E94221F55
:100D90004B015C01F701EE0FFF1FE554FE4F608130
:100DA000718180E090E00E94221F6B017C01810133
:100DB000000F111F020D131DF801EE0FFF1FE75466
:100DC000FE4F6081718180E090E00E94221F2B0124
:100DD0003C01F801EE0FFF1FE554FE4F6081718169
:100DE00080E090E00E94221FAD966CAF7DAF8EAF89
:100DF0009FAFAD979B01AC01C701B6010E94BB1D1F
:100E0000A9966CAF7DAF8EAF9FAFA997A30192015A
:100E1000C501B4010E94BB1DA9962CAD3DAD4EADE0
:100E20005FADA9970E942F1E9B01AC015058A99657
:100E30002CAF3DAF4EAF5FAFA997CA01B9010E9479
:100E4000861EE5966CAF7DAF8EAF9FAFE597A30191
:100E50009201C501B4010E94BC1D20E030E040E0D9
:100E60005FE30E943D2020E030E040E054E40E9437
:100E7000BB1D2B013C01A9966CAD7DAD8EAD9FAD28
:100E8000A9970E94A0204B015C01AD962CAD3DAD11
:100E90004EAD5FADAD97C701B6010E94BC1D20E00D
:100EA00030E040E05FE30E943D2020E030E040EC95
:100EB00053E40E94BB1DE1966CAF7DAF8EAF9FAF38
:100EC000E1978091510190915201A0915301B0910D
:100ED0005401AD968CAF9DAFAEAFBFAFAD97E59669
:100EE0006CAD7DAD8EAD9FADE5979058A30192019D
:100EF0000E943D206B017C01E1962CAD3DAD4EADD5
:100F00005FADE197C501B4010E943D209B01AC019A
:100F1000C701B6010E94BB1D9B01AC015058AD96A4
:100F20006CAD7DAD8EAD9FADAD970E943D206093C1
:100F3000B1017093B2018093B3019093B401A30106
:100F40009201C501B4010E943D206B017C01E19634
:100F50002CAD3DAD4EAD5FADE197E5966CAD7DAD91
:100F60008EAD9FADE5970E943D209B01AC01C7016E
:100F7000B6010E94BB1D9B01AC01AD966CAD7DAD71
:100F80008EAD9FADAD970E943D206093B5017093EB
:100F9000B6018093B7019093B801A9962CAD3DADF1
:100FA0004EAD5FADA9972093AD013093AE01409354
:100FB000AF015093B00181E00CC00196AFCD019616
:100FC0008330910509F09DCE212C312C00E010E0FA
:100FD000CFCECC57DF4F0FB6F894DEBF0FBECDBFDC
:100FE000DF91CF911F910F91FF90EF90DF90CF9005
:100FF000BF90AF909F908F907F906F905F904F9039
:101000003F902F900895CF92DF92EF92FF920F932F
:101010001F93CF93DF93EC018B01FB012081318182
:1010200042815381688179818A819B810E943D2020
:1010300020E030E0A9010E94BC1D6B017C01F80199
:1010400024813581468157816C817D818E819F818C
:101050000E943D209B01AC01C701B6010E94BC1D4E
:10106000DF91CF911F910F91FF90EF90DF90CF9084
:1010700008950F931F93CF93DF9380918D019091EB
:101080008E01892B09F041C0609178007091790040
:1010900000918D0110918E01C0918D01D0918E0132
:1010A00080E090E00E94221FF801EE0FFF1FEE0F7C
:1010B000FF1FE75DFE4F20813181428153810E94F5
:1010C000BB1DCC0FDD1FCC0FDD1FC75FDE4F28819E
:1010D00039814A815B810E943D200E94F11E7093FC
:1010E000FD016093FC0180918D0190918E0101962C
:1010F00090938E0180938D0180917A008F778093F9
:101100007A0080917B008F7DBEC180918D0190918E
:101110008E01019709F057C06091780070917900B5
:1011200000918D0110918E01C0918D01D0918E01A1
:1011300080E090E00E94221FF801EE0FFF1FEE0FEB
:10114000FF1FE75DFE4F20813181428153810E9464
:10115000BB1DCC0FDD1FCC0FDD1FC75FDE4F28810D
:1011600039814A815B810E943D200E94F11E70936B
:1011700029026093280280918D0190918E01019641
:1011800090938E0180938D0180917A008F77809368
:101190007A0080917B008F7D80937B0080917C0022
:1011A000846080937C0080917C008D7F80937C00A4
:1011B00080917C008E7F80937C0080917A0080619A
:1011C00080937A00E9C180918D0190918E01029700
:1011D00009F050C0609178007091790000918D0104
:1011E00010918E01C0918D01D0918E0180E090E030
:1011F0000E94221FF801EE0FFF1FEE0FFF1FE75D99
:10120000FE4F20813181428153810E94BB1DCC0F52
:10121000DD1FCC0FDD1FC75FDE4F288139814A817A
:101220005B810E943D200E94F11E70930F0260932B
:101230000E0280918D0190918E01019690938E0106
:1012400080938D0180917A008F7780937A008091CE
:101250007B008F7D80937B0080917C0084608093F5
:101260007C0080917C008D7F80937C0080917C004D
:101270008160A1CF80918D0190918E01039709F03B
:1012800046C0609178007091790000918D011091B5
:101290008E01C0918D01D0918E0180E090E00E947E
:1012A000221FF801EE0FFF1FEE0FFF1FE75DFE4F3D
:1012B00020813181428153810E94BB1DCC0FDD1FF3
:1012C000CC0FDD1FC75FDE4F288139814A815B81EA
:1012D0000E943D200E94F11E709327026093260217
:1012E00080918D0190918E01019690938E01809353
:1012F0008D0180917A008F7780937A0080917B00B6
:101300008F7D80937B0080917C00846000C1809100
:101310008D0190918E010497F1F5609178007091A4
:10132000790080E090E00E94221F209145013091D9
:10133000460140914701509148010E94BB1D2091F8
:1013400025013091260140912701509128010E94EA
:101350003D200E94F11E70930B0260930A0280915F
:101360008D0190918E01019690938E0180938D0155
:1013700080917A008F7780937A0080917B008F7DB7
:1013800080937B0080917C00846080937C008091BE
:101390007C00826069CF80918D0190918E010597CC
:1013A000C9F5609178007091790080E090E00E942A
:1013B000221F2091410130914201409143015091FF
:1013C00044010E94BB1D20912101309122014091D6
:1013D0002301509124010E943D200E94F11E709330
:1013E00017026093160280918D0190918E010196F3
:1013F00090938E0180938D0180917A008F778093F6
:101400007A0080917B00806280937B0080917C00D9
:101410008B7FC7CE80918D0190918E010697C9F583
:10142000609178007091790080E090E00E94221F26
:1014300020913D0130913E0140913F01509140018A
:101440000E94BB1D20911D0130911E0140911F0182
:10145000509120010E943D200E94F11E7093F901DD
:101460006093F80180918D0190918E010196909387
:101470008E0180938D0180917A008F7780937A001E
:1014800080917B00806280937B0080917C008B7FC9
:10149000E6CE80918D0190918E010797F1F56091D4
:1014A00078007091790080E090E00E94221F2091E6
:1014B000390130913A0140913B0150913C010E9429
:1014C000BB1D2091190130911A0140911B015091CF
:1014D0001C010E943D200E94F11E70930702609340
:1014E000060280918D0190918E01019690938E015C
:1014F00080938D0180917A008F7780937A0080911C
:101500007B00806280937B0080917C008B7F809346
:101510007C0080917C00826049CE80918D01909109
:101520008E010897C9F58091780090917900909389
:1015300019028093180280918D0190918E0101967D
:1015400090938E0180938D0180917A008F778093A4
:101550007A0080917B008F7D80937B0080917C005E
:101560008B7F80937C0080917C008D7F80937C00BA
:1015700080917C008E7F80937C0080917A008061D6
:1015800080937A0010928E0110928D0181E090E09C
:101590009093110280931002809110029091110299
:1015A000892B09F4A2C06091FC017091FD0188278C
:1015B00077FD8095982F0E94241F60936901709396
:1015C0006A0180936B0190936C0160912802709185
:1015D0002902882777FD8095982F0E94241F609309
:1015E0006D0170936E0180936F0190937001609113
:1015F0000E0270910F02882777FD8095982F0E9428
:10160000241F609371017093720180937301909312
:1016100074016091260270912702882777FD8095DA
:10162000982F0E94241F6093750170937601809318
:1016300077019093780160910602709107028827E4
:1016400077FD8095982F0E94241F609379017093F5
:101650007A0180937B0190937C016091F8017091F5
:10166000F901882777FD8095982F0E94241F6093A9
:101670007D0170937E0180937F0190938001609142
:10168000160270911702882777FD8095982F0E9487
:10169000241F609381017093820180938301909352
:1016A000840160910A0270910B02882777FD809572
:1016B000982F0E94241F6093850170938601809368
:1016C0008701909388016091180270911902882710
:1016D00077FD8095982F0E94241F60938901709355
:1016E0008A0180938B0190938C01109211021092C9
:1016F000100280917A00806880937A0080917A004D
:10170000806480937A00DF91CF911F910F910895AB
:10171000AF92BF92CF92DF92EF92FF920F931F93FF
:10172000CF93DF9380917A00806480937A0000E009
:1017300010E0C12CD12C7601C0E0D0E05801AA0CF9
:10174000BB1CAA0CBB1CC50187599E4F5C01FC0148
:101750006081718182819381A70196010E9432206C
:10176000181634F4F501C080D180E280F380E801DE
:101770000F5F1F4F0830110509F7809118029091F3
:101780001902843893408CF484E090E090935601E1
:101790008093550120E030E048EC52E4C701B601E7
:1017A0000E94821E87FDB6C0C8C0209719F0C730BE
:1017B000D105F9F46091690170916A0180916B0122
:1017C00090916C01209185013091860140918701B3
:1017D000509188010E94BB1D0E94F11E9B0177FF62
:1017E00004C022273327261B370B243631050CF47F
:1017F00091C020E030E048EC52E4C701B6010E94FD
:10180000821E87FD87C0CA30D10508F096C0FE0150
:10181000EA5AFF4F0C9411218EE190E090936801F9
:101820008093670182EE9FEF90936601809365013C
:101830001092900110928F0180C08EE190E0909301
:1018400068018093670182EE9FEF90936601809319
:10185000650181E090E059C08EE190E090936801CD
:101860008093670182EE9FEF9093660180936501FC
:1018700082E090E04AC08EE190E09093680180930E
:10188000670182EE9FEF909366018093650183E08C
:1018900090E03BC08EE190E09093680180936701F7
:1018A00082EE9FEF909366018093650184E090E063
:1018B0002CC082EE9FEF90936801809367018EE1C8
:1018C00090E0909366018093650185E090E01DC0F3
:1018D00082EE9FEF90936801809367018EE190E024
:1018E000909366018093650186E090E00EC082EEE1
:1018F0009FEF90936801809367018EE190E0909351
:1019000066018093650187E090E090939001809359
:101910008F0113C086E490E0909368018093670183
:1019200008C08EE190E0909368018093670182EE99
:101930009FEF9093660180936501DF91CF911F9196
:101940000F91FF90EF90DF90CF90BF90AF900895F0
:10195000089597FD03C02A9A2B9805C02A982B9AC0
:1019600091958195910990914F01989F802D112417
:101970008093D000089520914F0197FD08C0289FC3
:10198000802D11248093CF00289A2998089591954D
:1019900081959109289F802D11248093CF0028984C
:1019A000299A0895CF92DF92EF92FF92809155018C
:1019B00090915601039709F07FC0C0900202D09029
:1019C0000302E0900402F090050223EC35EF48ECAE
:1019D0005FE3C701B6010E94821E87FF13C020E0AB
:1019E00030E0A901C701B6010E943220181654F454
:1019F00088ED9FEF9093A2018093A1011092A00126
:101A000010929F0122E538EB46E950E4C701B60188
:101A10000E9432201816A4F423EC35EF48EC50E471
:101A2000C701B6010E94821E181654F088ED9FEF80
:101A30009093A00180939F011092A2011092A101A6
:101A400023EC35EF48EC5FE3C701B6010E9432207A
:101A50001816A4F423EC35EF48E450E4C701B601AE
:101A60000E94821E87FF0AC088ED9FEF9093A0011D
:101A700080939F011092A2011092A10123EC35EFF7
:101A800048E450E4C701B6010E9432201816A4F4BD
:101A900022E538EB46E950E4C701B6010E94821EF8
:101AA00087FF0AC01092A00110929F0188ED9FEF5E
:101AB0009093A2018093A1018091550190915601CC
:101AC000049751F484E690E09093A2018093A101E1
:101AD0009093A00180939F0180919F019091A0011C
:101AE0000E94BB0C8091A1019091A2010E94A90CBF
:101AF0002FEF83EC99E0215080409040E1F700C047
:101B00000000FF90EF90DF90CF900895882311F0B0
:101B10002C9A08952C98089581110C944B014698A5
:101B2000089540E062E1882319F080E20C94931755
:101B300080E20C94C01781110C944D0142E062E1E7
:101B400080E20C94C0171F920F920FB60F921124CF
:101B50008F9381E080935E018F910F900FBE0F9065
:101B60001F9018951F920F920FB60F9211242F936A
:101B70003F934F935F936F937F938F939F93AF9315
:101B8000BF93EF93FF936AE086EE91E00E94530FBC
:101B90008091E601813A51F1843A09F459C0803AC2
:101BA00009F05CC080E00E94860D80E00E948C0DF0
:101BB0002FEF81EE94E0215080409040E1F700C08B
:101BC00000000E944B012FEF81EE94E021508040F5
:101BD0009040E1F700C0000080E00E948C0D81E0A1
:101BE00090E09093600180935F0138C083E090E0C3
:101BF000909356018093550142E062E180E20E9499
:101C0000ED17882371F080915F0190916001892B1D
:101C100041F02C9A80E00E948C0D1092600110928D
:101C20005F0142E062E180E20E94ED17811116C07F
:101C300080915F0190916001892B81F00E944B019E
:101C400080E00E94860D1092600110925F0106C034
:101C500081E090E09093560180935501FF91EF91C0
:101C6000BF91AF919F918F917F916F915F914F91B4
:101C70003F912F910F900FBE0F901F9018951F92BC
:101C80000F920FB60F9211248F939F9381E090E0F3
:101C900090930101809300019F918F910F900FBE4F
:101CA0000F901F901895589A599A5A9A8CE08093E1
:101CB000B800E9E6F0E080818062808380818F7ED9
:101CC0008083EA9A7894089584E88093BC00809198
:101CD000BC0087FFFCCF8091BB00089584E980930E
:101CE000BC00089520E030E08091BC0087FD06C074
:101CF0002F5F3F4F293E83E03807B1F781E0283E50
:101D0000334009F480E008958093BB0084E8809319
:101D1000BC000E94720E882321F08091B900887F58
:101D2000089580E008951F93CF93DF931F92CDB75E
:101D3000DEB7182F84EA8093BC0069830E94720E7C
:101D40006981811104C094E99093BC0014C0812F73
:101D5000880F662331F08F5F0E94840E883451F41F
:101D600004C00E94840E803229F484E98093BC0070
:101D700080E001C081E00F90DF91CF911F91089525
:101D8000CF93DF93C82FD62F60E00E94930E882355
:101D900091F08D2F0E94840E882369F084E980934E
:101DA000BC0061E08C2F0E94930E882321F0DF910C
:101DB000CF910C94640E80E0DF91CF910895CF9382
:101DC000DF93D62FC42F60E00E94930E811102C0D2
:101DD00080E00EC08D2F0E94840E8823C9F38C2FC3
:101DE0000E94840E8823A1F384E98093BC0081E0E3
:101DF000DF91CF910895CF93DF9300D01F92CDB79D
:101E0000DEB74B836A8389830E94530E94EA9093D2
:101E1000BC0089816A814B819091BC0097FFFCCF07
:101E200090E59093BB0094E89093BC009091BC0027
:101E300097FFFCCF9091B900987F903229F484E904
:101E40008093BC0080E029C091E09093BB0094E8AF
:101E50009093BC009091BC0097FFFCCF8093BB0097
:101E600084E88093BC008091BC0087FFFCCF609326
:101E7000BB0084E88093BC008091BC0087FFFCCF4E
:101E80004093BB0084E88093BC008091BC0087FF36
:101E9000FCCF84E98093BC0081E00F900F900F90FD
:101EA000DF91CF91089524EA2093BC002091BC00DB
:101EB00027FFFCCF21E52093BB0024E82093BC0042
:101EC0002091BC0027FFFCCF2091B900287F283447
:101ED000A9F024EC2093BC002091BC0027FFFCCF8C
:101EE0002091BB0026130AC0FC0120E030E07727D8
:101EF00067FD70956150710944EC0EC084E98093D0
:101F0000BC0080E008955091BC0057FFFCCF509179
:101F1000BB0051932F5F3F4F261737071CF44093A8
:101F2000BC00F1CF44E84093BC004091BC0047FFA7
:101F3000FCCF4091BB00FC01E20FF31F408384E91A
:101F40008093BC0081E00895F89494EA9093BC00DB
:101F50009091BC0097FFFCCF90E59093BB0094E874
:101F60009093BC009091BC0097FFFCCF9091B9007A
:101F7000987F903231F484E98093BC00789480E0BB
:101F8000089593E09093BB0094E89093BC009091E7
:101F9000BC0097FFFCCF8093BB0084E88093BC001B
:101FA0008091BC0087FFFCCFFB01552747FD509572
:101FB00024E8CF01861B970B8417950754F4819171
:101FC0008093BB002093BC008091BC0087FFFCCFB6
:101FD000F0CF84E98093BC00789481E0089520E0FC
:101FE00030E08091BC0087FD06C02F5F3F4F293E47
:101FF00083E03807B1F781E0283E334009F480E000
:1020000008958093BB0084E88093BC000E94EF0F8A
:10201000882319F08091B900887F0895CF93C82F45
:1020200084EA8093BC000E94EF0F882361F08C2F1C
:10203000880F0E940110803229F484E98093BC004B
:1020400080E001C081E0CF9108950E94530E88E5A1
:102050000E940E10811102C080E0089580E30E946A
:1020600001108823C9F381E00E9401108823A1F3A5
:1020700084E98093BC008FE39CE90197F1F700C0ED
:10208000000088E50E940E10882331F380E00E9452
:102090000110882309F380E00E9401108823E1F2F7
:1020A00080E00E9401108823B9F280E00E940110B4
:1020B000882391F280E00E940110882369F280E079
:1020C0000E940110882341F280E00E9401108823C1
:1020D00019F280E90E940110882309F4BDCF84E938
:1020E0008093BC008FE39CE90197F1F700C00000EA
:1020F00088E50E940E10882309F4AECF87E00E9485
:102100000110882309F4A8CF80E00E9401108823E1
:1021100009F4A2CF81E40E940110882309F49CCF26
:1021200084E98093BC008FE39CE90197F1F700C03C
:10213000000088E50E940E10882309F48DCF8AE103
:102140000E940110882309F487CF80E40E940110C7
:10215000882309F481CF80E00E940110882309F4CC
:102160007BCF84E98093BC008FE39CE90197F1F772
:1021700000C0000088E50E940E10882309F46CCF8F
:1021800083E30E940110882309F466CF83E00E9454
:102190000110882309F460CF84E98093BC008FE3A9
:1021A0009CE90197F1F700C0000088E50E940E103D
:1021B000882309F451CF80E30E940110882309F499
:1021C0004BCF88E00E940110882309F445CF84E9B1
:1021D0008093BC008FE39CE90197F1F700C00000F9
:1021E00081E00895CF93C82F84EA8093BC000E94B9
:1021F000EF0F882369F08C2F880F8F5F0E940110EA
:10220000883429F484E98093BC0080E001C081E037
:10221000CF910895EF92FF920F931F93CF93DF9387
:10222000CDB7DEB760970FB6F894DEBF0FBECDBF57
:102230007C018E010F5F1F4F80E1F80111928A959A
:10224000E9F788E50E940E10811102C080E05EC0AF
:1022500086E30E9401108823C9F384E98093BC00BF
:10226000F5E8FA95F1F7000088E50E94F21088235E
:1022700069F3F8019E01205F3F4F94EC9093BC00FE
:102280008091BC0087FFFCCF8091BB008193E21757
:10229000F307A1F784E88093BC008091BC0087FF1E
:1022A000FCCF8091BB00888B84E98093BC00DE0169
:1022B000149687016C91762F7073AD0142505109CD
:1022C000FA01808190E0F0E17F9F800D911D112443
:1022D000F80191838083762F707C4F5F5F4FFA0106
:1022E000808190E0F4E07F9F800D911D1124F80122
:1022F000938382836F70862F90E0958384831396F7
:102300000A5F1F4FA217B307A9F681E060960FB6C8
:10231000F894DEBF0FBECDBFDF91CF911F910F911B
:10232000FF90EF90089584E98093BC000895809118
:10233000E80080FFFCCF089581E08093D70080EA19
:102340008093D80082E189BD09B400FEFDCF80E909
:102350008093D8001092E0001092F3011092F001E7
:102360008CE08093E200789408958091F3010895C1
:102370009FB7F8948091F301882339F083E080932C
:10238000E9008091E80085FD03C09FBF8FEF0895AD
:102390008091F1002091E80025FD03C02BE62093F9
:1023A000E8009FBF08959FB7F8948091F3018823B8
:1023B00031F083E08093E9008091F20001C080E079
:1023C0009FBF08958091F301882371F08FB7F8942F
:1023D00093E09093E9002BE69091E80095FF03C00D
:1023E0002093E800F9CF8FBF08959091F3019923CE
:1023F00071F09FB7F89424E02093E9002091F10157
:10240000222349F02091E80025FD03C09FBF8FEFF4
:1024100008951092F1012091E400275E34E040918C
:10242000E80045FD12C09FBF9091E400921304C0E4
:1024300081E08093F101EBCF9091F301992339F37F
:102440009FB7F8943093E900EACF8093F100809130
:10245000E80085FD03C08AE38093E80085E080936F
:10246000F2019FBF80E008959091F3019923D1F08C
:102470009FB7F89424E02093E9002091E80025FD1F
:1024800002C09FBF0FC08093F1008091E80085FDDE
:1024900003C08AE38093E80085E08093F2019FBF48
:1024A00080E008958FEF0895EF92FF921F93CF93EE
:1024B000DF937C01CB012091F301222371F0AFB7B0
:1024C000F89424E02093E9002091F101222349F0BF
:1024D0002091E80025FD03C0AFBF8FEF42C21092EC
:1024E000F101B4E0C0E4DAE315E0009709F437C283
:1024F0002091E400275E3091E80035FD12C0AFBFA7
:102500003091E400321304C081E08093F101E5CF03
:102510003091F301332309F3AFB7F894B093E90096
:10252000EACF2091F2004C2F421B242F30E082177B
:10253000930708F4482F841B910950E0413451055A
:1025400008F0FDC1405A5F4FFA010C941121F701C8
:1025500020812093F10097012F5F3F4F7901F70110
:1025600020812093F10097012F5F3F4F7901F70100
:1025700020812093F10097012F5F3F4F7901F701F0
:1025800020812093F10097012F5F3F4F7901F701E0
:1025900020812093F10097012F5F3F4F7901F701D0
:1025A00020812093F10097012F5F3F4F7901F701C0
:1025B00020812093F10097012F5F3F4F7901F701B0
:1025C00020812093F10097012F5F3F4F7901F701A0
:1025D00020812093F10097012F5F3F4F7901F70190
:1025E00020812093F10097012F5F3F4F7901F70180
:1025F00020812093F10097012F5F3F4F7901F70170
:1026000020812093F10097012F5F3F4F7901F7015F
:1026100020812093F10097012F5F3F4F7901F7014F
:1026200020812093F10097012F5F3F4F7901F7013F
:1026300020812093F10097012F5F3F4F7901F7012F
:1026400020812093F10097012F5F3F4F7901F7011F
:1026500020812093F10097012F5F3F4F7901F7010F
:1026600020812093F10097012F5F3F4F7901F701FF
:1026700020812093F10097012F5F3F4F7901F701EF
:1026800020812093F10097012F5F3F4F7901F701DF
:1026900020812093F10097012F5F3F4F7901F701CF
:1026A00020812093F10097012F5F3F4F7901F701BF
:1026B00020812093F10097012F5F3F4F7901F701AF
:1026C00020812093F10097012F5F3F4F7901F7019F
:1026D00020812093F10097012F5F3F4F7901F7018F
:1026E00020812093F10097012F5F3F4F7901F7017F
:1026F00020812093F10097012F5F3F4F7901F7016F
:1027000020812093F10097012F5F3F4F7901F7015E
:1027100020812093F10097012F5F3F4F7901F7014E
:1027200020812093F10097012F5F3F4F7901F7013E
:1027300020812093F10097012F5F3F4F7901F7012E
:1027400020812093F10097012F5F3F4F7901F7011E
:1027500020812093F10097012F5F3F4F7901F7010E
:1027600020812093F10097012F5F3F4F7901F701FE
:1027700020812093F10097012F5F3F4F7901F701EE
:1027800020812093F10097012F5F3F4F7901F701DE
:1027900020812093F10097012F5F3F4F7901F701CE
:1027A00020812093F10097012F5F3F4F7901F701BE
:1027B00020812093F10097012F5F3F4F7901F701AE
:1027C00020812093F10097012F5F3F4F7901F7019E
:1027D00020812093F10097012F5F3F4F7901F7018E
:1027E00020812093F10097012F5F3F4F7901F7017E
:1027F00020812093F10097012F5F3F4F7901F7016E
:1028000020812093F10097012F5F3F4F7901F7015D
:1028100020812093F10097012F5F3F4F7901F7014D
:1028200020812093F10097012F5F3F4F7901F7013D
:1028300020812093F10097012F5F3F4F7901F7012D
:1028400020812093F10097012F5F3F4F7901F7011D
:1028500020812093F10097012F5F3F4F7901F7010D
:1028600020812093F10097012F5F3F4F7901F701FD
:1028700020812093F10097012F5F3F4F7901F701ED
:1028800020812093F10097012F5F3F4F7901F701DD
:1028900020812093F10097012F5F3F4F7901F701CD
:1028A00020812093F10097012F5F3F4F7901F701BD
:1028B00020812093F10097012F5F3F4F7901F701AD
:1028C00020812093F10097012F5F3F4F7901F7019D
:1028D00020812093F10097012F5F3F4F7901F7018D
:1028E00020812093F10097012F5F3F4F7901F7017D
:1028F00020812093F10097012F5F3F4F7901F7016D
:1029000020812093F10097012F5F3F4F7901F7015C
:1029100020812093F10097012F5F3F4F7901F7014C
:1029200020812093F10097012F5F3F4F7901F7013C
:1029300020812093F10097012F5F3F4F7901F7012C
:1029400020812093F10097012F5F3F4F7901209163
:10295000E80025FFD093E8001093F201C6CDAFBF89
:1029600080E0DF91CF911F91FF90EF9008958FB796
:10297000F8949091F201992341F094E09093E9004A
:102980009AE39093E8001092F2018FBF089580912E
:102990005B01089580915C01089580915D01089527
:1029A0008091F00108959FB7F8942091F3012223BC
:1029B00039F022E02093E9003091E80035FD03C0B2
:1029C0009FBF8FEF089531EA3093F10030E23093EA
:1029D000F1001092F1001092F1001092F1001092AB
:1029E000F1002093F1001092F1008093F100109219
:1029F000F1008AE38093E8009FBF80E008951F9272
:102A00000F920FB60F9211248F939F938091E10044
:102A10001092E10083FF11C01092E90091E09093C1
:102A2000EB001092EC0092E19093ED0098E090930F
:102A3000F0001092F3011092F00182FF13C0809118
:102A4000F301882379F08091F201882359F08150B5
:102A50008093F201811106C084E08093E9008AE34B
:102A60008093E8009F918F910F900FBE0F901F9061
:102A700018951F920F920FB60F921124EF92FF92AA
:102A80000F931F932F933F934F935F936F937F9376
:102A90008F939F93AF93BF93EF93FF93CF93DF9366
:102AA0001F92CDB7DEB71092E9008091E80083FF56
:102AB00014C19091F1008091F1003091F1002091CA
:102AC000F100E32EF12CF22A0091F1002091F100A7
:102AD00010E0122B2091F1006091F10032EF309361
:102AE000E800863009F046C036E084EA91E0FC0157
:102AF000459154914E155F0539F4FC01329645918C
:102B000054914017510721F00796315081F7E5C0E5
:102B1000FC01349645915491FC013696849130E045
:102B2000362B2F3F310519F010F02FEF30E028172A
:102B300008F4822F3EEF9091E800292F2570D9F3F9
:102B400092FDCEC0982F813108F090E1FA01292F33
:102B5000222331F064916093F10021503196F8CF37
:102B6000490F511D891B3093E8008111E4CF90314A
:102B700011F3B6C0853051F48EEF8093E8000E94C7
:102B800097118E2D80688093E300AAC0893059F593
:102B9000911180C0E092F3011092F0011092F201C5
:102BA0008EEF8093E80041E08DE492E04093E900ED
:102BB0009C012F5F3F4FFC0154915093EB00552334
:102BC00059F0F90124912093EC009C012D5F3F4FB7
:102BD000319684918093ED004F5F453011F0C9012B
:102BE000E5CF8EE175C0883051F4903809F052C0BD
:102BF0000E9497118091F3018093F10047C08132C8
:102C000079F4913A09F046C00E949711E7E5F1E0A6
:102C100081918093F10081E0EE35F807C9F736C065
:102C2000803299F49132B1F58091E80082FFFCCFB7
:102C3000E7E5F1E08091F100819381E0EE35F8075E
:102C4000C9F78BEF8093E80021C0823241F49132C2
:102C500009F043C0E092F0010E94971117C0811162
:102C600019C099830E9497119981923851F4009369
:102C7000E9008091EB0085FB882780F91092E9003C
:102C800001C080E08093F1001092F1008EEF8093FC
:102C9000E80026C0282F2D7F2130F9F49230E9F486
:102CA000EF28D9F40F779FEF900F9430B0F49EEF98
:102CB0009093E8000093E900833079F089E18093F4
:102CC000EB0081E090E0002E01C0880F0A94EAF743
:102CD0008093EA001092EA0003C081E28093EB0047
:102CE0000F90DF91CF91FF91EF91BF91AF919F91A5
:102CF0008F917F916F915F914F913F912F911F9194
:102D00000F91FF90EF900F900FBE0F901F901895AE
:102D10001F93CF93DF93EC01FE011491112351F027
:102D20001A3019F48DE00E94F511812F0E94F511DF
:102D30002196F2CFDF91CF911F9108958A3010F440
:102D400090E301C097E3890F0C94F511CF93C82F3E
:102D500082958F700E949E168C2F8F70CF910C944D
:102D60009E16CF93C82F892F0E94A6168C2FCF9125
:102D70000C94A6160C94A616EF92FF920F931F9335
:102D8000CF93DF93CDB7DEB727970FB6F894DEBFAA
:102D90000FBECDBF8E010F5F1F4F27E0F8011192CC
:102DA0002A95E9F74AE0B8010E9417217E01F8E070
:102DB000EF0EF11CF80181918F0181110E94F51134
:102DC0000E151F05B9F727960FB6F894DEBF0FBE94
:102DD000CDBFDF91CF911F910F91FF90EF9008959C
:102DE000EF92FF920F931F93CF93DF9300D000D009
:102DF00000D0CDB7DEB78E010F5F1F4F26E0F80180
:102E000011922A95E9F74AE0B8010E9453217E0108
:102E1000F6E0EF0EF11CF80181918F0181110E9403
:102E2000F5110E151F05B9F726960FB6F894DEBFFB
:102E30000FBECDBFDF91CF911F910F91FF90EF900B
:102E40000895EF92FF920F931F93CF93DF93CDB727
:102E5000DEB72B970FB6F894DEBF0FBECDBF8E0145
:102E60000F5F1F4F2BE0F80111922A95E9F72AE036
:102E7000A8010E9422217E01FCE0EF0EF11CF80166
:102E800081918F0181110E94F5110E151F05B9F76F
:102E90002B960FB6F894DEBF0FBECDBFDF91CF915A
:102EA0001F910F91FF90EF900895EF92FF920F9373
:102EB0001F93CF93DF93CDB7DEB72B970FB6F89460
:102EC000DEBF0FBECDBF8E010F5F1F4F2BE0F8019D
:102ED00011922A95E9F72AE0A8010E9431217E018A
:102EE000FBE0EF0EF11CF80181918F0181110E942E
:102EF000F5110E151F05B9F72B960FB6F894DEBF26
:102F00000FBECDBFDF91CF911F910F91FF90EF903A
:102F1000089548E365E00E94DF0E91E0811101C051
:102F200090E0892F08951F93CF93DF93D82FC62F5A
:102F3000142F0E94C00EC23058F4E1E0F0E0012EE0
:102F400001C0EE0F0A94EAF74E2F409548230DC0BA
:102F50009EEE9C0F923078F421E030E0012E01C00B
:102F6000220F0A94EAF7482F422B6C2F8D2F0E94D4
:102F7000DF0E81E001C080E0DF91CF911F910895C5
:102F80001F93CF93DF93D82FC62F142F0E94C00E0C
:102F90009EEE9C0F923058F4E1E0F0E0012E01C06B
:102FA000EE0F0A94EAF74E2F409548230BC0C2302B
:102FB00078F421E030E0012E01C0220F0A94EAF7F4
:102FC000482F422B6C2F8D2F0E94DF0E81E001C015
:102FD00080E0DF91CF911F910895CF93DF931F92EF
:102FE000CDB7DEB749830E94C00E90E0498102C090
:102FF000959587954A95E2F781700F90DF91CF9173
:103000000895CF93DF9300D000D0CDB7DEB70E94F4
:10301000520108E210E07FE0272E312C0E94B5110A
:10302000882309F48DC08091E6010E94F51182EA9F
:1030300091E00E94881620E030E04EEF52E460916B
:1030400002027091030280910402909105020E9495
:103050003D202AE939E949EC50E40E94891E0E948A
:10306000F11ECB010E94BC1680EA91E00E948816F6
:103070006091F4017091F5018091F6019091F70152
:103080000E94F11ECB010E94BC168EE991E00E94C5
:10309000881660911E0270911F028091200290910B
:1030A00021020E94F11ECB010E94BC1680912202D7
:1030B000909123020E94BC168CE991E00E94881630
:1030C00080910C0290910D020E94BC168AE991E059
:1030D0000E94881680919F019091A0010E94BC16C9
:1030E00088E991E00E9488168091A1019091A20147
:1030F0000E94BC1686E991E00E9488168091080221
:10310000909109020E94BC1684E991E00E94881601
:1031100080912402909125020E94BC1682E991E0E0
:103120000E94881680E991E00E94881680915501DE
:10313000909156010E94BC168EE891E00E9488167C
:103140008091000190910101892B31F00E94390892
:10315000109201011092000180915E01882309F410
:1031600063C180910802909109020196909309022F
:10317000809308020997A1F58091AD019091AE016D
:10318000A091AF01B091B0018093FE019093FF0137
:10319000A0930002B09301028091B1019091B2011D
:1031A000A091B301B091B40180932A0290932B02B5
:1031B000A0932C02B0932D028091B5019091B6019D
:1031C000A091B701B091B80180931A0290931B02AD
:1031D000A0931C02B0931D021092090210920802E3
:1031E00080910802909109020897C9F52091B101D8
:1031F0003091B2014091B3015091B40160912A0223
:1032000070912B0280912C0290912D020E94BB1D87
:103210000E94F11ECB010296059708F52091B50199
:103220003091B6014091B7015091B80160911A02F6
:1032300070911B0280911C0290911D020E94BB1D87
:103240000E94F11ECB010296059748F4809124025A
:1032500090912502019690932502809324028091FB
:10326000240290912502099734F00E94D20C10920A
:103270002502109224028BEC91E00E940A118BEC43
:1032800091E00E94AF02E0900601F090070180906B
:10329000AD019090AE01A090AF01B090B001E114EB
:1032A000F10449F08092120290921302A09214024B
:1032B000B09215022CC020E030E0A901C501B40194
:1032C0000E94322018169CF423EC35EF48E450E4B9
:1032D000C501B4010E94821E87FF09C023EC35EFAF
:1032E00048E450E4C501B4010E94BC1D08C023ECB1
:1032F00035EF48E450E4C501B4010E94BB1D609362
:10330000120270931302809314029093150226E622
:1033100036E646E65FE36091020270910302809117
:103320000402909105020E943D204B015C012DECAE
:103330003CEC4CEC5DE360911202709113028091C1
:103340001402909115020E943D209B01AC01C50121
:10335000B4010E94BC1D609302027093030280932B
:103360000402909305028090B1019090B201A09068
:10337000B301B090B401B701882777FD8095982FED
:103380000E94241F2B013C019B01AC01C501B4012B
:103390000E943D206093F4017093F5018093F60143
:1033A0009093F701C090B501D090B601E090B701BD
:1033B000F090B801A3019201C701B6010E943D201F
:1033C00060931E0270931F0280932002909321024B
:1033D000C501B4010E94F11E6093E301C701B6016B
:1033E0000E94F11E6093E40120E030E04EEF52E4D1
:1033F0006091AD017091AE018091AF019091B001EB
:103400000E943D202AE939E949EC50E40E94891ED6
:103410000E94F11E6093E50143E063EE71E088E1F4
:103420000E94A40F10925E01809155019091560167
:103430008430910509F47EC034F58130910539F16D
:10344000039709F091C380E00E94910D0E944D0105
:103450000E94880B80916701909168019093A00170
:1034600080939F0180916501909166019093A201E4
:103470008093A1010E94A90C80919F019091A001CD
:103480000E94BB0CCBCD08970CF4C8CD6DC380E077
:103490000E94910D0E944D014B9B21C0809108011B
:1034A0008823E9F02C9A2FEF83EC99E0215080409B
:1034B0009040E1F700C0000080E00E94860D80E0AF
:1034C0000E948C0D8FEF9FEF909307018093060170
:1034D00081E090E0909362018093610124C04B9958
:1034E0009DCD80910801882309F498CD0E944B015D
:1034F000AFEFB3ECE9E0A150B040E040E1F700C02D
:10350000000080E00E948C0D80E00E94860D81E02A
:1035100090E0909307018093060122E030E0309321
:1035200062012093610110920801909360018093E1
:103530005F0174CD40E062E180E20E94931780E079
:103540000E949B0D80911E0290911F02A09120026B
:10355000B091210289839A83AB83BC8320E030E061
:103560004CE052E4BC01CD010E94821E87FFB5C031
:1035700020E030E0A90169817A818B819C810E94E1
:10358000322018160CF0A9C0C0900202D09003029D
:10359000E0900402F090050223EC35EF48E450E49B
:1035A000C701B6010E9432201816D4F423EC35EF7F
:1035B00048EC50E4C701B6010E94821E87FF10C08C
:1035C00081E090E090930D0280930C021093A00193
:1035D00000939F01A4E6B0E0B093A201A093A101E3
:1035E0004090020150900301609004017090050129
:1035F000A301920163EC75EF88EC9FE30E94BB1D71
:103600004B015C019B01AC01C701B6010E94821E07
:1036100087FF19C020E030E0A901C701B6010E9470
:103620003220181684F482E090E090930D0280938B
:103630000C02E4E6F0E0F093A001E0939F01109308
:10364000A2010093A10123EC35EF48EC5FE3C30135
:10365000B2010E94BC1D2B013C019B01AC01C701C2
:10366000B6010E9432201816D4F423EC35EF48E45A
:1036700050E4C701B6010E94821E87FF10C083E09C
:1036800090E090930D0280930C021093A0010093A0
:103690009F01A4E6B0E0B093A201A093A101A30111
:1036A0009201C701B6010E94821E87FF16C0A501C4
:1036B0009401C701B6010E943220181674F4E4E6A2
:1036C000F0E0F093A001E0939F01F093A201E0935A
:1036D000A10130920D0220920C0220E030E0A901FD
:1036E00069817A818B819C810E94821E87FFB6C08E
:1036F00020E030E04CE052EC69817A818B819C8142
:103700000E94322018160CF0A9C0C0900202D0907E
:103710000302E0900402F090050223EC35EF48E448
:1037200050E4C701B6010E9432201816D4F423ECED
:1037300035EF48EC50E4C701B6010E94821E87FFB6
:1037400010C084E690E09093A00180939F011093B5
:10375000A2010093A10184E090E090930D02809378
:103760000C0240900201509003016090040170909F
:103770000501A301920163EC75EF88EC9FE30E94C1
:10378000BB1D4B015C019B01AC01C701B6010E944E
:10379000821E87FF19C020E030E0A901C701B601F1
:1037A0000E943220181684F4A4E6B0E0B093A00181
:1037B000A0939F011093A2010093A10185E090E0E6
:1037C00090930D0280930C0223EC35EF48EC5FE3FD
:1037D000C301B2010E94BC1D2B013C019B01AC0145
:1037E000C701B6010E9432201816D4F423EC35EF3D
:1037F00048E450E4C701B6010E94821E87FF10C052
:103800001093A00100939F01E4E6F0E0F093A20181
:10381000E093A10186E090E090930D0280930C026A
:10382000A3019201C701B6010E94821E87FF16C044
:10383000A5019401C701B6010E943220181674F444
:10384000A4E6B0E0B093A001A0939F01B093A201C1
:10385000A093A10130920D0220920C0220E030E0F2
:103860004CE052EC69817A818B819C810E94821E9E
:1038700087FFABC0C0900202D0900302E090040228
:10388000F090050223EC35EF48E450E4C701B6019F
:103890000E9432201816D4F422E538EB46E950E4B1
:1038A000C701B6010E94821E87FF10C01093A001BD
:1038B00000939F01E4E6F0E0F093A201E093A10100
:1038C00087E090E090930D0280930C0280900201BB
:1038D00090900301A0900401B0900501A50194010E
:1038E00063EC75EF88EC9FE30E94BB1D9B01AC016C
:1038F000C701B6010E94821E87FF19C020E030E098
:10390000A901C701B6010E943220181684F4A4E66A
:10391000B0E0B093A001A0939F011092A201109279
:10392000A101E8E0F0E0F0930D02E0930C0222E543
:1039300038EB46E950E4C701B6010E943220181660
:10394000D4F423EC35EF48EC50E4C701B6010E94F3
:10395000821E87FF10C01092A00110929F0184E682
:1039600090E09093A2018093A101A9E0B0E0B09310
:103970000D02A0930C0223EC35EF48EC5FE3C50188
:10398000B4010E94BC1D9B01AC01C701B6010E949D
:1039900032201816D4F423EC35EF48E450E4C70184
:1039A000B6010E94821E87FF10C01093A0010093F1
:1039B0009F01E4E6F0E0F093A201E093A1018AE028
:1039C00090E090930D0280930C0220E030E04CE0F8
:1039D00052E469817A818B819C810E943220181681
:1039E0000CF0ABC0C0900202D0900302E090040241
:1039F000F090050223EC35EF48E450E4C701B6012E
:103A00000E9432201816D4F422E538EB46E950E43F
:103A1000C701B6010E94821E87FF10C0A4E6B0E075
:103A2000B093A001A0939F011092A2011092A10156
:103A3000EBE0F0E0F0930D02E0930C0280900201C5
:103A400090900301A0900401B0900501A50194019C
:103A500063EC75EF88EC9FE30E94BB1D9B01AC01FA
:103A6000C701B6010E94821E87FF19C020E030E026
:103A7000A901C701B6010E943220181684F41093E0
:103A8000A00100939F0184E690E09093A2018093AF
:103A9000A101ACE0B0E0B0930D02A0930C0222E5CE
:103AA00038EB46E950E4C701B6010E9432201816EF
:103AB000D4F423EC35EF48EC50E4C701B6010E9482
:103AC000821E87FF10C0E4E6F0E0F093A001E093CF
:103AD0009F011093A2010093A1018DE090E09093CB
:103AE0000D0280930C0223EC35EF48EC5FE3C50137
:103AF000B4010E94BC1D9B01AC01C701B6010E942C
:103B000032201816D4F423EC35EF48E450E4C70112
:103B1000B6010E94821E87FF10C01092A001109271
:103B20009F01A4E6B0E0B093A201A093A101EEE052
:103B3000F0E0F0930D02E0930C0280919F019091D0
:103B4000A0010E94BB0C8091A1019091A2010E9452
:103B5000A90C8091180290911902853893400CF4B9
:103B60005DCA83E090E002C081E090E0909356014E
:103B70008093550153CA5058BB27AA270ED027C29D
:103B8000F0D130F0F5D120F031F49F3F11F41EF464
:103B9000C0C10EF4E095E7FBB6C1E92F3AD280F33D
:103BA000BA17620773078407950718F071F49EF53A
:103BB00052C20EF4E0950B2EBA2FA02D0B01B901C5
:103BC00090010C01CA01A0011124FF27591B99F093
:103BD000593F50F4503E68F11A16F040A22F232F9F
:103BE000342F4427585FF3CF469537952795A795EF
:103BF000F0405395C9F77EF41F16BA0B620B730B96
:103C0000840BBAF09150A1F0FF0FBB1F661F771F06
:103C1000881FC2F70EC0BA0F621F731F841F48F4BB
:103C2000879577956795B795F7959E3F08F0B3CF41
:103C30009395880F08F09927EE0F9795879508952B
:103C400090D158F080E891E009F49EEF91D128F0EE
:103C500040E851E059F45EEF09C05BC1FCC1E92FB7
:103C6000E078D7D168F3092E052AC1F32617370764
:103C70004807590738F00E2E07F8E02569F0E025CF
:103C8000E0640AC0EF6307F8009407FADB01B901AA
:103C90009D01DC01CA01AD01EF934AD098D10AD051
:103CA0005F91552331F02BED3FE049E450FD49ECA5
:103CB00063CF0895DF93DD27B92FBF7740E85FE337
:103CC0001616170648075B0710F4D92FCFD19F931C
:103CD0008F937F936F937CD2E2E4F1E01DD177D193
:103CE0002F913F914F915F91D4D1DD2349F09058AE
:103CF000A2EA2AED3FE049EC5FE3D0785D274DDF93
:103D0000DF9165C1DCD008F481E0089539D1E395F5
:103D10006FC10CD05CC12CD140F023D130F021F424
:103D20005F3F19F0F0C0511197C1F3C072D198F301
:103D30009923C9F35523B1F3951B550BBB27AA272C
:103D400062177307840738F09F5F5F4F220F331F9E
:103D5000441FAA1FA9F333D00E2E3AF0E0E830D06A
:103D600091505040E695001CCAF729D0FE2F27D06D
:103D7000660F771F881FBB1F261737074807AB073B
:103D8000B0E809F0BB0B802DBF01FF2793585F4FB0
:103D90002AF09E3F510568F0B6C05EC15F3FECF36C
:103DA000983EDCF3869577956795B795F7959F5F75
:103DB000C9F7880F911D9695879597F90895E1E0C9
:103DC000660F771F881FBB1F621773078407BA0728
:103DD00020F0621B730B840BBA0BEE1F88F7E09583
:103DE000089504D06894B11137C108951AD188F0AC
:103DF0009F5790F0B92F9927B751A0F0D1F0660FD7
:103E0000771F881F991F1AF0BA95C9F712C0B130F1
:103E100081F021D1B1E008951EC1672F782F882746
:103E2000B85F39F0B93FCCF3869577956795B39530
:103E3000D9F73EF490958095709561957F4F8F4F9F
:103E40009F4F0895E89409C097FB3EF490958095A4
:103E5000709561957F4F8F4F9F4F9923A9F0F92F50
:103E600096E9BB279395F695879577956795B795CE
:103E7000F111F8CFFAF4BB0F11F460FF1BC06F5FB4
:103E80007F4F8F4F9F4F16C0882311F096E911C0C6
:103E9000772321F09EE8872F762F05C0662371F0E7
:103EA00096E8862F70E060E02AF09A95660F771FFB
:103EB000881FDAF7880F9695879597F90895990FD7
:103EC0000008550FAA0BE0E8FEEF16161706E807E4
:103ED000F907C0F012161306E407F50798F0621B05
:103EE000730B840B950B39F40A2661F0232B242BDA
:103EF000252B21F408950A2609F4A140A6958FEFF9
:103F0000811D811D089597F99F6780E870E060E04A
:103F100008959FEF80EC0895DF93CF931F930F9345
:103F2000FF92EF92DF927B018C01689405C0DA2E3C
:103F3000EF01AFD0FE01E894A5912591359145910F
:103F40005591AEF3EF0129DEFE019701A801DA9445
:103F500079F7DF90EF90FF900F911F91CF91DF9154
:103F6000089500240A9416161706180609060895DF
:103F700000240A9412161306140605060895C9CFE4
:103F800050D0E8F3E894E0E0BB279F57F0F02AED2B
:103F90003FE049EC06C0EE0FBB0F661F771F881F7E
:103FA00028F0B23A62077307840728F0B25A620B0E
:103FB000730B840BE3959A9572F7803830F49A95D9
:103FC000BB0F661F771F881FD2F7904806C1092EC6
:103FD0000394000C11F4882352F0BB0F40F4BF2B64
:103FE00011F460FF04C06F5F7F4F8F4F9F4F0895A4
:103FF000EF93E0FF06C0A2EA2AED3FE049EC5FEB59
:10400000CCDDE5DF0F90039401FC9058EFE6F1E082
:10401000F7C057FD9058440F551F59F05F3F71F09E
:104020004795880F97FB991F61F09F3F79F087951F
:104030000895121613061406551FF2CF4695F1DFA8
:1040400008C0161617061806991FF1CF8695710538
:10405000610508940895E894BB2766277727CB016C
:1040600097F908952CDF08F48FEF08959B01AC01B8
:1040700060E070E080E89FE34CCE0BD0A8CF71DF0A
:1040800028F076DF18F0952309F03DCF42CF1124B8
:10409000E3CFBFDFA0F3959FD1F3950F50E0551FFD
:1040A000629FF001729FBB27F00DB11D639FAA278D
:1040B000F00DB11DAA1F649F6627B00DA11D661FDC
:1040C000829F2227B00DA11D621F739FB00DA11DFD
:1040D000621F839FA00D611D221F749F3327A00DB7
:1040E000611D231F849F600D211D822F762F6A2F53
:1040F00011249F5750408AF0E1F088234AF0EE0FD8
:10410000FF1FBB1F661F771F881F91505040A9F7E4
:104110009E3F510570F0F7CE9FCF5F3FECF3983E86
:10412000DCF3869577956795B795F795E7959F5F4B
:10413000C1F7FE2B880F911D9695879597F90895E5
:104140009F931EDF0F9007FCEE5F52CF11F40EF429
:10415000E0CE41C066DFD0F39923D9F3CEF39F5769
:10416000550B87FF46D00024A0E640EA9001805816
:104170005695979528F4805C660F771F881F20F06E
:1041800026173707480730F4621B730B840B20296E
:1041900031294A2BA69517940794202531254A27C3
:1041A00058F7660F771F881F20F026173707480734
:1041B00030F4620B730B840B200D311D411DA09553
:1041C00081F7B901842F9158880F969587950895A6
:1041D0009B01AC0152CF9F3F31F0915020F4879565
:1041E00077956795B795880F911D9695879597F95F
:1041F000089591505040660F771F881FD2F7089599
:104200009F938F937F936F93FF93EF939B01AC01E9
:1042100034DFEF91FF9180DE2F913F914F915F91BD
:104220002CCFEE0FFF1F0590F491E02D0994BB27D2
:104230004A3031F4992322F4BDE2909581959F4F45
:104240000C945421BB272A3051F4992342F4BDE247
:1042500090958095709561957F4F8F4F9F4F0C94EF
:104260003221BB27FA01A62F62177105810591053E
:10427000330B30FB66F0AA27660F771F881F991F44
:10428000AA1FA21710F0A21B63953850A9F7A05DD2
:10429000AA3308F0A95DA19336F7B111B19310824A
:1042A000CA010C946D21BB27FB015527AA27880F53
:1042B000991FAA1FA41710F0A41B83955051B9F79A
:1042C000A05DAA3308F0A95DA193009779F7B11119
:1042D000B1931192CB010C946D21DC01FC01672F8D
:1042E00071917723E1F7329704C07C916D937083CD
:0E42F0006291AE17BF07C8F30895F894FFCF90
:1042FE0001009A99193EFFFF010000803F000080E7
:10430E003F0000803F0000803F0000803F000080A3
:10431E003F0000803F0000803F00003E430000AFA2
:10432E00430000AF4300008C430000C84300007AF6
:10433E00430000BE4300003E438200C3F5C83F0267
:0E434E00000AD7A33E010000E10000000008B5
:00000001FF
