:100000000C9421010C943E010C943E010C94CD09FA
:100010000C943E010C943E010C943E010C943E0164
:100020000C943E010C943E010C9436140C94701404
:100030000C943E010C943E010C943E010C943E0144
:100040000C943E010C943E010C943E010C943E0134
:100050000C9469090C943E010C943E010C943E01F1
:100060000C943E010C943E010C943E010C943E0114
:100070000C943E010C940D0A0C943E010C943E012C
:100080000C943E010C943E010C943E010C943E01F4
:100090000C943E010C943E010C943E010C943E01E4
:1000A0000C943E010C943E010C943E012D08500826
:1000B00071089208B308D408F50816093B09DE1345
:1000C000D613CE13C613BE13B613AE13A6139E13C8
:1000D00096138E1386137E1376136E1366135E13B8
:1000E00056134E1346133E1336132E1326131E13A8
:1000F00016130E130613FE12F612EE12E612DE129D
:10010000D612CE12C612BE12B612AE12A6129E128F
:1001100096128E1286127E1276126E1266125E127F
:1001200056124E1246123E1236122E1226121E126F
:1001300016120E120612FE11F611EE11E611DE1164
:10014000084AD73B3BCE016E84BCBFFDC12F3D6C3E
:1001500074319ABD56833DDA3D00C77F11BED9E4A4
:10016000BB4C3E916BAAAABE000000803F05A84C84
:10017000CDB2D44EB93836A9020C50B99186880850
:100180003CA6AAAA2ABE000000803F000A00000187
:10019000000025021200020000E2014300030000FB
:1001A000DE010401030904CA011202030904C201A9
:1001B0000603030904B801080803340031003000C5
:1001C000000006034D003200000012034A002E001A
:1001D00020004600690065006E0065000000040311
:1001E000090409024300020100C0320904000001B1
:1001F000020201000524001001052401010104246C
:1002000002060524060001070582031000400904C8
:100210000100020A00000007050302400000070574
:1002200084024000001201000202000010C0167A91
:10023000040001010203010001C1120180360181A5
:10024000360011241FBECFEFDAE0DEBFCDBF11E0D4
:10025000A0E0B1E0ECE5FAE302C005900D92A23314
:10026000B107D9F722E0A2E3B1E001C01D92A030AE
:10027000B207E1F70E9438170C942C1D0C94000073
:100280002898299A91958195910990912401989F98
:10029000802D11248093D00008951816190654F467
:1002A000289A299890912401989F802D1124809359
:1002B000D00008950C9440012091240118161906CD
:1002C00044F4289F802D11248093CF002A9A2B98E4
:1002D0000895919581959109289F802D11248093EF
:1002E000CF002A982B9A0895CF93DF93E1E6F0E0B0
:1002F00080E88083108285BF85BF0E948A0D0E949E
:10030000D310209A219A229A239A4AE069E181E047
:100310000E94320E0E945C0FE1E8F0E080818B7F4A
:1003200080838081826080838081816080838081FE
:1003300080618083808188608083E0E8F0E0808154
:1003400082608083808181608083EFE6F0E080813D
:100350008160808384EC99E0909389008093880089
:1003600078941092CF001092D00088EC8093D10046
:100370003F9A269AE1ECF0E080818860808380815A
:100380008460808380818D7F808380818E7F808365
:10039000E3ECF0E080818D7F808380818E7F80839D
:1003A000E0ECF0E0808182608083808180688083DF
:1003B00080818F7B80838081816080838081806267
:1003C000808380818F7E8083ECE7F0E080818F776F
:1003D0008083808180648083AAE7B0E08C91846010
:1003E0008C938C9182608C938C9181608C93CEE7FE
:1003F000D0E0888181608883888182608883888159
:100400008061888388818062888388818064888312
:10041000888180688883CDE7D0E088818160888387
:10042000CBE7D0E088818F7D888380818B7F80833C
:1004300080818D7F808380818E7F80838C91886096
:100440008C9388818F7D888380818B7F808380815E
:100450008D7F808380818E7F80838C9180688C9358
:100460008C9180648C9340E060E080E20E94CA1628
:1004700041E060E080E20E94CA1642E060E080E273
:100480000E94CA1643E060E080E20E94CA1644E07F
:1004900060E080E20E94CA1645E060E080E20E94CF
:1004A000CA1646E060E080E20E94CA1647E060E0BB
:1004B00080E20E94CA1640E061E080E2DF91CF91C5
:1004C0000C94CA162F923F924F925F926F927F9236
:1004D0008F929F92AF92BF92CF92DF92EF92FF9254
:1004E0000F931F93CF93DF93CDB7DEB7C458D109D5
:1004F0000FB6F894DEBF0FBECDBF2C01FE013196C2
:1005000080E4DF011D928A95E9F7BE016F5B7F4FA2
:1005100084E2DB011D928A95E9F7D20120E030E008
:1005200080E090E04D915D914F3F534009F401967A
:100530002F5F3F4F2B303105A9F78230910509F429
:1005400071C234F06E9A76986A9A729A80E0F4C416
:100550006E9A769A6A9A7298E796FFAFEEAFE7972F
:10056000A7965FAE4EAEA797612C712CEB961FAE8F
:100570001EAEEB9700E010E0212C312CA796AEAD1B
:10058000BFADA7976D917C9180E090E00E94D11A59
:10059000C358DF4F688379838A839B83CD57D040CC
:1005A000A796EEADFFADA7976281738180E090E0E2
:1005B0000E94D11ACF57DF4F688379838A839B8348
:1005C000C158D040AB965FAE4EAEAB97AF961FAE64
:1005D0001EAEAF97E3961FAE1EAEE397AB96AEADE1
:1005E000BFADAB976D917C9180E090E00E94D11AF5
:1005F0009B01AC01C358DF4F688179818A819B815F
:10060000CD57D0400E946A194B015C01AB96EEAD0C
:10061000FFADAB976281738180E090E00E94D11AB8
:100620009B01AC01CF57DF4F688179818A819B8123
:10063000C158D0400E946A196B017C01A501940148
:10064000C501B4010E94EC1B4B015C01A70196019E
:10065000C701B6010E94EC1B9B01AC01C501B401AE
:100660000E946B190E94591C6B017C01E796EEAD4C
:10067000FFADE797AF962EAD3FADAF97E20FF31FFB
:100680006083718382839383EB964EAD5FADEB976E
:10069000BA01882777FD8095982F0E94D31A9B0175
:1006A000AC01C701B6010E94E11B18166CF4C7012A
:1006B000B6010E94A01AEB967FAF6EAFEB97E39660
:1006C0000EAD1FADE3971301E3968EAD9FADE3979B
:1006D0000196E3969FAF8EAFE397AB96AEADBFADFD
:1006E000AB971696AB96BFAFAEAFAB97AF96EEADEE
:1006F000FFADAF973496AF96FFAFEEAFAF970497CD
:1007000009F06CCFFFEF6F1A7F0AA7962EAD3FADB1
:10071000A7972A5F3F4FA7963FAF2EAFA797E796C1
:100720004EAD5FADE797405F5F4FE7965FAF4EAF6F
:10073000E79754E06516710409F020CF80E090E05F
:1007400082159305A1F18017910789F1F101EE0F50
:10075000FF1FEE0FFF1FE80FF91FEE0FFF1FEE0F39
:10076000FF1FEE24E394F12CEC0EFD1EEE0DFF1D99
:10077000D801AA0FBB1FAA0FBB1FA80FB91FAA0F32
:10078000BB1FAA0FBB1FAE0DBF1D2D913D914D91FB
:100790005C9160817181828193810E94311A87FF0F
:1007A0000EC0902F812F8101292E382E08C001966E
:1007B0008430910529F6212C312C00E010E086E0F0
:1007C000782E709E7001719EF00C1124E40CF51CC3
:1007D000D7016D917C9180E090E00E94D11A4B018D
:1007E0005C01F7016281738180E090E00E94D11A80
:1007F0006B017C01729C8001739C100D1124040D0F
:10080000151DD8016D917C9180E090E00E94D11A75
:100810002B013C01F8016281738180E090E00E942D
:10082000D11AE1966CAF7DAF8EAF9FAFE1979B0180
:10083000AC01C701B6010E946A19A9966CAF7DAFE1
:100840008EAF9FAFA997A3019201C501B4010E9489
:100850006A19A9962CAD3DAD4EAD5FADA9970E942A
:10086000DE19E5966CAF7DAF8EAF9FAFE5979B012C
:10087000AC015058A9962CAF3DAF4EAF5FAFA997D2
:10088000CA01B9010E94351AAD966CAF7DAF8EAF2B
:100890009FAFAD97A3019201C501B4010E946B19EE
:1008A00020E030E040E05FE30E94EC1B20E030E01D
:1008B00040E054E40E946A192B013C01A9966CADFA
:1008C0007DAD8EAD9FADA9970E944F1C4B015C0181
:1008D000E1962CAD3DAD4EAD5FADE197C701B601E0
:1008E0000E946B1920E030E040E05FE30E94EC1BC7
:1008F00020E030E040EC53E40E946A19E9966CAFC6
:100900007DAF8EAF9FAFE99780912601909127012F
:10091000A0912801B0912901E1968CAF9DAFAEAFB7
:10092000BFAFE197AD966CAD7DAD8EAD9FADAD9790
:100930009058A30192010E94EC1B6B017C01E99687
:100940002CAD3DAD4EAD5FADE997C501B4010E9440
:10095000EC1B9B01AC01C701B6010E946A199B0107
:10096000AC015058E1966CAD7DAD8EAD9FADE19779
:100970000E94EC1B60939C0170939D0180939E01EB
:1009800090939F01A3019201C501B4010E94EC1B49
:100990006B017C01E9962CAD3DAD4EAD5FADE997A5
:1009A000AD966CAD7DAD8EAD9FADAD970E94EC1B4D
:1009B0009B01AC01C701B6010E946A199B01AC0101
:1009C000E1966CAD7DAD8EAD9FADE1970E94EC1BC5
:1009D0006093A0017093A1018093A2019093A30161
:1009E00020E030E0A901A9966CAD7DAD8EAD9FAD44
:1009F000A9970E94311A87FF83C2E5962CAD3DADC1
:100A00004EAD5FADE59763EC75EF88EC90E40E9426
:100A10006A19609398017093990180939A01909359
:100A20009B017CC26E9A76986A9A7298D20141E0D4
:100A300050E020E030E080E090E00D911C911197B3
:100A40000F3FE3E01E0709F46BC2F901E81BF90B45
:100A5000EE0FFF1FEE0FFF1FEC55FE4F11830083BB
:100A600012960D911C911397FC01EE0FFF1F7A0156
:100A7000EE1AFF0AF701EE0FFF1FEC55FE4F118330
:100A800000832F5F3F4F16964E5F5F4F2430310536
:100A9000A1F6AB967FAF6EAFAB9724EA31E0E39659
:100AA0003FAF2EAFE397412C512CE7961FAE1EAE01
:100AB000E79700E010E0212C312CE396AEADBFADFE
:100AC000E3976D917C9180E090E00E94D11AED96C1
:100AD0006CAF7DAF8EAF9FAFED97E396EEADFFAD00
:100AE000E3976281738180E090E00E94D11AC3583D
:100AF000DF4F688379838A839B83CD57D04024EA74
:100B000031E0A7963FAF2EAFA797AF961FAE1EAEB0
:100B1000AF97612C712CA796AEADBFADA7976D9125
:100B20007C9180E090E00E94D11A9B01AC01ED968F
:100B30006CAD7DAD8EAD9FADED970E946A194B01F6
:100B40005C01A796EEADFFADA7976281738180E04F
:100B500090E00E94D11A9B01AC01C358DF4F68811D
:100B600079818A819B81CD57D0400E946A196B019F
:100B70007C01A5019401C501B4010E94EC1B4B014D
:100B80005C01A7019601C701B6010E94EC1B9B0105
:100B9000AC01C501B4010E946B190E94591C6B0184
:100BA0007C01AB96EEADFFADAB97AF962EAD3FADF2
:100BB000AF97E20FF31F6083718382839383E7967D
:100BC0004EAD5FADE797BA01882777FD8095982FE6
:100BD0000E94D31A9B01AC01C701B6010E94E11B20
:100BE000181654F4C701B6010E94A01AE7967FAF09
:100BF0006EAFE797830112015FEF651A750AA7963A
:100C00008EAD9FADA7970496A7969FAF8EAFA7977F
:100C1000AF96AEADBFADAF971496AF96BFAFAEAFC8
:100C2000AF97B3E06B16710409F075CFEFEF4E1A72
:100C30005E0AE3962EAD3FADE3972C5F3F4FE39600
:100C40003FAF2EAFE397AB964EAD5FADAB97445F32
:100C50005F4FAB965FAF4EAFAB9753E04516510475
:100C600009F02BCF80E090E08215930509F45AC17A
:100C70008017910709F456C1F101EE0FFF1FE20D35
:100C8000F31DE80FF91FEE0FFF1FEE0FFF1F41E4EA
:100C900050E04C0F5D1FE40FF51FD801AA0FBB1FDA
:100CA000A00FB11FA80FB91FAA0FBB1FAA0FBB1F10
:100CB000A40FB51F2D913D914D915C916081718183
:100CC000828193810E94311A87FF05C0902F812F66
:100CD0008101292E382E7801EE0CFF1CE00EF11E4A
:100CE000F701EE0FFF1FEC55FE4F6081718180E030
:100CF00090E00E94D11A4B015C01F701EE0FFF1F3B
:100D0000EA55FE4F6081718180E090E00E94D11A27
:100D10006B017C018101000F111F020D131DF801F1
:100D2000EE0FFF1FEC55FE4F6081718180E090E077
:100D30000E94D11A2B013C01F801EE0FFF1FEA556A
:100D4000FE4F6081718180E090E00E94D11AAD96E3
:100D50006CAF7DAF8EAF9FAFAD979B01AC01C7016C
:100D6000B6010E946A19A9966CAF7DAF8EAF9FAF96
:100D7000A997A3019201C501B4010E946A19A9961D
:100D80002CAD3DAD4EAD5FADA9970E94DE199B0124
:100D9000AC015058A9962CAF3DAF4EAF5FAFA997AD
:100DA000CA01B9010E94351AE5966CAF7DAF8EAFCE
:100DB0009FAFE597A3019201C501B4010E946B1991
:100DC00020E030E040E05FE30E94EC1B20E030E0F8
:100DD00040E054E40E946A192B013C01A9966CADD5
:100DE0007DAD8EAD9FADA9970E944F1C4B015C015C
:100DF000AD962CAD3DAD4EAD5FADAD97C701B60123
:100E00000E946B1920E030E040E05FE30E94EC1BA1
:100E100020E030E040EC53E40E946A19E1966CAFA8
:100E20007DAF8EAF9FAFE197809126019091270112
:100E3000A0912801B0912901AD968CAF9DAFAEAFC6
:100E4000BFAFAD97E5966CAD7DAD8EAD9FADE5972F
:100E50009058A30192010E94EC1B6B017C01E1966A
:100E60002CAD3DAD4EAD5FADE197C501B4010E9423
:100E7000EC1B9B01AC01C701B6010E946A199B01E2
:100E8000AC015058AD966CAD7DAD8EAD9FADAD97BC
:100E90000E94EC1B60939C0170939D0180939E01C6
:100EA00090939F01A3019201C501B4010E94EC1B24
:100EB0006B017C01E1962CAD3DAD4EAD5FADE19790
:100EC000E5966CAD7DAD8EAD9FADE5970E94EC1BB8
:100ED0009B01AC01C701B6010E946A199B01AC01DC
:100EE000AD966CAD7DAD8EAD9FADAD970E94EC1B08
:100EF0006093A0017093A1018093A2019093A3013C
:100F0000A9962CAD3DAD4EAD5FADA997209398014C
:100F10003093990140939A0150939B0181E00CC05A
:100F20000196AFCD01968330910509F09DCE212C1D
:100F3000312C00E010E0CFCECC57DF4F0FB6F89445
:100F4000DEBF0FBECDBFDF91CF911F910F91FF90FC
:100F5000EF90DF90CF90BF90AF909F908F907F9059
:100F60006F905F904F903F902F900895CF92DF92B7
:100F7000EF92FF920F931F93CF93DF93EC018B01BE
:100F8000FB012081318142815381688179818A818D
:100F90009B810E94EC1B20E030E0A9010E946B19AC
:100FA0006B017C01F80124813581468157816C8178
:100FB0007D818E819F810E94EC1B9B01AC01C7014A
:100FC000B6010E946B19DF91CF911F910F91FF9095
:100FD000EF90DF90CF900895AF92BF92CF92DF92C3
:100FE000EF92FF920F931F93CF93DF93C0E0D0E077
:100FF000C12CD12C7601A12CB12C8E01000F111F18
:10100000000F111F085C1E4FF80160817181828101
:101010009381A70196010E94E11B181634F4F80190
:10102000C080D180E280F3805E012196C830D10576
:1010300021F720E030E048EC52E4C701B6010E94FD
:10104000311A87FD18C1F9E0AF16B10408F036C1B6
:10105000F501EA5AFF4F0C94C01C8CE390E090938A
:1010600037018093360188E290E0909335018093B8
:10107000340140917A0150917B0162E180E20E944B
:10108000F71640E062E180E20E94CA1640E063E1A8
:1010900080E20E94F71610927B0110927A010EC135
:1010A00086E490E090933701809336018EE190E0E2
:1010B000909335018093340140917A0150917B01E6
:1010C00062E180E20E94F71641E062E180E20E9464
:1010D000CA1640E063E180E20E94F71681E090E0EA
:1010E000C5C084E190E090933701809336018CEE87
:1010F0009FEF909335018093340140917A01509194
:101100007B0162E180E20E94F71642E062E180E248
:101110000E94CA1640E063E180E20E94F71682E076
:1011200090E0A4C084E190E0909337018093360171
:101130008CEE9FEF909335018093340140917A01BA
:1011400050917B0162E180E20E94F71643E062E188
:1011500080E20E94CA1640E063E180E20E94F71636
:1011600083E090E083C08CEE9FEF909337018093F3
:10117000360184E190E090933501809334014091F1
:101180007A0150917B0162E180E20E94F71644E00F
:1011900062E180E20E94CA1640E063E180E20E94C0
:1011A000F71684E090E062C08CEE9FEF90933701D9
:1011B0008093360184E190E090933501809334016F
:1011C00040917A0150917B0162E180E20E94F71622
:1011D00045E062E180E20E94CA1640E063E180E2FD
:1011E0000E94F71685E090E041C08EE190E0909378
:1011F00037018093360186E490E090933501809327
:10120000340140917A0150917B0162E180E20E94B9
:10121000F71646E062E180E20E94CA1640E063E110
:1012200080E20E94F71686E090E020C088E290E01D
:1012300090933701809336018CE390E090933501D1
:101240008093340140917A0150917B0162E180E208
:101250000E94F71647E062E180E20E94CA1640E071
:1012600063E180E20E94F71687E090E090937B01B3
:1012700080937A0123C084E190E0909337018093BA
:1012800036018CEE9FEF90933501809334014091AD
:101290007A0150917B0162E180E20E94F71640E002
:1012A00063E180E2DF91CF911F910F91FF90EF906A
:1012B000DF90CF90BF90AF900C94CA16DF91CF9182
:1012C0001F910F91FF90EF90DF90CF90BF90AF9064
:1012D00008951F920F920FB60F9211242F933F93F0
:1012E0004F935F936F937F938F939F93AF93BF932E
:1012F000EF93FF938CEB91E00E9441108CEB91E017
:101300000E946202809396018823B1F160919C0152
:1013100070919D0180919E0190919F010E94A01A61
:101320006093D4016091A0017091A1018091A2010C
:101330009091A3010E94A01A6093D50120E030E0B3
:101340004EEF52E4609198017091990180919A0159
:1013500090919B010E94EC1B2AE939E949EC50E489
:101360000E94381A0E94A01A6093D6014AE064EDE8
:1013700071E088E10E94DB0EFF91EF91BF91AF9188
:101380009F918F917F916F915F914F913F912F919D
:101390000F900FBE0F901F9018951F920F920FB6CF
:1013A0000F9211242F933F934F935F936F937F93EB
:1013B0008F939F93AF93BF93EF93FF936AE08EED6C
:1013C00091E00E948A0E8091DE01813A29F0843AF0
:1013D00049F481E090E002C082E090E09093230124
:1013E0008093220180912201909123010E94F315A4
:1013F0008CE891E00E94BF15FF91EF91BF91AF91F2
:101400009F918F917F916F915F914F913F912F911C
:101410000F900FBE0F901F9018951F920F920FB64E
:101420000F9211240F931F932F933F934F935F932A
:101430006F937F938F939F93AF93BF93CF93DF93DC
:10144000EF93FF938091580190915901892B09F0F6
:1014500041C060917800709179000091580110911D
:101460005901C0915801D091590180E090E00E944B
:10147000D11AF801EE0FFF1FEE0FFF1FE65AFE4FC5
:1014800020813181428153810E946A19CC0FDD1F76
:10149000CC0FDD1FC050DF4F288139814A815B812D
:1014A0000E94EC1B0E94A01A7093F1016093F0015E
:1014B0008091580190915901019690935901809320
:1014C000580180917A008F7780937A0080917B0019
:1014D0008F7DEDC18091580190915901019709F0DC
:1014E00059C0609178007091790000915801109175
:1014F0005901C0915801D091590180E090E00E94BB
:10150000D11AF801EE0FFF1FEE0FFF1FE65AFE4F34
:1015100020813181428153810E946A19CC0FDD1FE5
:10152000CC0FDD1FC050DF4F288139814A815B819C
:101530000E94EC1B0E94A01A7093FF016093FE01B1
:10154000809158019091590101969093590180938F
:1015500058016E9A769880917A008F7780937A00FE
:1015600080917B008F7D80937B0080917C008460E4
:1015700080937C0080917C008D7F80937C008091A3
:101580007C008E7F80937C0080917A0080618093C4
:101590007A0006C28091580190915901029709F092
:1015A00048C06091780070917900009158011091C5
:1015B0005901C0915801D091590180E090E00E94FA
:1015C000D11AF801EE0FFF1FEE0FFF1FE65AFE4F74
:1015D00020813181428153810E946A19CC0FDD1F25
:1015E000CC0FDD1FC050DF4F288139814A815B81DC
:1015F0000E94EC1B0E94A01A7093F7016093F60101
:1016000080915801909159010196909359018093CE
:1016100058016E9A769A80917A008F7780937A003B
:1016200080917B008F7D80937B0080917C00846023
:1016300043C18091580190915901039709F04BC023
:1016400060917800709179000091580110915901D2
:10165000C0915801D091590180E090E00E94D11AC8
:10166000F801EE0FFF1FEE0FFF1FE65AFE4F20811D
:101670003181428153810E946A19CC0FDD1FCC0F4A
:10168000DD1FC050DF4F288139814A815B810E9474
:10169000EC1B0E94A01A7093FD016093FC018091E5
:1016A00058019091590101969093590180935801E6
:1016B00080917A008F7780937A0080917B008F7D74
:1016C00080937B0080917C00846080937C0080917B
:1016D0007C00826052CF809158019091590104970B
:1016E00009F04DC060917800709179000091580127
:1016F00010915901C0915801D091590180E090E0BA
:101700000E94D11AF801EE0FFF1FEE0FFF1FE65ADD
:10171000FE4F20813181428153810E946A19CC0F92
:10172000DD1FCC0FDD1FC050DF4F288139814A817A
:101730005B810E94EC1B0E94A01A7093F5016093DC
:10174000F4018091580190915901019690935901AB
:10175000809358016E9A769A80917A008F77809361
:101760007A0080917B008F7D80937B0080917C004C
:10177000846080937C0080917C008260A2C0809114
:10178000580190915901059709F048C0609178007F
:10179000709179000091580110915901C091580140
:1017A000D091590180E090E00E94D11AF801EE0F2B
:1017B000FF1FEE0FFF1FE65AFE4F2081318142814D
:1017C00053810E946A19CC0FDD1FCC0FDD1FC05062
:1017D000DF4F288139814A815B810E94EC1B0E9486
:1017E000A01A7093FB016093FA01809158019091C7
:1017F0005901019690935901809358016E9A769AF7
:1018000080917A008F7780937A0080917B0080624C
:1018100080937B0080917C008B7FAACE80915801C1
:1018200090915901069709F052C06091780070912B
:1018300079000091580110915901C0915801D0913F
:10184000590180E090E00E94D11AF801EE0FFF1FCD
:10185000EE0FFF1FE65AFE4F2081318142815381F6
:101860000E946A19CC0FDD1FCC0FDD1FC050DF4F67
:10187000288139814A815B810E94EC1B0E94A01A59
:101880007093ED016093EC018091580190915901A2
:10189000019690935901809358016E9A769A80919F
:1018A0007A008F7780937A0080917B0080628093AA
:1018B0007B0080917C008B7F80937C0080917C00FA
:1018C0008D7F80937C0080917C0081605BCE8091D5
:1018D000580190915901079709F062C06091780012
:1018E000709179000091580110915901C0915801EF
:1018F000D091590180E090E00E94D11AF801EE0FDA
:10190000FF1FEE0FFF1FE65AFE4F208131814281FB
:1019100053810E946A19CC0FDD1FCC0FDD1FC05010
:10192000DF4F288139814A815B810E94EC1B0E9434
:10193000A01A7093F3016093F20180915801909185
:101940005901019690935901809358016E9A769AA5
:1019500080917A008F7780937A0080917B008F7DD1
:1019600080937B0080917C008B7F80937C008091B2
:101970007C008D7F80937C0080917C008E7F8093A3
:101980007C0080917A00806180937A0010925901E6
:101990001092580181E090E09093F9018093F80152
:1019A0008091F8019091F901892B09F490C0609120
:1019B000F0017091F101882777FD8095982F0E94A2
:1019C000D31A609338017093390180933A01909350
:1019D0003B016091FE017091FF01882777FD8095A2
:1019E000982F0E94D31A60933C0170933D0180931D
:1019F0003E0190933F016091F6017091F7018827B5
:101A000077FD8095982F0E94D31A609340017093C0
:101A1000410180934201909343016091FC017091D8
:101A2000FD01882777FD8095982F0E94D31A609337
:101A30004401709345018093460190934701609162
:101A4000F2017091F301882777FD8095982F0E940D
:101A5000D31A609348017093490180934A0190938F
:101A60004B016091EC017091ED01882777FD809525
:101A7000982F0E94D31A60934C0170934D0180936C
:101A80004E0190934F016091FA017091FB018827FC
:101A900077FD8095982F0E94D31A60935001709320
:101AA000510180935201909353016091F401709120
:101AB000F501882777FD8095982F0E94D31A6093AF
:101AC00054017093550180935601909357011092E1
:101AD000F9011092F80180917A00806880937A0071
:101AE00080917A00806480937A00FF91EF91DF917A
:101AF000CF91BF91AF919F918F917F916F915F91A6
:101B00004F913F912F911F910F910F900FBE0F900A
:101B10001F901895589A599A5A9A8CE08093B80059
:101B2000E9E6F0E080818062808380818F7E80831F
:101B3000EA9A7894089584E88093BC008091BC0070
:101B400087FFFCCF8091BB00089584E98093BC009F
:101B5000089520E030E08091BC0087FD06C02F5F33
:101B60003F4F293E83E03807B1F781E0283E3340FC
:101B700009F480E008958093BB0084E88093BC0062
:101B80000E94A90D882321F08091B900887F0895D3
:101B900080E008951F93CF93DF931F92CDB7DEB7F8
:101BA000182F84EA8093BC0069830E94A90D698183
:101BB000811104C094E99093BC0014C0812F880F58
:101BC000662331F08F5F0E94BB0D883451F404C04E
:101BD0000E94BB0D803229F484E98093BC0080E030
:101BE00001C081E00F90DF91CF911F910895CF93B5
:101BF000DF93C82FD62F60E00E94CA0D882391F092
:101C00008D2F0E94BB0D882369F084E98093BC006E
:101C100061E08C2F0E94CA0D882321F0DF91CF91C3
:101C20000C949B0D80E0DF91CF910895CF93DF93CB
:101C3000D62FC42F60E00E94CA0D811102C080E03F
:101C40000EC08D2F0E94BB0D8823C9F38C2F0E94DC
:101C5000BB0D8823A1F384E98093BC0081E0DF9170
:101C6000CF910895CF93DF9300D01F92CDB7DEB709
:101C70004B836A8389830E948A0D94EA9093BC0007
:101C800089816A814B819091BC0097FFFCCF90E5E0
:101C90009093BB0094E89093BC009091BC0097FF98
:101CA000FCCF9091B900987F903229F484E9809319
:101CB000BC0080E029C091E09093BB0094E8909331
:101CC000BC009091BC0097FFFCCF8093BB0084E8E0
:101CD0008093BC008091BC0087FFFCCF6093BB0069
:101CE00084E88093BC008091BC0087FFFCCF4093C8
:101CF000BB0084E88093BC008091BC0087FFFCCFD0
:101D000084E98093BC0081E00F900F900F90DF91E9
:101D1000CF91089524EA2093BC002091BC0027FFB6
:101D2000FCCF21E52093BB0024E82093BC00209148
:101D3000BC0027FFFCCF2091B900287F2834A9F0F0
:101D400024EC2093BC002091BC0027FFFCCF209105
:101D5000BB0026130AC0FC0120E030E0772767FDB6
:101D600070956150710944EC0EC084E98093BC0009
:101D700080E008955091BC0057FFFCCF5091BB000C
:101D800051932F5F3F4F261737071CF44093BC0039
:101D9000F1CF44E84093BC004091BC0047FFFCCF2A
:101DA0004091BB00FC01E20FF31F408384E9809364
:101DB000BC0081E00895F89494EA9093BC0090915F
:101DC000BC0097FFFCCF90E59093BB0094E8909304
:101DD000BC009091BC0097FFFCCF9091B900987F18
:101DE000903231F484E98093BC00789480E00895C7
:101DF00093E09093BB0094E89093BC009091BC005A
:101E000097FFFCCF8093BB0084E88093BC00809157
:101E1000BC0087FFFCCFFB01552747FD509524E808
:101E2000CF01861B970B8417950754F481918093FB
:101E3000BB002093BC008091BC0087FFFCCFF0CF9B
:101E400084E98093BC00789481E0089520E030E03C
:101E50008091BC0087FD06C02F5F3F4F293E83E085
:101E60003807B1F781E0283E334009F480E0089557
:101E70008093BB0084E88093BC000E94260F8823D7
:101E800019F08091B900887F0895CF93C82F84EA14
:101E90008093BC000E94260F882361F08C2F880F4E
:101EA0000E94380F803229F484E98093BC0080E0DE
:101EB00001C081E0CF9108950E948A0D88E50E94BB
:101EC000450F811102C080E0089580E30E94380F21
:101ED0008823C9F381E00E94380F8823A1F384E9A5
:101EE0008093BC008FE39CE90197F1F700C00000EC
:101EF00088E50E94450F882331F380E00E94380F67
:101F0000882309F380E00E94380F8823E1F280E003
:101F10000E94380F8823B9F280E00E94380F88238E
:101F200091F280E00E94380F882369F280E00E94DD
:101F3000380F882341F280E00E94380F882319F27D
:101F400080E90E94380F882309F4BDCF84E980938B
:101F5000BC008FE39CE90197F1F700C0000088E521
:101F60000E94450F882309F4AECF87E00E94380F06
:101F7000882309F4A8CF80E00E94380F882309F451
:101F8000A2CF81E40E94380F882309F49CCF84E912
:101F90008093BC008FE39CE90197F1F700C000003B
:101FA00088E50E94450F882309F48DCF8AE10E94BD
:101FB000380F882309F487CF80E40E94380F8823E4
:101FC00009F481CF80E00E94380F882309F47BCF89
:101FD00084E98093BC008FE39CE90197F1F700C08E
:101FE000000088E50E94450F882309F46CCF83E345
:101FF0000E94380F882309F466CF83E00E94380FCF
:10200000882309F460CF84E98093BC008FE39CE9C6
:102010000197F1F700C0000088E50E94450F882372
:1020200009F451CF80E30E94380F882309F44BCF85
:1020300088E00E94380F882309F445CF84E9809313
:10204000BC008FE39CE90197F1F700C0000081E03C
:102050000895CF93C82F84EA8093BC000E94260F76
:10206000882369F08C2F880F8F5F0E94380F883487
:1020700029F484E98093BC0080E001C081E0CF9125
:102080000895EF92FF920F931F93CF93DF93CDB7F5
:10209000DEB760970FB6F894DEBF0FBECDBF7C01F0
:1020A0008E010F5F1F4F80E1F80111928A95E9F7C9
:1020B00088E50E94450F811102C080E05EC086E382
:1020C0000E94380F8823C9F384E98093BC00F5E8A7
:1020D000FA95F1F7000088E50E942910882369F33A
:1020E000F8019E01205F3F4F94EC9093BC008091DB
:1020F000BC0087FFFCCF8091BB008193E217F30700
:10210000A1F784E88093BC008091BC0087FFFCCFDE
:102110008091BB00888B84E98093BC00DE0114961B
:1021200087016C91762F7073AD0142505109FA010D
:10213000808190E0F0E17F9F800D911D1124F801D6
:1021400091838083762F707C4F5F5F4FFA0180818F
:1021500090E0F4E07F9F800D911D1124F80193839E
:1021600082836F70862F90E09583848313960A5F35
:102170001F4FA217B307A9F681E060960FB6F89437
:10218000DEBF0FBECDBFDF91CF911F910F91FF90AA
:10219000EF90089584E98093BC0008958091E80051
:1021A00080FFFCCF089581E08093D70080EA809380
:1021B000D80082E189BD09B400FEFDCF80E980939B
:1021C000D8001092E0001092EB011092E8018CE030
:1021D0008093E200789408958091EB0108959FB771
:1021E000F8948091EB01882339F083E08093E90033
:1021F0008091E80085FD03C09FBF8FEF0895809117
:10220000F1002091E80025FD03C02BE62093E800B3
:102210009FBF08959FB7F8948091EB01882331F018
:1022200083E08093E9008091F20001C080E09FBFCD
:1022300008958091EB01882371F08FB7F89493E0B3
:102240009093E9002BE69091E80095FF03C020935E
:10225000E800F9CF8FBF08959091EB01992371F0B9
:102260009FB7F89424E02093E9002091E90122230C
:1022700049F02091E80025FD03C09FBF8FEF08952E
:102280001092E9012091E400275E34E04091E800DB
:1022900045FD12C09FBF9091E400921304C081E0FD
:1022A0008093E901EBCF9091EB01992339F39FB72C
:1022B000F8943093E900EACF8093F1008091E80030
:1022C00085FD03C08AE38093E80085E08093EA01FE
:1022D0009FBF80E008959091EB019923D1F09FB7C3
:1022E000F89424E02093E9002091E80025FD02C045
:1022F0009FBF0FC08093F1008091E80085FD03C06F
:102300008AE38093E80085E08093EA019FBF80E044
:1023100008958FEF0895EF92FF921F93CF93DF936D
:102320007C01CB012091EB01222371F0AFB7F8942F
:1023300024E02093E9002091E901222349F0209133
:10234000E80025FD03C0AFBF8FEF42C21092E90144
:10235000B4E0C0E4DAE315E0009709F437C2209155
:10236000E400275E3091E80035FD12C0AFBF309128
:10237000E400321304C081E08093E901E5CF30919D
:10238000EB01332309F3AFB7F894B093E900EACF38
:102390002091F2004C2F421B242F30E0821793072C
:1023A00008F4482F841B910950E04134510508F08E
:1023B000FDC1415A5F4FFA010C94C01CF701208106
:1023C0002093F10097012F5F3F4F7901F7012081A2
:1023D0002093F10097012F5F3F4F7901F701208192
:1023E0002093F10097012F5F3F4F7901F701208182
:1023F0002093F10097012F5F3F4F7901F701208172
:102400002093F10097012F5F3F4F7901F701208161
:102410002093F10097012F5F3F4F7901F701208151
:102420002093F10097012F5F3F4F7901F701208141
:102430002093F10097012F5F3F4F7901F701208131
:102440002093F10097012F5F3F4F7901F701208121
:102450002093F10097012F5F3F4F7901F701208111
:102460002093F10097012F5F3F4F7901F701208101
:102470002093F10097012F5F3F4F7901F7012081F1
:102480002093F10097012F5F3F4F7901F7012081E1
:102490002093F10097012F5F3F4F7901F7012081D1
:1024A0002093F10097012F5F3F4F7901F7012081C1
:1024B0002093F10097012F5F3F4F7901F7012081B1
:1024C0002093F10097012F5F3F4F7901F7012081A1
:1024D0002093F10097012F5F3F4F7901F701208191
:1024E0002093F10097012F5F3F4F7901F701208181
:1024F0002093F10097012F5F3F4F7901F701208171
:102500002093F10097012F5F3F4F7901F701208160
:102510002093F10097012F5F3F4F7901F701208150
:102520002093F10097012F5F3F4F7901F701208140
:102530002093F10097012F5F3F4F7901F701208130
:102540002093F10097012F5F3F4F7901F701208120
:102550002093F10097012F5F3F4F7901F701208110
:102560002093F10097012F5F3F4F7901F701208100
:102570002093F10097012F5F3F4F7901F7012081F0
:102580002093F10097012F5F3F4F7901F7012081E0
:102590002093F10097012F5F3F4F7901F7012081D0
:1025A0002093F10097012F5F3F4F7901F7012081C0
:1025B0002093F10097012F5F3F4F7901F7012081B0
:1025C0002093F10097012F5F3F4F7901F7012081A0
:1025D0002093F10097012F5F3F4F7901F701208190
:1025E0002093F10097012F5F3F4F7901F701208180
:1025F0002093F10097012F5F3F4F7901F701208170
:102600002093F10097012F5F3F4F7901F70120815F
:102610002093F10097012F5F3F4F7901F70120814F
:102620002093F10097012F5F3F4F7901F70120813F
:102630002093F10097012F5F3F4F7901F70120812F
:102640002093F10097012F5F3F4F7901F70120811F
:102650002093F10097012F5F3F4F7901F70120810F
:102660002093F10097012F5F3F4F7901F7012081FF
:102670002093F10097012F5F3F4F7901F7012081EF
:102680002093F10097012F5F3F4F7901F7012081DF
:102690002093F10097012F5F3F4F7901F7012081CF
:1026A0002093F10097012F5F3F4F7901F7012081BF
:1026B0002093F10097012F5F3F4F7901F7012081AF
:1026C0002093F10097012F5F3F4F7901F70120819F
:1026D0002093F10097012F5F3F4F7901F70120818F
:1026E0002093F10097012F5F3F4F7901F70120817F
:1026F0002093F10097012F5F3F4F7901F70120816F
:102700002093F10097012F5F3F4F7901F70120815E
:102710002093F10097012F5F3F4F7901F70120814E
:102720002093F10097012F5F3F4F7901F70120813E
:102730002093F10097012F5F3F4F7901F70120812E
:102740002093F10097012F5F3F4F7901F70120811E
:102750002093F10097012F5F3F4F7901F70120810E
:102760002093F10097012F5F3F4F7901F7012081FE
:102770002093F10097012F5F3F4F7901F7012081EE
:102780002093F10097012F5F3F4F7901F7012081DE
:102790002093F10097012F5F3F4F7901F7012081CE
:1027A0002093F10097012F5F3F4F7901F7012081BE
:1027B0002093F10097012F5F3F4F79012091E800AE
:1027C00025FFD093E8001093EA01C6CDAFBF80E0AB
:1027D000DF91CF911F91FF90EF9008958FB7F894FC
:1027E0009091EA01992341F094E09093E9009AE3F3
:1027F0009093E8001092EA018FBF089580912E0116
:10280000089580912F01089580913001089580915D
:10281000E80108959FB7F8942091EB01222339F045
:1028200022E02093E9003091E80035FD03C09FBF0E
:102830008FEF089531EA3093F10030E23093F100E8
:102840001092F1001092F1001092F1001092F1003C
:102850002093F1001092F1008093F1001092F100AA
:102860008AE38093E8009FBF80E008951F920F9253
:102870000FB60F9211248F939F938091E1001092D5
:10288000E10083FF11C01092E90091E09093EB000A
:102890001092EC0092E19093ED0098E09093F0009C
:1028A0001092EB011092E80182FF13C08091EB01BE
:1028B000882379F08091EA01882359F08150809330
:1028C000EA01811106C084E08093E9008AE38093E5
:1028D000E8009F918F910F900FBE0F901F90189559
:1028E0001F920F920FB60F921124EF92FF920F9347
:1028F0001F932F933F934F935F936F937F938F9388
:102900009F93AF93BF93EF93FF93CF93DF931F9268
:10291000CDB7DEB71092E9008091E80083FF14C1C3
:102920009091F1008091F1003091F1002091F1003F
:10293000E32EF12CF22A0091F1002091F10010E039
:10294000122B2091F1006091F10032EF3093E800FA
:10295000863009F046C036E08EE891E0FC014591F2
:1029600054914E155F0539F4FC013296459154910E
:102970004017510721F00796315081F7E5C0FC015F
:10298000349645915491FC013696849130E0362B73
:102990002F3F310519F010F02FEF30E0281708F421
:1029A000822F3EEF9091E800292F2570D9F392FDF8
:1029B000CEC0982F813108F090E1FA01292F22230F
:1029C00031F064916093F10021503196F8CF490FB6
:1029D000511D891B3093E8008111E4CF903111F330
:1029E000B6C0853051F48EEF8093E8000E94CE107F
:1029F0008E2D80688093E300AAC0893059F591112B
:102A000080C0E092EB011092E8011092EA018EEF93
:102A10008093E80041E087E392E04093E9009C0165
:102A20002F5F3F4FFC0154915093EB00552359F019
:102A3000F90124912093EC009C012D5F3F4F3196CA
:102A400084918093ED004F5F453011F0C901E5CFCF
:102A50008EE175C0883051F4903809F052C00E9460
:102A6000CE108091EB018093F10047C0813279F460
:102A7000913A09F046C00E94CE10EAE2F1E081915D
:102A80008093F10081E0E133F807C9F736C0803266
:102A900099F49132B1F58091E80082FFFCCFEAE22F
:102AA000F1E08091F100819381E0E133F807C9F70B
:102AB0008BEF8093E80021C0823241F4913209F01B
:102AC00043C0E092E8010E94CE1017C0811119C0E6
:102AD00099830E94CE109981923851F40093E900B5
:102AE0008091EB0085FB882780F91092E90001C0F6
:102AF00080E08093F1001092F1008EEF8093E80067
:102B000026C0282F2D7F2130F9F49230E9F4EF28E8
:102B1000D9F40F779FEF900F9430B0F49EEF90931D
:102B2000E8000093E900833079F089E18093EB00BD
:102B300081E090E0002E01C0880F0A94EAF78093AC
:102B4000EA001092EA0003C081E28093EB000F904C
:102B5000DF91CF91FF91EF91BF91AF919F918F91B5
:102B60007F916F915F914F913F912F911F910F91A5
:102B7000FF90EF900F900FBE0F901F9018951F932E
:102B8000CF93DF93EC01FE011491112351F01A3021
:102B900019F48DE00E942C11812F0E942C11219696
:102BA000F2CFDF91CF911F9108958A3010F490E316
:102BB00001C097E3890F0C942C11CF93C82F8295F5
:102BC0008F700E94D5158C2F8F70CF910C94D515D6
:102BD000CF93C82F892F0E94DD158C2FCF910C9495
:102BE000DD150C94DD15EF92FF920F931F93CF9399
:102BF000DF93CDB7DEB727970FB6F894DEBF0FBED1
:102C0000CDBF8E010F5F1F4F27E0F80111922A956B
:102C1000E9F74AE0B8010E94C61C7E01F8E0EF0E19
:102C2000F11CF80181918F0181110E942C110E1568
:102C30001F05B9F727960FB6F894DEBF0FBECDBFBC
:102C4000DF91CF911F910F91FF90EF900895EF9238
:102C5000FF920F931F93CF93DF9300D000D000D04B
:102C6000CDB7DEB78E010F5F1F4F26E0F80111923E
:102C70002A95E9F74AE0B8010E94021D7E01F6E0BC
:102C8000EF0EF11CF80181918F0181110E942C112E
:102C90000E151F05B9F726960FB6F894DEBF0FBEC6
:102CA000CDBFDF91CF911F910F91FF90EF900895CD
:102CB000EF92FF920F931F93CF93DF93CDB7DEB7C1
:102CC0002B970FB6F894DEBF0FBECDBF8E010F5FFE
:102CD0001F4F2BE0F80111922A95E9F72AE0A8018D
:102CE0000E94D11C7E01FCE0EF0EF11CF8018191E5
:102CF0008F0181110E942C110E151F05B9F72B961B
:102D00000FB6F894DEBF0FBECDBFDF91CF911F91FC
:102D10000F91FF90EF900895EF92FF920F931F9302
:102D2000CF93DF93CDB7DEB72B970FB6F894DEBF06
:102D30000FBECDBF8E010F5F1F4F2BE0F801119228
:102D40002A95E9F72AE0A8010E94E01C7E01FBE039
:102D5000EF0EF11CF80181918F0181110E942C115D
:102D60000E151F05B9F72B960FB6F894DEBF0FBEF0
:102D7000CDBFDF91CF911F910F91FF90EF900895FC
:102D800048E365E00E94160E91E0811101C090E0D9
:102D9000892F08951F93CF93DF93D82FC62F142F19
:102DA0000E94F70DC23058F4E1E0F0E0012E01C0BE
:102DB000EE0F0A94EAF74E2F409548230DC09EEE81
:102DC0009C0F923078F421E030E0012E01C0220FF8
:102DD0000A94EAF7482F422B6C2F8D2F0E94160E73
:102DE00081E001C080E0DF91CF911F9108951F9392
:102DF000CF93DF93D82FC62F142F0E94F70D9EEE8E
:102E00009C0F923058F4E1E0F0E0012E01C0EE0F8B
:102E10000A94EAF74E2F409548230BC0C23078F44D
:102E200021E030E0012E01C0220F0A94EAF7482F7A
:102E3000422B6C2F8D2F0E94160E81E001C080E086
:102E4000DF91CF911F910895CF93DF931F92CDB75C
:102E5000DEB749830E94F70D90E0498102C0959545
:102E600087954A95E2F781700F90DF91CF91089591
:102E70000E94740122242394312CC4E1D0E00CEE92
:102E80001FEF412C512CF8EC6F2EF2E47F2E809135
:102E900022019091230182309105C9F084F40197B9
:102EA00009F013C2109291011092900110928F01BB
:102EB00010928E0180E090E00E9440011DC183309D
:102EC000910509F420C1049709F443C1FEC12FEF15
:102ED00082E597E0215080409040E1F700C000007B
:102EE0008091860190918701892B09F049C0309229
:102EF00087012092860120E030E0A90160919C01C9
:102F000070919D0180919E0190919F010E94311AC4
:102F100087FF15C082E598EBA6E9B0E480939201A3
:102F200090939301A0939401B093950140928A01EC
:102F300050928B0160928C0170928D0118C083ECCD
:102F400095EFA8ECBFE38093920190939301A09337
:102F50009401B093950180E090E0A8ECB2EC8093EE
:102F60008A0190938B01A0938C01B0938D019FEF08
:102F7000A1EEB4E09150A040B040E1F700C00000E5
:102F800060919C0170919D0180919E0190919F01A3
:102F90000E94A01A7B0177FF04C0EE24FF24E61AEA
:102FA000F70A60918A0170918B0180918C01909158
:102FB0008D010E94A01A9B0177FF04C022273327AE
:102FC000261B370BE216F3060CF07FC12BE734E12A
:102FD0004EE25EE3609192017091930180919401C1
:102FE000909195010E946B199B01AC016091980131
:102FF0007091990180919A0190919B010E94E11B2F
:10300000181694F4D0939101C093900110938F01FE
:1030100000938E0184E190E00E944D0180918E0129
:1030200090918F010E945C012BE734E14EE25EE358
:10303000609192017091930180919401909195011A
:103040000E946A199B01AC016091980170919901ED
:1030500080919A0190919B010E94311A87FF12C0C2
:103060001093910100939001D0938F01C0938E0132
:103070008CEE9FEF0E94400180918E0190918F0114
:103080000E945C018090920190909301A090940125
:10309000B0909501C0909801D0909901E0909A016C
:1030A000F0909B012BE734E14EE25EE3C501B401F1
:1030B0000E946A19A70196010E94311A87FFE7CE84
:1030C0002BE734E14EE25EE3C501B4010E946B19C7
:1030D0009B01AC01C701B6010E94311A87FFD7CE10
:1030E000D0939101C0939001D0938F01C0938E0132
:1030F00084E190E00E944D0180918E0190918F01BA
:103100000E945C01C4CE0E94EC0780913601909130
:10311000370190938F0180938E01809134019091BB
:10312000350190939101809390010E944D0180910F
:103130008E0190918F010E945C01809132019091EB
:103140003301892B31F084E090E090932301809348
:103150002201E0902001F090210160919C0170918A
:103160009D0180919E0190919F010E94A01A9B0158
:1031700077FF04C022273327261B370BF7FE03C037
:10318000F194E194F1082E153F050CF09EC02BE759
:1031900034E14EE25EE360917C0170917D018091AB
:1031A0007E0190917F010E946B199B01AC0160919F
:1031B00098017091990180919A0190919B010E94D0
:1031C000E11B181694F4D0939101C09390011093D1
:1031D0008F0100938E0184E190E00E944D01809167
:1031E0008E0190918F010E945C012BE734E14EE249
:1031F0005EE360917C0170917D0180917E019091F0
:103200007F010E946A199B01AC0160919801709145
:10321000990180919A0190919B010E94311A87FF38
:1032200012C01093910100939001D0938F01C0932D
:103230008E018CEE9FEF0E94400180918E01909153
:103240008F010E945C0180907C0190907D01A09094
:103250007E01B0907F01C0909801D0909901E090DC
:103260009A01F0909B012BE734E14EE25EE3C50149
:10327000B4010E946A19A70196010E94311A87FFC2
:1032800024C02BE734E14EE25EE3C501B4010E94A5
:103290006B199B01AC01C701B6010E94311A87FF6F
:1032A00014C0A0E5B0E0B0939101A0939001B09359
:1032B0008F01A0938E0180E590E00E944D018091E6
:1032C0008E0190918F010E945C0130922301209227
:1032D0002201DDCD5058BB27AA270ED027C2F0D13E
:1032E00030F0F5D120F031F49F3F11F41EF4C0C14D
:1032F0000EF4E095E7FBB6C1E92F3AD280F3BA1796
:10330000620773078407950718F071F49EF552C29F
:103310000EF4E0950B2EBA2FA02D0B01B9019001F0
:103320000C01CA01A0011124FF27591B99F0593F34
:1033300050F4503E68F11A16F040A22F232F342F7C
:103340004427585FF3CF469537952795A795F040CA
:103350005395C9F77EF41F16BA0B620B730B840BDF
:10336000BAF09150A1F0FF0FBB1F661F771F881F97
:10337000C2F70EC0BA0F621F731F841F48F48795EF
:1033800077956795B795F7959E3F08F0B3CF9395DE
:10339000880F08F09927EE0F97958795089590D19B
:1033A00058F080E891E009F49EEF91D128F040E8D0
:1033B00051E059F45EEF09C05BC1FCC1E92FE07830
:1033C000D7D168F3092E052AC1F326173707480716
:1033D000590738F00E2E07F8E02569F0E025E06483
:1033E0000AC0EF6307F8009407FADB01B9019D01F9
:1033F000DC01CA01AD01EF934AD098D10AD05F91A8
:10340000552331F02BED3FE049E450FD49EC63CF0B
:103410000895DF93DD27B92FBF7740E85FE31616E5
:10342000170648075B0710F4D92FCFD19F938F93CE
:103430007F936F937CD2E0E4F1E01DD177D12F919F
:103440003F914F915F91D4D1DD2349F09058A2EA8A
:103450002AED3FE049EC5FE3D0785D274DDFDF9157
:1034600065C1DCD008F481E0089539D1E3956FC1DE
:103470000CD05CC12CD140F023D130F021F45F3F5F
:1034800019F0F0C0511197C1F3C072D198F399238C
:10349000C9F35523B1F3951B550BBB27AA27621718
:1034A0007307840738F09F5F5F4F220F331F441F5D
:1034B000AA1FA9F333D00E2E3AF0E0E830D0915095
:1034C0005040E695001CCAF729D0FE2F27D0660F82
:1034D000771F881FBB1F261737074807AB07B0E8C1
:1034E00009F0BB0B802DBF01FF2793585F4F2AF0D7
:1034F0009E3F510568F0B6C05EC15F3FECF3983E59
:10350000DCF3869577956795B795F7959F5FC9F733
:10351000880F911D9695879597F90895E1E0660FBC
:10352000771F881FBB1F621773078407BA0720F035
:10353000621B730B840BBA0BEE1F88F7E09508959E
:1035400004D06894B11137C108951AD188F09F57FB
:1035500090F0B92F9927B751A0F0D1F0660F771FDF
:10356000881F991F1AF0BA95C9F712C0B13081F0BF
:1035700021D1B1E008951EC1672F782F8827B85F49
:1035800039F0B93FCCF3869577956795B395D9F720
:103590003EF490958095709561957F4F8F4F9F4F2A
:1035A0000895E89409C097FB3EF490958095709536
:1035B00061957F4F8F4F9F4F9923A9F0F92F96E97F
:1035C000BB279395F695879577956795B795F111F4
:1035D000F8CFFAF4BB0F11F460FF1BC06F5F7F4F91
:1035E0008F4F9F4F16C0882311F096E911C07723A3
:1035F00021F09EE8872F762F05C0662371F096E8AC
:10360000862F70E060E02AF09A95660F771F881F7A
:10361000DAF7880F9695879597F90895990F00081E
:10362000550FAA0BE0E8FEEF16161706E807F90794
:10363000C0F012161306E407F50798F0621B730B2F
:10364000840B950B39F40A2661F0232B242B252BB0
:1036500021F408950A2609F4A140A6958FEF811D53
:10366000811D089597F99F6780E870E060E00895F4
:103670009FEF80EC0895DF93CF931F930F93FF92FA
:10368000EF92DF927B018C01689405C0DA2EEF0186
:10369000AFD0FE01E894A5912591359145915591C2
:1036A000AEF3EF0129DEFE019701A801DA9479F764
:1036B000DF90EF90FF900F911F91CF91DF910895D0
:1036C00000240A9416161706180609060895002401
:1036D0000A9412161306140605060895C9CF50D091
:1036E000E8F3E894E0E0BB279F57F0F02AED3FE0D5
:1036F00049EC06C0EE0FBB0F661F771F881F28F02E
:10370000B23A62077307840728F0B25A620B730B50
:10371000840BE3959A9572F7803830F49A95BB0F35
:10372000661F771F881FD2F7904806C1092E0394A1
:10373000000C11F4882352F0BB0F40F4BF2B11F49E
:1037400060FF04C06F5F7F4F8F4F9F4F0895EF93CF
:10375000E0FF06C0A2EA2AED3FE049EC5FEBCCDDDA
:10376000E5DF0F90039401FC9058EDE6F1E0F7C01F
:1037700057FD9058440F551F59F05F3F71F0479522
:10378000880F97FB991F61F09F3F79F08795089507
:10379000121613061406551FF2CF4695F1DF08C026
:1037A000161617061806991FF1CF86957105610543
:1037B00008940895E894BB2766277727CB0197F9EB
:1037C00008952CDF08F48FEF08959B01AC0160E0B1
:1037D00070E080E89FE34CCE0BD0A8CF71DF28F0DB
:1037E00076DF18F0952309F03DCF42CF1124E3CFC7
:1037F000BFDFA0F3959FD1F3950F50E0551F629F57
:10380000F001729FBB27F00DB11D639FAA27F00D39
:10381000B11DAA1F649F6627B00DA11D661F829F60
:103820002227B00DA11D621F739FB00DA11D621F45
:10383000839FA00D611D221F749F3327A00D611D62
:10384000231F849F600D211D822F762F6A2F112444
:103850009F5750408AF0E1F088234AF0EE0FFF1F97
:10386000BB1F661F771F881F91505040A9F79E3FCE
:10387000510570F0F7CE9FCF5F3FECF3983EDCF33D
:10388000869577956795B795F795E7959F5FC1F70B
:10389000FE2B880F911D9695879597F908959F9314
:1038A0001EDF0F9007FCEE5F52CF11F40EF4E0CE56
:1038B00041C066DFD0F39923D9F3CEF39F57550B60
:1038C00087FF46D00024A0E640EA90018058569534
:1038D000979528F4805C660F771F881F20F02617C5
:1038E0003707480730F4621B730B840B20293129FA
:1038F0004A2BA69517940794202531254A2758F777
:10390000660F771F881F20F026173707480730F407
:10391000620B730B840B200D311D411DA09581F7A7
:10392000B901842F9158880F9695879508959B012A
:10393000AC0152CF9F3F31F0915020F4879577959D
:103940006795B795880F911D9695879597F9089576
:1039500091505040660F771F881FD2F708959F93AC
:103960008F937F936F93FF93EF939B01AC0134DFB1
:10397000EF91FF9180DE2F913F914F915F912CCF7E
:10398000EE0FFF1F0590F491E02D0994BB274A30FC
:1039900031F4992322F4BDE2909581959F4F0C94C8
:1039A000031DBB272A3051F4992342F4BDE29095C0
:1039B0008095709561957F4F8F4F9F4F0C94E11CC0
:1039C000BB27FA01A62F6217710581059105330BFC
:1039D00030FB66F0AA27660F771F881F991FAA1F62
:1039E000A21710F0A21B63953850A9F7A05DAA3367
:1039F00008F0A95DA19336F7B111B1931082CA0105
:103A00000C941C1DBB27FB015527AA27880F991F63
:103A1000AA1FA41710F0A41B83955051B9F7A05DFD
:103A2000AA3308F0A95DA193009779F7B111B1937A
:103A30001192CB010C941C1DDC01FC01672F7191CC
:103A40007723E1F7329704C07C916D937083629184
:0C3A5000AE17BF07C8F30895F894FFCF2D
:103A5C000000803F0000803F0000803F0000803F5E
:103A6C000000803F0000803F0000803F0000803F4E
:103A7C007EFF030002000AD7A33E00E10000000015
:023A8C00080030
:00000001FF
