:100000000C9444010C9461010C9461010C945A0904
:100010000C9461010C9461010C9461010C946101D8
:100020000C9461010C9461010C94DC130C94161473
:100030000C9461010C9461010C9461010C946101B8
:100040000C9461010C9461010C9461010C946101A8
:100050000C94F6080C9461010C9461010C946101FC
:100060000C9461010C9461010C9461010C94610188
:100070000C9461010C94BF090C9461010C94610112
:100080000C9461010C9461010C9461010C94610168
:100090000C9461010C9461010C9461010C94610158
:1000A0000C9461010C9461010C94610130084108C9
:1000B00050085F086E087D088C089B08AE08841302
:1000C0007C1374136C1364135C1354134C13441398
:1000D0003C1334132C1324131C1314130C13041388
:1000E000FC12F412EC12E412DC12D412CC12C41280
:1000F000BC12B412AC12A4129C1294128C12841270
:100100007C1274126C1264125C1254124C1244125F
:100110003C1234122C1224121C1214120C1204124F
:10012000FC11F411EC11E411DC11D411CC11C41147
:10013000BC11B411AC11A4119C1194118C11841137
:10014000084AD73B3BCE016E84BCBFFDC12F3D6C3E
:1001500074319ABD56833DDA3D00C77F11BED9E4A4
:10016000BB4C3E916BAAAABE000000803F05A84C84
:10017000CDB2D44EB93836A9020C50B99186880850
:100180003CA6AAAA2ABE000000803F000A000A007E
:100190005234203D20002020005233203D200020FA
:1001A00020005232203D20002020005231203D20EE
:1001B000002020004C34203D200020200020204C36
:1001C00033203D2000204C323D20002020004C31C7
:1001D000203D2000000100006B02120002000028F8
:1001E0000243000300002402040103090410021268
:1001F0000203090408020603030904FE01080803B8
:10020000340031003000000006034D0032000000D1
:1002100012034A002E0020004600690065006E00AF
:10022000650000000403090409024300020100C044
:10023000320904000001020201000524001001053A
:100240002401010104240206052406000107058299
:100250000310004009040100020A00000007050322
:100260000240000007058402400000120100020263
:10027000000010C0167A040001010203010001C150
:10028000120180360181360011241FBECFEFDAE063
:10029000DEBFCDBF11E0A0E0B1E0E6E2FBE302C0CB
:1002A00005900D92A233B107D9F722E0A2E3B1E0A5
:1002B00001C01D92A230B207E1F70E94DE160C9435
:1002C000911D0C9400002898299A91958195910987
:1002D00090912501989F802D11248093D00008953E
:1002E0002C9A0895469A0895CF93DF93E1E6F0E0C3
:1002F00080E88083108285BF85BF0E94300D0E94F8
:100300007910209A219A229A239A249A3E9A5398F5
:100310004AE069E181E00E94D80D0E94020FE1E805
:10032000F0E080818B7F8083808182608083808108
:100330008160808380818061808380818860808308
:10034000E0E8F0E08081826080838081816080834A
:10035000EFE6F0E080818160808384EC99E0909307
:1003600089008093880078941092CF001092D0007A
:1003700088EC8093D1003F9A269AE1ECF0E08081EE
:100380008860808380818460808380818D7F80838A
:1003900080818E7F8083E3ECF0E080818D7F80839D
:1003A00080818E7F8083E0ECF0E0808182608083BA
:1003B00080818068808380818F7B80838081816061
:1003C000808380818062808380818F7E8083ECE760
:1003D000F0E080818F778083808180648083AAE7CA
:1003E000B0E08C9184608C938C9182608C938C9122
:1003F00081608C93CEE7D0E088818160888388819A
:100400008260888388818061888388818062888314
:10041000888180648883888180688883CDE7D0E084
:10042000888181608883CBE7D0E088818F7D888355
:1004300080818B7F808380818D7F808380818E7F90
:1004400080838C9188608C9388818F7D8883808164
:100450008B7F808380818D7F808380818E7F80836E
:100460008C9180688C938C9180648C9340E060E0E8
:1004700080E20E94701641E060E080E20E94701607
:1004800042E060E080E20E94701643E060E080E2BB
:100490000E94701644E060E080E20E94701645E021
:1004A00060E080E20E94701646E060E080E20E9418
:1004B000701647E060E080E20E94701640E061E064
:1004C00080E2DF91CF910C9470162F923F924F9261
:1004D0005F926F927F928F929F92AF92BF92CF92D4
:1004E000DF92EF92FF920F931F93CF93DF93CDB7DD
:1004F000DEB7C458D1090FB6F894DEBF0FBECDBF2A
:100500002C01FE01319680E4DF011D928A95E9F706
:10051000BE016F5B7F4F84E2DB011D928A95E9F794
:10052000D20120E030E080E090E04D915D914F3FBE
:10053000534009F401962F5F3F4F2B303105A9F747
:100540008230910509F471C234F06E9A76986A9AF5
:10055000729A80E0F4C46E9A769A6A9A7298E796D4
:10056000FFAFEEAFE797A7965FAE4EAEA797612CB1
:10057000712CEB961FAE1EAEEB9700E010E0212C25
:10058000312CA796AEADBFADA7976D917C9180E061
:1005900090E00E94361BC358DF4F688379838A83BB
:1005A0009B83CD57D040A796EEADFFADA797628154
:1005B000738180E090E00E94361BCF57DF4F688345
:1005C00079838A839B83C158D040AB965FAE4EAE91
:1005D000AB97AF961FAE1EAEAF97E3961FAE1EAEA3
:1005E000E397AB96AEADBFADAB976D917C9180E0DC
:1005F00090E00E94361B9B01AC01C358DF4F68811D
:1006000079818A819B81CD57D0400E94CF194B01BF
:100610005C01AB96EEADFFADAB976281738180E07C
:1006200090E00E94361B9B01AC01CF57DF4F6881E1
:1006300079818A819B81C158D0400E94CF196B017A
:100640007C01A5019401C501B4010E94511C4B011C
:100650005C01A7019601C701B6010E94511C9B01D4
:10066000AC01C501B4010E94D0190E94BE1C6B01EF
:100670007C01E796EEADFFADE797AF962EAD3FADAF
:10068000AF97E20FF31F6083718382839383EB96AE
:100690004EAD5FADEB97BA01882777FD8095982F17
:1006A0000E94381B9B01AC01C701B6010E94461C89
:1006B00018166CF4C701B6010E94051BEB967FAFBC
:1006C0006EAFEB97E3960EAD1FADE3971301E39684
:1006D0008EAD9FADE3970196E3969FAF8EAFE39704
:1006E000AB96AEADBFADAB971696AB96BFAFAEAF08
:1006F000AB97AF96EEADFFADAF973496AF96FFAF29
:10070000EEAFAF97049709F06CCFFFEF6F1A7F0A37
:10071000A7962EAD3FADA7972A5F3F4FA7963FAF55
:100720002EAFA797E7964EAD5FADE797405F5F4F5F
:10073000E7965FAF4EAFE79754E06516710409F096
:1007400020CF80E090E082159305A1F180179107FA
:1007500089F1F101EE0FFF1FEE0FFF1FE80FF91FE8
:10076000EE0FFF1FEE0FFF1FEE24E394F12CEC0EB3
:10077000FD1EEE0DFF1DD801AA0FBB1FAA0FBB1F48
:10078000A80FB91FAA0FBB1FAA0FBB1FAE0DBF1D1D
:100790002D913D914D915C91608171818281938118
:1007A0000E94961A87FF0EC0902F812F8101292E5B
:1007B000382E08C001968430910529F6212C312C61
:1007C00000E010E086E0782E709E7001719EF00CC3
:1007D0001124E40CF51CD7016D917C9180E090E030
:1007E0000E94361B4B015C01F7016281738180E03E
:1007F00090E00E94361B6B017C01729C8001739C0F
:10080000100D1124040D151DD8016D917C9180E00F
:1008100090E00E94361B2B013C01F801628173813C
:1008200080E090E00E94361BE1966CAF7DAF8EAF0A
:100830009FAFE1979B01AC01C701B6010E94CF19A0
:10084000A9966CAF7DAF8EAF9FAFA997A301920120
:10085000C501B4010E94CF19A9962CAD3DAD4EAD96
:100860005FADA9970E94431AE5966CAF7DAF8EAF3E
:100870009FAFE5979B01AC015058A9962CAF3DAFB7
:100880004EAF5FAFA997CA01B9010E949A1AAD96FF
:100890006CAF7DAF8EAF9FAFAD97A3019201C50145
:1008A000B4010E94D01920E030E040E05FE30E94F4
:1008B000511C20E030E040E054E40E94CF192B01AD
:1008C0003C01A9966CAD7DAD8EAD9FADA9970E9400
:1008D000B41C4B015C01E1962CAD3DAD4EAD5FAD5E
:1008E000E197C701B6010E94D01920E030E040E056
:1008F0005FE30E94511C20E030E040EC53E40E9492
:10090000CF19E9966CAF7DAF8EAF9FAFE99780911D
:10091000270190912801A0912901B0912A01E19627
:100920008CAF9DAFAEAFBFAFE197AD966CAD7DAD77
:100930008EAD9FADAD979058A30192010E94511CBE
:100940006B017C01E9962CAD3DAD4EAD5FADE997F5
:10095000C501B4010E94511C9B01AC01C701B60145
:100960000E94CF199B01AC015058E1966CAD7DAD52
:100970008EAD9FADE1970E94511C60939E017093D4
:100980009F018093A0019093A101A3019201C50151
:10099000B4010E94511C6B017C01E9962CAD3DAD68
:1009A0004EAD5FADE997AD966CAD7DAD8EAD9FADB3
:1009B000AD970E94511C9B01AC01C701B6010E947A
:1009C000CF199B01AC01E1966CAD7DAD8EAD9FADB5
:1009D000E1970E94511C6093A2017093A301809340
:1009E000A4019093A50120E030E0A901A9966CAD87
:1009F0007DAD8EAD9FADA9970E94961A87FF83C2E9
:100A0000E5962CAD3DAD4EAD5FADE59763EC75EF72
:100A100088EC90E40E94CF1960939A0170939B0137
:100A200080939C0190939D017CC26E9A76986A9AFD
:100A30007298D20141E050E020E030E080E090E0A8
:100A40000D911C9111970F3FE3E01E0709F46BC253
:100A5000F901E81BF90BEE0FFF1FEE0FFF1FEA5520
:100A6000FE4F1183008312960D911C911397FC0188
:100A7000EE0FFF1F7A01EE1AFF0AF701EE0FFF1FBC
:100A8000EA55FE4F118300832F5F3F4F16964E5F4E
:100A90005F4F24303105A1F6AB967FAF6EAFAB97B9
:100AA00026EA31E0E3963FAF2EAFE397412C512C7D
:100AB000E7961FAE1EAEE79700E010E0212C312C28
:100AC000E396AEADBFADE3976D917C9180E090E091
:100AD0000E94361BED966CAF7DAF8EAF9FAFED974A
:100AE000E396EEADFFADE3976281738180E090E025
:100AF0000E94361BC358DF4F688379838A839B83A8
:100B0000CD57D04026EA31E0A7963FAF2EAFA7974A
:100B1000AF961FAE1EAEAF97612C712CA796AEADEF
:100B2000BFADA7976D917C9180E090E00E94361B4D
:100B30009B01AC01ED966CAD7DAD8EAD9FADED979B
:100B40000E94CF194B015C01A796EEADFFADA797B0
:100B50006281738180E090E00E94361B9B01AC01B2
:100B6000C358DF4F688179818A819B81CD57D040FE
:100B70000E94CF196B017C01A5019401C501B4014C
:100B80000E94511C4B015C01A7019601C701B601EF
:100B90000E94511C9B01AC01C501B4010E94D019F7
:100BA0000E94BE1C6B017C01AB96EEADFFADAB9716
:100BB000AF962EAD3FADAF97E20FF31F6083718309
:100BC00082839383E7964EAD5FADE797BA0188279E
:100BD00077FD8095982F0E94381B9B01AC01C701BF
:100BE000B6010E94461C181654F4C701B6010E94B3
:100BF000051BE7967FAF6EAFE797830112015FEFAA
:100C0000651A750AA7968EAD9FADA7970496A7960D
:100C10009FAF8EAFA797AF96AEADBFADAF9714960F
:100C2000AF96BFAFAEAFAF97B3E06B16710409F0EC
:100C300075CFEFEF4E1A5E0AE3962EAD3FADE39708
:100C40002C5F3F4FE3963FAF2EAFE397AB964EAD91
:100C50005FADAB97445F5F4FAB965FAF4EAFAB9767
:100C600053E04516510409F02BCF80E090E0821547
:100C7000930509F45AC18017910709F456C1F1018F
:100C8000EE0FFF1FE20DF31DE80FF91FEE0FFF1F20
:100C9000EE0FFF1F41E450E04C0F5D1FE40FF51F06
:100CA000D801AA0FBB1FA00FB11FA80FB91FAA0F11
:100CB000BB1FAA0FBB1FA40FB51F2D913D914D91D6
:100CC0005C9160817181828193810E94961A87FF75
:100CD00005C0902F812F8101292E382E7801EE0C2E
:100CE000FF1CE00EF11EF701EE0FFF1FEA55FE4F4D
:100CF0006081718180E090E00E94361B4B015C01B5
:100D0000F701EE0FFF1FE855FE4F6081718180E013
:100D100090E00E94361B6B017C018101000F111FC6
:100D2000020D131DF801EE0FFF1FEA55FE4F608103
:100D3000718180E090E00E94361B2B013C01F8019C
:100D4000EE0FFF1FE855FE4F6081718180E090E05B
:100D50000E94361BAD966CAF7DAF8EAF9FAFAD9747
:100D60009B01AC01C701B6010E94CF19A9966CAFD7
:100D70007DAF8EAF9FAFA997A3019201C501B401CA
:100D80000E94CF19A9962CAD3DAD4EAD5FADA99790
:100D90000E94431A9B01AC015058A9962CAF3DAF5D
:100DA0004EAF5FAFA997CA01B9010E949A1AE596A2
:100DB0006CAF7DAF8EAF9FAFE597A3019201C501E8
:100DC000B4010E94D01920E030E040E05FE30E94CF
:100DD000511C20E030E040E054E40E94CF192B0188
:100DE0003C01A9966CAD7DAD8EAD9FADA9970E94DB
:100DF000B41C4B015C01AD962CAD3DAD4EAD5FAD6D
:100E0000AD97C701B6010E94D01920E030E040E064
:100E10005FE30E94511C20E030E040EC53E40E946C
:100E2000CF19E1966CAF7DAF8EAF9FAFE197809108
:100E3000270190912801A0912901B0912A01AD9636
:100E40008CAF9DAFAEAFBFAFAD97E5966CAD7DAD4E
:100E50008EAD9FADE5979058A30192010E94511C61
:100E60006B017C01E1962CAD3DAD4EAD5FADE197E0
:100E7000C501B4010E94511C9B01AC01C701B60120
:100E80000E94CF199B01AC015058AD966CAD7DAD61
:100E90008EAD9FADAD970E94511C60939E017093E3
:100EA0009F018093A0019093A101A3019201C5012C
:100EB000B4010E94511C6B017C01E1962CAD3DAD4B
:100EC0004EAD5FADE197E5966CAD7DAD8EAD9FAD5E
:100ED000E5970E94511C9B01AC01C701B6010E941D
:100EE000CF199B01AC01AD966CAD7DAD8EAD9FADC4
:100EF000AD970E94511C6093A2017093A30180934F
:100F0000A4019093A501A9962CAD3DAD4EAD5FAD6A
:100F1000A99720939A0130939B0140939C01509391
:100F20009D0181E00CC00196AFCD01968330910503
:100F300009F09DCE212C312C00E010E0CFCECC5713
:100F4000DF4F0FB6F894DEBF0FBECDBFDF91CF915C
:100F50001F910F91FF90EF90DF90CF90BF90AF90D7
:100F60009F908F907F906F905F904F903F902F90C9
:100F70000895CF92DF92EF92FF920F931F93CF933A
:100F8000DF93EC018B01FB01208131814281538190
:100F9000688179818A819B810E94511C20E030E028
:100FA000A9010E94D0196B017C01F80124813581CF
:100FB000468157816C817D818E819F810E94511C69
:100FC0009B01AC01C701B6010E94D019DF91CF91FE
:100FD0001F910F91FF90EF90DF90CF900895AF9207
:100FE000BF92CF92DF92EF92FF920F931F93CF9316
:100FF000DF93C0E0D0E0C12CD12C7601A12CB12C24
:101000008E01000F111F000F111F065C1E4FF8010B
:101010006081718182819381A70196010E94461CA3
:10102000181634F4F801C080D180E280F3805E01AC
:101030002196C830D10521F720E030E048EC52E499
:10104000C701B6010E94961A87FD88C0F9E0AF1665
:10105000B10408F08FC0F501EA5AFF4F0C94251D2A
:101060008CE390E0909339018093380188E290E01E
:10107000909337018093360110927D0110927C018C
:1010800079C086E490E090933901809338018EE135
:1010900090E0909337018093360181E090E059C051
:1010A00084E190E090933901809338018CEE9FEFBA
:1010B000909337018093360182E090E04AC084E14A
:1010C00090E090933901809338018CEE9FEF9093DC
:1010D00037018093360183E090E03BC08CEE9FEFB8
:1010E000909339018093380184E190E09093370127
:1010F0008093360184E090E02CC08CEE9FEF9093BB
:1011000039018093380184E190E090933701809316
:10111000360185E090E01DC08EE190E090933901AA
:101120008093380186E490E09093370180933601F4
:1011300086E090E00EC088E290E0909339018093C1
:1011400038018CE390E0909337018093360187E07B
:1011500090E090937D0180937C010CC084E190E04D
:1011600090933901809338018CEE9FEF9093370173
:1011700080933601DF91CF911F910F91FF90EF90F7
:10118000DF90CF90BF90AF9008951816190654F4D1
:10119000289A299890912501989F802D1124809359
:1011A000D00008950C9463012091250118161906AA
:1011B00044F4289F802D11248093CF002A9A2B98E5
:1011C0000895919581959109289F802D11248093F0
:1011D000CF002A982B9A089581110C9470012C98B5
:1011E000089581110C947201469808951F920F92F0
:1011F0000FB60F9211242F933F934F935F936F93EA
:101200007F938F939F93AF93BF93EF93FF938EEB57
:1012100091E00E94E70F8EEB91E00E9465028093BF
:1012200098018823B1F160919E0170919F01809196
:10123000A0019091A1010E94051B6093D6016091CD
:10124000A2017091A3018091A4019091A5010E9437
:10125000051B6093D70120E030E04EEF52E460912F
:101260009A0170919B0180919C0190919D010E9437
:10127000511C2AE939E949EC50E40E949D1A0E9468
:10128000051B6093D8014AE066ED71E088E10E9499
:10129000810EFF91EF91BF91AF919F918F917F91BF
:1012A0006F915F914F913F912F910F900FBE0F90D3
:1012B0001F9018951F920F920FB60F9211242F9323
:1012C0003F934F935F936F937F938F939F93AF93CE
:1012D000BF93EF93FF936AE080EE91E00E94300E9F
:1012E0008091E001813A39F1843A41F1803A61F527
:1012F0008091320190913301019779F40E9470013D
:101300002FEF81EE94E0215080409040E1F700C043
:10131000000080E00E94EC080EC00E9472012FEFD6
:1013200081EE94E0215080409040E1F700C0000041
:1013300080E00E94F10883E090E002C081E090E04C
:1013400090932401809323018091230190912401A3
:101350000E9499158CE891E00E946515FF91EF912C
:10136000BF91AF919F918F917F916F915F914F91BD
:101370003F912F910F900FBE0F901F9018951F92C5
:101380000F920FB60F9211240F931F932F933F9339
:101390004F935F936F937F938F939F93AF93BF937D
:1013A000CF93DF93EF93FF9380915A0190915B016C
:1013B000892B09F041C0609178007091790000910B
:1013C0005A0110915B01C0915A01D0915B0180E0FC
:1013D00090E00E94361BF801EE0FFF1FEE0FFF1F7B
:1013E000E45AFE4F20813181428153810E94CF19FE
:1013F000CC0FDD1FCC0FDD1FCF5FDE4F2881398181
:101400004A815B810E94511C0E94051B7093F3016D
:101410006093F20180915A0190915B010196909343
:101420005B0180935A0180917A008F7780937A00D4
:1014300080917B008F7DE3C180915A0190915B0187
:10144000019709F057C06091780070917900009180
:101450005A0110915B01C0915A01D0915B0180E06B
:1014600090E00E94361BF801EE0FFF1FEE0FFF1FEA
:10147000E45AFE4F20813181428153810E94CF196D
:10148000CC0FDD1FCC0FDD1FCF5FDE4F28813981F0
:101490004A815B810E94511C0E94051B70930102CE
:1014A0006093000280915A0190915B0101969093A4
:1014B0005B0180935A0180917A008F7780937A0044
:1014C00080917B008F7D80937B0080917C00846085
:1014D00080937C0080917C008D7F80937C00809144
:1014E0007C008E7F80937C0080917A008061809365
:1014F0007A00FCC180915A0190915B01029709F03A
:1015000046C0609178007091790000915A01109165
:101510005B01C0915A01D0915B0180E090E00E9494
:10152000361BF801EE0FFF1FEE0FFF1FE45AFE4FB0
:1015300020813181428153810E94CF19CC0FDD1F60
:10154000CC0FDD1FCF5FDE4F288139814A815B815F
:101550000E94511C0E94051B7093F9016093F801D1
:1015600080915A0190915B01019690935B01809369
:101570005A0180917A008F7780937A0080917B0066
:101580008F7D80937B0080917C0084603DC1809141
:101590005A0190915B01039709F04BC0609178006C
:1015A0007091790000915A0110915B01C0915A012C
:1015B000D0915B0180E090E00E94361BF801EE0FB5
:1015C000FF1FEE0FFF1FE45AFE4F20813181428141
:1015D00053810E94CF19CC0FDD1FCC0FDD1FCF5FD1
:1015E000DE4F288139814A815B810E94511C0E9413
:1015F000051B7093FF016093FE0180915A01909149
:101600005B01019690935B0180935A0180917A006F
:101610008F7780937A0080917B008F7D80937B0011
:1016200080917C00846080937C0080917C0082604B
:1016300054CF80915A0190915B01049709F04BC0FF
:10164000609178007091790000915A0110915B01CE
:10165000C0915A01D0915B0180E090E00E94361B5E
:10166000F801EE0FFF1FEE0FFF1FE45AFE4F20811F
:101670003181428153810E94CF19CC0FDD1FCC0FE5
:10168000DD1FCF5FDE4F288139814A815B810E9457
:10169000511C0E94051B7093F7016093F601809125
:1016A0005A0190915B01019690935B0180935A01DE
:1016B00080917A008F7780937A0080917B008F7D74
:1016C00080937B0080917C00846080937C0080917B
:1016D0007C0082609EC080915A0190915B010597C9
:1016E00009F046C0609178007091790000915A012C
:1016F00010915B01C0915A01D0915B0180E090E0B4
:101700000E94361BF801EE0FFF1FEE0FFF1FE45A79
:10171000FE4F20813181428153810E94CF19CC0F2D
:10172000DD1FCC0FDD1FCF5FDE4F288139814A815D
:101730005B810E94511C0E94051B7093FD01609308
:10174000FC0180915A0190915B01019690935B019D
:1017500080935A0180917A008F7780937A008091EC
:101760007B00806280937B0080917C008B7FB0CE79
:1017700080915A0190915B01069709F050C06091E9
:1017800078007091790000915A0110915B01C0912D
:101790005A01D0915B0180E090E00E94361BF80175
:1017A000EE0FFF1FEE0FFF1FE45AFE4F2081318125
:1017B000428153810E94CF19CC0FDD1FCC0FDD1F5A
:1017C000CF5FDE4F288139814A815B810E94511CA5
:1017D0000E94051B7093EF016093EE0180915A0106
:1017E00090915B01019690935B0180935A018091E7
:1017F0007A008F7780937A0080917B00806280935B
:101800007B0080917C008B7F80937C0080917C00AA
:101810008D7F80937C0080917C00816063CE80917D
:101820005A0190915B01079709F060C060917800C0
:101830007091790000915A0110915B01C0915A0199
:10184000D0915B0180E090E00E94361BF801EE0F22
:10185000FF1FEE0FFF1FE45AFE4F208131814281AE
:1018600053810E94CF19CC0FDD1FCC0FDD1FCF5F3E
:10187000DE4F288139814A815B810E94511C0E9480
:10188000051B7093F5016093F40180915A019091CA
:101890005B01019690935B0180935A0180917A00DD
:1018A0008F7780937A0080917B008F7D80937B007F
:1018B00080917C008B7F80937C0080917C008D7F69
:1018C00080937C0080917C008E7F80937C0080914F
:1018D0007A00806180937A0010925B0110925A0125
:1018E00081E090E09093FB018093FA018091FA01EE
:1018F0009091FB01892B09F490C06091F2017091E5
:10190000F301882777FD8095982F0E94381B6093FC
:101910003A0170933B0180933C0190933D016091AB
:10192000000270910102882777FD8095982F0E9410
:10193000381B60933E0170933F0180934001909368
:1019400041016091F8017091F901882777FD809538
:10195000982F0E94381B609342017093430180933B
:101960004401909345016091FE017091FF01882729
:1019700077FD8095982F0E94381B609346017093E5
:10198000470180934801909349016091F40170915F
:10199000F501882777FD8095982F0E94381B60936A
:1019A0004A0170934B0180934C0190934D016091DB
:1019B000EE017091EF01882777FD8095982F0E94A6
:1019C000381B60934E0170934F01809350019093A8
:1019D00051016091FC017091FD01882777FD809590
:1019E000982F0E94381B609352017093530180938B
:1019F0005401909355016091F6017091F701882789
:101A000077FD8095982F0E94381B60935601709344
:101A1000570180935801909359011092FB01109245
:101A2000FA0180917A00806880937A0080917A0030
:101A3000806480937A00FF91EF91DF91CF91BF9105
:101A4000AF919F918F917F916F915F914F913F9156
:101A50002F911F910F910F900FBE0F901F9018950F
:101A6000589A599A5A9A8CE08093B800E9E6F0E0C7
:101A700080818062808380818F7E8083EA9A7894DF
:101A8000089584E88093BC008091BC0087FFFCCF60
:101A90008091BB00089584E98093BC00089520E004
:101AA00030E08091BC0087FD06C02F5F3F4F293E8C
:101AB00083E03807B1F781E0283E334009F480E045
:101AC00008958093BB0084E88093BC000E944F0D72
:101AD000882321F08091B900887F089580E00895DF
:101AE0001F93CF93DF931F92CDB7DEB7182F84EAF1
:101AF0008093BC0069830E944F0D6981811104C0ED
:101B000094E99093BC0014C0812F880F662331F0B4
:101B10008F5F0E94610D883451F404C00E94610DF2
:101B2000803229F484E98093BC0080E001C081E028
:101B30000F90DF91CF911F910895CF93DF93C82F1E
:101B4000D62F60E00E94700D882391F08D2F0E94A7
:101B5000610D882369F084E98093BC0061E08C2FDB
:101B60000E94700D882321F0DF91CF910C94410DDC
:101B700080E0DF91CF910895CF93DF93D62FC42FCC
:101B800060E00E94700D811102C080E00EC08D2FB8
:101B90000E94610D8823C9F38C2F0E94610D882358
:101BA000A1F384E98093BC0081E0DF91CF91089597
:101BB000CF93DF9300D01F92CDB7DEB74B836A83FC
:101BC00089830E94300D94EA9093BC0089816A81D8
:101BD0004B819091BC0097FFFCCF90E59093BB00A8
:101BE00094E89093BC009091BC0097FFFCCF90913B
:101BF000B900987F903229F484E98093BC0080E09A
:101C000029C091E09093BB0094E89093BC00909120
:101C1000BC0097FFFCCF8093BB0084E88093BC009E
:101C20008091BC0087FFFCCF6093BB0084E8809369
:101C3000BC008091BC0087FFFCCF4093BB0084E8D0
:101C40008093BC008091BC0087FFFCCF84E9809327
:101C5000BC0081E00F900F900F90DF91CF9108951D
:101C600024EA2093BC002091BC0027FFFCCF21E593
:101C70002093BB0024E82093BC002091BC0027FFE8
:101C8000FCCF2091B900287F2834A9F024EC2093C0
:101C9000BC002091BC0027FFFCCF2091BB00261385
:101CA0000AC0FC0120E030E0772767FD70956150A5
:101CB000710944EC0EC084E98093BC0080E0089573
:101CC0005091BC0057FFFCCF5091BB0051932F5F48
:101CD0003F4F261737071CF44093BC00F1CF44E870
:101CE0004093BC004091BC0047FFFCCF4091BB003B
:101CF000FC01E20FF31F408384E98093BC0081E084
:101D00000895F89494EA9093BC009091BC0097FFDA
:101D1000FCCF90E59093BB0094E89093BC00909129
:101D2000BC0097FFFCCF9091B900987F903231F4BE
:101D300084E98093BC00789480E0089593E09093C8
:101D4000BB0094E89093BC009091BC0097FFFCCF3F
:101D50008093BB0084E88093BC008091BC0087FF27
:101D6000FCCFFB01552747FD509524E8CF01861B8A
:101D7000970B8417950754F481918093BB002093AF
:101D8000BC008091BC0087FFFCCFF0CF84E980933A
:101D9000BC00789481E0089520E030E08091BC00A0
:101DA00087FD06C02F5F3F4F293E83E03807B1F71C
:101DB00081E0283E334009F480E008958093BB0021
:101DC00084E88093BC000E94CC0E882319F0809197
:101DD000B900887F0895CF93C82F84EA8093BC0010
:101DE0000E94CC0E882361F08C2F880F0E94DE0E9B
:101DF000803229F484E98093BC0080E001C081E056
:101E0000CF9108950E94300D88E50E94EB0E81115C
:101E100002C080E0089580E30E94DE0E8823C9F3AB
:101E200081E00E94DE0E8823A1F384E98093BC0048
:101E30008FE39CE90197F1F700C0000088E50E945C
:101E4000EB0E882331F380E00E94DE0E882309F335
:101E500080E00E94DE0E8823E1F280E00E94DE0E28
:101E60008823B9F280E00E94DE0E882391F280E0A0
:101E70000E94DE0E882369F280E00E94DE0E882335
:101E800041F280E00E94DE0E882319F280E90E9470
:101E9000DE0E882309F4BDCF84E98093BC008FE374
:101EA0009CE90197F1F700C0000088E50E94EB0E65
:101EB000882309F4AECF87E00E94DE0E882309F460
:101EC000A8CF80E00E94DE0E882309F4A2CF81E42F
:101ED0000E94DE0E882309F49CCF84E98093BC0025
:101EE0008FE39CE90197F1F700C0000088E50E94AC
:101EF000EB0E882309F48DCF8AE10E94DE0E882341
:101F000009F487CF80E40E94DE0E882309F481CF94
:101F100080E00E94DE0E882309F47BCF84E9809361
:101F2000BC008FE39CE90197F1F700C0000088E551
:101F30000E94EB0E882309F46CCF83E30E94DE0E2F
:101F4000882309F466CF83E00E94DE0E882309F41B
:101F500060CF84E98093BC008FE39CE90197F1F79F
:101F600000C0000088E50E94EB0E882309F451CFE1
:101F700080E30E94DE0E882309F44BCF88E00E94A4
:101F8000DE0E882309F445CF84E98093BC008FE3FB
:101F90009CE90197F1F700C0000081E00895CF931C
:101FA000C82F84EA8093BC000E94CC0E882369F07D
:101FB0008C2F880F8F5F0E94DE0E883429F484E90D
:101FC0008093BC0080E001C081E0CF910895EF9242
:101FD000FF920F931F93CF93DF93CDB7DEB7609738
:101FE0000FB6F894DEBF0FBECDBF7C018E010F5F30
:101FF0001F4F80E1F80111928A95E9F788E50E9468
:10200000EB0E811102C080E05EC086E30E94DE0E0E
:102010008823C9F384E98093BC00F5E8FA95F1F7C9
:10202000000088E50E94CF0F882369F3F8019E0124
:10203000205F3F4F94EC9093BC008091BC0087FFE1
:10204000FCCF8091BB008193E217F307A1F784E8EE
:102050008093BC008091BC0087FFFCCF8091BB00C7
:10206000888B84E98093BC00DE01149687016C9113
:10207000762F7073AD0142505109FA01808190E0D2
:10208000F0E17F9F800D911D1124F80191838083E1
:10209000762F707C4F5F5F4FFA01808190E0F4E013
:1020A0007F9F800D911D1124F801938382836F70AF
:1020B000862F90E09583848313960A5F1F4FA217A3
:1020C000B307A9F681E060960FB6F894DEBF0FBEA5
:1020D000CDBFDF91CF911F910F91FF90EF900895A9
:1020E00084E98093BC0008958091E80080FFFCCFD4
:1020F000089581E08093D70080EA8093D80082E140
:1021000089BD09B400FEFDCF80E98093D80010920C
:10211000E0001092ED011092EA018CE08093E20061
:10212000789408958091ED0108959FB7F894809177
:10213000ED01882339F083E08093E9008091E80085
:1021400085FD03C09FBF8FEF08958091F10020911E
:10215000E80025FD03C02BE62093E8009FBF08950B
:102160009FB7F8948091ED01882331F083E080934C
:10217000E9008091F20001C080E09FBF0895809146
:10218000ED01882371F08FB7F89493E09093E90004
:102190002BE69091E80095FF03C02093E800F9CF6B
:1021A0008FBF08959091ED01992371F09FB7F89436
:1021B00024E02093E9002091EB01222349F02091B3
:1021C000E80025FD03C09FBF8FEF08951092EB013B
:1021D0002091E400275E34E04091E80045FD12C004
:1021E0009FBF9091E400921304C081E08093EB01C3
:1021F000EBCF9091ED01992339F39FB7F894309389
:10220000E900EACF8093F1008091E80085FD03C0EA
:102210008AE38093E80085E08093EC019FBF80E033
:1022200008959091ED019923D1F09FB7F89424E09F
:102230002093E9002091E80025FD02C09FBF0FC058
:102240008093F1008091E80085FD03C08AE38093CC
:10225000E80085E08093EC019FBF80E008958FEF58
:102260000895EF92FF921F93CF93DF937C01CB01F0
:102270002091ED01222371F0AFB7F89424E0209370
:10228000E9002091EB01222349F02091E80025FD8F
:1022900003C0AFBF8FEF42C21092EB01B4E0C0E4C5
:1022A000DAE315E0009709F437C22091E400275ED5
:1022B0003091E80035FD12C0AFBF3091E400321319
:1022C00004C081E08093EB01E5CF3091ED01332331
:1022D00009F3AFB7F894B093E900EACF2091F20088
:1022E0004C2F421B242F30E08217930708F4482F0D
:1022F000841B910950E04134510508F0FDC1415A59
:102300005F4FFA010C94251DF70120812093F10005
:1023100097012F5F3F4F7901F70120812093F10052
:1023200097012F5F3F4F7901F70120812093F10042
:1023300097012F5F3F4F7901F70120812093F10032
:1023400097012F5F3F4F7901F70120812093F10022
:1023500097012F5F3F4F7901F70120812093F10012
:1023600097012F5F3F4F7901F70120812093F10002
:1023700097012F5F3F4F7901F70120812093F100F2
:1023800097012F5F3F4F7901F70120812093F100E2
:1023900097012F5F3F4F7901F70120812093F100D2
:1023A00097012F5F3F4F7901F70120812093F100C2
:1023B00097012F5F3F4F7901F70120812093F100B2
:1023C00097012F5F3F4F7901F70120812093F100A2
:1023D00097012F5F3F4F7901F70120812093F10092
:1023E00097012F5F3F4F7901F70120812093F10082
:1023F00097012F5F3F4F7901F70120812093F10072
:1024000097012F5F3F4F7901F70120812093F10061
:1024100097012F5F3F4F7901F70120812093F10051
:1024200097012F5F3F4F7901F70120812093F10041
:1024300097012F5F3F4F7901F70120812093F10031
:1024400097012F5F3F4F7901F70120812093F10021
:1024500097012F5F3F4F7901F70120812093F10011
:1024600097012F5F3F4F7901F70120812093F10001
:1024700097012F5F3F4F7901F70120812093F100F1
:1024800097012F5F3F4F7901F70120812093F100E1
:1024900097012F5F3F4F7901F70120812093F100D1
:1024A00097012F5F3F4F7901F70120812093F100C1
:1024B00097012F5F3F4F7901F70120812093F100B1
:1024C00097012F5F3F4F7901F70120812093F100A1
:1024D00097012F5F3F4F7901F70120812093F10091
:1024E00097012F5F3F4F7901F70120812093F10081
:1024F00097012F5F3F4F7901F70120812093F10071
:1025000097012F5F3F4F7901F70120812093F10060
:1025100097012F5F3F4F7901F70120812093F10050
:1025200097012F5F3F4F7901F70120812093F10040
:1025300097012F5F3F4F7901F70120812093F10030
:1025400097012F5F3F4F7901F70120812093F10020
:1025500097012F5F3F4F7901F70120812093F10010
:1025600097012F5F3F4F7901F70120812093F10000
:1025700097012F5F3F4F7901F70120812093F100F0
:1025800097012F5F3F4F7901F70120812093F100E0
:1025900097012F5F3F4F7901F70120812093F100D0
:1025A00097012F5F3F4F7901F70120812093F100C0
:1025B00097012F5F3F4F7901F70120812093F100B0
:1025C00097012F5F3F4F7901F70120812093F100A0
:1025D00097012F5F3F4F7901F70120812093F10090
:1025E00097012F5F3F4F7901F70120812093F10080
:1025F00097012F5F3F4F7901F70120812093F10070
:1026000097012F5F3F4F7901F70120812093F1005F
:1026100097012F5F3F4F7901F70120812093F1004F
:1026200097012F5F3F4F7901F70120812093F1003F
:1026300097012F5F3F4F7901F70120812093F1002F
:1026400097012F5F3F4F7901F70120812093F1001F
:1026500097012F5F3F4F7901F70120812093F1000F
:1026600097012F5F3F4F7901F70120812093F100FF
:1026700097012F5F3F4F7901F70120812093F100EF
:1026800097012F5F3F4F7901F70120812093F100DF
:1026900097012F5F3F4F7901F70120812093F100CF
:1026A00097012F5F3F4F7901F70120812093F100BF
:1026B00097012F5F3F4F7901F70120812093F100AF
:1026C00097012F5F3F4F7901F70120812093F1009F
:1026D00097012F5F3F4F7901F70120812093F1008F
:1026E00097012F5F3F4F7901F70120812093F1007F
:1026F00097012F5F3F4F7901F70120812093F1006F
:1027000097012F5F3F4F79012091E80025FFD0937B
:10271000E8001093EC01C6CDAFBF80E0DF91CF9110
:102720001F91FF90EF9008958FB7F8949091EC016E
:10273000992341F094E09093E9009AE39093E800A4
:102740001092EC018FBF089580912F010895809120
:10275000300108958091310108958091EA01089532
:102760009FB7F8942091ED01222339F022E02093C5
:10277000E9003091E80035FD03C09FBF8FEF089559
:1027800031EA3093F10030E23093F1001092F10021
:102790001092F1001092F1001092F1002093F100DC
:1027A0001092F1008093F1001092F1008AE380937F
:1027B000E8009FBF80E008951F920F920FB60F921E
:1027C00011248F939F938091E1001092E10083FF89
:1027D00011C01092E90091E09093EB001092EC0090
:1027E00092E19093ED0098E09093F0001092ED014B
:1027F0001092EA0182FF13C08091ED01882379F0E5
:102800008091EC01882359F081508093EC01811173
:1028100006C084E08093E9008AE38093E8009F91FA
:102820008F910F900FBE0F901F9018951F920F92CF
:102830000FB60F921124EF92FF920F931F932F93D5
:102840003F934F935F936F937F938F939F93AF9338
:10285000BF93EF93FF93CF93DF931F92CDB7DEB774
:102860001092E9008091E80083FF14C19091F1007B
:102870008091F1003091F1002091F100E32EF12CD4
:10288000F22A0091F1002091F10010E0122B20912A
:10289000F1006091F10032EF3093E800863009F0EA
:1028A00046C036E084ED91E0FC01459154914E150F
:1028B0005F0539F4FC013296459154914017510758
:1028C00021F00796315081F7E5C0FC01349645911F
:1028D0005491FC013696849130E0362B2F3F310520
:1028E00019F010F02FEF30E0281708F4822F3EEF98
:1028F0009091E800292F2570D9F392FDCEC0982F32
:10290000813108F090E1FA01292F222331F06491FE
:102910006093F10021503196F8CF490F511D891B6A
:102920003093E8008111E4CF903111F3B6C08530C7
:1029300051F48EEF8093E8000E9474108E2D806811
:102940008093E300AAC0893059F5911180C0E092CC
:10295000ED011092EA011092EC018EEF8093E800F5
:1029600041E08DE792E04093E9009C012F5F3F4FEB
:10297000FC0154915093EB00552359F0F901249137
:102980002093EC009C012D5F3F4F31968491809302
:10299000ED004F5F453011F0C901E5CF8EE175C004
:1029A000883051F4903809F052C00E947410809120
:1029B000ED018093F10047C0813279F4913A09F03A
:1029C00046C00E947410EBE2F1E081918093F10027
:1029D00081E0E233F807C9F736C0803299F49132CA
:1029E000B1F58091E80082FFFCCFEBE2F1E080914D
:1029F000F100819381E0E233F807C9F78BEF809310
:102A0000E80021C0823241F4913209F043C0E092E3
:102A1000EA010E94741017C0811119C099830E94A5
:102A200074109981923851F40093E9008091EB0081
:102A300085FB882780F91092E90001C080E080932F
:102A4000F1001092F1008EEF8093E80026C0282F4D
:102A50002D7F2130F9F49230E9F4EF28D9F40F7783
:102A60009FEF900F9430B0F49EEF9093E8000093A6
:102A7000E900833079F089E18093EB0081E090E018
:102A8000002E01C0880F0A94EAF78093EA001092A2
:102A9000EA0003C081E28093EB000F90DF91CF91B9
:102AA000FF91EF91BF91AF919F918F917F916F9126
:102AB0005F914F913F912F911F910F91FF90EF9058
:102AC0000F900FBE0F901F9018951F93CF93DF9319
:102AD000EC01FE011491112351F01A3019F48DE02C
:102AE0000E94D210812F0E94D2102196F2CFDF9146
:102AF000CF911F9108958A3010F490E301C097E3BD
:102B0000890F0C94D210CF93C82F82958F700E949A
:102B10007B158C2F8F70CF910C947B15CF93C82F82
:102B2000892F0E9483158C2FCF910C9483150C94C0
:102B30008315EF92FF920F931F93CF93DF93CDB73F
:102B4000DEB727970FB6F894DEBF0FBECDBF8E015C
:102B50000F5F1F4F27E0F80111922A95E9F74AE02D
:102B6000B8010E942B1D7E01F8E0EF0EF11CF80168
:102B700081918F0181110E94D2100E151F05B9F7A6
:102B800027960FB6F894DEBF0FBECDBFDF91CF9171
:102B90001F910F91FF90EF900895EF92FF920F9386
:102BA0001F93CF93DF9300D000D000D0CDB7DEB716
:102BB0008E010F5F1F4F26E0F80111922A95E9F769
:102BC0004AE0B8010E94671D7E01F6E0EF0EF11C9D
:102BD000F80181918F0181110E94D2100E151F05FD
:102BE000B9F726960FB6F894DEBF0FBECDBFDF91C2
:102BF000CF911F910F91FF90EF900895EF92FF9268
:102C00000F931F93CF93DF93CDB7DEB72B970FB6FC
:102C1000F894DEBF0FBECDBF8E010F5F1F4F2BE0BC
:102C2000F80111922A95E9F72AE0A8010E94361DC1
:102C30007E01FCE0EF0EF11CF80181918F01811102
:102C40000E94D2100E151F05B9F72B960FB6F894F7
:102C5000DEBF0FBECDBFDF91CF911F910F91FF90CF
:102C6000EF900895EF92FF920F931F93CF93DF930E
:102C7000CDB7DEB72B970FB6F894DEBF0FBECDBF32
:102C80008E010F5F1F4F2BE0F80111922A95E9F793
:102C90002AE0A8010E94451D7E01FBE0EF0EF11C19
:102CA000F80181918F0181110E94D2100E151F052C
:102CB000B9F72B960FB6F894DEBF0FBECDBFDF91EC
:102CC000CF911F910F91FF90EF90089548E365E039
:102CD0000E94BC0D91E0811101C090E0892F089500
:102CE0001F93CF93DF93D82FC62F142F0E949D0DD3
:102CF000C23058F4E1E0F0E0012E01C0EE0F0A947A
:102D0000EAF74E2F409548230DC09EEE9C0F92305F
:102D100078F421E030E0012E01C0220F0A94EAF796
:102D2000482F422B6C2F8D2F0E94BC0D81E001C0DB
:102D300080E0DF91CF911F9108951F93CF93DF9390
:102D4000D82FC62F142F0E949D0D9EEE9C0F9230FF
:102D500058F4E1E0F0E0012E01C0EE0F0A94EAF72A
:102D60004E2F409548230BC0C23078F421E030E06C
:102D7000012E01C0220F0A94EAF7482F422B6C2F34
:102D80008D2F0E94BC0D81E001C080E0DF91CF91CA
:102D90001F910895CF93DF931F92CDB7DEB749837C
:102DA0000E949D0D90E0498102C0959587954A95B6
:102DB000E2F781700F90DF91CF9108950E94740126
:102DC00001E010E0C4E1D0E0ECEEAE2EBB24BA94FA
:102DD000F0E58F2E912CA2E82A2E312C80E00E9463
:102DE000EC080E9472018EEC91E00E9465158091C2
:102DF000F2019091F3010E9499158BEC91E00E94F1
:102E0000651585EC91E00E94651580910002909116
:102E100001020E9499158DEB91E00E946515809149
:102E2000F8019091F9010E9499158AEB91E00E94B6
:102E3000651584EB91E00E9465158091FE019091EB
:102E4000FF010E94991581EB91E00E9465158BEAC4
:102E500091E00E9465158091F6019091F7010E9422
:102E6000991588EA91E00E94651582EA91E00E9436
:102E700065158091FC019091FD010E9499158FE9E3
:102E800091E00E94651589E991E00E9465158091A5
:102E9000EE019091EF010E94991586E991E00E9460
:102EA000651580E991E00E9465158091F40190918B
:102EB000F5010E9499158EE891E00E9465158091B8
:102EC0002301909124018230910509F465C01CF41E
:102ED000019749F05FC28330910509F475C10497E9
:102EE00009F49EC157C21092930110929201109260
:102EF00091011092900180E090E00E946301809126
:102F00009001909191010E94D4084B9B1EC080912A
:102F100000018823D1F00E9470012FEF81EE94E030
:102F2000215080409040E1F700C0000080E00E9406
:102F3000EC0880E00E94F1083092220120922101E9
:102F4000109333010093320124C04B9947CF8091F5
:102F50000001882309F442CF0E947201AFEFB1EE65
:102F600024E0A150B0402040E1F700C0000080E024
:102F70000E94F10880E00E94EC088EE79FEF90939A
:102F8000220180932101A2E0B0E0B0933301A0932D
:102F900032011092000122CFBFEF22E587E0B1504D
:102FA00020408040E1F700C00000809188019091AE
:102FB0008901892B09F045C010938901009388018C
:102FC00020E030E0A90160919E0170919F01809105
:102FD000A0019091A1010E94961A87FF11C082E57D
:102FE00098EBA6E9B0E48093940190939501A093A7
:102FF0009601B093970180E090E0A8ECB2E410C095
:1030000083EC95EFA8ECBFE3809394019093950136
:10301000A0939601B093970180E090E0A8ECB2EC09
:1030200080938C0190938D01A0938E01B0938F01BA
:103030009FEFA1EEB4E09150A040B040E1F700C096
:10304000000060919E0170919F018091A00190917C
:10305000A1010E94051B7B0177FF04C0EE24FF2421
:10306000E61AF70A60918C0170918D0180918E01B2
:1030700090918F010E94051B9B0177FF04C02227BE
:103080003327261B370BE216F3060CF083C12BE720
:1030900034E14EE25EE3609194017091950180917C
:1030A0009601909197010E94D0199B01AC0160910B
:1030B0009A0170919B0180919C0190919D010E94C9
:1030C000461C181694F4D0939301C0939201B092C9
:1030D0009101A092900184E190E00E94C508809146
:1030E0009001909191010E94D4082BE734E14EE2C7
:1030F0005EE36091940170919501809196019091A9
:1031000097010E94CF199B01AC0160919A017091C7
:103110009B0180919C0190919D010E94961A87FFCE
:1031200012C0B0929301A0929201D0939101C093EA
:1031300090018CEE9FEF0E9463018091900190912D
:1031400091010E94D40840909401509095016090A4
:10315000960170909701C0909A01D0909B01E090E9
:103160009C01F0909D012BE734E14EE25EE3C30148
:10317000B2010E94CF19A70196010E94961A87FFFB
:103180002DCE2BE734E14EE25EE3C301B2010E9493
:10319000D0199B01AC01C701B6010E94961A87FFA6
:1031A0001DCED0939301C0939201D0939101C0930F
:1031B000900184E190E00E94C50880919001909177
:1031C00091010E94D4080ACE0E9470010E94EF076C
:1031D00080913801909139019093910180939001F1
:1031E00080913601909137019093930180939201E1
:1031F0000E94C50880919001909191010E94D4088D
:103200006E9A769A8091340190913501892B09F458
:10321000E5CD84E090E09093240180932301DECDFE
:10322000E0902101F090220160919E0170919F0138
:103230008091A0019091A1010E94051B9B0177FF45
:1032400004C022273327261B370BF7FE03C0F19457
:10325000E194F1082E153F050CF09CC02BE734E1FA
:103260004EE25EE360917E0170917F01809180016A
:10327000909181010E94D0199B01AC0160919A014B
:1032800070919B0180919C0190919D010E94461C30
:10329000181694F4D0939301C0939201B0929101C7
:1032A000A092900184E190E00E94C5088091900175
:1032B000909191010E94D4082BE734E14EE25EE345
:1032C00060917E0170917F018091800190918101D8
:1032D0000E94CF199B01AC0160919A0170919B01F2
:1032E00080919C0190919D010E94961A87FF12C0C7
:1032F000B0929301A0929201D0939101C09390015A
:103300008CEE9FEF0E94630180919001909191015A
:103310000E94D40840907E0150907F01609080010F
:1033200070908101C0909A01D0909B01E0909C0127
:10333000F0909D012BE734E14EE25EE3C301B20160
:103340000E94CF19A70196010E94961A87FF22C0FA
:103350002BE734E14EE25EE3C301B2010E94D019D3
:103360009B01AC01C701B6010E94961A87FF12C0EB
:10337000909293018092920190929101809290019B
:1033800080E590E00E94C5088091900190919101A4
:103390000E94D40810932401009323011FCD50589C
:1033A000BB27AA270ED027C2F0D130F0F5D120F0EC
:1033B00031F49F3F11F41EF4C0C10EF4E095E7FB19
:1033C000B6C1E92F3AD280F3BA17620773078407B0
:1033D000950718F071F49EF552C20EF4E0950B2E8D
:1033E000BA2FA02D0B01B90190010C01CA01A00157
:1033F0001124FF27591B99F0593F50F4503E68F1B2
:103400001A16F040A22F232F342F4427585FF3CFF2
:10341000469537952795A795F0405395C9F77EF4C3
:103420001F16BA0B620B730B840BBAF09150A1F00C
:10343000FF0FBB1F661F771F881FC2F70EC0BA0F92
:10344000621F731F841F48F4879577956795B7951A
:10345000F7959E3F08F0B3CF9395880F08F0992712
:10346000EE0F97958795089590D158F080E891E0F8
:1034700009F49EEF91D128F040E851E059F45EEF55
:1034800009C05BC1FCC1E92FE078D7D168F3092EF0
:10349000052AC1F3261737074807590738F00E2EBB
:1034A00007F8E02569F0E025E0640AC0EF6307F85B
:1034B000009407FADB01B9019D01DC01CA01AD01ED
:1034C000EF934AD098D10AD05F91552331F02BED7C
:1034D0003FE049E450FD49EC63CF0895DF93DD27D9
:1034E000B92FBF7740E85FE31616170648075B075A
:1034F00010F4D92FCFD19F938F937F936F937CD26A
:10350000E0E4F1E01DD177D12F913F914F915F9190
:10351000D4D1DD2349F09058A2EA2AED3FE049ECEE
:103520005FE3D0785D274DDFDF9165C1DCD008F423
:1035300081E0089539D1E3956FC10CD05CC12CD1E5
:1035400040F023D130F021F45F3F19F0F0C0511169
:1035500097C1F3C072D198F39923C9F35523B1F3FE
:10356000951B550BBB27AA2762177307840738F0F2
:103570009F5F5F4F220F331F441FAA1FA9F333D051
:103580000E2E3AF0E0E830D091505040E695001C05
:10359000CAF729D0FE2F27D0660F771F881FBB1FC1
:1035A000261737074807AB07B0E809F0BB0B802D9B
:1035B000BF01FF2793585F4F2AF09E3F510568F0E7
:1035C000B6C05EC15F3FECF3983EDCF3869577951D
:1035D0006795B795F7959F5FC9F7880F911D9695E9
:1035E000879597F90895E1E0660F771F881FBB1F45
:1035F000621773078407BA0720F0621B730B840BF2
:10360000BA0BEE1F88F7E095089504D06894B111C5
:1036100037C108951AD188F09F5790F0B92F992794
:10362000B751A0F0D1F0660F771F881F991F1AF0CD
:10363000BA95C9F712C0B13081F021D1B1E0089537
:103640001EC1672F782F8827B85F39F0B93FCCF3B8
:10365000869577956795B395D9F73EF490958095C3
:10366000709561957F4F8F4F9F4F0895E89409C0E3
:1036700097FB3EF490958095709561957F4F8F4FA5
:103680009F4F9923A9F0F92F96E9BB279395F695BB
:10369000879577956795B795F111F8CFFAF4BB0F39
:1036A00011F460FF1BC06F5F7F4F8F4F9F4F16C09D
:1036B000882311F096E911C0772321F09EE8872F27
:1036C000762F05C0662371F096E8862F70E060E0E3
:1036D0002AF09A95660F771F881FDAF7880F96955C
:1036E000879597F90895990F0008550FAA0BE0E800
:1036F000FEEF16161706E807F907C0F012161306B4
:10370000E407F50798F0621B730B840B950B39F4F3
:103710000A2661F0232B242B252B21F408950A2659
:1037200009F4A140A6958FEF811D811D089597F999
:103730009F6780E870E060E008959FEF80EC089557
:10374000DF93CF931F930F93FF92EF92DF927B0152
:103750008C01689405C0DA2EEF01AFD0FE01E89429
:10376000A5912591359145915591AEF3EF0129DE53
:10377000FE019701A801DA9479F7DF90EF90FF90AE
:103780000F911F91CF91DF91089500240A9416168E
:10379000170618060906089500240A94121613063F
:1037A000140605060895C9CF50D0E8F3E894E0E088
:1037B000BB279F57F0F02AED3FE049EC06C0EE0F23
:1037C000BB0F661F771F881F28F0B23A6207730786
:1037D000840728F0B25A620B730B840BE3959A9519
:1037E00072F7803830F49A95BB0F661F771F881FD9
:1037F000D2F7904806C1092E0394000C11F48823D7
:1038000052F0BB0F40F4BF2B11F460FF04C06F5F98
:103810007F4F8F4F9F4F0895EF93E0FF06C0A2EABE
:103820002AED3FE049EC5FEBCCDDE5DF0F90039440
:1038300001FC9058EDE6F1E0F7C057FD9058440FB9
:10384000551F59F05F3F71F04795880F97FB991FFF
:1038500061F09F3F79F087950895121613061406BC
:10386000551FF2CF4695F1DF08C016161706180649
:10387000991FF1CF86957105610508940895E89424
:10388000BB2766277727CB0197F908952CDF08F42B
:103890008FEF08959B01AC0160E070E080E89FE34A
:1038A0004CCE0BD0A8CF71DF28F076DF18F095232F
:1038B00009F03DCF42CF1124E3CFBFDFA0F3959FA6
:1038C000D1F3950F50E0551F629FF001729FBB2707
:1038D000F00DB11D639FAA27F00DB11DAA1F649FB3
:1038E0006627B00DA11D661F829F2227B00DA11D66
:1038F000621F739FB00DA11D621F839FA00D611DEC
:10390000221F749F3327A00D611D231F849F600D0C
:10391000211D822F762F6A2F11249F5750408AF045
:10392000E1F088234AF0EE0FFF1FBB1F661F771FD1
:10393000881F91505040A9F79E3F510570F0F7CE77
:103940009FCF5F3FECF3983EDCF3869577956795C4
:10395000B795F795E7959F5FC1F7FE2B880F911DEF
:103960009695879597F908959F931EDF0F9007FC12
:10397000EE5F52CF11F40EF4E0CE41C066DFD0F31B
:103980009923D9F3CEF39F57550B87FF46D00024D8
:10399000A0E640EA900180585695979528F4805CFF
:1039A000660F771F881F20F026173707480730F467
:1039B000621B730B840B202931294A2BA69517947F
:1039C0000794202531254A2758F7660F771F881F4F
:1039D00020F026173707480730F4620B730B840B6F
:1039E000200D311D411DA09581F7B901842F9158FB
:1039F000880F9695879508959B01AC0152CF9F3F04
:103A000031F0915020F4879577956795B795880F99
:103A1000911D9695879597F9089591505040660F9E
:103A2000771F881FD2F708959F938F937F936F938B
:103A3000FF93EF939B01AC0134DFEF91FF9180DEA8
:103A40002F913F914F915F912CCFEE0FFF1F05906B
:103A5000F491E02D0994BB274A3031F4992322F4E4
:103A6000BDE2909581959F4F0C94681DBB272A302D
:103A700051F4992342F4BDE290958095709561953B
:103A80007F4F8F4F9F4F0C94461DBB27FA01A62FE7
:103A90006217710581059105330B30FB66F0AA278B
:103AA000660F771F881F991FAA1FA21710F0A21B6D
:103AB00063953850A9F7A05DAA3308F0A95DA193DA
:103AC00036F7B111B1931082CA010C94811DBB2746
:103AD000FB015527AA27880F991FAA1FA41710F0CA
:103AE000A41B83955051B9F7A05DAA3308F0A95DD6
:103AF000A193009779F7B111B1931192CB010C9476
:103B0000811DDC01FC01672F71917723E1F732976A
:103B100004C07C916D9370836291AE17BF07C8F3A8
:063B20000895F894FFCFA8
:103B2600010000803F0000803F0000803F000080D1
:103B36003F0000803F0000803F0000803F00008083
:103B46003F7EFF030002000AD7A33E00E10000000B
:023B5600000865
:00000001FF
