:100000000C9429010C9446010C9446010C944F1158
:100010000C9446010C9446010C9446010C94460144
:100020000C9446010C9446010C941E180C9458181C
:100030000C9446010C9446010C9446010C94460124
:100040000C9446010C9446010C9446010C94460114
:100050000C943B110C9446010C9446010C944601FF
:100060000C9446010C9446010C9446010C944601F4
:100070000C9446010C945E110C9446010C944601BC
:100080000C9446010C9446010C9446010C944601D4
:100090000C9446010C9446010C9446010C944601C4
:1000A0000C9446010C9446010C944601040C150C6A
:1000B000240C330C420C510C600C6F0C820C890C1C
:1000C000C617BE17B617AE17A6179E1796178E1728
:1000D00086177E1776176E1766175E1756174E1718
:1000E00046173E1736172E1726171E1716170E1708
:1000F0000617FE16F616EE16E616DE16D616CE16FF
:10010000C616BE16B616AE16A6169E1696168E16EF
:1001100086167E1676166E1666165E1656164E16DF
:1001200046163E1636162E1626161E1616160E16CF
:100130000616FE15F615EE15E615DE15D615CE15C6
:10014000C615084AD73B3BCE016E84BCBFFDC12F0C
:100150003D6C74319ABD56833DDA3D00C77F11BEB8
:10016000D9E4BB4C3E916BAAAABE000000803F05BB
:10017000A84CCDB2D44EB93836A9020C50B99186EC
:1001800088083CA6AAAA2ABE000000803F000A00F8
:1001900020200009000900090009000900090000E9
:1001A00001000036021200020000F30143000300C8
:1001B00000EF010401030904DB011202030904D367
:1001C000010603030904C9010808033400310030A3
:1001D00000000006034D003200000012034A002E0A
:1001E0000020004600690065006E00650000000404
:1001F00003090409024300020100C032090400009F
:10020000010202010005240010010524010101047E
:100210002402060524060001070582031000400998
:10022000040100020A000000070503024000000765
:100230000584024000001201000202000010C016F6
:100240007A040001010203010001C112018036019C
:10025000813611241FBECFEFDAE0DEBFCDBF11E043
:10026000A0E0B1E0E0E8F2E402C005900D92A03613
:10027000B107D9F722E0A0E6B1E001C01D92A0339A
:10028000B207E1F70E94201B0C943E210C94000061
:10029000469A08950F931F93CF93DF93559A5D98D5
:1002A00080E8809361001092610085BF85BF0E9445
:1002B00072110E94BB14209A219A229A239A249A9E
:1002C0003E9A53984AE069E181E00E941A120E9426
:1002D0004413809181008B7F809381008091810005
:1002E0008260809381008091810081608093810091
:1002F000809181008061809381008091810088607D
:100300008093810080918000826080938000809142
:10031000800081608093800080916F008160809375
:100320006F0084EC99E09093890080938800789422
:100330001092CF001092D00088EC8093D1003F9AA9
:10034000269A8091C10088608093C1008091C1008D
:1003500084608093C1008091C1008D7F8093C10033
:100360008091C1008E7F8093C1008091C3008D7FFA
:100370008093C3008091C3008E7F8093C3008091DF
:10038000C00082608093C0008091C000806880932C
:10039000C0008091C0008F7B8093C0008091C0001E
:1003A00081608093C0008091C00080628093C00013
:1003B0008091C0008F7E8093C00080917C008F77F9
:1003C00080937C0080917C00806480937C0080918D
:1003D0007A00846080937A0080917A0082608093B2
:1003E0007A0080917A00816080937A0080917E000B
:1003F000816080937E0080917E00826080937E0089
:1004000080917E00806180937E0080917E0080627A
:1004100080937E0080917E00806480937E00809136
:100420007E00806880937E0080917D008160809353
:100430007D0080917D00826080937D0080917D00B1
:10044000846080937D0080917B008F7D80937B0012
:1004500080917C008B7F80937C0080917C008D7FDD
:1004600080937C0080917C008E7F80937C008091C3
:100470007A00886080937A0080917B008F7D8093E2
:100480007B0080917C008B7F80937C0080917C003E
:100490008D7F80937C0080917C008E7F80937C0098
:1004A00080917A00806880937A0040E060E080E28A
:1004B0000E94B21A41E060E080E20E94B21A42E07B
:1004C00060E080E20E94DF1A43E060E080E20E9488
:1004D000B21A44E060E080E20E94B21A45E060E0B7
:1004E00080E20E94B21A46E060E080E20E94B21A06
:1004F00047E060E080E20E94B21A40E061E080E202
:100500000E94B21ACBE2D1E00BE011E029913991BF
:100510004991599160E070E080E894E40E947C1D6C
:100520009B01AC0160E070E080E894E40E944A1E08
:10053000F80161937193819391938F01F1E0CB3432
:10054000DF0721F7DF91CF911F910F9108952F922F
:100550003F924F925F926F927F928F929F92AF9253
:10056000BF92CF92DF92EF92FF920F931F93CF93A0
:10057000DF93CDB7DEB7C458D1090FB6F894DEBF0C
:100580000FBECDBF2C01FE01319680E4DF011D922C
:100590008A95E9F7BE016F5B7F4F84E2DB011D9214
:1005A0008A95E9F7D20120E030E080E090E04D91BB
:1005B0005D914F3F534009F401962F5F3F4F2B3021
:1005C0003105A9F78230910509F471C234F06E9AB1
:1005D00076986A9A729A80E0F4C46A9A72986E9ACF
:1005E000769AE796FFAFEEAFE797A7965FAE4EAE6F
:1005F000A797612C712CEB961FAE1EAEEB9700E017
:1006000010E0212C312CA796AEADBFADA7976D9110
:100610007C9180E090E00E94E31EC358DF4F688326
:1006200079838A839B83CD57D040A796EEADFFADEB
:10063000A7976281738180E090E00E94E31ECF570C
:10064000DF4F688379838A839B83C158D040AB9600
:100650005FAE4EAEAB97AF961FAE1EAEAF97E396B2
:100660001FAE1EAEE397AB96AEADBFADAB976D912F
:100670007C9180E090E00E94E31E9B01AC01C35896
:10068000DF4F688179818A819B81CD57D0400E945C
:100690007C1D4B015C01AB96EEADFFADAB9762816B
:1006A000738180E090E00E94E31E9B01AC01CF5774
:1006B000DF4F688179818A819B81C158D0400E9437
:1006C0007C1D6B017C01A5019401C501B4010E9450
:1006D000FE1F4B015C01A7019601C701B6010E94F4
:1006E000FE1F9B01AC01C501B4010E947D1D0E944B
:1006F0006B206B017C01E796EEADFFADE797AF96FF
:100700002EAD3FADAF97E20FF31F608371838283FD
:100710009383EB964EAD5FADEB97BA01882777FDDB
:100720008095982F0E94E51E9B01AC01C701B60180
:100730000E94F31F18166CF4C701B6010E94B21E86
:10074000EB967FAF6EAFEB97E3960EAD1FADE397E1
:100750001301E3968EAD9FADE3970196E3969FAFAD
:100760008EAFE397AB96AEADBFADAB971696AB969B
:10077000BFAFAEAFAB97AF96EEADFFADAF973496D0
:10078000AF96FFAFEEAFAF97049709F06CCFFFEFD6
:100790006F1A7F0AA7962EAD3FADA7972A5F3F4FEE
:1007A000A7963FAF2EAFA797E7964EAD5FADE79701
:1007B000405F5F4FE7965FAF4EAFE79754E0651637
:1007C000710409F020CF80E090E082159305A1F13B
:1007D0008017910789F1F101EE0FFF1FEE0FFF1F48
:1007E000E80FF91FEE0FFF1FEE0FFF1FEE24E3943B
:1007F000F12CEC0EFD1EEE0DFF1DD801AA0FBB1F44
:10080000AA0FBB1FA80FB91FAA0FBB1FAA0FBB1FA0
:10081000AE0DBF1D2D913D914D915C916081718117
:10082000828193810E94431E87FF0EC0902F812FEB
:100830008101292E382E08C001968430910529F6B1
:10084000212C312C00E010E086E0782E709E7001A3
:10085000719EF00C1124E40CF51CD7016D917C9174
:1008600080E090E00E94E31E4B015C01F701628191
:10087000738180E090E00E94E31E6B017C01729C1A
:100880008001739C100D1124040D151DD8016D916C
:100890007C9180E090E00E94E31E2B013C01F80176
:1008A0006281738180E090E00E94E31EE1966CAF6C
:1008B0007DAF8EAF9FAFE1979B01AC01C701B60141
:1008C0000E947C1DA9966CAF7DAF8EAF9FAFA9979C
:1008D000A3019201C501B4010E947C1DA9962CAD13
:1008E0003DAD4EAD5FADA9970E94F01DE5966CAF92
:1008F0007DAF8EAF9FAFE5979B01AC015058A99695
:100900002CAF3DAF4EAF5FAFA997CA01B9010E94AE
:10091000471EAD966CAF7DAF8EAF9FAFAD97A30175
:100920009201C501B4010E947D1D20E030E040E04D
:100930005FE30E94FE1F20E030E040E054E40E94AC
:100940007C1D2B013C01A9966CAD7DAD8EAD9FAD9C
:10095000A9970E9461204B015C01E1962CAD3DAD51
:100960004EAD5FADE197C701B6010E947D1D20E04D
:1009700030E040E05FE30E94FE1F20E030E040EC0A
:1009800053E40E947C1DE9966CAF7DAF8EAF9FAFA4
:10099000E9978091530190915401A0915501B09134
:1009A0005601E1968CAF9DAFAEAFBFAFE197AD966C
:1009B0006CAD7DAD8EAD9FADAD979058A30192010A
:1009C0000E94FE1F6B017C01E9962CAD3DAD4EAD42
:1009D0005FADE997C501B4010E94FE1F9B01AC0108
:1009E000C701B6010E947C1D9B01AC015058E196E5
:1009F0006CAD7DAD8EAD9FADE1970E94FE1F609303
:100A0000B7017093B8018093B9019093BA01A30123
:100A10009201C501B4010E94FE1F6B017C01E996A1
:100A20002CAD3DAD4EAD5FADE997AD966CAD7DADF6
:100A30008EAD9FADAD970E94FE1F9B01AC01C7011B
:100A4000B6010E947C1D9B01AC01E1966CAD7DADB1
:100A50008EAD9FADE1970E94FE1F6093BB01709326
:100A6000BC018093BD019093BE0120E030E0A9015C
:100A7000A9966CAD7DAD8EAD9FADA9970E94431E2A
:100A800087FF83C2E5962CAD3DAD4EAD5FADE597DA
:100A900063EC75EF88EC90E40E947C1D6093B301D9
:100AA0007093B4018093B5019093B6017CC26A9AA9
:100AB00072986E9A7698D20141E050E020E030E0E2
:100AC00080E090E00D911C9111970F3FE3E01E072D
:100AD00009F46BC2F901E81BF90BEE0FFF1FEE0FD3
:100AE000FF1FE154FE4F1183008312960D911C915C
:100AF0001397FC01EE0FFF1F7A01EE1AFF0AF701B0
:100B0000EE0FFF1FE154FE4F118300832F5F3F4F15
:100B100016964E5F5F4F24303105A1F6AB967FAF3E
:100B20006EAFAB972FEB31E0E3963FAF2EAFE3977D
:100B3000412C512CE7961FAE1EAEE79700E010E067
:100B4000212C312CE396AEADBFADE3976D917C9136
:100B500080E090E00E94E31EED966CAF7DAF8EAF1B
:100B60009FAFED97E396EEADFFADE39762817381A2
:100B700080E090E00E94E31EC358DF4F68837983D2
:100B80008A839B83CD57D0402FEB31E0A7963FAFB0
:100B90002EAFA797AF961FAE1EAEAF97612C712CEC
:100BA000A796AEADBFADA7976D917C9180E090E028
:100BB0000E94E31E9B01AC01ED966CAD7DAD8EAD48
:100BC0009FADED970E947C1D4B015C01A796EEAD99
:100BD000FFADA7976281738180E090E00E94E31EE1
:100BE0009B01AC01C358DF4F688179818A819B8169
:100BF000CD57D0400E947C1D6B017C01A501940162
:100C0000C501B4010E94FE1F4B015C01A7019601C2
:100C1000C701B6010E94FE1F9B01AC01C501B401D2
:100C20000E947D1D0E946B206B017C01AB96EEAD96
:100C3000FFADAB97AF962EAD3FADAF97E20FF31F71
:100C40006083718382839383E7964EAD5FADE797B0
:100C5000BA01882777FD8095982F0E94E51E9B0199
:100C6000AC01C701B6010E94F31F181654F4C70166
:100C7000B6010E94B21EE7967FAF6EAFE797830181
:100C800012015FEF651A750AA7968EAD9FADA79703
:100C90000496A7969FAF8EAFA797AF96AEADBFADA8
:100CA000AF971496AF96BFAFAEAFAF97B3E06B16EA
:100CB000710409F075CFEFEF4E1A5E0AE3962EAD80
:100CC0003FADE3972C5F3F4FE3963FAF2EAFE397E7
:100CD000AB964EAD5FADAB97445F5F4FAB965FAFEA
:100CE0004EAFAB9753E04516510409F02BCF80E08F
:100CF00090E08215930509F45AC18017910709F411
:100D000056C1F101EE0FFF1FE20DF31DE80FF91FB1
:100D1000EE0FFF1FEE0FFF1F41E450E04C0F5D1F71
:100D2000E40FF51FD801AA0FBB1FA00FB11FA80F1A
:100D3000B91FAA0FBB1FAA0FBB1FA40FB51F2D9170
:100D40003D914D915C9160817181828193810E947E
:100D5000431E87FF05C0902F812F8101292E382E39
:100D60007801EE0CFF1CE00EF11EF701EE0FFF1FE5
:100D7000E154FE4F6081718180E090E00E94E31EAB
:100D80004B015C01F701EE0FFF1FEF53FE4F608137
:100D9000718180E090E00E94E31E6B017C01810183
:100DA000000F111F020D131DF801EE0FFF1FE1547C
:100DB000FE4F6081718180E090E00E94E31E2B0174
:100DC0003C01F801EE0FFF1FEF53FE4F6081718170
:100DD00080E090E00E94E31EAD966CAF7DAF8EAFD9
:100DE0009FAFAD979B01AC01C701B6010E947C1D6E
:100DF000A9966CAF7DAF8EAF9FAFA997A30192016B
:100E0000C501B4010E947C1DA9962CAD3DAD4EAD2F
:100E10005FADA9970E94F01D9B01AC015058A996A7
:100E20002CAF3DAF4EAF5FAFA997CA01B9010E9489
:100E3000471EE5966CAF7DAF8EAF9FAFE597A301E0
:100E40009201C501B4010E947D1D20E030E040E028
:100E50005FE30E94FE1F20E030E040E054E40E9487
:100E60007C1D2B013C01A9966CAD7DAD8EAD9FAD77
:100E7000A9970E9461204B015C01AD962CAD3DAD60
:100E80004EAD5FADAD97C701B6010E947D1D20E05C
:100E900030E040E05FE30E94FE1F20E030E040ECE5
:100EA00053E40E947C1DE1966CAF7DAF8EAF9FAF87
:100EB000E1978091530190915401A0915501B09117
:100EC0005601AD968CAF9DAFAEAFBFAFAD97E59677
:100ED0006CAD7DAD8EAD9FADE5979058A3019201AD
:100EE0000E94FE1F6B017C01E1962CAD3DAD4EAD25
:100EF0005FADE197C501B4010E94FE1F9B01AC01EB
:100F0000C701B6010E947C1D9B01AC015058AD96F3
:100F10006CAD7DAD8EAD9FADAD970E94FE1F609311
:100F2000B7017093B8018093B9019093BA01A301FE
:100F30009201C501B4010E94FE1F6B017C01E19684
:100F40002CAD3DAD4EAD5FADE197E5966CAD7DADA1
:100F50008EAD9FADE5970E94FE1F9B01AC01C701BE
:100F6000B6010E947C1D9B01AC01AD966CAD7DADC0
:100F70008EAD9FADAD970E94FE1F6093BB01709335
:100F8000BC018093BD019093BE01A9962CAD3DADEF
:100F90004EAD5FADA9972093B3013093B401409358
:100FA000B5015093B60181E00CC00196AFCD01961A
:100FB0008330910509F09DCE212C312C00E010E00A
:100FC000CFCECC57DF4F0FB6F894DEBF0FBECDBFEC
:100FD000DF91CF911F910F91FF90EF90DF90CF9015
:100FE000BF90AF909F908F907F906F905F904F9049
:100FF0003F902F900895CF92DF92EF92FF920F9340
:101000001F93CF93DF93EC018B01FB012081318192
:1010100042815381688179818A819B810E94FE1F70
:1010200020E030E0A9010E947D1D6B017C01F801E8
:1010300024813581468157816C817D818E819F819C
:101040000E94FE1F9B01AC01C701B6010E947D1DDD
:10105000DF91CF911F910F91FF90EF90DF90CF9094
:1010600008950F931F93CF93DF93809193019091F5
:101070009401892B09F041C060917800709179004A
:101080000091930110919401C0919301D09194012A
:1010900080E090E00E94E31EF801EE0FFF1FEE0FCC
:1010A000FF1FE55DFE4F20813181428153810E9407
:1010B0007C1DCC0FDD1FCC0FDD1FC55FDE4F2881EF
:1010C00039814A815B810E94FE1F0E94B21E70938B
:1010D0000302609302028091930190919401019622
:1010E000909394018093930180917A008F778093FD
:1010F0007A0080917B008F7DBEC180919301909199
:101100009401019709F057C06091780070917900BF
:101110000091930110919401C0919301D091940199
:1011200080E090E00E94E31EF801EE0FFF1FEE0F3B
:10113000FF1FE55DFE4F20813181428153810E9476
:101140007C1DCC0FDD1FCC0FDD1FC55FDE4F28815E
:1011500039814A815B810E94FE1F0E94B21E7093FA
:101160002B0260932A028091930190919401019641
:10117000909394018093930180917A008F7780936C
:101180007A0080917B008F7D80937B0080917C0032
:10119000846080937C0080917C008D7F80937C00B4
:1011A00080917C008E7F80937C0080917A008061AA
:1011B00080937A00E9C18091930190919401029704
:1011C00009F050C06091780070917900009193010E
:1011D00010919401C0919301D091940180E090E02E
:1011E0000E94E31EF801EE0FFF1FEE0FFF1FE55DEB
:1011F000FE4F20813181428153810E947C1DCC0FA2
:10120000DD1FCC0FDD1FC55FDE4F288139814A818C
:101210005B810E94FE1F0E94B21E709311026093B8
:101220001002809193019091940101969093940102
:101230008093930180917A008F7780937A008091D8
:101240007B008F7D80937B0080917C008460809305
:101250007C0080917C008D7F80937C0080917C005D
:101260008160A1CF8091930190919401039709F03F
:1012700046C06091780070917900009193011091BF
:101280009401C0919301D091940180E090E00E947C
:10129000E31EF801EE0FFF1FEE0FFF1FE55DFE4F8F
:1012A00020813181428153810E947C1DCC0FDD1F42
:1012B000CC0FDD1FC55FDE4F288139814A815B81FC
:1012C0000E94FE1F0E94B21E7093290260932802A2
:1012D0008091930190919401019690939401809351
:1012E000930180917A008F7780937A0080917B00C0
:1012F0008F7D80937B0080917C00846000C1809111
:101300009301909194010497F1F5609178007091A8
:10131000790080E090E00E94E31E20914701309127
:1013200048014091490150914A010E947C1D209141
:101330002701309128014091290150912A010E94F2
:10134000FE1F0E94B21E70930D0260930C028091EA
:10135000930190919401019690939401809393014D
:1013600080917A008F7780937A0080917B008F7DC7
:1013700080937B0080917C00846080937C008091CE
:101380007C00826069CF80919301909194010597D0
:10139000C9F5609178007091790080E090E00E943A
:1013A000E31E209143013091440140914501509149
:1013B00046010E947C1D209123013091240140911F
:1013C0002501509126010E94FE1F0E94B21E7093BB
:1013D00019026093180280919301909194010196F3
:1013E000909394018093930180917A008F778093FA
:1013F0007A0080917B00806280937B0080917C00EA
:101400008B7FC7CE80919301909194010697C9F587
:10141000609178007091790080E090E00E94E31E76
:1014200020913F0130914001409141015091420192
:101430000E947C1D20911F013091200140912101CB
:10144000509122010E94FE1F0E94B21E7093FF0164
:101450006093FE0180919301909194010196909385
:1014600094018093930180917A008F7780937A0022
:1014700080917B00806280937B0080917C008B7FD9
:10148000E6CE80919301909194010797F1F56091D8
:1014900078007091790080E090E00E94E31E209136
:1014A0003B0130913C0140913D0150913E010E9431
:1014B0007C1D20911B0130911C0140911D01509118
:1014C0001E010E94FE1F0E94B21E709309026093CB
:1014D0000802809193019091940101969093940158
:1014E0008093930180917A008F7780937A00809126
:1014F0007B00806280937B0080917C008B7F809357
:101500007C0080917C00826049CE80919301909113
:1015100094010897C9F58091780090917900909393
:101520001B0280931A02809193019091940101967D
:10153000909394018093930180917A008F778093A8
:101540007A0080917B008F7D80937B0080917C006E
:101550008B7F80937C0080917C008D7F80937C00CA
:1015600080917C008E7F80937C0080917A008061E6
:1015700080937A00109294011092930181E090E0A0
:1015800090931302809312028091120290911302A1
:10159000892B09F4A2C0609102027091030288278E
:1015A00077FD8095982F0E94E51E60936F017093E0
:1015B0007001809371019093720160912A02709181
:1015C0002B02882777FD8095982F0E94E51E609357
:1015D000730170937401809375019093760160910B
:1015E000100270911102882777FD8095982F0E9434
:1015F000E51E609377017093780180937901909351
:101600007A016091280270912902882777FD8095E0
:10161000982F0E94E51E60937B0170937C0180935C
:101620007D0190937E0160910802709109028827E4
:1016300077FD8095982F0E94E51E60937F0170933F
:10164000800180938101909382016091FE017091ED
:10165000FF01882777FD8095982F0E94E51E6093F3
:10166000830170938401809385019093860160913A
:10167000180270911902882777FD8095982F0E9493
:10168000E51E609387017093880180938901909390
:101690008A0160910C0270910D02882777FD809578
:1016A000982F0E94E51E60938B0170938C018093AC
:1016B0008D0190938E0160911A0270911B02882710
:1016C00077FD8095982F0E94E51E60938F0170939F
:1016D00090018093910190939201109213021092C5
:1016E000120280917A00806880937A0080917A005B
:1016F000806480937A00DF91CF911F910F910895BC
:10170000AF92BF92CF92DF92EF92FF920F931F930F
:10171000CF93DF9380917A00806480937A0000E019
:1017200010E0C12CD12C7601C0E0D0E05801AA0C09
:10173000BB1CAA0CBB1CC50181599E4F5C01FC015E
:101740006081718182819381A70196010E94F31FBC
:10175000181634F4F501C080D180E280F380E801EE
:101760000F5F1F4F0830110509F780911A02909101
:101770001B02843893408CF484E090E090935801ED
:101780008093570120E030E048EC52E4C701B601F5
:101790000E94431E87FDB6C0C8C0209719F0C7300D
:1017A000D105F9F460916F01709170018091710120
:1017B0009091720120918B0130918C0140918D01AB
:1017C00050918E010E947C1D0E94B21E9B0177FFEA
:1017D00004C022273327261B370B243631050CF48F
:1017E00091C020E030E048EC52E4C701B6010E940D
:1017F000431E87FD87C0CA30D10508F096C0FE01A0
:10180000EA5AFF4F0C94D22084E190E090936E014D
:1018100080936D018CEE9FEF90936C0180936B0130
:10182000109296011092950180C084E190E090930F
:101830006E0180936D018CEE9FEF90936C0180930D
:101840006B0181E090E059C084E190E090936E01DB
:1018500080936D018CEE9FEF90936C0180936B01F0
:1018600082E090E04AC084E190E090936E01809322
:101870006D018CEE9FEF90936C0180936B0183E080
:1018800090E03BC084E190E090936E0180936D0105
:101890008CEE9FEF90936C0180936B0184E090E05D
:1018A0002CC08CEE9FEF90936E0180936D0184E1CC
:1018B00090E090936C0180936B0185E090E01DC0F7
:1018C0008CEE9FEF90936E0180936D0184E190E028
:1018D00090936C0180936B0186E090E00EC08CEEDB
:1018E0009FEF90936E0180936D0184E190E090935F
:1018F0006C0180936B0187E090E090939601809358
:10190000950113C084E190E090936E0180936D0186
:1019100008C084E190E090936E0180936D018CEE9D
:101920009FEF90936C0180936B01DF91CF911F919A
:101930000F91FF90EF90DF90CF90BF90AF90089500
:1019400097FD03C02A9A2B9805C02A982B9A919547
:101950008195910990915101989F802D1124809338
:10196000D00008952091510197FD08C0289F802D37
:1019700011248093CF00289A2998089591958195F4
:101980009109289F802D11248093CF002898299AAF
:1019900008954F925F926F927F928F929F92AF9233
:1019A000BF92CF92DF92EF92FF92CF93DF9300D05E
:1019B00000D0CDB7DEB78090200290902102A09099
:1019C0002202B090230220E030E04CE052E4C50156
:1019D000B4010E94431E87FFBFC020E030E0A90190
:1019E000C501B4010E94F31F18160CF0B5C0C090D9
:1019F0006301D0906401E0906501F090660123ECF2
:101A000035EF48E450E4C701B6010E94F31F1816F1
:101A1000E4F423EC35EF48EC50E4C701B6010E9432
:101A2000431E87FF12C081E090E090930F028093E5
:101A30000E0284E190E09093A6018093A5018EE1CF
:101A400090E09093A8018093A701409004015090EA
:101A500005016090060170900701A301920163ECFB
:101A600075EF88EC9FE30E947C1D69837A838B83EA
:101A70009C839B01AC01C701B6010E94431E87FFF6
:101A80001BC020E030E0A901C701B6010E94F31F8E
:101A9000181694F482E090E090930F0280930E0267
:101AA0008EE190E09093A6018093A50184E190E0FF
:101AB0009093A8018093A70123EC35EF48EC5FE3F6
:101AC000C301B2010E947D1D2B013C019B01AC01B1
:101AD000C701B6010E94F31F1816E4F423EC35EF9A
:101AE00048E450E4C701B6010E94431E87FF12C0BC
:101AF00083E090E090930F0280930E0284E190E0E7
:101B00009093A6018093A5018EE190E09093A801A7
:101B10008093A701A3019201C701B6010E94431E51
:101B200087FF1AC029813A814B815C81C701B601C8
:101B30000E94F31F181684F48EE190E09093A601A2
:101B40008093A5019093A8018093A7018FE090E076
:101B500090930F0280930E0220E030E0A901C501AE
:101B6000B4010E94431E87FFC0C020E030E04CE07B
:101B700052ECC501B4010E94F31F18160CF0B5C059
:101B8000C0906301D0906401E0906501F09066011F
:101B900023EC35EF48E450E4C701B6010E94F31F7F
:101BA0001816E4F423EC35EF48EC50E4C701B60115
:101BB0000E94431E87FF12C08EE190E09093A60121
:101BC0008093A50184E190E09093A8018093A70100
:101BD00084E090E090930F0280930E024090040105
:101BE000509005016090060170900701A3019201D9
:101BF00063EC75EF88EC9FE30E947C1D69837A8318
:101C00008B839C839B01AC01C701B6010E94431EDC
:101C100087FF1BC020E030E0A901C701B6010E9488
:101C2000F31F181694F48EE190E09093A601809330
:101C3000A50184E190E09093A8018093A70185E03D
:101C400090E090930F0280930E0223EC35EF48EC66
:101C50005FE3C301B2010E947D1D2B013C019B018A
:101C6000AC01C701B6010E94F31F1816E4F423EC7F
:101C700035EF48E450E4C701B6010E94431E87FFD8
:101C800012C084E190E09093A6018093A5018EE1BB
:101C900090E09093A8018093A70186E090E0909354
:101CA0000F0280930E02A3019201C701B6010E94A8
:101CB000431E87FF1AC029813A814B815C81C7018D
:101CC000B6010E94F31F181684F48EE190E0909301
:101CD000A6018093A5019093A8018093A7018FE0AE
:101CE00090E090930F0280930E0220E030E04CE0F1
:101CF00052ECC501B4010E94431E87FFAFC0C090E3
:101D00006301D0906401E0906501F090660123ECDE
:101D100035EF48E450E4C701B6010E94F31F1816DE
:101D2000E4F422E538EB46E950E4C701B6010E942D
:101D3000431E87FF12C084E190E09093A601809338
:101D4000A5018EE190E09093A8018093A70187E020
:101D500090E090930F0280930E0240900401509007
:101D600005016090060170900701A301920163ECE8
:101D700075EF88EC9FE30E947C1D9B01AC01C701BD
:101D8000B6010E94431E87FF19C020E030E0A90180
:101D9000C701B6010E94F31F181684F48EE190E08B
:101DA0009093A6018093A5011092A8011092A7011B
:101DB00088E090E090930F0280930E0222E538EBCA
:101DC00046E950E4C701B6010E94F31F1816D4F487
:101DD00023EC35EF48EC50E4C701B6010E94431EE6
:101DE00087FF10C01092A6011092A5018EE190E02D
:101DF0009093A8018093A70189E090E090930F024F
:101E000080930E0223EC35EF48EC5FE3C301B2018F
:101E10000E947D1D9B01AC01C701B6010E94F31F0A
:101E20001816E4F423EC35EF48E450E4C701B6019A
:101E30000E94431E87FF12C08EE190E09093A6019E
:101E40008093A50184E190E09093A8018093A7017D
:101E50008AE090E090930F0280930E0220E030E041
:101E60004CE052E4C501B4010E94F31F18160CF0B7
:101E7000AFC0C0906301D0906401E0906501F09024
:101E8000660123EC35EF48E450E4C701B6010E9437
:101E9000F31F1816D4F422E538EB46E950E4C701E5
:101EA000B6010E94431E87FF10C08EE190E0909320
:101EB000A6018093A5011092A8011092A7018BE0C2
:101EC00090E090930F0280930E0280900401909016
:101ED0000501A0900601B0900701A501940163ECF3
:101EE00075EF88EC9FE30E947C1D9B01AC01C7014C
:101EF000B6010E94431E87FF1BC020E030E0A9010D
:101F0000C701B6010E94F31F181694F484E190E013
:101F10009093A6018093A5018EE190E09093A80193
:101F20008093A7018CE090E090930F0280930E02C3
:101F300022E538EB46E950E4C701B6010E94F31FE1
:101F40001816E4F423EC35EF48EC50E4C701B60171
:101F50000E94431E87FF12C08EE190E09093A6017D
:101F60008093A50184E190E09093A8018093A7015C
:101F70008DE090E090930F0280930E0223EC35EFFA
:101F800048EC5FE3C501B4010E947D1D9B01AC01DB
:101F9000C701B6010E94F31F1816D4F423EC35EFE5
:101FA00048E450E4C701B6010E94431E87FF10C0F9
:101FB0001092A6011092A5018EE190E09093A801E5
:101FC0008093A7018EE090E090930F0280930E0221
:101FD0008091A5019091A6010E94B20C8091A70169
:101FE0009091A8010F900F900F900F90DF91CF91DB
:101FF000FF90EF90DF90CF90BF90AF909F908F9029
:102000007F906F905F904F900C94A00CCF92DF92D6
:10201000EF92FF928091570190915801039709F038
:1020200094C0C0906301D0906401E0906501F0908D
:10203000660123EC35EF48EC5FE3C701B6010E946F
:10204000431E87FF13C020E030E0A901C701B6019D
:102050000E94F31F181654F488ED9FEF9093A80187
:102060008093A7011092A6011092A50122E538EBFA
:1020700046E950E4C701B6010E94F31F1816A4F404
:1020800023EC35EF48EC50E4C701B6010E94431E33
:10209000181654F088ED9FEF9093A6018093A50148
:1020A0001092A8011092A70123EC35EF48EC5FE3F2
:1020B000C701B6010E94F31F1816A4F423EC35EFF4
:1020C00048E450E4C701B6010E94431E87FF0AC0DE
:1020D00088ED9FEF9093A6018093A5011092A8012F
:1020E0001092A70123EC35EF48E450E4C701B60194
:1020F0000E94F31F1816A4F422E538EB46E950E4D9
:10210000C701B6010E94431E87FF0AC01092A601B4
:102110001092A50188ED9FEF9093A8018093A701ED
:102120008091A5019091A6010E94B20C8091A70117
:102130009091A8010E94A00C2FEF83EC99E0215010
:1021400080409040E1F700C00000809157019091DD
:1021500058010497D9F484E690E09093A801809305
:10216000A7019093A6018093A5010E94B20C8091D3
:10217000A7019091A8010E94A00C2FEF83EC99E099
:10218000215080409040E1F700C00000FF90EF90A8
:10219000DF90CF900895882311F02C9A08952C9801
:1021A000089581110C944801469808956AE08CEED8
:1021B00091E00E9472122091EC0181E090E09093F6
:1021C000010180930001213A41F1243A79F1203A4A
:1021D00089F580E00E94CB1080E00E94D1102FEFA3
:1021E00081EE94E0215080409040E1F700C0000073
:1021F0000E9448012FEF81EE94E0215080409040F2
:10220000E1F700C0000080E00E94D11081E090E082
:1022100090930101809300010DC083E090E09093C2
:102220005801809357010E94480104C090935801BF
:102230008093570110926101089543E062E1882381
:1022400019F080E20C94B21A80E20C94DF1A46E096
:1022500062E1882319F080E20C94B21A80E20C94B7
:10226000DF1A40E062E1882319F080E20C94B21A90
:1022700080E20C94DF1A1F920F920FB60F92112476
:102280008F9381E080936001809162018F5F8093E2
:1022900062018F910F900FBE0F901F9018951F92A3
:1022A0000F920FB60F9211248F9381E080936101FA
:1022B0008F910F900FBE0F901F9018951F920F9245
:1022C0000FB60F9211248F939F9381E090E090932B
:1022D0000301809302019F918F910F900FBE0F9089
:1022E0001F901895589A599A5A9A8CE08093B80082
:1022F000E9E6F0E080818062808380818F7E808348
:10230000EA9A7894089584E88093BC008091BC0098
:1023100087FFFCCF8091BB00089584E98093BC00C7
:10232000089520E030E08091BC0087FD06C02F5F5B
:102330003F4F293E83E03807B1F781E0283E334024
:1023400009F480E008958093BB0084E88093BC008A
:102350000E949111882321F08091B900887F08950F
:1023600080E008951F93CF93DF931F92CDB7DEB720
:10237000182F84EA8093BC0069830E9491116981BF
:10238000811104C094E99093BC0014C0812F880F80
:10239000662331F08F5F0E94A311883451F404C08A
:1023A0000E94A311803229F484E98093BC0080E06C
:1023B00001C081E00F90DF91CF911F910895CF93DD
:1023C000DF93C82FD62F60E00E94B211882391F0CE
:1023D0008D2F0E94A311882369F084E98093BC00AB
:1023E00061E08C2F0E94B211882321F0DF91CF9100
:1023F0000C94831180E0DF91CF910895CF93DF9308
:10240000D62FC42F60E00E94B211811102C080E07B
:102410000EC08D2F0E94A3118823C9F38C2F0E9418
:10242000A3118823A1F384E98093BC0081E0DF91AC
:10243000CF910895CF93DF9300D01F92CDB7DEB731
:102440004B836A8389830E94721194EA9093BC0043
:1024500089816A814B819091BC0097FFFCCF90E508
:102460009093BB0094E89093BC009091BC0097FFC0
:10247000FCCF9091B900987F903229F484E9809341
:10248000BC0080E029C091E09093BB0094E8909359
:10249000BC009091BC0097FFFCCF8093BB0084E808
:1024A0008093BC008091BC0087FFFCCF6093BB0091
:1024B00084E88093BC008091BC0087FFFCCF4093F0
:1024C000BB0084E88093BC008091BC0087FFFCCFF8
:1024D00084E98093BC0081E00F900F900F90DF9112
:1024E000CF91089524EA2093BC002091BC0027FFDF
:1024F000FCCF21E52093BB0024E82093BC00209171
:10250000BC0027FFFCCF2091B900287F2834A9F018
:1025100024EC2093BC002091BC0027FFFCCF20912D
:10252000BB0026130AC0FC0120E030E0772767FDDE
:1025300070956150710944EC0EC084E98093BC0031
:1025400080E008955091BC0057FFFCCF5091BB0034
:1025500051932F5F3F4F261737071CF44093BC0061
:10256000F1CF44E84093BC004091BC0047FFFCCF52
:102570004091BB00FC01E20FF31F408384E980938C
:10258000BC0081E00895F89494EA9093BC00909187
:10259000BC0097FFFCCF90E59093BB0094E890932C
:1025A000BC009091BC0097FFFCCF9091B900987F40
:1025B000903231F484E98093BC00789480E00895EF
:1025C00093E09093BB0094E89093BC009091BC0082
:1025D00097FFFCCF8093BB0084E88093BC00809180
:1025E000BC0087FFFCCFFB01552747FD509524E831
:1025F000CF01861B970B8417950754F48191809324
:10260000BB002093BC008091BC0087FFFCCFF0CFC3
:1026100084E98093BC00789481E0089520E030E064
:102620008091BC0087FD06C02F5F3F4F293E83E0AD
:102630003807B1F781E0283E334009F480E008957F
:102640008093BB0084E88093BC000E940E13882313
:1026500019F08091B900887F0895CF93C82F84EA3C
:102660008093BC000E940E13882361F08C2F880F8A
:102670000E942013803229F484E98093BC0080E01A
:1026800001C081E0CF9108950E94721188E50E94F7
:102690002D13811102C080E0089580E30E94201371
:1026A0008823C9F381E00E9420138823A1F384E9E1
:1026B0008093BC008FE39CE90197F1F700C0000014
:1026C00088E50E942D13882331F380E00E942013B7
:1026D000882309F380E00E9420138823E1F280E040
:1026E0000E9420138823B9F280E00E9420138823DF
:1026F00091F280E00E942013882369F280E00E941A
:102700002013882341F280E00E942013882319F2CD
:1027100080E90E942013882309F4BDCF84E98093C7
:10272000BC008FE39CE90197F1F700C0000088E549
:102730000E942D13882309F4AECF87E00E94201356
:10274000882309F4A8CF80E00E942013882309F48D
:10275000A2CF81E40E942013882309F49CCF84E94E
:102760008093BC008FE39CE90197F1F700C0000063
:1027700088E50E942D13882309F48DCF8AE10E94F9
:102780002013882309F487CF80E40E942013882334
:1027900009F481CF80E00E942013882309F47BCFC5
:1027A00084E98093BC008FE39CE90197F1F700C0B6
:1027B000000088E50E942D13882309F46CCF83E381
:1027C0000E942013882309F466CF83E00E9420131F
:1027D000882309F460CF84E98093BC008FE39CE9EF
:1027E0000197F1F700C0000088E50E942D138823AF
:1027F00009F451CF80E30E942013882309F44BCFC2
:1028000088E00E942013882309F445CF84E980934F
:10281000BC008FE39CE90197F1F700C0000081E064
:102820000895CF93C82F84EA8093BC000E940E13B2
:10283000882369F08C2F880F8F5F0E9420138834C3
:1028400029F484E98093BC0080E001C081E0CF914D
:102850000895EF92FF920F931F93CF93DF93CDB71D
:10286000DEB760970FB6F894DEBF0FBECDBF7C0118
:102870008E010F5F1F4F80E1F80111928A95E9F7F1
:1028800088E50E942D13811102C080E05EC086E3BE
:102890000E9420138823C9F384E98093BC00F5E8E3
:1028A000FA95F1F7000088E50E941114882369F376
:1028B000F8019E01205F3F4F94EC9093BC00809103
:1028C000BC0087FFFCCF8091BB008193E217F30728
:1028D000A1F784E88093BC008091BC0087FFFCCF07
:1028E0008091BB00888B84E98093BC00DE01149644
:1028F00087016C91762F7073AD0142505109FA0136
:10290000808190E0F0E17F9F800D911D1124F801FE
:1029100091838083762F707C4F5F5F4FFA018081B7
:1029200090E0F4E07F9F800D911D1124F8019383C6
:1029300082836F70862F90E09583848313960A5F5D
:102940001F4FA217B307A9F681E060960FB6F8945F
:10295000DEBF0FBECDBFDF91CF911F910F91FF90D2
:10296000EF90089584E98093BC0008958091E80079
:1029700080FFFCCF089581E08093D70080EA8093A8
:10298000D80082E189BD09B400FEFDCF80E98093C3
:10299000D8001092E0001092F9011092F6018CE03C
:1029A0008093E200789408958091F90108959FB78B
:1029B000F8948091F901882339F083E08093E9004D
:1029C0008091E80085FD03C09FBF8FEF089580913F
:1029D000F1002091E80025FD03C02BE62093E800DC
:1029E0009FBF08959FB7F8948091F901882331F033
:1029F00083E08093E9008091F20001C080E09FBFF6
:102A000008958091F901882371F08FB7F89493E0CD
:102A10009093E9002BE69091E80095FF03C0209386
:102A2000E800F9CF8FBF08959091F901992371F0D3
:102A30009FB7F89424E02093E9002091F701222326
:102A400049F02091E80025FD03C09FBF8FEF089556
:102A50001092F7012091E400275E34E04091E800F5
:102A600045FD12C09FBF9091E400921304C081E025
:102A70008093F701EBCF9091F901992339F39FB738
:102A8000F8943093E900EACF8093F1008091E80058
:102A900085FD03C08AE38093E80085E08093F80118
:102AA0009FBF80E008959091F9019923D1F09FB7DD
:102AB000F89424E02093E9002091E80025FD02C06D
:102AC0009FBF0FC08093F1008091E80085FD03C097
:102AD0008AE38093E80085E08093F8019FBF80E05F
:102AE00008958FEF0895EF92FF921F93CF93DF9396
:102AF0007C01CB012091F901222371F0AFB7F8944A
:102B000024E02093E9002091F701222349F020914D
:102B1000E80025FD03C0AFBF8FEF42C21092F7015E
:102B2000B4E0C0E4DAE315E0009709F437C220917D
:102B3000E400275E3091E80035FD12C0AFBF309150
:102B4000E400321304C081E08093F701E5CF3091B7
:102B5000F901332309F3AFB7F894B093E900EACF52
:102B60002091F2004C2F421B242F30E08217930754
:102B700008F4482F841B910950E04134510508F0B6
:102B8000FDC1405A5F4FFA010C94D220F701208119
:102B90002093F10097012F5F3F4F7901F7012081CA
:102BA0002093F10097012F5F3F4F7901F7012081BA
:102BB0002093F10097012F5F3F4F7901F7012081AA
:102BC0002093F10097012F5F3F4F7901F70120819A
:102BD0002093F10097012F5F3F4F7901F70120818A
:102BE0002093F10097012F5F3F4F7901F70120817A
:102BF0002093F10097012F5F3F4F7901F70120816A
:102C00002093F10097012F5F3F4F7901F701208159
:102C10002093F10097012F5F3F4F7901F701208149
:102C20002093F10097012F5F3F4F7901F701208139
:102C30002093F10097012F5F3F4F7901F701208129
:102C40002093F10097012F5F3F4F7901F701208119
:102C50002093F10097012F5F3F4F7901F701208109
:102C60002093F10097012F5F3F4F7901F7012081F9
:102C70002093F10097012F5F3F4F7901F7012081E9
:102C80002093F10097012F5F3F4F7901F7012081D9
:102C90002093F10097012F5F3F4F7901F7012081C9
:102CA0002093F10097012F5F3F4F7901F7012081B9
:102CB0002093F10097012F5F3F4F7901F7012081A9
:102CC0002093F10097012F5F3F4F7901F701208199
:102CD0002093F10097012F5F3F4F7901F701208189
:102CE0002093F10097012F5F3F4F7901F701208179
:102CF0002093F10097012F5F3F4F7901F701208169
:102D00002093F10097012F5F3F4F7901F701208158
:102D10002093F10097012F5F3F4F7901F701208148
:102D20002093F10097012F5F3F4F7901F701208138
:102D30002093F10097012F5F3F4F7901F701208128
:102D40002093F10097012F5F3F4F7901F701208118
:102D50002093F10097012F5F3F4F7901F701208108
:102D60002093F10097012F5F3F4F7901F7012081F8
:102D70002093F10097012F5F3F4F7901F7012081E8
:102D80002093F10097012F5F3F4F7901F7012081D8
:102D90002093F10097012F5F3F4F7901F7012081C8
:102DA0002093F10097012F5F3F4F7901F7012081B8
:102DB0002093F10097012F5F3F4F7901F7012081A8
:102DC0002093F10097012F5F3F4F7901F701208198
:102DD0002093F10097012F5F3F4F7901F701208188
:102DE0002093F10097012F5F3F4F7901F701208178
:102DF0002093F10097012F5F3F4F7901F701208168
:102E00002093F10097012F5F3F4F7901F701208157
:102E10002093F10097012F5F3F4F7901F701208147
:102E20002093F10097012F5F3F4F7901F701208137
:102E30002093F10097012F5F3F4F7901F701208127
:102E40002093F10097012F5F3F4F7901F701208117
:102E50002093F10097012F5F3F4F7901F701208107
:102E60002093F10097012F5F3F4F7901F7012081F7
:102E70002093F10097012F5F3F4F7901F7012081E7
:102E80002093F10097012F5F3F4F7901F7012081D7
:102E90002093F10097012F5F3F4F7901F7012081C7
:102EA0002093F10097012F5F3F4F7901F7012081B7
:102EB0002093F10097012F5F3F4F7901F7012081A7
:102EC0002093F10097012F5F3F4F7901F701208197
:102ED0002093F10097012F5F3F4F7901F701208187
:102EE0002093F10097012F5F3F4F7901F701208177
:102EF0002093F10097012F5F3F4F7901F701208167
:102F00002093F10097012F5F3F4F7901F701208156
:102F10002093F10097012F5F3F4F7901F701208146
:102F20002093F10097012F5F3F4F7901F701208136
:102F30002093F10097012F5F3F4F7901F701208126
:102F40002093F10097012F5F3F4F7901F701208116
:102F50002093F10097012F5F3F4F7901F701208106
:102F60002093F10097012F5F3F4F7901F7012081F6
:102F70002093F10097012F5F3F4F7901F7012081E6
:102F80002093F10097012F5F3F4F79012091E800D6
:102F900025FFD093E8001093F801C6CDAFBF80E0C5
:102FA000DF91CF911F91FF90EF9008958FB7F89424
:102FB0009091F801992341F094E09093E9009AE30D
:102FC0009093E8001092F8018FBF089580915D0101
:102FD000089580915E01089580915F010895809128
:102FE000F60108959FB7F8942091F901222339F052
:102FF00022E02093E9003091E80035FD03C09FBF37
:103000008FEF089531EA3093F10030E23093F10010
:103010001092F1001092F1001092F1001092F10064
:103020002093F1001092F1008093F1001092F100D2
:103030008AE38093E8009FBF80E008951F920F927B
:103040000FB60F9211248F939F938091E1001092FD
:10305000E10083FF11C01092E90091E09093EB0032
:103060001092EC0092E19093ED0098E09093F000C4
:103070001092F9011092F60182FF13C08091F901BC
:10308000882379F08091F801882359F0815080934A
:10309000F801811106C084E08093E9008AE38093FF
:1030A000E8009F918F910F900FBE0F901F90189581
:1030B0001F920F920FB60F921124EF92FF920F936F
:1030C0001F932F933F934F935F936F937F938F93B0
:1030D0009F93AF93BF93EF93FF93CF93DF931F9291
:1030E000CDB7DEB71092E9008091E80083FF14C1EC
:1030F0009091F1008091F1003091F1002091F10068
:10310000E32EF12CF22A0091F1002091F10010E061
:10311000122B2091F1006091F10032EF3093E80022
:10312000863009F046C036E08FE991E0FC01459118
:1031300054914E155F0539F4FC0132964591549136
:103140004017510721F00796315081F7E5C0FC0187
:10315000349645915491FC013696849130E0362B9B
:103160002F3F310519F010F02FEF30E0281708F449
:10317000822F3EEF9091E800292F2570D9F392FD20
:10318000CEC0982F813108F090E1FA01292F222337
:1031900031F064916093F10021503196F8CF490FDE
:1031A000511D891B3093E8008111E4CF903111F358
:1031B000B6C0853051F48EEF8093E8000E94B614BB
:1031C0008E2D80688093E300AAC0893059F5911153
:1031D00080C0E092F9011092F6011092F8018EEF92
:1031E0008093E80041E088E492E04093E9009C018C
:1031F0002F5F3F4FFC0154915093EB00552359F042
:10320000F90124912093EC009C012D5F3F4F3196F2
:1032100084918093ED004F5F453011F0C901E5CFF7
:103220008EE175C0883051F4903809F052C00E9488
:10323000B6148091F9018093F10047C0813279F48E
:10324000913A09F046C00E94B614E9E5F1E0819197
:103250008093F10081E0E036F807C9F736C080328C
:1032600099F49132B1F58091E80082FFFCCFE9E555
:10327000F1E08091F100819381E0E036F807C9F731
:103280008BEF8093E80021C0823241F4913209F043
:1032900043C0E092F6010E94B61417C0811119C014
:1032A00099830E94B6149981923851F40093E900F1
:1032B0008091EB0085FB882780F91092E90001C01E
:1032C00080E08093F1001092F1008EEF8093E8008F
:1032D00026C0282F2D7F2130F9F49230E9F4EF2811
:1032E000D9F40F779FEF900F9430B0F49EEF909346
:1032F000E8000093E900833079F089E18093EB00E6
:1033000081E090E0002E01C0880F0A94EAF78093D4
:10331000EA001092EA0003C081E28093EB000F9074
:10332000DF91CF91FF91EF91BF91AF919F918F91DD
:103330007F916F915F914F913F912F911F910F91CD
:10334000FF90EF900F900FBE0F901F9018951F9356
:10335000CF93DF93EC01FE011491112351F01A3049
:1033600019F48DE00E941415812F0E9414152196E6
:10337000F2CFDF91CF911F9108958A3010F490E33E
:1033800001C097E3890F0C941415CF93C82F829531
:103390008F700E94BD198C2F8F70CF910C94BD1926
:1033A000CF93C82F892F0E94C5198C2FCF910C94D1
:1033B000C5190C94C519EF92FF920F931F93CF93E9
:1033C000DF93CDB7DEB727970FB6F894DEBF0FBEF9
:1033D000CDBF8E010F5F1F4F27E0F80111922A9594
:1033E000E9F74AE0B8010E94D8207E01F8E0EF0E2C
:1033F000F11CF80181918F0181110E9414150E15A5
:103400001F05B9F727960FB6F894DEBF0FBECDBFE4
:10341000DF91CF911F910F91FF90EF900895EF9260
:10342000FF920F931F93CF93DF9300D000D000D073
:10343000CDB7DEB78E010F5F1F4F26E0F801119266
:103440002A95E9F74AE0B8010E9414217E01F6E0CE
:10345000EF0EF11CF80181918F0181110E9414156A
:103460000E151F05B9F726960FB6F894DEBF0FBEEE
:10347000CDBFDF91CF911F910F91FF90EF900895F5
:10348000EF92FF920F931F93CF93DF93CDB7DEB7E9
:103490002B970FB6F894DEBF0FBECDBF8E010F5F26
:1034A0001F4F2BE0F80111922A95E9F72AE0A801B5
:1034B0000E94E3207E01FCE0EF0EF11CF8018191F7
:1034C0008F0181110E9414150E151F05B9F72B9657
:1034D0000FB6F894DEBF0FBECDBFDF91CF911F9125
:1034E0000F91FF90EF900895EF92FF920F931F932B
:1034F000CF93DF93CDB7DEB72B970FB6F894DEBF2F
:103500000FBECDBF8E010F5F1F4F2BE0F801119250
:103510002A95E9F72AE0A8010E94F2207E01FBE04B
:10352000EF0EF11CF80181918F0181110E94141599
:103530000E151F05B9F72B960FB6F894DEBF0FBE18
:10354000CDBFDF91CF911F910F91FF90EF90089524
:1035500048E365E00E94FE1191E0811101C090E016
:10356000892F08951F93CF93DF93D82FC62F142F41
:103570000E94DF11C23058F4E1E0F0E0012E01C0FA
:10358000EE0F0A94EAF74E2F409548230DC09EEEA9
:103590009C0F923078F421E030E0012E01C0220F20
:1035A0000A94EAF7482F422B6C2F8D2F0E94FE11B0
:1035B00081E001C080E0DF91CF911F9108951F93BA
:1035C000CF93DF93D82FC62F142F0E94DF119EEECA
:1035D0009C0F923058F4E1E0F0E0012E01C0EE0FB4
:1035E0000A94EAF74E2F409548230BC0C23078F476
:1035F00021E030E0012E01C0220F0A94EAF7482FA3
:10360000422B6C2F8D2F0E94FE1181E001C080E0C3
:10361000DF91CF911F910895CF93DF931F92CDB784
:10362000DEB749830E94DF1190E0498102C0959581
:1036300087954A95E2F781700F90DF91CF910895B9
:103640000E944A0103E010E0C1E0D0E074E0E72E00
:10365000F12CCC24CA94DC2CF2E02F2E312C80915A
:1036600062018F313CF0109262014AE069E181E031
:103670000E941A120E94D414882309F492C0609107
:10368000B7017091B8018091B9019091BA010E947F
:10369000B21ECB010E94DB198DE991E00E94A719AF
:1036A0006091BB017091BC018091BD019091BE0100
:1036B0000E94B21ECB010E94DB198BE991E00E94AF
:1036C000A71920E030E04EEF52E46091B301709111
:1036D000B4018091B5019091B6010E94FE1F2AE9C4
:1036E00039E949EC50E40E944A1E0E94B21ECB0107
:1036F0000E94DB1989E991E00E94A7196091FA0103
:103700007091FB018091FC019091FD010E94B21E1D
:10371000CB010E94DB1987E991E00E94A719609113
:1037200020027091210280912202909123020E9436
:10373000B21ECB010E94DB1985E991E00E94A71916
:1037400020E030E04EEF52E460916301709164013B
:1037500080916501909166010E94FE1F2AE939E976
:1037600049EC50E40E944A1E0E94B21ECB010E9406
:10377000DB1983E991E00E94A7198091A70190913C
:10378000A8010E94DB1980E991E00E94A7198091AD
:10379000A5019091A6010E94DB198EE891E00E949C
:1037A000A7198091610181110E94D61080910201B8
:1037B00090910301892B31F00E943108109203018E
:1037C0001092020180916001882309F4E3C0809186
:1037D0000A0290910B020997A1F58091B301909193
:1037E000B401A091B501B091B60180930402909309
:1037F0000502A0930602B09307028091B701909151
:10380000B801A091B901B091BA0180932C029093B4
:103810002D02A0932E02B0932F028091BB019091B4
:10382000BC01A091BD01B091BE0180931C02909398
:103830001D02A0931E02B0931F0210920B02109261
:103840000A0280910A0290910B020897D9F5209103
:10385000B7013091B8014091B9015091BA0160911E
:103860002C0270912D0280912E0290912F020E94C5
:103870007C1D0E94B21E6E5F7F4F6530710510F592
:103880002091BB013091BC014091BD015091BE011E
:1038900060911C0270911D0280911E0290911F0286
:1038A0000E947C1D0E94B21E6E5F7F4F65307105C5
:1038B00048F4809126029091270201969093270266
:1038C000809326028091260290912702099734F076
:1038D0000E940610109227021092260281ED91E0BC
:1038E0000E94291481ED91E00E94A7024090B3014B
:1038F0005090B4016090B5017090B60140926301A0
:103900005092640160926501709266016091B70106
:103910007091B8018091B9019091BA016093FA0158
:103920007093FB018093FC019093FD018090BB019B
:103930009090BC01A090BD01B090BE018092200289
:1039400090922102A0922202B09223020E94B21E03
:103950006093E901C501B4010E94B21E6093EA01BF
:1039600020E030E04EEF52E4C301B2010E94FE1F9E
:103970002AE939E949EC50E40E944A1E0E94B21E2D
:103980006093EB0143E069EE71E088E10E94C312AD
:1039900010926001609057017090580124E0621607
:1039A000710409F48AC07CF521E06216710489F182
:1039B00083E06816710409F09AC080E00E941D112E
:1039C00080E00E94271140E062E180E20E94B21A8A
:1039D0000E94800B80916D0190916E019093A601E1
:1039E0008093A50180916B0190916C019093A80147
:1039F0008093A7010E94A00C8091A5019091A6013F
:103A00000E94B20C2CCE28E0621671040CF427CE72
:103A10006EC01092A8011092A7011092A6011092F8
:103A2000A50180E090E00E94A00C8091A5019091FA
:103A3000A6010E94B20C80E00E941D1180E00E944D
:103A4000311146E062E180E20E94B21A80E00E94F9
:103A5000CB1080E00E94D1104B9B14C080910A01D2
:103A6000882381F02C9A709209016092080170926B
:103A700068016092670110920A01709201016092E0
:103A8000000116C04B9914C080910A01882381F06F
:103A90000E944801D0920901C09208013092680149
:103AA0002092670110920A01D0930101C093000196
:103AB000F0925801E0925701D2CD43E062E180E2FA
:103AC0000E94B21A80E00E94271180E00E9431110A
:103AD0000E94C90C80911A0290911B028538934074
:103AE0000CF4BDCD1093580100935701B8CDD0937D
:103AF0005801C0935701B3CD5058BB27AA270ED009
:103B000027C2F0D130F0F5D120F031F49F3F11F40D
:103B10001EF4C0C10EF4E095E7FBB6C1E92F3AD21E
:103B200080F3BA17620773078407950718F071F4DA
:103B30009EF552C20EF4E0950B2EBA2FA02D0B016C
:103B4000B90190010C01CA01A0011124FF27591BE2
:103B500099F0593F50F4503E68F11A16F040A22FE8
:103B6000232F342F4427585FF3CF46953795279559
:103B7000A795F0405395C9F77EF41F16BA0B620B58
:103B8000730B840BBAF09150A1F0FF0FBB1F661F9F
:103B9000771F881FC2F70EC0BA0F621F731F841FE2
:103BA00048F4879577956795B795F7959E3F08F008
:103BB000B3CF9395880F08F09927EE0F97958795C7
:103BC000089590D158F080E891E009F49EEF91D1EA
:103BD00028F040E851E059F45EEF09C05BC1FCC138
:103BE000E92FE078D7D168F3092E052AC1F326170B
:103BF00037074807590738F00E2E07F8E02569F017
:103C0000E025E0640AC0EF6307F8009407FADB01DF
:103C1000B9019D01DC01CA01AD01EF934AD098D1F1
:103C20000AD05F91552331F02BED3FE049E450FD80
:103C300049EC63CF0895DF93DD27B92FBF7740E8C4
:103C40005FE31616170648075B0710F4D92FCFD18C
:103C50009F938F937F936F937CD2E2E4F1E01DD129
:103C600077D12F913F914F915F91D4D1DD2349F0CE
:103C70009058A2EA2AED3FE049EC5FE3D0785D2757
:103C80004DDFDF9165C1DCD008F481E0089539D1C2
:103C9000E3956FC10CD05CC12CD140F023D130F042
:103CA00021F45F3F19F0F0C0511197C1F3C072D1F8
:103CB00098F39923C9F35523B1F3951B550BBB27F3
:103CC000AA2762177307840738F09F5F5F4F220FA0
:103CD000331F441FAA1FA9F333D00E2E3AF0E0E899
:103CE00030D091505040E695001CCAF729D0FE2FE5
:103CF00027D0660F771F881FBB1F26173707480777
:103D0000AB07B0E809F0BB0B802DBF01FF2793582C
:103D10005F4F2AF09E3F510568F0B6C05EC15F3F1D
:103D2000ECF3983EDCF3869577956795B795F79514
:103D30009F5FC9F7880F911D9695879597F908950C
:103D4000E1E0660F771F881FBB1F621773078407A8
:103D5000BA0720F0621B730B840BBA0BEE1F88F7B7
:103D6000E095089504D06894B11137C108951AD12F
:103D700088F09F5790F0B92F9927B751A0F0D1F054
:103D8000660F771F881F991F1AF0BA95C9F712C0DE
:103D9000B13081F021D1B1E008951EC1672F782F95
:103DA0008827B85F39F0B93FCCF38695779567954A
:103DB000B395D9F73EF490958095709561957F4FB6
:103DC0008F4F9F4F0895E89409C097FB3EF490955C
:103DD0008095709561957F4F8F4F9F4F9923A9F0E4
:103DE000F92F96E9BB279395F69587957795679573
:103DF000B795F111F8CFFAF4BB0F11F460FF1BC0B7
:103E00006F5F7F4F8F4F9F4F16C0882311F096E949
:103E100011C0772321F09EE8872F762F05C06623F7
:103E200071F096E8862F70E060E02AF09A95660FB0
:103E3000771F881FDAF7880F9695879597F9089569
:103E4000990F0008550FAA0BE0E8FEEF16161706AB
:103E5000E807F907C0F012161306E407F50798F013
:103E6000621B730B840B950B39F40A2661F0232B2C
:103E7000242B252B21F408950A2609F4A140A695A8
:103E80008FEF811D811D089597F99F6780E870E08D
:103E900060E008959FEF80EC0895DF93CF931F9328
:103EA0000F93FF92EF92DF927B018C01689405C023
:103EB000DA2EEF01AFD0FE01E894A591259135915E
:103EC00045915591AEF3EF0129DEFE019701A8015E
:103ED000DA9479F7DF90EF90FF900F911F91CF91D7
:103EE000DF91089500240A9416161706180609068D
:103EF000089500240A941216130614060506089560
:103F0000C9CF50D0E8F3E894E0E0BB279F57F0F02A
:103F10002AED3FE049EC06C0EE0FBB0F661F771F8E
:103F2000881F28F0B23A62077307840728F0B25A54
:103F3000620B730B840BE3959A9572F7803830F41B
:103F40009A95BB0F661F771F881FD2F7904806C14E
:103F5000092E0394000C11F4882352F0BB0F40F497
:103F6000BF2B11F460FF04C06F5F7F4F8F4F9F4FD7
:103F70000895EF93E0FF06C0A2EA2AED3FE049EC86
:103F80005FEBCCDDE5DF0F90039401FC9058EFE68A
:103F9000F1E0F7C057FD9058440F551F59F05F3FAF
:103FA00071F04795880F97FB991F61F09F3F79F05B
:103FB00087950895121613061406551FF2CF4695DD
:103FC000F1DF08C0161617061806991FF1CF86955F
:103FD0007105610508940895E894BB276627772743
:103FE000CB0197F908952CDF08F48FEF08959B011A
:103FF000AC0160E070E080E89FE34CCE0BD0A8CF2E
:1040000071DF28F076DF18F0952309F03DCF42CF1D
:104010001124E3CFBFDFA0F3959FD1F3950F50E0BC
:10402000551F629FF001729FBB27F00DB11D639F6A
:10403000AA27F00DB11DAA1F649F6627B00DA11D10
:10404000661F829F2227B00DA11D621F739FB00DB6
:10405000A11D621F839FA00D611D221F749F332726
:10406000A00D611D231F849F600D211D822F762FBF
:104070006A2F11249F5750408AF0E1F088234AF0BC
:10408000EE0FFF1FBB1F661F771F881F9150504008
:10409000A9F79E3F510570F0F7CE9FCF5F3FECF33D
:1040A000983EDCF3869577956795B795F795E795F4
:1040B0009F5FC1F7FE2B880F911D9695879597F905
:1040C00008959F931EDF0F9007FCEE5F52CF11F40F
:1040D0000EF4E0CE41C066DFD0F39923D9F3CEF3DE
:1040E0009F57550B87FF46D00024A0E640EA900179
:1040F00080585695979528F4805C660F771F881F27
:1041000020F026173707480730F4621B730B840B27
:10411000202931294A2BA69517940794202531256B
:104120004A2758F7660F771F881F20F02617370792
:10413000480730F4620B730B840B200D311D411DB9
:10414000A09581F7B901842F9158880F969587958E
:1041500008959B01AC0152CF9F3F31F0915020F464
:10416000879577956795B795880F911D9695879553
:1041700097F9089591505040660F771F881FD2F726
:1041800008959F938F937F936F93FF93EF939B017A
:10419000AC0134DFEF91FF9180DE2F913F914F9181
:1041A0005F912CCFEE0FFF1F0590F491E02D099445
:1041B000BB274A3031F4992322F4BDE290958195D2
:1041C0009F4F0C941521BB272A3051F4992342F4B8
:1041D000BDE290958095709561957F4F8F4F9F4F71
:1041E0000C94F320BB27FA01A62F621771058105F5
:1041F0009105330B30FB66F0AA27660F771F881FE7
:10420000991FAA1FA21710F0A21B63953850A9F797
:10421000A05DAA3308F0A95DA19336F7B111B1935F
:104220001082CA010C942E21BB27FB015527AA2717
:10423000880F991FAA1FA41710F0A41B8395505133
:10424000B9F7A05DAA3308F0A95DA193009779F7AB
:10425000B111B1931192CB010C942E21DC01FC0120
:10426000672F71917723E1F7329704C07C916D93AA
:1042700070836291AE17BF07C8F30895F894FFCF1B
:10428000010001009A99193E0100010000803F00E1
:1042900000803F0000803F0000803F0000803F0022
:1042A00000803F0000803F0000803F00003E430050
:1042B00000AF430000AF4300008C430000C8430040
:1042C000007A430000BE4300003E438200C3F5C8AD
:1042D0003F02000AD7A33E010000E10000000008F1
:00000001FF
