:100000000C9425010C9442010C9442010C941309A8
:100010000C9442010C9442010C9442010C94420154
:100020000C9442010C9442010C945F130C949913AC
:100030000C9442010C9442010C9442010C94420134
:100040000C9442010C9442010C9442010C94420124
:100050000C9404090C9442010C9442010C9442014A
:100060000C9442010C9442010C9442010C94420104
:100070000C9442010C9478090C9442010C944201B6
:100080000C9442010C9442010C9442010C944201E4
:100090000C9442010C9442010C9442010C944201D4
:1000A0000C9442010C9442010C9442013708480818
:1000B00057086608750884089308A208B508BC08A4
:1000C0000713FF12F712EF12E712DF12D712CF1247
:1000D000C712BF12B712AF12A7129F1297128F1238
:1000E00087127F1277126F1267125F1257124F1228
:1000F00047123F1237122F1227121F1217120F1218
:100100000712FF11F711EF11E711DF11D711CF110E
:10011000C711BF11B711AF11A7119F1197118F11FF
:1001200087117F1177116F1167115F1157114F11EF
:1001300047113F1137112F1127111F1117110F11DF
:100140000711084AD73B3BCE016E84BCBFFDC12FCF
:100150003D6C74319ABD56833DDA3D00C77F11BEB8
:10016000D9E4BB4C3E916BAAAABE000000803F05BB
:10017000A84CCDB2D44EB93836A9020C50B99186EC
:1001800088083CA6AAAA2ABE000000803F000A00F8
:100190000A0009000900000100002D0212000200FF
:1001A00000EA014300030000E6010401030904D250
:1001B000011202030904CA010603030904C001086D
:1001C0000803340031003000000006034D00320007
:1001D000000012034A002E0020004600690065005E
:1001E0006E006500000004030904090243000201D7
:1001F00000C03209040000010202010005240010C1
:10020000010524010101042402060524060001075A
:1002100005820310004009040100020A00000007E3
:10022000050302400000070584024000001201009F
:100230000202000010C0167A04000101020301004E
:1002400001C1120180360181360011241FBECFEF9B
:10025000DAE0DEBFCDBF11E0A0E0B1E0ECE7FAE309
:1002600002C005900D92A635B107D9F721E0A6E5A9
:10027000B1E001C01D92AD3FB207E1F70E946116E7
:100280000C943C1D0C9400002898299A9195819516
:10029000910990914701989F802D11248093D0005F
:1002A00008952C9A0895469A0895CF93DF93E1E636
:1002B000F0E080E88083108285BF85BF0E94B30C88
:1002C0000E94FC0F209A219A229A239A249A3E9AFD
:1002D00053984AE069E181E00E945B0D0E94850E1F
:1002E000E1E8F0E080818B7F808380818260808381
:1002F000808181608083808180618083808188604B
:100300008083E0E8F0E0808182608083808181608A
:100310008083EFE6F0E080818160808384EC99E067
:10032000909389008093880078941092CF00109267
:10033000D00088EC8093D1003F9A269AE1ECF0E05F
:1003400080818860808380818460808380818D7FCC
:10035000808380818E7F8083E3ECF0E080818D7FDD
:10036000808380818E7F8083E0ECF0E080818260FA
:10037000808380818068808380818F7B808380817F
:100380008160808380818062808380818F7E808392
:10039000ECE7F0E080818F778083808180648083C8
:1003A000AAE7B0E08C9184608C938C9182608C93EE
:1003B0008C9181608C93CEE7D0E0888181608883C6
:1003C0008881826088838881806188838881806257
:1003D0008883888180648883888180688883CDE76A
:1003E000D0E0888181608883CBE7D0E088818F7DF1
:1003F000888380818B7F808380818D7F80838081D3
:100400008E7F80838C9188608C9388818F7D888398
:1004100080818B7F808380818D7F808380818E7FB0
:1004200080838C9180688C938C9180648C9340E065
:1004300060E080E20E94F31541E060E080E20E940B
:10044000F31542E060E080E20E94F31543E060E0D3
:1004500080E20E94F31544E060E080E20E94F31520
:1004600045E060E080E20E94F31546E060E080E253
:100470000E94F31547E060E080E20E94F31540E03F
:1004800061E080E2DF91CF910C94F3152F923F92BF
:100490004F925F926F927F928F929F92AF92BF9294
:1004A000CF92DF92EF92FF920F931F93CF93DF9340
:1004B000CDB7DEB7C458D1090FB6F894DEBF0FBE72
:1004C000CDBF2C01FE01319680E4DF011D928A959B
:1004D000E9F7BE016F5B7F4F84E2DB011D928A95D5
:1004E000E9F7D20120E030E080E090E04D915D91AD
:1004F0004F3F534009F401962F5F3F4F2B3031059A
:10050000A9F78230910509F471C234F06E9A769899
:100510006A9A729A80E0F4C46E9A769A6A9A72988D
:10052000E796FFAFEEAFE797A7965FAE4EAEA79701
:10053000612C712CEB961FAE1EAEEB9700E010E025
:10054000212C312CA796AEADBFADA7976D917C91B4
:1005500080E090E00E94E11AC358DF4F68837983FE
:100560008A839B83CD57D040A796EEADFFADA7976A
:100570006281738180E090E00E94E11ACF57DF4FE3
:10058000688379838A839B83C158D040AB965FAEE2
:100590004EAEAB97AF961FAE1EAEAF97E3961FAEB3
:1005A0001EAEE397AB96AEADBFADAB976D917C91B0
:1005B00080E090E00E94E11A9B01AC01C358DF4F3C
:1005C000688179818A819B81CD57D0400E947A19B8
:1005D0004B015C01AB96EEADFFADAB9762817381D1
:1005E00080E090E00E94E11A9B01AC01CF57DF4F01
:1005F000688179818A819B81C158D0400E947A1993
:100600006B017C01A5019401C501B4010E94FC1B92
:100610004B015C01A7019601C701B6010E94FC1BBA
:100620009B01AC01C501B4010E947B190E94691CA9
:100630006B017C01E796EEADFFADE797AF962EAD6F
:100640003FADAF97E20FF31F608371838283938383
:10065000EB964EAD5FADEB97BA01882777FD80959D
:10066000982F0E94E31A9B01AC01C701B6010E94BA
:10067000F11B18166CF4C701B6010E94B01AEB9674
:100680007FAF6EAFEB97E3960EAD1FADE39713010F
:10069000E3968EAD9FADE3970196E3969FAF8EAF45
:1006A000E397AB96AEADBFADAB971696AB96BFAF2B
:1006B000AEAFAB97AF96EEADFFADAF973496AF96BA
:1006C000FFAFEEAFAF97049709F06CCFFFEF6F1A53
:1006D0007F0AA7962EAD3FADA7972A5F3F4FA796FB
:1006E0003FAF2EAFA797E7964EAD5FADE797405F60
:1006F0005F4FE7965FAF4EAFE79754E06516710422
:1007000009F020CF80E090E082159305A1F18017D9
:10071000910789F1F101EE0FFF1FEE0FFF1FE80FA8
:10072000F91FEE0FFF1FEE0FFF1FEE24E394F12CD5
:10073000EC0EFD1EEE0DFF1DD801AA0FBB1FAA0F68
:10074000BB1FA80FB91FAA0FBB1FAA0FBB1FAE0D5F
:10075000BF1D2D913D914D915C9160817181828190
:1007600093810E94411A87FF0EC0902F812F810133
:10077000292E382E08C001968430910529F6212CA7
:10078000312C00E010E086E0782E709E7001719EA2
:10079000F00C1124E40CF51CD7016D917C9180E0E4
:1007A00090E00E94E11A4B015C01F70162817381C4
:1007B00080E090E00E94E11A6B017C01729C800154
:1007C000739C100D1124040D151DD8016D917C91A1
:1007D00080E090E00E94E11A2B013C01F801628167
:1007E000738180E090E00E94E11AE1966CAF7DAFEA
:1007F0008EAF9FAFE1979B01AC01C701B6010E948C
:100800007A19A9966CAF7DAF8EAF9FAFA997A30160
:100810009201C501B4010E947A19A9962CAD3DAD93
:100820004EAD5FADA9970E94EE19E5966CAF7DAF16
:100830008EAF9FAFE5979B01AC015058A9962CAFA6
:100840003DAF4EAF5FAFA997CA01B9010E94451AEB
:10085000AD966CAF7DAF8EAF9FAFAD97A301920108
:10086000C501B4010E947B1920E030E040E05FE365
:100870000E94FC1B20E030E040E054E40E947A1922
:100880002B013C01A9966CAD7DAD8EAD9FADA997B6
:100890000E945F1C4B015C01E1962CAD3DAD4EAD5D
:1008A0005FADE197C701B6010E947B1920E030E0FF
:1008B00040E05FE30E94FC1B20E030E040EC53E4AA
:1008C0000E947A19E9966CAF7DAF8EAF9FAFE99722
:1008D0008091490190914A01A0914B01B0914C0146
:1008E000E1968CAF9DAFAEAFBFAFE197AD966CAD6B
:1008F0007DAD8EAD9FADAD979058A30192010E9442
:10090000FC1B6B017C01E9962CAD3DAD4EAD5FAD9E
:10091000E997C501B4010E94FC1B9B01AC01C70112
:10092000B6010E947A199B01AC015058E1966CAD5A
:100930007DAD8EAD9FADE1970E94FC1B60939F0142
:100940007093A0018093A1019093A201A301920151
:10095000C501B4010E94FC1B6B017C01E9962CAD22
:100960003DAD4EAD5FADE997AD966CAD7DAD8EAD55
:100970009FADAD970E94FC1B9B01AC01C701B60166
:100980000E947A199B01AC01E1966CAD7DAD8EADF4
:100990009FADE1970E94FC1B6093A3017093A4019B
:1009A0008093A5019093A60120E030E0A901A996CB
:1009B0006CAD7DAD8EAD9FADA9970E94411A87FFAA
:1009C00083C2E5962CAD3DAD4EAD5FADE59763ECD2
:1009D00075EF88EC90E40E947A1960939B01709304
:1009E0009C0180939D0190939E017CC26E9A7698A3
:1009F0006A9A7298D20141E050E020E030E080E055
:100A000090E00D911C9111970F3FE3E01E0709F450
:100A10006BC2F901E81BF90BEE0FFF1FEE0FFF1F72
:100A2000E955FE4F1183008312960D911C91139787
:100A3000FC01EE0FFF1F7A01EE1AFF0AF701EE0F1D
:100A4000FF1FE955FE4F118300832F5F3F4F16961E
:100A50004E5F5F4F24303105A1F6AB967FAF6EAF8E
:100A6000AB9727EA31E0E3963FAF2EAFE397412CF7
:100A7000512CE7961FAE1EAEE79700E010E0212C48
:100A8000312CE396AEADBFADE3976D917C9180E0E4
:100A900090E00E94E11AED966CAF7DAF8EAF9FAFF4
:100AA000ED97E396EEADFFADE3976281738180E051
:100AB00090E00E94E11AC358DF4F688379838A83EC
:100AC0009B83CD57D04027EA31E0A7963FAF2EAFAA
:100AD000A797AF961FAE1EAEAF97612C712CA7964D
:100AE000AEADBFADA7976D917C9180E090E00E9484
:100AF000E11A9B01AC01ED966CAD7DAD8EAD9FAD65
:100B0000ED970E947A194B015C01A796EEADFFADFF
:100B1000A7976281738180E090E00E94E11A9B01B7
:100B2000AC01C358DF4F688179818A819B81CD57A1
:100B3000D0400E947A196B017C01A5019401C50186
:100B4000B4010E94FC1B4B015C01A7019601C70187
:100B5000B6010E94FC1B9B01AC01C501B4010E94BF
:100B60007B190E94691C6B017C01AB96EEADFFAD59
:100B7000AB97AF962EAD3FADAF97E20FF31F6083FB
:100B8000718382839383E7964EAD5FADE797BA0199
:100B9000882777FD8095982F0E94E31A9B01AC016E
:100BA000C701B6010E94F11B181654F4C701B60123
:100BB0000E94B01AE7967FAF6EAFE79783011201EC
:100BC0005FEF651A750AA7968EAD9FADA79704963D
:100BD000A7969FAF8EAFA797AF96AEADBFADAF97BD
:100BE0001496AF96BFAFAEAFAF97B3E06B1671047C
:100BF00009F075CFEFEF4E1A5E0AE3962EAD3FADCA
:100C0000E3972C5F3F4FE3963FAF2EAFE397AB9652
:100C10004EAD5FADAB97445F5F4FAB965FAF4EAFEE
:100C2000AB9753E04516510409F02BCF80E090E0DC
:100C30008215930509F45AC18017910709F456C12A
:100C4000F101EE0FFF1FE20DF31DE80FF91FEE0F8C
:100C5000FF1FEE0FFF1F41E450E04C0F5D1FE40F3C
:100C6000F51FD801AA0FBB1FA00FB11FA80FB91FF6
:100C7000AA0FBB1FAA0FBB1FA40FB51F2D913D913B
:100C80004D915C9160817181828193810E94411AB2
:100C900087FF05C0902F812F8101292E382E7801E2
:100CA000EE0CFF1CE00EF11EF701EE0FFF1FE955E1
:100CB000FE4F6081718180E090E00E94E11A4B015B
:100CC0005C01F701EE0FFF1FE755FE4F6081718158
:100CD00080E090E00E94E11A6B017C018101000F2D
:100CE000111F020D131DF801EE0FFF1FE955FE4FF6
:100CF0006081718180E090E00E94E11A2B013C014B
:100D0000F801EE0FFF1FE755FE4F6081718180E013
:100D100090E00E94E11AAD966CAF7DAF8EAF9FAFB1
:100D2000AD979B01AC01C701B6010E947A19A99643
:100D30006CAF7DAF8EAF9FAFA997A3019201C501A4
:100D4000B4010E947A19A9962CAD3DAD4EAD5FADB0
:100D5000A9970E94EE199B01AC015058A9962CAF9F
:100D60003DAF4EAF5FAFA997CA01B9010E94451AC6
:100D7000E5966CAF7DAF8EAF9FAFE597A301920173
:100D8000C501B4010E947B1920E030E040E05FE340
:100D90000E94FC1B20E030E040E054E40E947A19FD
:100DA0002B013C01A9966CAD7DAD8EAD9FADA99791
:100DB0000E945F1C4B015C01AD962CAD3DAD4EAD6C
:100DC0005FADAD97C701B6010E947B1920E030E00E
:100DD00040E05FE30E94FC1B20E030E040EC53E485
:100DE0000E947A19E1966CAF7DAF8EAF9FAFE1970D
:100DF0008091490190914A01A0914B01B0914C0121
:100E0000AD968CAF9DAFAEAFBFAFAD97E5966CAD75
:100E10007DAD8EAD9FADE5979058A30192010E94E4
:100E2000FC1B6B017C01E1962CAD3DAD4EAD5FAD81
:100E3000E197C501B4010E94FC1B9B01AC01C701F5
:100E4000B6010E947A199B01AC015058AD966CAD69
:100E50007DAD8EAD9FADAD970E94FC1B60939F0151
:100E60007093A0018093A1019093A201A30192012C
:100E7000C501B4010E94FC1B6B017C01E1962CAD05
:100E80003DAD4EAD5FADE197E5966CAD7DAD8EAD00
:100E90009FADE5970E94FC1B9B01AC01C701B60109
:100EA0000E947A199B01AC01AD966CAD7DAD8EAD03
:100EB0009FADAD970E94FC1B6093A3017093A401AA
:100EC0008093A5019093A601A9962CAD3DAD4EADA2
:100ED0005FADA99720939B0130939C0140939D01A6
:100EE00050939E0181E00CC00196AFCD01968330F6
:100EF000910509F09DCE212C312C00E010E0CFCEE1
:100F0000CC57DF4F0FB6F894DEBF0FBECDBFDF91D9
:100F1000CF911F910F91FF90EF90DF90CF90BF90F6
:100F2000AF909F908F907F906F905F904F903F9089
:100F30002F900895CF92DF92EF92FF920F931F931D
:100F4000CF93DF93EC018B01FB0120813181428142
:100F50005381688179818A819B810E94FC1B20E0FA
:100F600030E0A9010E947B196B017C01F80124810A
:100F70003581468157816C817D818E819F810E9460
:100F8000FC1B9B01AC01C701B6010E947B19DF91DC
:100F9000CF911F910F91FF90EF90DF90CF90089528
:100FA000AF92BF92CF92DF92EF92FF920F931F9377
:100FB000CF93DF9300E010E0C12CD12C7601C0E08C
:100FC000D0E05801AA0CBB1CAA0CBB1CC501815A5D
:100FD0009E4F5C01FC016081718182819381A70138
:100FE00096010E94F11B181634F4F501C080D180DF
:100FF000E280F380E8010F5F1F4F0830110509F709
:10100000209719F0C730D105F9F460915F01709114
:101010006001809161019091620120917B0130918A
:101020007C0140917D0150917E010E947A190E94BD
:10103000B01A9B0177FF04C022273327261B370BEA
:10104000243631050CF491C020E030E048EC52E445
:10105000C701B6010E94411A87FD87C0CA30D10579
:1010600008F096C0FE01EA5AFF4F0C94D01C84E1B0
:1010700090E090935E0180935D018CEE9FEF9093E2
:101080005C0180935B01109282011092810180C00B
:1010900084E190E090935E0180935D018CEE9FEF80
:1010A00090935C0180935B0181E090E059C084E102
:1010B00090E090935E0180935D018CEE9FEF9093A2
:1010C0005C0180935B0182E090E04AC084E190E0A3
:1010D00090935E0180935D018CEE9FEF90935C0195
:1010E00080935B0183E090E03BC08CEE9FEF909398
:1010F0005E0180935D0184E190E090935C018093B8
:101100005B0184E090E02CC08CEE9FEF90935E0139
:1011100080935D0184E190E090935C0180935B019A
:1011200085E090E01DC08CEE9FEF90935E01809370
:101130005D0184E190E090935C0180935B0186E027
:1011400090E00EC08CEE9FEF90935E0180935D0166
:1011500084E190E090935C0180935B0187E090E0F4
:10116000909382018093810113C082E390E0909379
:101170005E0180935D0108C084E190E090935E0180
:1011800080935D018CEE9FEF90935C0180935B01F7
:10119000DF91CF911F910F91FF90EF90DF90CF9053
:1011A000BF90AF9008951816190654F4289A2998FC
:1011B00090914701989F802D11248093D00008952D
:1011C0000C944401209147011816190644F4289FF5
:1011D000802D11248093CF002A9A2B980895919501
:1011E00081959109289F802D11248093CF002A9802
:1011F0002B9A089581110C9451012C980895811116
:101200000C945301469808951F920F920FB60F92B7
:1012100011248F9381E0809356018F910F900FBE20
:101220000F901F9018951F920F920FB60F921124D6
:101230002F933F934F935F936F937F938F939F93DE
:10124000AF93BF93EF93FF936AE08BED91E00E9421
:10125000B30D8091DB01813A39F1843A41F1803A52
:1012600061F58091570190915801019779F40E949E
:1012700051012FEF81EE94E0215080409040E1F742
:1012800000C0000080E00E94FA080EC00E945301D6
:101290002FEF81EE94E0215080409040E1F700C0B4
:1012A000000080E00E94FF0883E090E002C081E03F
:1012B00090E090934E0180934D0180914D0190916B
:1012C0004E010E941C158EE891E00E94E814FF91E7
:1012D000EF91BF91AF919F918F917F916F915F91AE
:1012E0004F913F912F910F900FBE0F901F90189527
:1012F0001F920F920FB60F9211240F931F932F93EB
:101300003F934F935F936F937F938F939F93AF938D
:10131000BF93CF93DF93EF93FF9380917F019091E1
:101320008001892B09F041C06091780070917900AB
:1013300000917F0110918001C0917F01D0918001C7
:1013400080E090E00E94E11AF801EE0FFF1FEE0F1F
:10135000FF1FEF5DFE4F20813181428153810E944A
:101360007A19CC0FDD1FCC0FDD1FCF5FDE4F288138
:1013700039814A815B810E94FC1B0E94B01A7093E4
:10138000EE016093ED0180917F01909180010196C3
:101390009093800180937F0180917A008F77809372
:1013A0007A0080917B008F7DBAC180917F019091FE
:1013B0008001019709F057C0609178007091790021
:1013C00000917F0110918001C0917F01D091800137
:1013D00080E090E00E94E11AF801EE0FFF1FEE0F8F
:1013E000FF1FEF5DFE4F20813181428153810E94BA
:1013F0007A19CC0FDD1FCC0FDD1FCF5FDE4F2881A8
:1014000039814A815B810E94FC1B0E94B01A709353
:10141000FC016093FB0180917F0190918001019616
:101420009093800180937F0180917A008F778093E1
:101430007A0080917B008F7D80937B0080917C007F
:10144000846080937C0080917C008D7F80937C0001
:1014500080917C008E7F80937C0080917A008061F7
:1014600080937A00C6C180917F019091800102979C
:1014700009F046C0609178007091790000917F0179
:1014800010918001C0917F01D091800180E090E0B7
:101490000E94E11AF801EE0FFF1FEE0FFF1FEF5D34
:1014A000FE4F20813181428153810E947A19CC0FF5
:1014B000DD1FCC0FDD1FCF5FDE4F288139814A81D0
:1014C0005B810E94FC1B0E94B01A7093F401609330
:1014D000F30180917F0190918001019690938001AA
:1014E00080937F0180917A008F7780937A0080913A
:1014F0007B008F7D80937B0080917C00846014C191
:1015000080917F0190918001039709F04BC0609119
:1015100078007091790000917F0110918001C09155
:101520007F01D091800180E090E00E94E11AF801F3
:10153000EE0FFF1FEE0FFF1FEF5DFE4F2081318189
:10154000428153810E947A19CC0FDD1FCC0FDD1F21
:10155000CF5FDE4F288139814A815B810E94FC1B6D
:101560000E94B01A7093FA016093F90180917F0193
:101570009091800101969093800180937F018091EA
:101580007A008F7780937A0080917B008F7D8093A3
:101590007B0080917C00846080937C0080917C0043
:1015A000826054CF80917F01909180010497F1F582
:1015B000609178007091790080E090E00E94E11ADB
:1015C00020913D0130913E0140913F0150914001F9
:1015D0000E947A1920911D0130911E0140911F0136
:1015E000509120010E94FC1B0E94B01A7093F201DE
:1015F0006093F10180917F01909180010196909319
:10160000800180937F0180917A008F7780937A00A8
:1016100080917B008F7D80937B0080917C00846033
:1016200080937C0080917C00826083C080917F01E8
:10163000909180010597C9F56091780070917900CB
:1016400080E090E00E94E11A2091390130913A0146
:1016500040913B0150913C010E947A19209119015F
:1016600030911A0140911B0150911C010E94FC1BFA
:101670000E94B01A7093F8016093F70180917F0186
:101680009091800101969093800180937F018091D9
:101690007A008F7780937A0080917B0080628093BC
:1016A0007B0080917C008B7FCCCE80917F019091DC
:1016B0008001069709F043C060917800709179002D
:1016C00080E090E00E94E11A2091350130913601CE
:1016D00040913701509138010E947A1920911501EB
:1016E0003091160140911701509118010E94FC1B86
:1016F0000E94B01A7093EA016093E90180917F0122
:101700009091800101969093800180937F01809158
:101710007A008F7780937A0080917B00806280933B
:101720007B0080917C008B7F80937C0080917C008B
:101730008D7F80937C0080917C0081608CCE809135
:101740007F0190918001079709F053C06091780064
:101750007091790080E090E00E94E11A20913101BF
:101760003091320140913301509134010E947A1935
:1017700020911101309112014091130150911401F7
:101780000E94FC1B0E94B01A7093F0016093EF015D
:1017900080917F01909180010196909380018093C8
:1017A0007F0180917A008F7780937A0080917B000F
:1017B0008F7D80937B0080917C008B7F80937C0069
:1017C00080917C008D7F80937C0080917C008E7F57
:1017D00080937C0080917A00806180937A001092DF
:1017E000800110927F0181E090E09093F601809358
:1017F000F5018091F5019091F601892B09F490C0D3
:101800006091ED017091EE01882777FD8095982F0A
:101810000E94E31A60935F017093600180936101FD
:10182000909362016091FB017091FC01882777FD24
:101830008095982F0E94E31A60936301709364016E
:1018400080936501909366016091F3017091F401BA
:10185000882777FD8095982F0E94E31A609367018F
:10186000709368018093690190936A016091F90116
:101870007091FA01882777FD8095982F0E94E31ACE
:1018800060936B0170936C0180936D0190936E0176
:101890006091EF017091F001882777FD8095982F76
:1018A0000E94E31A60936F0170937001809371013D
:1018B000909372016091E9017091EA01882777FDA8
:1018C0008095982F0E94E31A6093730170937401BE
:1018D00080937501909376016091F7017091F80102
:1018E000882777FD8095982F0E94E31A60937701EF
:1018F000709378018093790190937A016091F1015E
:101900007091F201882777FD8095982F0E94E31A45
:1019100060937B0170937C0180937D0190937E01A5
:101920001092F6011092F50180917A008068809300
:101930007A0080917A00806480937A00FF91EF9121
:10194000DF91CF91BF91AF919F918F917F916F91D7
:101950005F914F913F912F911F910F910F900FBE6B
:101960000F901F901895589A599A5A9A8CE0809324
:10197000B800E9E6F0E080818062808380818F7E1C
:101980008083EA9A7894089584E88093BC008091DB
:10199000BC0087FFFCCF8091BB00089584E9809351
:1019A000BC00089520E030E08091BC0087FD06C0B7
:1019B0002F5F3F4F293E83E03807B1F781E0283E93
:1019C000334009F480E008958093BB0084E880935D
:1019D000BC000E94D20C882321F08091B900887F3E
:1019E000089580E008951F93CF93DF931F92CDB7A2
:1019F000DEB7182F84EA8093BC0069830E94D20C62
:101A00006981811104C094E99093BC0014C0812FB6
:101A1000880F662331F08F5F0E94E40C883451F404
:101A200004C00E94E40C803229F484E98093BC0055
:101A300080E001C081E00F90DF91CF911F91089568
:101A4000CF93DF93C82FD62F60E00E94F30C88233A
:101A500091F08D2F0E94E40C882369F084E9809333
:101A6000BC0061E08C2F0E94F30C882321F0DF91F1
:101A7000CF910C94C40C80E0DF91CF910895CF9367
:101A8000DF93D62FC42F60E00E94F30C811102C0B7
:101A900080E00EC08D2F0E94E40C8823C9F38C2FA8
:101AA0000E94E40C8823A1F384E98093BC0081E0C8
:101AB000DF91CF910895CF93DF9300D01F92CDB7E0
:101AC000DEB74B836A8389830E94B30C94EA9093B8
:101AD000BC0089816A814B819091BC0097FFFCCF4B
:101AE00090E59093BB0094E89093BC009091BC006B
:101AF00097FFFCCF9091B900987F903229F484E948
:101B00008093BC0080E029C091E09093BB0094E8F2
:101B10009093BC009091BC0097FFFCCF8093BB00DA
:101B200084E88093BC008091BC0087FFFCCF609369
:101B3000BB0084E88093BC008091BC0087FFFCCF91
:101B40004093BB0084E88093BC008091BC0087FF79
:101B5000FCCF84E98093BC0081E00F900F900F9040
:101B6000DF91CF91089524EA2093BC002091BC001E
:101B700027FFFCCF21E52093BB0024E82093BC0085
:101B80002091BC0027FFFCCF2091B900287F28348A
:101B9000A9F024EC2093BC002091BC0027FFFCCFCF
:101BA0002091BB0026130AC0FC0120E030E077271B
:101BB00067FD70956150710944EC0EC084E9809313
:101BC000BC0080E008955091BC0057FFFCCF5091BD
:101BD000BB0051932F5F3F4F261737071CF44093EC
:101BE000BC00F1CF44E84093BC004091BC0047FFEB
:101BF000FCCF4091BB00FC01E20FF31F408384E95E
:101C00008093BC0081E00895F89494EA9093BC001E
:101C10009091BC0097FFFCCF90E59093BB0094E8B7
:101C20009093BC009091BC0097FFFCCF9091B900BD
:101C3000987F903231F484E98093BC00789480E0FE
:101C4000089593E09093BB0094E89093BC0090912A
:101C5000BC0097FFFCCF8093BB0084E88093BC005E
:101C60008091BC0087FFFCCFFB01552747FD5095B5
:101C700024E8CF01861B970B8417950754F48191B4
:101C80008093BB002093BC008091BC0087FFFCCFF9
:101C9000F0CF84E98093BC00789481E0089520E03F
:101CA00030E08091BC0087FD06C02F5F3F4F293E8A
:101CB00083E03807B1F781E0283E334009F480E043
:101CC00008958093BB0084E88093BC000E944F0E6F
:101CD000882319F08091B900887F0895CF93C82F89
:101CE00084EA8093BC000E944F0E882361F08C2F01
:101CF000880F0E94610E803229F484E98093BC0031
:101D000080E001C081E0CF9108950E94B30C88E586
:101D10000E946E0E811102C080E0089580E30E944F
:101D2000610E8823C9F381E00E94610E8823A1F32C
:101D300084E98093BC008FE39CE90197F1F700C030
:101D4000000088E50E946E0E882331F380E00E9437
:101D5000610E882309F380E00E94610E8823E1F27E
:101D600080E00E94610E8823B9F280E00E94610E3B
:101D7000882391F280E00E94610E882369F280E05E
:101D80000E94610E882341F280E00E94610E882348
:101D900019F280E90E94610E882309F4BDCF84E91D
:101DA0008093BC008FE39CE90197F1F700C000002D
:101DB00088E50E946E0E882309F4AECF87E00E946A
:101DC000610E882309F4A8CF80E00E94610E882369
:101DD00009F4A2CF81E40E94610E882309F49CCF0C
:101DE00084E98093BC008FE39CE90197F1F700C080
:101DF000000088E50E946E0E882309F48DCF8AE1E9
:101E00000E94610E882309F487CF80E40E94610E4E
:101E1000882309F481CF80E00E94610E882309F4B1
:101E20007BCF84E98093BC008FE39CE90197F1F7B5
:101E300000C0000088E50E946E0E882309F46CCF74
:101E400083E30E94610E882309F466CF83E00E9439
:101E5000610E882309F460CF84E98093BC008FE38E
:101E60009CE90197F1F700C0000088E50E946E0E22
:101E7000882309F451CF80E30E94610E882309F47E
:101E80004BCF88E00E94610E882309F445CF84E996
:101E90008093BC008FE39CE90197F1F700C000003C
:101EA00081E00895CF93C82F84EA8093BC000E94FC
:101EB0004F0E882369F08C2F880F8F5F0E94610E70
:101EC000883429F484E98093BC0080E001C081E07B
:101ED000CF910895EF92FF920F931F93CF93DF93CB
:101EE000CDB7DEB760970FB6F894DEBF0FBECDBF9B
:101EF0007C018E010F5F1F4F80E1F80111928A95DE
:101F0000E9F788E50E946E0E811102C080E05EC094
:101F100086E30E94610E8823C9F384E98093BC00A4
:101F2000F5E8FA95F1F7000088E50E94520F882342
:101F300069F3F8019E01205F3F4F94EC9093BC0041
:101F40008091BC0087FFFCCF8091BB008193E2179A
:101F5000F307A1F784E88093BC008091BC0087FF61
:101F6000FCCF8091BB00888B84E98093BC00DE01AC
:101F7000149687016C91762F7073AD014250510910
:101F8000FA01808190E0F0E17F9F800D911D112486
:101F9000F80191838083762F707C4F5F5F4FFA0149
:101FA000808190E0F4E07F9F800D911D1124F80165
:101FB000938382836F70862F90E09583848313963A
:101FC0000A5F1F4FA217B307A9F681E060960FB60C
:101FD000F894DEBF0FBECDBFDF91CF911F910F915F
:101FE000FF90EF90089584E98093BC00089580915C
:101FF000E80080FFFCCF089581E08093D70080EA5D
:102000008093D80082E189BD09B400FEFDCF80E94C
:102010008093D8001092E0001092E8011092E50140
:102020008CE08093E200789408958091E80108950F
:102030009FB7F8948091E801882339F083E080937A
:10204000E9008091E80085FD03C09FBF8FEF0895F0
:102050008091F1002091E80025FD03C02BE620933C
:10206000E8009FBF08959FB7F8948091E801882306
:1020700031F083E08093E9008091F20001C080E0BC
:102080009FBF08958091E801882371F08FB7F8947D
:1020900093E09093E9002BE69091E80095FF03C050
:1020A0002093E800F9CF8FBF08959091E80199231C
:1020B00071F09FB7F89424E02093E9002091E601A5
:1020C000222349F02091E80025FD03C09FBF8FEF38
:1020D00008951092E6012091E400275E34E04091DB
:1020E000E80045FD12C09FBF9091E400921304C028
:1020F00081E08093E601EBCF9091E801992339F3D9
:102100009FB7F8943093E900EACF8093F100809173
:10211000E80085FD03C08AE38093E80085E08093B2
:10212000E7019FBF80E008959091E8019923D1F0E5
:102130009FB7F89424E02093E9002091E80025FD62
:1021400002C09FBF0FC08093F1008091E80085FD21
:1021500003C08AE38093E80085E08093E7019FBF96
:1021600080E008958FEF0895EF92FF921F93CF9331
:10217000DF937C01CB012091E801222371F0AFB7FE
:10218000F89424E02093E9002091E601222349F00D
:102190002091E80025FD03C0AFBF8FEF42C210922F
:1021A000E601B4E0C0E4DAE315E0009709F437C2D1
:1021B0002091E400275E3091E80035FD12C0AFBFEA
:1021C0003091E400321304C081E08093E601E5CF52
:1021D0003091E801332309F3AFB7F894B093E900E5
:1021E000EACF2091F2004C2F421B242F30E08217BF
:1021F000930708F4482F841B910950E0413451059E
:1022000008F0FDC1405A5F4FFA010C94D01CF70151
:1022100020812093F10097012F5F3F4F7901F70153
:1022200020812093F10097012F5F3F4F7901F70143
:1022300020812093F10097012F5F3F4F7901F70133
:1022400020812093F10097012F5F3F4F7901F70123
:1022500020812093F10097012F5F3F4F7901F70113
:1022600020812093F10097012F5F3F4F7901F70103
:1022700020812093F10097012F5F3F4F7901F701F3
:1022800020812093F10097012F5F3F4F7901F701E3
:1022900020812093F10097012F5F3F4F7901F701D3
:1022A00020812093F10097012F5F3F4F7901F701C3
:1022B00020812093F10097012F5F3F4F7901F701B3
:1022C00020812093F10097012F5F3F4F7901F701A3
:1022D00020812093F10097012F5F3F4F7901F70193
:1022E00020812093F10097012F5F3F4F7901F70183
:1022F00020812093F10097012F5F3F4F7901F70173
:1023000020812093F10097012F5F3F4F7901F70162
:1023100020812093F10097012F5F3F4F7901F70152
:1023200020812093F10097012F5F3F4F7901F70142
:1023300020812093F10097012F5F3F4F7901F70132
:1023400020812093F10097012F5F3F4F7901F70122
:1023500020812093F10097012F5F3F4F7901F70112
:1023600020812093F10097012F5F3F4F7901F70102
:1023700020812093F10097012F5F3F4F7901F701F2
:1023800020812093F10097012F5F3F4F7901F701E2
:1023900020812093F10097012F5F3F4F7901F701D2
:1023A00020812093F10097012F5F3F4F7901F701C2
:1023B00020812093F10097012F5F3F4F7901F701B2
:1023C00020812093F10097012F5F3F4F7901F701A2
:1023D00020812093F10097012F5F3F4F7901F70192
:1023E00020812093F10097012F5F3F4F7901F70182
:1023F00020812093F10097012F5F3F4F7901F70172
:1024000020812093F10097012F5F3F4F7901F70161
:1024100020812093F10097012F5F3F4F7901F70151
:1024200020812093F10097012F5F3F4F7901F70141
:1024300020812093F10097012F5F3F4F7901F70131
:1024400020812093F10097012F5F3F4F7901F70121
:1024500020812093F10097012F5F3F4F7901F70111
:1024600020812093F10097012F5F3F4F7901F70101
:1024700020812093F10097012F5F3F4F7901F701F1
:1024800020812093F10097012F5F3F4F7901F701E1
:1024900020812093F10097012F5F3F4F7901F701D1
:1024A00020812093F10097012F5F3F4F7901F701C1
:1024B00020812093F10097012F5F3F4F7901F701B1
:1024C00020812093F10097012F5F3F4F7901F701A1
:1024D00020812093F10097012F5F3F4F7901F70191
:1024E00020812093F10097012F5F3F4F7901F70181
:1024F00020812093F10097012F5F3F4F7901F70171
:1025000020812093F10097012F5F3F4F7901F70160
:1025100020812093F10097012F5F3F4F7901F70150
:1025200020812093F10097012F5F3F4F7901F70140
:1025300020812093F10097012F5F3F4F7901F70130
:1025400020812093F10097012F5F3F4F7901F70120
:1025500020812093F10097012F5F3F4F7901F70110
:1025600020812093F10097012F5F3F4F7901F70100
:1025700020812093F10097012F5F3F4F7901F701F0
:1025800020812093F10097012F5F3F4F7901F701E0
:1025900020812093F10097012F5F3F4F7901F701D0
:1025A00020812093F10097012F5F3F4F7901F701C0
:1025B00020812093F10097012F5F3F4F7901F701B0
:1025C00020812093F10097012F5F3F4F7901F701A0
:1025D00020812093F10097012F5F3F4F7901F70190
:1025E00020812093F10097012F5F3F4F7901F70180
:1025F00020812093F10097012F5F3F4F7901F70170
:1026000020812093F10097012F5F3F4F79012091A6
:10261000E80025FFD093E8001093E701C6CDAFBFD7
:1026200080E0DF91CF911F91FF90EF9008958FB7D9
:10263000F8949091E701992341F094E09093E90098
:102640009AE39093E8001092E7018FBF089580917C
:102650005301089580915401089580915501089582
:102660008091E50108959FB7F8942091E801222315
:1026700039F022E02093E9003091E80035FD03C0F5
:102680009FBF8FEF089531EA3093F10030E230932D
:10269000F1001092F1001092F1001092F1001092EE
:1026A000F1002093F1001092F1008093F10010925C
:1026B000F1008AE38093E8009FBF80E008951F92B5
:1026C0000F920FB60F9211248F939F938091E10088
:1026D0001092E10083FF11C01092E90091E0909305
:1026E000EB001092EC0092E19093ED0098E0909353
:1026F000F0001092E8011092E50182FF13C0809172
:10270000E801882379F08091E701882359F081500E
:102710008093E701811106C084E08093E9008AE399
:102720008093E8009F918F910F900FBE0F901F90A4
:1027300018951F920F920FB60F921124EF92FF92ED
:102740000F931F932F933F934F935F936F937F93B9
:102750008F939F93AF93BF93EF93FF93CF93DF93A9
:102760001F92CDB7DEB71092E9008091E80083FF99
:1027700014C19091F1008091F1003091F10020910D
:10278000F100E32EF12CF22A0091F1002091F100EA
:1027900010E0122B2091F1006091F10032EF3093A4
:1027A000E800863009F046C036E086E991E0FC0199
:1027B000459154914E155F0539F4FC0132964591CF
:1027C00054914017510721F00796315081F7E5C029
:1027D000FC01349645915491FC013696849130E089
:1027E000362B2F3F310519F010F02FEF30E028176E
:1027F00008F4822F3EEF9091E800292F2570D9F33D
:1028000092FDCEC0982F813108F090E1FA01292F76
:10281000222331F064916093F10021503196F8CF7A
:10282000490F511D891B3093E8008111E4CF90318D
:1028300011F3B6C0853051F48EEF8093E8000E940A
:10284000F70F8E2D80688093E300AAC0893059F578
:10285000911180C0E092E8011092E5011092E70129
:102860008EEF8093E80041E08FE392E04093E9002F
:102870009C012F5F3F4FFC0154915093EB00552377
:1028800059F0F90124912093EC009C012D5F3F4FFA
:10289000319684918093ED004F5F453011F0C9016E
:1028A000E5CF8EE175C0883051F4903809F052C000
:1028B0000E94F70F8091E8018093F10047C08132B8
:1028C00079F4913A09F046C00E94F70FEFE4F1E085
:1028D00081918093F10081E0E635F807C9F736C0B1
:1028E000803299F49132B1F58091E80082FFFCCFFB
:1028F000EFE4F1E08091F100819381E0E635F807A3
:10290000C9F78BEF8093E80021C0823241F4913205
:1029100009F043C0E092E5010E94F70F17C0811152
:1029200019C099830E94F70F9981923851F400934E
:10293000E9008091EB0085FB882780F91092E9007F
:1029400001C080E08093F1001092F1008EEF80933F
:10295000E80026C0282F2D7F2130F9F49230E9F4C9
:10296000EF28D9F40F779FEF900F9430B0F49EEFDB
:102970009093E8000093E900833079F089E1809337
:10298000EB0081E090E0002E01C0880F0A94EAF786
:102990008093EA001092EA0003C081E28093EB008A
:1029A0000F90DF91CF91FF91EF91BF91AF919F91E8
:1029B0008F917F916F915F914F913F912F911F91D7
:1029C0000F91FF90EF900F900FBE0F901F901895F2
:1029D0001F93CF93DF93EC01FE011491112351F06B
:1029E0001A3019F48DE00E945510812F0E94551065
:1029F0002196F2CFDF91CF911F9108958A3010F484
:102A000090E301C097E3890F0C945510CF93C82F22
:102A100082958F700E94FE148C2F8F70CF910C9432
:102A2000FE14CF93C82F892F0E9406158C2FCF91AB
:102A30000C9406150C940615EF92FF920F931F93BA
:102A4000CF93DF93CDB7DEB727970FB6F894DEBFED
:102A50000FBECDBF8E010F5F1F4F27E0F80111920F
:102A60002A95E9F74AE0B8010E94D61C7E01F8E0F9
:102A7000EF0EF11CF80181918F0181110E94551018
:102A80000E151F05B9F727960FB6F894DEBF0FBED7
:102A9000CDBFDF91CF911F910F91FF90EF900895DF
:102AA000EF92FF920F931F93CF93DF9300D000D04C
:102AB00000D0CDB7DEB78E010F5F1F4F26E0F801C3
:102AC00011922A95E9F74AE0B8010E94121D7E0191
:102AD000F6E0EF0EF11CF80181918F0181110E9447
:102AE00055100E151F05B9F726960FB6F894DEBFE0
:102AF0000FBECDBFDF91CF911F910F91FF90EF904F
:102B00000895EF92FF920F931F93CF93DF93CDB76A
:102B1000DEB72B970FB6F894DEBF0FBECDBF8E0188
:102B20000F5F1F4F2BE0F80111922A95E9F72AE079
:102B3000A8010E94E11C7E01FCE0EF0EF11CF801EF
:102B400081918F0181110E9455100E151F05B9F753
:102B50002B960FB6F894DEBF0FBECDBFDF91CF919D
:102B60001F910F91FF90EF900895EF92FF920F93B6
:102B70001F93CF93DF93CDB7DEB72B970FB6F894A3
:102B8000DEBF0FBECDBF8E010F5F1F4F2BE0F801E0
:102B900011922A95E9F72AE0A8010E94F01C7E0113
:102BA000FBE0EF0EF11CF80181918F0181110E9471
:102BB00055100E151F05B9F72B960FB6F894DEBF0A
:102BC0000FBECDBFDF91CF911F910F91FF90EF907E
:102BD000089548E365E00E943F0D91E0811101C036
:102BE00090E0892F08951F93CF93DF93D82FC62F9E
:102BF000142F0E94200DC23058F4E1E0F0E0012EC5
:102C000001C0EE0F0A94EAF74E2F409548230DC0FD
:102C10009EEE9C0F923078F421E030E0012E01C04E
:102C2000220F0A94EAF7482F422B6C2F8D2F0E9417
:102C30003F0D81E001C080E0DF91CF911F910895A9
:102C40001F93CF93DF93D82FC62F142F0E94200DF0
:102C50009EEE9C0F923058F4E1E0F0E0012E01C0AE
:102C6000EE0F0A94EAF74E2F409548230BC0C2306E
:102C700078F421E030E0012E01C0220F0A94EAF737
:102C8000482F422B6C2F8D2F0E943F0D81E001C0F9
:102C900080E0DF91CF911F910895CF93DF931F9232
:102CA000CDB7DEB749830E94200D90E0498102C074
:102CB000959587954A95E2F781700F90DF91CF91B6
:102CC00008950E945501C1E2D1E001E011E029918F
:102CD00039914991599160E070E080E894E40E9454
:102CE0007A199B01AC0160E070E080E894E40E94F6
:102CF000481AD8016D937D938D939D938D01B1E01A
:102D0000C134DB0721F7E2E02E2E312CC4E1D0E004
:102D10000CEE1FEFF2E5CF2EF8EBDF2EF6E9EF2EEB
:102D2000F0E4FF2E80E00E94FA080E94151088232C
:102D300009F43FC060919F017091A0018091A101B1
:102D40009091A2010E94B01ACB010E941C1584E947
:102D500091E00E94E8146091A3017091A401809118
:102D6000A5019091A6010E94B01ACB010E941C15EA
:102D700082E991E00E94E81420E030E04EEF52E456
:102D800060919B0170919C0180919D0190919E01A9
:102D90000E94FC1B2AE939E949EC50E40E94481AD8
:102DA0000E94B01ACB010E941C1580E991E00E949C
:102DB000E814E1E0E093560189EB91E00E946A0F8C
:102DC00089EB91E00E9446028093990160919F01F6
:102DD0007091A0018091A1019091A2010E94B01A6E
:102DE0006093D1016091A3017091A4018091A5012C
:102DF0009091A6010E94B01A6093D20120E030E0C9
:102E00004EEF52E460919B0170919C0180919D0175
:102E100090919E010E94FC1B2AE939E949EC50E49B
:102E20000E94481A0E94B01A6093D3014AE061EDF3
:102E300071E088E10E94040E1092560180914D01CC
:102E400090914E018330910509F467C13CF48130C3
:102E5000910561F0029709F486C047C2843091055C
:102E600009F488C108970CF45DCF3FC21092940119
:102E700010929301109292011092910180E090E0E3
:102E80000E94440180919101909192010E94E20878
:102E900080E00E94FA0880E00E94FF084B9B2AC055
:102EA00080910001882331F10E945101FFEF21EE52
:102EB00084E0F15020408040E1F700C0000080E055
:102EC0000E94FA0880E00E94FF08A2E8B0E0B093F8
:102ED0004201A0934101C0924301D0924401E0928B
:102EE0004501F0924601E1E0F0E0F0935801E093F3
:102EF00057012DC04B992DC080910001882349F1C5
:102F00000E945301FFEF21EE84E0F1502040804009
:102F1000E1F700C0000080E00E94FF0880E00E940E
:102F2000FA08AEE7BFEFB0934201A093410183ECF2
:102F300095EFA8ECBFE38093430190934401A093E5
:102F40004501B093460130925801209257011092EA
:102F500000019FEFA1EEB4E09150A040B040E1F736
:102F600000C0000000C180E00E94FA080E945301E6
:102F70008091890190918A01892B09F043C081E0F9
:102F800090E090938A018093890120E030E0A901CC
:102F900060919F017091A0018091A1019091A20187
:102FA0000E94411A87FF0DC0C0929501D0929601F0
:102FB000E0929701F092980180E090E0A8ECB2E4F2
:102FC00010C083EC95EFA8ECBFE38093950190933C
:102FD0009601A0939701B093980180E090E0A8EC4F
:102FE000B2EC80938D0190938E01A0938F01B093EA
:102FF00090019FEFA1EEB4E09150A040B040E1F706
:1030000000C0000060919F017091A0018091A1011A
:103010009091A2010E94B01A5B0177FF04C0AA241C
:10302000BB24A61AB70A60918D0170918E01809120
:103030008F01909190010E94B01A9B0177FF04C00C
:1030400022273327261B370BA216B3060CF04DC1DF
:103050002BE734E14EE25EE36091950170919601B9
:1030600080919701909198010E947B199B01AC017E
:1030700060919B0170919C0180919D0190919E01B6
:103080000E94F11B181694F4D0939401C0939301FD
:10309000109392010093910184E190E00E94D30883
:1030A00080919101909192010E94E2082BE734E116
:1030B0004EE25EE3609195017091960180919701D7
:1030C000909198010E947A199B01AC0160919B013B
:1030D00070919C0180919D0190919E010E94411AE6
:1030E00087FF12C01093940100939301D093920133
:1030F000C09391018CEE9FEF0E9444018091910159
:10310000909192010E94E2084090950150909601A2
:103110006090970170909801AFC00E94510180E0CB
:103120000E94FF080E94D00780915D0190915E018E
:10313000909392018093910180915B0190915C0149
:1031400090939401809393010E94D3088091910100
:10315000909192010E94E2088091590190915A0148
:10316000892B09F4DFCDE4E0F0E0F0934E01E09329
:103170004D01D8CDA0904101B090420160919F01D6
:103180007091A0018091A1019091A2010E94B01ABA
:103190009B0177FF04C022273327261B370BB7FE7E
:1031A00003C0B194A194B1082A153B050CF0BACD27
:1031B0002BE734E14EE25EE36091430170914401FC
:1031C00080914501909146010E947B199B01AC01C1
:1031D00060919B0170919C0180919D0190919E0155
:1031E0000E94F11B181694F4D0939401C09393019C
:1031F000109392010093910184E190E00E94D30822
:1032000080919101909192010E94E2082BE734E1B4
:103210004EE25EE36091430170914401809145016B
:10322000909146010E947A199B01AC0160919B012B
:1032300070919C0180919D0190919E010E94411A84
:1032400087FF12C01093940100939301D0939201D1
:10325000C09391018CEE9FEF0E94440180919101F7
:10326000909192010E94E2084090430150904401E5
:10327000609045017090460180909B0190909C0168
:10328000A0909D01B0909E012BE734E14EE25EE3F9
:10329000C301B2010E947A19A50194010E94411A4A
:1032A00087FF40CD2BE734E14EE25EE3C301B2017C
:1032B0000E947B199B01AC01C501B4010E94411A17
:1032C00087FF30CDD0939401C0939301D0939201A6
:1032D000C093910184E190E00E94D3088091910114
:1032E000909192010E94E2081DCD30924E012092F1
:1032F0004D0118CD5058BB27AA270ED027C2F0D1B8
:1033000030F0F5D120F031F49F3F11F41EF4C0C12C
:103310000EF4E095E7FBB6C1E92F3AD280F3BA1775
:10332000620773078407950718F071F49EF552C27F
:103330000EF4E0950B2EBA2FA02D0B01B9019001D0
:103340000C01CA01A0011124FF27591B99F0593F14
:1033500050F4503E68F11A16F040A22F232F342F5C
:103360004427585FF3CF469537952795A795F040AA
:103370005395C9F77EF41F16BA0B620B730B840BBF
:10338000BAF09150A1F0FF0FBB1F661F771F881F77
:10339000C2F70EC0BA0F621F731F841F48F48795CF
:1033A00077956795B795F7959E3F08F0B3CF9395BE
:1033B000880F08F09927EE0F97958795089590D17B
:1033C00058F080E891E009F49EEF91D128F040E8B0
:1033D00051E059F45EEF09C05BC1FCC1E92FE07810
:1033E000D7D168F3092E052AC1F3261737074807F6
:1033F000590738F00E2E07F8E02569F0E025E06463
:103400000AC0EF6307F8009407FADB01B9019D01D8
:10341000DC01CA01AD01EF934AD098D10AD05F9187
:10342000552331F02BED3FE049E450FD49EC63CFEB
:103430000895DF93DD27B92FBF7740E85FE31616C5
:10344000170648075B0710F4D92FCFD19F938F93AE
:103450007F936F937CD2E2E4F1E01DD177D12F917D
:103460003F914F915F91D4D1DD2349F09058A2EA6A
:103470002AED3FE049EC5FE3D0785D274DDFDF9137
:1034800065C1DCD008F481E0089539D1E3956FC1BE
:103490000CD05CC12CD140F023D130F021F45F3F3F
:1034A00019F0F0C0511197C1F3C072D198F399236C
:1034B000C9F35523B1F3951B550BBB27AA276217F8
:1034C0007307840738F09F5F5F4F220F331F441F3D
:1034D000AA1FA9F333D00E2E3AF0E0E830D0915075
:1034E0005040E695001CCAF729D0FE2F27D0660F62
:1034F000771F881FBB1F261737074807AB07B0E8A1
:1035000009F0BB0B802DBF01FF2793585F4F2AF0B6
:103510009E3F510568F0B6C05EC15F3FECF3983E38
:10352000DCF3869577956795B795F7959F5FC9F713
:10353000880F911D9695879597F90895E1E0660F9C
:10354000771F881FBB1F621773078407BA0720F015
:10355000621B730B840BBA0BEE1F88F7E09508957E
:1035600004D06894B11137C108951AD188F09F57DB
:1035700090F0B92F9927B751A0F0D1F0660F771FBF
:10358000881F991F1AF0BA95C9F712C0B13081F09F
:1035900021D1B1E008951EC1672F782F8827B85F29
:1035A00039F0B93FCCF3869577956795B395D9F700
:1035B0003EF490958095709561957F4F8F4F9F4F0A
:1035C0000895E89409C097FB3EF490958095709516
:1035D00061957F4F8F4F9F4F9923A9F0F92F96E95F
:1035E000BB279395F695879577956795B795F111D4
:1035F000F8CFFAF4BB0F11F460FF1BC06F5F7F4F71
:103600008F4F9F4F16C0882311F096E911C0772382
:1036100021F09EE8872F762F05C0662371F096E88B
:10362000862F70E060E02AF09A95660F771F881F5A
:10363000DAF7880F9695879597F90895990F0008FE
:10364000550FAA0BE0E8FEEF16161706E807F90774
:10365000C0F012161306E407F50798F0621B730B0F
:10366000840B950B39F40A2661F0232B242B252B90
:1036700021F408950A2609F4A140A6958FEF811D33
:10368000811D089597F99F6780E870E060E00895D4
:103690009FEF80EC0895DF93CF931F930F93FF92DA
:1036A000EF92DF927B018C01689405C0DA2EEF0166
:1036B000AFD0FE01E894A5912591359145915591A2
:1036C000AEF3EF0129DEFE019701A801DA9479F744
:1036D000DF90EF90FF900F911F91CF91DF910895B0
:1036E00000240A94161617061806090608950024E1
:1036F0000A9412161306140605060895C9CF50D071
:10370000E8F3E894E0E0BB279F57F0F02AED3FE0B4
:1037100049EC06C0EE0FBB0F661F771F881F28F00D
:10372000B23A62077307840728F0B25A620B730B30
:10373000840BE3959A9572F7803830F49A95BB0F15
:10374000661F771F881FD2F7904806C1092E039481
:10375000000C11F4882352F0BB0F40F4BF2B11F47E
:1037600060FF04C06F5F7F4F8F4F9F4F0895EF93AF
:10377000E0FF06C0A2EA2AED3FE049EC5FEBCCDDBA
:10378000E5DF0F90039401FC9058EFE6F1E0F7C0FD
:1037900057FD9058440F551F59F05F3F71F0479502
:1037A000880F97FB991F61F09F3F79F087950895E7
:1037B000121613061406551FF2CF4695F1DF08C006
:1037C000161617061806991FF1CF86957105610523
:1037D00008940895E894BB2766277727CB0197F9CB
:1037E00008952CDF08F48FEF08959B01AC0160E091
:1037F00070E080E89FE34CCE0BD0A8CF71DF28F0BB
:1038000076DF18F0952309F03DCF42CF1124E3CFA6
:10381000BFDFA0F3959FD1F3950F50E0551F629F36
:10382000F001729FBB27F00DB11D639FAA27F00D19
:10383000B11DAA1F649F6627B00DA11D661F829F40
:103840002227B00DA11D621F739FB00DA11D621F25
:10385000839FA00D611D221F749F3327A00D611D42
:10386000231F849F600D211D822F762F6A2F112424
:103870009F5750408AF0E1F088234AF0EE0FFF1F77
:10388000BB1F661F771F881F91505040A9F79E3FAE
:10389000510570F0F7CE9FCF5F3FECF3983EDCF31D
:1038A000869577956795B795F795E7959F5FC1F7EB
:1038B000FE2B880F911D9695879597F908959F93F4
:1038C0001EDF0F9007FCEE5F52CF11F40EF4E0CE36
:1038D00041C066DFD0F39923D9F3CEF39F57550B40
:1038E00087FF46D00024A0E640EA90018058569514
:1038F000979528F4805C660F771F881F20F02617A5
:103900003707480730F4621B730B840B20293129D9
:103910004A2BA69517940794202531254A2758F756
:10392000660F771F881F20F026173707480730F4E7
:10393000620B730B840B200D311D411DA09581F787
:10394000B901842F9158880F9695879508959B010A
:10395000AC0152CF9F3F31F0915020F4879577957D
:103960006795B795880F911D9695879597F9089556
:1039700091505040660F771F881FD2F708959F938C
:103980008F937F936F93FF93EF939B01AC0134DF91
:10399000EF91FF9180DE2F913F914F915F912CCF5E
:1039A000EE0FFF1F0590F491E02D0994BB274A30DC
:1039B00031F4992322F4BDE2909581959F4F0C94A8
:1039C000131DBB272A3051F4992342F4BDE2909590
:1039D0008095709561957F4F8F4F9F4F0C94F11C90
:1039E000BB27FA01A62F6217710581059105330BDC
:1039F00030FB66F0AA27660F771F881F991FAA1F42
:103A0000A21710F0A21B63953850A9F7A05DAA3346
:103A100008F0A95DA19336F7B111B1931082CA01E4
:103A20000C942C1DBB27FB015527AA27880F991F33
:103A3000AA1FA41710F0A41B83955051B9F7A05DDD
:103A4000AA3308F0A95DA193009779F7B111B1935A
:103A50001192CB010C942C1DDC01FC01672F71919C
:103A60007723E1F7329704C07C916D937083629164
:0C3A7000AE17BF07C8F30895F894FFCF0D
:103A7C00010000803F0000803F0000803F0000807C
:103A8C003F0000803F0000803F0000803F0000802E
:103A9C003F00003E430000AF430000AF4300008CEA
:103AAC00430000C84300007A430000BE4300003EC0
:103ABC00437EFFC3F5C83F02000AD7A33E010000B6
:063ACC00E100000000080B
:00000001FF
