S017000052465F4461746153747265616D65722E7372656359
S11300000C94B3000C94D0000C94D0000C94E20037
S11300100C94D0000C94D0000C94D0000C94D0001C
S11300200C94D0000C94D0000C9479020C94B70278
S11300300C94D0000C94D0000C94D0000C94D000FC
S11300400C94D0000C94D0000C94D0000C94D000EC
S11300500C94D0000C94D0000C94D0000C94D000DC
S11300600C94D0000C94D0000C94D0000C94D000CC
S11300700C94D0000C94D0000C94D0000C94D000BC
S11300800C94D0000C94D0000C94D0000C94D000AC
S11300900C94D0000C94D0000C94D0000C94D0009C
S11300A00C94D0000C94D0000C94D0000A000900E9
S11300B0090000010000490112000200000601438A
S11300C00003000002010401030904EE001202030C
S11300D00904E6000603030904DC000808033400ED
S11300E031003000000006034D003200000012030E
S11300F04A002E0020004600690065006E0065007D
S113010000000403090409024300020100C032098B
S1130110040000010202010005240010010524016D
S113012001010424020605240600010705820310C8
S1130130004009040100020A000000070503024010
S113014000000705840240000012010002020000C2
S113015010C0167A040001010203010001C112015A
S113016080360181360011241FBECFEFDAE0DEBFF6
S1130170CDBF11E0A0E0B1E0EAE9F9E002C00590EA
S11301800D92A830B107D9F721E0A8E0B1E001C091
S11301901D92A231B207E1F70E94D2000C94CB0465
S11301A00C940000E1E6F0E080E8808310820E9475
S11301B005020E94360143E068E182E00E944701A3
S11301C07894FFCF1F920F920FB60F9211242F93A2
S11301D03F934F935F936F937F938F939F93AF93CB
S11301E0BF93EF93FF9363E088E091E00E949D0149
S11301F0809108018093100180910901809311017D
S113020080910A0180930F016091100170E080E0F9
S113021090E00E94560480EB90E00E943C046091C0
S1130220110170E080E090E00E9456048EEA90E0B4
S11302300E943C0460910F0170E080E090E00E9415
S113024056048CEA90E00E943C04FF91EF91BF9128
S1130250AF919F918F917F916F915F914F913F915A
S11302602F910F900FBE0F901F901895589A599A7E
S11302705A9A8CE08093B800E9E6F0E080818062CD
S1130280808380818F7E8083EA9A789408951F9377
S1130290CF93DF93182FD62FC42F0E94360194EAF0
S11302A09093BC00ECEBF0E090819923ECF790E59F
S11302B09093BB0094E89093BC00ECEBF0E0908149
S11302C09923ECF79091B900987F903229F484E94E
S11302D08093BC0080E02DC081E08093BB0084E863
S11302E08093BC00ECEBF0E090819923ECF7109341
S11302F0BB0084E88093BC00ECEBF0E080818823B1
S1130300ECF7D093BB0084E88093BC00ECEBF0E006
S113031080818823ECF7C093BB0084E88093BC0001
S1130320ECEBF0E080818823ECF784E98093BC0057
S113033081E0DF91CF911F9108951F93CF93DF93B5
S113034024EA2093BC00ECEBF0E020812223ECF7BC
S113035021E52093BB0024E82093BC00ECEBF0E003
S113036020812223ECF72091B900287F283429F436
S113037084E98093BC0080E044C024EC2093BC005A
S1130380ECEBF0E020812223ECF71091BB00161374
S11303900AC0412F50E0415051091416150644F08B
S11303A020E030E01CC084E98093BC0080E029C0D8
S11303B0DC0120E030E0ECEBF0E074ECCBEBD0E0DF
S11303C0708360816623ECF768816D932F5F3F4FE4
S11303D024173507ACF3212F30E02150310944E8CC
S11303E04093BC00ECEBF0E040814423ECF74091F7
S11303F0BB00FC01E20FF31F408384E98093BC003F
S113040081E0DF91CF911F91089581E08093D7001F
S113041080EA8093D80082E189BD09B400FEFDCF53
S113042080E98093D8001092E00010920E0110929F
S11304300B018CE08093E20078940895CF93DF93CE
S113044090910E01992309F44CC09FB7F89424E0CD
S11304502093E90020910C01222349F02091E80027
S113046025FD03C09FBF8FEF41C010920C01309156
S1130470E400375E2091E80025FD24C09FBF9091E1
S1130480E400931781F090910E01992361F1A9EE94
S1130490B0E044E0E8EEF0E0C4EED0E00DC09FBF71
S11304A09881931305C081E080930C018FEF1EC0E7
S11304B090910E019923C9F09FB7F8944C93208131
S11304C025FFEDCF8093F1008091E80085FD03C006
S11304D08AE38093E80085E080930D019FBF80E06C
S11304E005C08FEF03C08FEF01C08FEFDF91CF9175
S11304F008951F920F920FB60F9211248F939F931A
S1130500EF93FF93E1EEF0E08081108283FF11C04E
S11305101092E90091E09093EB001092EC0092E1CC
S11305209093ED0098E09093F00010920E011092D9
S11305300B0182FF13C080910E01882379F0809112
S11305400D01882359F0815080930D01811106C05B
S113055084E08093E9008AE38093E800FF91EF91BF
S11305609F918F910F900FBE0F901F9018951F921F
S11305700F920FB60F9211240F931F932F933F9353
S11305804F935F936F937F938F939F93AF93BF9397
S1130590CF93DF93EF93FF931092E9008091E800EB
S11305A083FF4EC1E1EFF0E0C08140812081808172
S11305B030E0382B8081508190E0BC01752BB081F4
S11305C0A08182EF8093E800463009F058C004C04F
S11305D081E28093EB003BC1C6E082EB90E0FC013A
S11305E0459154912417350711F0079623C0FC0157
S11305F03296459154916417750711F007961AC005
S1130600FC01349625913491FC01369654918B2F3C
S113061090E09A2B8F3F910519F010F08FEF90E046
S1130620851708F4582FA8EEB0E070E16EEFC1EF23
S1130630D0E003C0C15099F6CBCF8C91982F957020
S1130640E1F382FD04C1452F513108F0472F4423C3
S113065009F4FAC0F901842F94919883815031965A
S11306608111FACF8FEF840F90E00196280F391F84
S1130670541B6C935111E1CF4031F9F2E8C045307D
S113068061F48EEF8093E800E8EEF0E0808180FF73
S1130690FDCF20682093E300DAC0493009F036C06A
S11306A0C1115FC020930E0110920B0110920D0135
S11306B08EEF8093E80011E08BE591E0C9EED0E085
S11306C0ABEEB0E06CEE70E04DEE50E018839C01B0
S11306D02F5F3F4FFC0104910C93002361F0F9015B
S11306E02491FB0120839C012D5F3F4FFC01329636
S11306F08491FA0180831F5F153011F0C901E6CFA0
S1130700EAEEF0E08EE180831082A1C0483081F4EB
S1130710C03809F042C0E8EEF0E0808180FFFDCFF0
S113072080910E018093F1008EEF8093E8008FC0DA
S11307304132B9F4C13A09F040C0E8EEF0E08081FA
S113074080FFFDCFE0E0F1E087E091E0A1EFB0E0D1
S113075021912C93E817F907D9F78EEF8093E800DD
S113076076C04032D1F4C13209F043C0E8EEF0E083
S1130770808182FFFDCFE0E0F1E087E091E0A1EF2E
S1130780B0E02C912193E817F907D9F7E8EEF0E0EF
S11307908BEF80838EEF80835AC0423271F4C13272
S11307A009F04EC020930B01E8EEF0E0808180FF59
S11307B0FDCF8EEF8093E8004AC041111AC0E8EEE5
S11307C0F0E0808180FFFDCFC23851F4E9EEF0E023
S11307D060838091EB0085FB882780F9108201C03B
S11307E080E0E1EFF0E0808310828EEF8093E800F8
S11307F02EC0842F8D7F813019F5C23009F5232B4B
S1130800F9F46F778FEF860F8430D0F48EEF8093F6
S1130810E8006093E900433021F481E28093EB0027
S113082016C089E18093EB0081E090E002C0880F5C
S1130830991F6A95E2F7EAEEF0E08083108207C020
S113084081E28093EB0003C06C935111F6CEFF91CB
S1130850EF91DF91CF91BF91AF919F918F917F9154
S11308606F915F914F913F912F911F910F910F9035
S11308700FBE0F901F9018951F93CF93DF93EC0139
S11308802196FC011491112369F01A3019F48DE0BA
S11308900E941E02812F0E941E02FE0114912196C5
S11308A01111F3CFDF91CF911F910895EF92FF9231
S11308B00F931F93CF93DF93CDB7DEB72B970FB66C
S11308C0F894DEBF0FBECDBF8E010F5F1F4F2BE02C
S11308D0F80111922A95E9F72AE0A8010E948A04F6
S11308E07E01FCE0EF0EF11CF80181918F01811172
S11308F00E941E020E151F05B9F72B960FB6F89429
S1130900DEBF0FBECDBFDF91CF911F910F91FF903E
S1130910EF900895BB272A3051F4992342F4BDE2A5
S113092090958095709561957F4F8F4F9F4F0C9454
S11309309A04BB27FA01A62F621771058105910558
S1130940330B30FB66F0AA27660F771F881F991FA9
S1130950AA1FA21710F0A21B63953850A9F7A05D37
S1130960AA3308F0A95DA19336F7B111B1931082AF
S1130970CA010C94BB04DC01FC01672F719177233D
S1130980E1F7329704C07C916D9370836291AE1746
S10D0990BF07C8F30895F894FFCFE1
S10B099A00E100000000080068
S9030000FC
